{
  "_format": "hh-sol-artifact-1",
  "contractName": "BN256G2",
  "sourceName": "lib/bn254/BN256G2.sol",
  "abi": [
    {
      "inputs": [
        {
          "components": [
            {
              "internalType": "uint256",
              "name": "x0",
              "type": "uint256"
            },
            {
              "internalType": "uint256",
              "name": "x1",
              "type": "uint256"
            },
            {
              "internalType": "uint256",
              "name": "y0",
              "type": "uint256"
            },
            {
              "internalType": "uint256",
              "name": "y1",
              "type": "uint256"
            }
          ],
          "internalType": "struct BN254.G2Point",
          "name": "p1",
          "type": "tuple"
        },
        {
          "components": [
            {
              "internalType": "uint256",
              "name": "x0",
              "type": "uint256"
            },
            {
              "internalType": "uint256",
              "name": "x1",
              "type": "uint256"
            },
            {
              "internalType": "uint256",
              "name": "y0",
              "type": "uint256"
            },
            {
              "internalType": "uint256",
              "name": "y1",
              "type": "uint256"
            }
          ],
          "internalType": "struct BN254.G2Point",
          "name": "p2",
          "type": "tuple"
        }
      ],
      "name": "ECTwistAdd",
      "outputs": [
        {
          "components": [
            {
              "internalType": "uint256",
              "name": "x0",
              "type": "uint256"
            },
            {
              "internalType": "uint256",
              "name": "x1",
              "type": "uint256"
            },
            {
              "internalType": "uint256",
              "name": "y0",
              "type": "uint256"
            },
            {
              "internalType": "uint256",
              "name": "y1",
              "type": "uint256"
            }
          ],
          "internalType": "struct BN254.G2Point",
          "name": "",
          "type": "tuple"
        }
      ],
      "stateMutability": "view",
      "type": "function"
    },
    {
      "inputs": [
        {
          "internalType": "uint256",
          "name": "pt1xx",
          "type": "uint256"
        },
        {
          "internalType": "uint256",
          "name": "pt1xy",
          "type": "uint256"
        },
        {
          "internalType": "uint256",
          "name": "pt1yx",
          "type": "uint256"
        },
        {
          "internalType": "uint256",
          "name": "pt1yy",
          "type": "uint256"
        },
        {
          "internalType": "uint256",
          "name": "pt2xx",
          "type": "uint256"
        },
        {
          "internalType": "uint256",
          "name": "pt2xy",
          "type": "uint256"
        },
        {
          "internalType": "uint256",
          "name": "pt2yx",
          "type": "uint256"
        },
        {
          "internalType": "uint256",
          "name": "pt2yy",
          "type": "uint256"
        }
      ],
      "name": "ECTwistAdd",
      "outputs": [
        {
          "internalType": "uint256",
          "name": "",
          "type": "uint256"
        },
        {
          "internalType": "uint256",
          "name": "",
          "type": "uint256"
        },
        {
          "internalType": "uint256",
          "name": "",
          "type": "uint256"
        },
        {
          "internalType": "uint256",
          "name": "",
          "type": "uint256"
        }
      ],
      "stateMutability": "view",
      "type": "function"
    },
    {
      "inputs": [
        {
          "internalType": "uint256",
          "name": "s",
          "type": "uint256"
        },
        {
          "components": [
            {
              "internalType": "uint256",
              "name": "x0",
              "type": "uint256"
            },
            {
              "internalType": "uint256",
              "name": "x1",
              "type": "uint256"
            },
            {
              "internalType": "uint256",
              "name": "y0",
              "type": "uint256"
            },
            {
              "internalType": "uint256",
              "name": "y1",
              "type": "uint256"
            }
          ],
          "internalType": "struct BN254.G2Point",
          "name": "p",
          "type": "tuple"
        }
      ],
      "name": "ECTwistMul",
      "outputs": [
        {
          "components": [
            {
              "internalType": "uint256",
              "name": "x0",
              "type": "uint256"
            },
            {
              "internalType": "uint256",
              "name": "x1",
              "type": "uint256"
            },
            {
              "internalType": "uint256",
              "name": "y0",
              "type": "uint256"
            },
            {
              "internalType": "uint256",
              "name": "y1",
              "type": "uint256"
            }
          ],
          "internalType": "struct BN254.G2Point",
          "name": "",
          "type": "tuple"
        }
      ],
      "stateMutability": "view",
      "type": "function"
    },
    {
      "inputs": [
        {
          "internalType": "uint256",
          "name": "s",
          "type": "uint256"
        },
        {
          "internalType": "uint256",
          "name": "pt1xx",
          "type": "uint256"
        },
        {
          "internalType": "uint256",
          "name": "pt1xy",
          "type": "uint256"
        },
        {
          "internalType": "uint256",
          "name": "pt1yx",
          "type": "uint256"
        },
        {
          "internalType": "uint256",
          "name": "pt1yy",
          "type": "uint256"
        }
      ],
      "name": "ECTwistMul",
      "outputs": [
        {
          "internalType": "uint256",
          "name": "",
          "type": "uint256"
        },
        {
          "internalType": "uint256",
          "name": "",
          "type": "uint256"
        },
        {
          "internalType": "uint256",
          "name": "",
          "type": "uint256"
        },
        {
          "internalType": "uint256",
          "name": "",
          "type": "uint256"
        }
      ],
      "stateMutability": "view",
      "type": "function"
    },
    {
      "inputs": [
        {
          "internalType": "uint256",
          "name": "a0",
          "type": "uint256"
        },
        {
          "internalType": "uint256",
          "name": "a1",
          "type": "uint256"
        }
      ],
      "name": "FQ2Sqrt",
      "outputs": [
        {
          "internalType": "uint256",
          "name": "",
          "type": "uint256"
        },
        {
          "internalType": "uint256",
          "name": "",
          "type": "uint256"
        }
      ],
      "stateMutability": "view",
      "type": "function"
    },
    {
      "inputs": [
        {
          "internalType": "uint256",
          "name": "xx",
          "type": "uint256"
        },
        {
          "internalType": "uint256",
          "name": "xy",
          "type": "uint256"
        },
        {
          "internalType": "uint256",
          "name": "yx",
          "type": "uint256"
        },
        {
          "internalType": "uint256",
          "name": "yy",
          "type": "uint256"
        }
      ],
      "name": "_FQ2Mul",
      "outputs": [
        {
          "internalType": "uint256",
          "name": "",
          "type": "uint256"
        },
        {
          "internalType": "uint256",
          "name": "",
          "type": "uint256"
        }
      ],
      "stateMutability": "pure",
      "type": "function"
    }
  ],
  "bytecode": "0x60806040523461001e57604051611a30610024823930815050611a3090f35b600080fdfe6101a0604052600436101561001357600080fd5b60003560e01c806345123adc146100735780635063b4d21461006e57806361a931ec146100695780638767cdd014610064578063b73ab75d1461005f5763f7835b96036100cb57610336565b6102fb565b6102ba565b610269565b6101d6565b610181565b634e487b7160e01b600052604160045260246000fd5b90601f01601f1916810190811067ffffffffffffffff8211176100b057604052565b610078565b906100c96100c260405190565b928361008e565b565b600080fd5b9190916080818403126100cb5761010d6100ea60806100b5565b823581526020808401359082015260408084013590820152935060609182013590565b90830152565b9190610100838203126100cb576101379061012e81856100d0565b936080016100d0565b90565b9052565b805182526100c99190606090819061015b60208201516020860152565b61016a60408201516040860152565b0151910152565b6080810192916100c9919061013e565b6101a4610198610192366004610113565b90610650565b60405191829182610171565b0390f35b91906040838203126100cb57508135916020013590565b9081526040810192916100c99160200152565b0152565b6101ea6101e43660046101a8565b90610966565b906101a46101f760405190565b928392836101bf565b9190610100838203126100cb575081359160208101359160408201359160608101359160808201359160a08101359160c08201359160e0013590565b6101d26100c99461026260609498979561025b608086019a6000870152565b6020850152565b6040830152565b6101a461028961027a366004610200565b969590959491949392936103e4565b9061029694929460405190565b9485948561023c565b919060a0838203126100cb57610137908335936020016100d0565b6101a46101986102cb36600461029f565b906107df565b919060a0838203126100cb5750813591602081013591604082013591606081013591906080013590565b6101a461028961030c3660046102d1565b9392909261072e565b6080818303126100cb57803592602082013592506040820135916060013590565b6101ea610344366004610315565b92919091610847565b6101376101376101379290565b634e487b7160e01b600052600160045260246000fd5b1561037757565b61035a565b610137600061034d565b634e487b7160e01b600052603260045260246000fd5b9060068110156103ad576020020190565b610386565b610137600161034d565b610137600261034d565b610137600361034d565b610137600461034d565b610137600561034d565b9091929794979695966103f5600090565b506000936104028561034d565b83148061060a575b806105f9575b806105e8575b1561049f57505050508061042c6104459261034d565b8314908161048c575b81610479575b8161046957501590565b610450575b93929190565b61046461045f84868885610f50565b610370565b61044a565b610473915061034d565b84141590565b90506104848161034d565b86149061043b565b90506104978161034d565b871490610435565b6104af85939499979a969561034d565b8514806105d7575b806105c6575b806105b5575b610598579261050995926105119895926105909a98956104e861045f83838d88610f50565b6104f761045f89898989610f50565b610501600161034d565b98899361034d565b998a946111c1565b61052961052561051f61037c565b8361039c565b5190565b9061053861052561051f6103b2565b61054c6105256105466103bc565b8461039c565b61056061052561055a6103c6565b8561039c565b9161058a61052561057b6105256105756103d0565b8861039c565b956105846103da565b9061039c565b94610ffa565b929391929091565b97819750809996508361045f94965061044a955089929350610f50565b506105bf8361034d565b88146104c3565b506105d08361034d565b87146104bd565b506105e18361034d565b86146104b7565b506105f28561034d565b8214610416565b506106038561034d565b8114610410565b506106148561034d565b841461040a565b61013760806100b5565b61062d61061b565b60008082526020820181905260408201819052606082015290565b610137610625565b6106d46106b7610137926106db94610666610648565b50602082015191610675815190565b9061068c6040610686606084015190565b92015190565b60208401519161069a855190565b936106b160406106ab606089015190565b97015190565b966103e4565b9195926106cd6106c895929561061b565b978852565b6020870152565b6040850152565b6060830152565b156106e957565b60405162461bcd60e51b815260206004820152601860248201527f473220706f696e74206973206e6f74206f6e20637572766500000000000000006044820152606490fd5b91936105119361059095610740600090565b5061074b600161034d565b916000946107588661034d565b8114806107ce575b806107bd575b806107ac575b1561078c575050816107866107808661034d565b9561034d565b95611366565b909294610786906107a76107a287878787610f50565b6106e2565b61034d565b506107b68661034d565b851461076c565b506107c78661034d565b8214610766565b506107d88661034d565b8314610760565b6106d46106b7610137926106db946107f5610648565b508051602082015190610814606061080e604086015190565b94015190565b9361072e565b6101376000805160206119db83398151915261034d565b634e487b7160e01b600052601260045260246000fd5b929392919061085461081a565b9283156108935783838209841561089357846108749181898609906108c0565b9584156108935784910991831561089357839109908215610893570890565b610831565b634e487b7160e01b600052601160045260246000fd5b919082039182116108bb57565b610898565b906108cb90836108ae565b908215610893570890565b156108dd57565b60405162461bcd60e51b815260206004820152605560248201527f636f756c646e27742066696e64207468652073717561726520726f6f74206f6660448201527f20616c7068612c206d65616e696e6720746861742074686973206973206e6f7460648201527410309038bab0b23930ba34b1903932b9b4b23ab29760591b608482015260a490fd5b90919060006109748161034d565b8414610a2257506109db92610a006109f9836109bd6109a761099861013797610d4f565b6109a187610d4f565b90610d04565b6109b86109b382610c7d565b6108d6565b610ba0565b6109c78183610d04565b906109d2600261034d565b98898093610d64565b926109ec6109e885610c7d565b1590565b610a06575b505050610ba0565b9485610d3a565b90610d64565b610a1a935090610a1591610d19565b610d64565b8638806109f1565b9250610a3061013791610ba0565b9261034d565b610a436101376101379290565b6001600160a01b031690565b61013790610a36565b919082018092116108bb57565b90610a6f565b9190565b908115610893570490565b610a876101376101379290565b60ff1690565b61013a90610a7a565b9194610adc6101d292989795610ad560a096610acb6100c99a610ac160c08a019e60008b0190610a8d565b6020890190610a8d565b6040870190610a8d565b6060850152565b6080830152565b67ffffffffffffffff81116100b057602090601f01601f19160190565b90610b12610b0d83610ae3565b6100b5565b918252565b3d15610b3157610b263d610b00565b903d6000602084013e565b606090565b15610b3d57565b60405162461bcd60e51b815260206004820152602560248201527f46513153717274206d6f6465787020707265636f6d70696c652063616c6c2066604482015264185a5b195960da1b6064820152608490fd5b906020828203126100cb57505190565b61013790600080610bb16005610a4f565b602093610bbc61081a565b610c0d610be5610bd5610bcf600161034d565b84610a58565b610bdf600461034d565b90610a65565b610c01610bf160405190565b9384928a8401968b80808a610a96565b8481038252038261008e565b51915afa90610c23610c1d610b17565b92610b36565b81515b818301019101610b90565b15610c3857565b60405162461bcd60e51b815260206004820152601860248201527f45756c6572277320637269746572696f6e206661696c656400000000000000006044820152606490fd5b610137610c8a6005610a4f565b91610cc26020600080610c9b61081a565b9660019588610c0d610be5610cb8610cb28b61034d565b846108ae565b610bdf600261034d565b610ccb8261034d565b81149384928515610cdf575b505050610c31565b610cfb929350610a6b91610cf56101379261034d565b906108ae565b14388080610cd7565b6000805160206119db83398151915291900890565b6109a161013792610d28600090565b5061013790610d3561081a565b6108ae565b6000805160206119db83398151915291900990565b6000805160206119db83398151915290800990565b610d7961013792610d73600090565b50610e38565b90610d3a565b15610d8657565b60405162461bcd60e51b815260206004820152602860248201527f747269656420746f2067657420696e7665727365206f66203020696e20424e326044820152671a9a2399103634b160c11b6064820152608490fd5b91906040838203126100cb5750815160209092015190565b6040513d6000823e3d90fd5b15610e0757565b60405162461bcd60e51b8152602060048201526009602482015268676364206e6f74203160b81b6044820152606490fd5b610e4d610e45600061034d565b821415610d7f565b604073__$cf6e7cc5f7c7059c3f412db73ee0208ebf$__9163d91bbae592610e90610e7661081a565b94610e9b610e8360405190565b9687958694859460e01b90565b8452600484016101bf565b03915af48015610efa576000918291610ec7575b5061013790610ec1610a6b600161034d565b14610e00565b6101379250610eed915060403d8111610ef3575b610ee5818361008e565b810190610ddc565b91610eaf565b503d610edb565b610df4565b6101377f2b149d40ceb8aaae81be18991be06ac3b5b4c5e559dbefa33267e6dc24a138e561034d565b6101377e9713b03af0fed4cd2cafadeed8fdf4a74fa084e52d1852e4a2bd0685c315d261034d565b610f83610f6e610fa295610f8b95610f66600090565b508181610847565b939092610f7d82828181610847565b90610847565b929091610fd0565b610f93610eff565b90610f9c610f28565b92610fd0565b600091610fb1610a6b8461034d565b149182610fbd57505090565b610fcc919250610a6b9061034d565b1490565b92610ff461013793929594610fe3600090565b50610fec61081a565b9384916108c0565b946108c0565b91959361101761102a949661102292611011600090565b5061102e565b939080938592610847565b959096610847565b9091565b90919061103961081a565b80156108935780848009811561089357818380098215610893578280916110609308611101565b91811561089357828291099381156108935761013792829109906108ae565b9194610adc6101d292989795610ad560a0966110ae6100c99a6110a760c08a019e60008b0152565b6020890152565b6040870152565b156110bc57565b60405162461bcd60e51b815260206004820152601f60248201527f424e323536205f6d6f64496e762073746174696363616c6c206661696c6564006044820152606490fd5b919061116f6000806100c993611115600090565b506020966111228861034d565b9061115989610c016111346005610a4f565b95611148611142600261034d565b826108ae565b60405195869485019780808a61107f565b51915afa93611166610b17565b90610c26825190565b926110b5565b67ffffffffffffffff81116100b05760200290565b610b0d61013791611175565b369037565b906100c96111b16111ab8461118a565b93611175565b83611196565b610137600661119b565b91926111de9b9a916101405260805261016052600060c052611455565b60c05190565b9092916111ef61081a565b9182156108935781839109938215610893570990565b9592919384839260006101805261121a600090565b61018052888161122a600361034d565b6112359082846111e4565b61123f9391610847565b93909861124d918685610847565b809a82968395839561125e93610847565b61018082905261126e9391610847565b98906101805261128084828181610847565b969061128c600861034d565b978b89610180519161129d926111e4565b916112a793610fd0565b9a8b9a919687946112ba87898181610847565b99819f8b94929560046112cc9061034d565b61018051916112da926111e4565b6101808290526112ea9391610fd0565b6101808290526112fa9391610847565b939094856101805261130d8c82846111e4565b6113179391610847565b6113219391610847565b9161132b93610fd0565b989061018052600261133c9061034d565b90611346926111e4565b6113509391610847565b96909761135c93610847565b61102a92916111e4565b939096949195926113756111b7565b965b60006113828161034d565b8714611449576113a0610a6b611398600161034d565b89169261034d565b036113dd575b6113b295969798611205565b61018051909591949293909290916113ce90610bdf600261034d565b96959391979694929097611377565b61144085858585858e6113b29c9d9e6113fa61052561051f61037c565b9061140961052561051f6103b2565b6114176105256105466103bc565b61142561052561055a6103c6565b9161143a61052561057b6105256105756103d0565b946111c1565b979695506113a6565b50505050505050909150565b92909197959396976114656111b7565b8060c052611473600061034d565b8214806119c8575b156114fa5750505050506114e792916114e76100c9966114df6114df946114e76114a361037c565b976114df6114af6103b2565b956114e76114bb6103bc565b936114df6114c76103c6565b916114ea6114d36103d0565b916114e76114df6103da565b60c05161039c565b52565b6114e7610160519160c05161039c565b61150d60009a939794999692959a61034d565b6101605114806119b6575b61192d5750611595926115328786819581959d9c9d610847565b9060e0529560e051506115906115518a8d610160519060805190610847565b6101205261155d6103bc565b610100526115696103c6565b60a052611581610120516114e760a05160c05161039c565b6114e76101005160c05161039c565b610847565b9490936115aa8261016051610140518a610847565b9790986115dd6115b86103d0565b9a6115d16115c46103da565b9b6114e78d60c05161039c565b6114e78c60c05161039c565b6115ef6101376105258c60c05161039c565b871480611913575b6117eb575050610160519061160b93610847565b95909182610160526101005160c051906116249161039c565b5160a05160c051906116359161039c565b519060e0519261164493610fd0565b93909484610140528260c0519061165a9161039c565b518760c051906116699161039c565b519161167493610fd0565b9080928260805261168783838181610847565b9590848360c051906116989161039c565b518b60c051906116a79161039c565b516116b3918a85610847565b9590986116bf93610847565b9a819a8c9392946116d283858789610847565b909260c051906116e19161039c565b5260c051906116ef9161039c565b526116fc898b8181610847565b6117069391610847565b6117109391610fd0565b61171a600261034d565b6117259084886111e4565b91816101605261173493610fd0565b818195929461174293610847565b61174a61037c565b906117536103b2565b60c051906117609161039c565b5260c0519061176e9161039c565b5261177893610fd0565b918260805261178693610847565b919092826080526101005160c0519061179e9161039c565b5160a05160c051906117af9161039c565b51916117ba93610847565b9182610140526117c993610fd0565b60a05160c051906117d99161039c565b526101005160c051906114e79161039c565b939550939150945061180b6101376105256101009998995160c05161039c565b60e0511490816118f3575b5061188b57505050506114e76100c9926114df6114e76114e7611877600161186561183f61037c565b966114e761184b6103b2565b9a6114df611859600061034d565b8099819560c05161039c565b6107a7846114e760a05160c05161039c565b956114df876114e76101005160c05161039c565b6114e76100c9966114df6118b66114e797611581976114df976118e597608051916101405190611205565b99929397906114e76101805195999d6114df6118d061037c565b9d6114e76118dc6103b2565b9b60c05161039c565b6114e760a05160c05161039c565b905061190c610a6b61013761052560a05160c05161039c565b1438611816565b506119266101376105258b60c05161039c565b88146115f7565b98965050505090506105466114e7926119a36119b1966114e761194e61037c565b9561198e8b6114e761195e6103b2565b9761199a61196a6103bc565b956114e76119766103c6565b936119946119826103d0565b916114e761198e6103da565b8a61039c565b8661039c565b6080519261039c565b6114e761014051918861039c565b60c052565b506119c1600061034d565b8814611518565b506119d3600061034d565b831461147b56fe30644e72e131a029b85045b68181585d97816a916871ca8d3c208c16d87cfd47a2646970667358221220974af5666e4473dfefc04928cf1dd1047fcf7e4996e548d62a81063d68393fe464736f6c63430008150033",
  "linkReferences": {
    "lib/bn254/Fields.sol": {
      "Aux": [
        {
          "length": 20,
          "start": 3701
        }
      ]
    }
  },
  "deployedLinkReferences": {
    "lib/bn254/Fields.sol": {
      "Aux": [
        {
          "length": 20,
          "start": 3665
        }
      ]
    }
  }
}