{
  "_format": "hh-sol-artifact-1",
  "contractName": "KeccakSponge",
  "sourceName": "lib/sponge/Sponge.sol",
  "abi": [
    {
      "inputs": [],
      "name": "mds",
      "outputs": [
        {
          "internalType": "Scalar.FE[3][3]",
          "name": "",
          "type": "uint256[3][3]"
        }
      ],
      "stateMutability": "pure",
      "type": "function"
    }
  ],
  "bytecode": "0x6080604052346100205760405161294c610026823930816007015261294c90f35b600080fdfe6080604052307f00000000000000000000000000000000000000000000000000000000000000001415600436101561003657600080fd5b60003560e01c806302be6b14146101915780630a0976b11461018c5780630a51352c146101825780630da7c731146101785780631e56cd9c1461016e57806327841cba146101645780635c1a5bfc1461015a5780636dc5880b14610150578063899c3c1314610146578063930389431461013c57806393f80e1914610132578063a02b626b14610128578063ae8cdbb21461011e578063b9330dab14610114578063db45d75f1461010a578063de047c9b146101005763e3110254036100fb57610c57575b600080fd5b50610c4357600080fd5b506108a857600080fd5b5061089457600080fd5b5061084b57600080fd5b5061080257600080fd5b506107df57600080fd5b5061076357600080fd5b5061074f57600080fd5b5061069957600080fd5b506105a257600080fd5b506103fe57600080fd5b506103eb57600080fd5b506103c957600080fd5b5061039157600080fd5b6102c1565b506101d957600080fd5b805b036100fb57565b905035906101b18261019b565b565b91906040838203126100fb576101d6906101cd81856101a4565b936020016101a4565b90565b6101ed6101e73660046101b3565b90611288565b604051005b0390f35b60009103126100fb57565b6101d66101d66101d69290565b61021790610201565b9052565b906102288160209361020e565b0190565b61023c61023860039390565b9190565b6000915b83831061024d5750505050565b61026461025d600192845161021b565b9260200190565b92019190610240565b906102288160609361022c565b61028661023860039390565b6000915b8383106102975750505050565b6102a761025d600192845161026d565b9201919061028a565b610120810192916101b1919061027a565b6102cc3660046101f6565b6101f26102d761253e565b604051918291826102b0565b634e487b7160e01b600052604160045260246000fd5b90601f01601f191681019081106001600160401b0382111761031a57604052565b6102e3565b906101b161032c60405190565b92836102f9565b9190916040818403126100fb5761036861034d604061031f565b93600061035a82856101a4565b9086015260208093016101a4565b90830152565b91906060838203126100fb576101d69061038881856101a4565b93602001610333565b6101ed61039f36600461036e565b906113f3565b906020828203126100fb576101d6916101a4565b6020810192916101b1919061020e565b6101f26103df6103da3660046103a5565b61249e565b604051918291826103b9565b6101ed6103f93660046103a5565b610e7b565b6101f26103df61040f3660046103a5565b612434565b6001600160401b03811161031a5760208091020190565b9092919261044061043b82610414565b61031f565b93818552602080860192028301928184116100fb57915b8383106104645750505050565b6020809161047284866101a4565b815201920191610457565b9080601f830112156100fb578160206101d69335910161042b565b9190916040818403126100fb576104af604061031f565b9281356001600160401b0381116100fb57816104cc91840161047d565b845260208201356001600160401b0381116100fb576104eb920161047d565b6020830152565b92919061050161043b82610414565b93818552602080860192028101918383116100fb5781905b838210610527575050505050565b81356001600160401b0381116100fb576020916105478784938701610498565b815201910190610519565b9080601f830112156100fb578160206101d6933591016104f2565b9190916040818403126100fb5761058483826101a4565b9260208201356001600160401b0381116100fb576101d69201610552565b6101ed6105b036600461056d565b9061234a565b909291926105c661043b82610414565b9381855260406020860192028301928184116100fb57915b8383106105eb5750505050565b60206040916105fa8486610333565b8152019201916105de565b9080601f830112156100fb578160206101d6933591016105b6565b9190916060818403126100fb57610637604061031f565b928135906001600160401b0382116100fb5761065881610368938501610605565b85526020928301610333565b9190916040818403126100fb5761067b83826101a4565b9260208201356001600160401b0381116100fb576101d69201610620565b6101ed6106a7366004610664565b906117a8565b6001600160401b03811161031a57602090601f01601f19160190565b90826000939282370152565b909291926106e561043b826106ad565b938185526020850190828401116100fb576101b1926106c9565b9080601f830112156100fb578160206101d6933591016106d5565b9190916040818403126100fb5761073183826101a4565b9260208201356001600160401b0381116100fb576101d692016106ff565b6101ed61075d36600461071a565b90611022565b6101ed61077136600461036e565b90612328565b60005b83811061078a5750506000910152565b818101518382015260200161077a565b6107bb6107c4602093610228936107af815190565b80835293849260200190565b95869101610777565b601f01601f191690565b60208082526101d69291019061079a565b6101f26107f66107f03660046101b3565b90611138565b604051918291826107ce565b6101ed6108103660046101b3565b906112e5565b9190916040818403126100fb5761082d83826101a4565b9260208201356001600160401b0381116100fb576101d6920161047d565b6101ed610859366004610816565b90611375565b9190916040818403126100fb5761087683826101a4565b9260208201356001600160401b0381116100fb576101d69201610605565b6101ed6108a236600461085f565b906115b8565b6101f26103df6108b93660046103a5565b61240b565b6001600160401b03811161031a5760200290565b909291926108e261043b826108be565b9360408592028301928184116100fb57915b8383106109015750505050565b60206040916109108486610333565b8152019201916108f4565b9080601f830112156100fb576101d691600f906108d2565b9092919261094361043b826108be565b9360408592028301928184116100fb57915b8383106109625750505050565b60206040916109718486610333565b815201920191610955565b9080601f830112156100fb576101d691600690610933565b909291926109a461043b826108be565b9360408592028301928184116100fb57915b8383106109c35750505050565b60206040916109d28486610333565b8152019201916109b6565b9080601f830112156100fb576101d691600590610994565b9190610fe0838203126100fb57610c1790610a1161036061031f565b936000610a1e83836101a4565b908601526020610a308382840161091b565b90860152610a42826103e08301610333565b6040860152610a5582610420830161097c565b6060860152610a68826105a0830161091b565b6080860152610a7b826109608301610333565b60a0860152610a8e826109a08301610333565b60c0860152610aa1826109e08301610333565b60e0860152610ab482610a208301610333565b610100860152610ac882610a608301610333565b610120860152610adc82610aa08301610333565b610140860152610af082610ae08301610333565b610160860152610b0482610b208301610333565b610180860152610b1882610b608301610333565b6101a0860152610b2c82610ba08301610333565b6101c0860152610b4082610be08301610333565b6101e0860152610b5482610c208301610333565b610200860152610b6882610c608301610333565b610220860152610b7c82610ca08301610333565b610240860152610b9082610ce08301610333565b610260860152610ba482610d2083016109dd565b610280860152610bb882610e608301610333565b6102a0860152610bcc82610ea08301610333565b6102c0860152610be082610ee08301610333565b6102e0860152610bf482610f208301610333565b610300860152610c0882610f608301610333565b610320860152610fa001610333565b610340830152565b9190611000838203126100fb576101d690610c3a81856101a4565b936020016109f5565b6101ed610c51366004610c1f565b90611c0e565b6101f26103df610c683660046103a5565b612397565b90610c7a61043b836106ad565b918252565b369037565b906101b1610c9a610c9484610c6d565b936106ad565b601f190160208401610c7f565b634e487b7160e01b600052602260045260246000fd5b9060016002830492168015610cdd575b6020831014610cd857565b610ca7565b91607f1691610ccd565b9160001960089290920291821b911b610d00565b921b90565b9181191691161790565b9190610d1b6101d6610d2393610201565b908354610ce7565b9055565b6101b191600091610d0a565b818110610d3e575050565b80610d4c6000600193610d27565b01610d33565b9190601f8111610d6157505050565b610d736101b193600052602060002090565b906020601f840181900483019310610d95575b6020601f909101040190610d33565b9091508190610d86565b90610da8815190565b906001600160401b03821161031a57610dcb82610dc58554610cbd565b85610d52565b602090601f8311600114610e0657610d23929160009183610dfb575b5050600019600883021c1916906002021790565b015190503880610de7565b601f19831691610e1b85600052602060002090565b9260005b818110610e5957509160029391856001969410610e40575b50505002019055565b01516000196008601f8516021c19169055388080610e37565b91936020600181928787015181550195019201610e1f565b906101b191610d9f565b6101b1906000610e92610e8d82610201565b610c84565b9101610e71565b634e487b7160e01b600052601160045260246000fd5b6000198114610ebe5760010190565b610e99565b634e487b7160e01b600052603260045260246000fd5b90610ee2825190565b811015610ef0570160200190565b610ec3565b6101d69054610cbd565b906020610f17818306601f0393600052602060002090565b91040191565b90610f2782610ef5565b80821015610ef05760201115610f425760209006601f039091565b610f4b91610eff565b9091565b91906008610d00910291610cfb60ff841b90565b9190610f82610f7c610d23936001600160f81b03191690565b60f81c90565b908354610f4f565b908154610f9681610cbd565b906801000000000000000082101561031a57601f821115610fca57906101b1936002610fc493018155610f1d565b90610f63565b9160001a9181601f14610ffe5760ff610ff26002610ff7930193601f03600802948216851b90565b931b90565b1916179055565b90508291611013604194600052602060002090565b9160ff19169060ff1617905555565b91909160009061103182610201565b61103c6101d6865190565b811015611079576110749061106f8385015b61106961105b848a610ed9565b516001600160f81b03191690565b90610f8a565b610eaf565b611031565b5050509050565b8054600093929161109d61109383610cbd565b8085529360200190565b91600181169081156110ef57506001146110b657505050565b6110c99192939450600052602060002090565b916000925b8184106110db5750500190565b8054848401526020909301926001016110ce565b92949550505060ff1916825215156020020190565b906101d691611080565b906101b16111289261111f60405190565b93848092611104565b03836102f9565b6101d69061110e565b9061114281610c84565b90819060009461115186610201565b925b8284101561126757868601906111688261112f565b61117a611173825190565b9160200190565b209461118589610201565b60209161119183610201565b821015611257576111a190610eaf565b9081926111ab8890565b8310156111da57811015610ef0576111d5916111cf89831a60f81b8d1a918b610ed9565b53610eaf565b611185565b50505097919796949590965b6020946111f286610201565b986112056111ff8b610c84565b8c610e71565b61120e85610201565b8a8110156112455787811015610ef0578061106f8a610fc48f94611240958f61123990831a60f81b90565b9350610f1d565b61120e565b50949399509450949650945090611153565b91505097919796949590966111e6565b95509350505050565b6101d661021791610201565b61022881602093611270565b9190916112b361129760405190565b80946112a760208301918261127c565b908103825203846102f9565b6000906112bf82610201565b6112ca6101d6865190565b811015611079576112e09061106f83850161104e565b6112bf565b9190916112f461129760405190565b60009061130082610201565b61130b6101d6865190565b811015611079576113219061106f83850161104e565b611300565b9061133961025d611335845190565b9290565b9060005b81811061134a5750505090565b90919261136461135d600192865161021b565b9460200190565b92910161133d565b6101d691611326565b91909161139461138460405190565b80946112a760208301918261136c565b6000906113a082610201565b6113ab6101d6865190565b811015611079576113c19061106f83850161104e565b6113a0565b905051906101b18261019b565b906020828203126100fb576101d6916113c6565b6040513d6000823e3d90fd5b9061140681602081519101511590151690565b156114ec575073__$19c19effc8be3ecf94e62eb93bcc8d35fb$__908163bc1b392d61143160405190565b9361143c8260e01b90565b8552602085600481845af49283156114ca57611467602094611474976000916114cf575b5086611288565b5060405194859260e01b90565b82528180600481015b03915af49081156114ca576101b19260009261149a575b50611288565b6114bc91925060203d81116114c3575b6114b481836102f9565b8101906113d3565b9038611494565b503d6114aa565b6113e7565b6114e69150863d81116114c3576114b481836102f9565b38611460565b611536919073__$19c19effc8be3ecf94e62eb93bcc8d35fb$__806313357914916020611517855190565b604051809881926115288860e01b90565b835260048301526024820190565b0381855af49586156114ca57602080956115289361156461147d9a61156a95600091611581575b508a611288565b50015190565b9261157460405190565b9687948593849360e01b90565b6115989150853d81116114c3576114b481836102f9565b3861155d565b906115a7825190565b811015610ef0576020809102010190565b91906000906115c682610201565b6115d16101d6835190565b811015611079576115e2818361159e565b518051602082015115901516156116ba575073__$19c19effc8be3ecf94e62eb93bcc8d35fb$__908163bc1b392d61161960405190565b936116248260e01b90565b8552602085600481845af49283156114ca5761146760209461164f9760009161169d575b508b611288565b82528180600481015b03915af49182156114ca5761167a9261106f9160009161167f575b5087611288565b6115c6565b611697915060203d81116114c3576114b481836102f9565b38611673565b6116b49150863d81116114c3576114b481836102f9565b38611648565b6116e7919073__$19c19effc8be3ecf94e62eb93bcc8d35fb$__8063133579149160206115178986015190565b0381855af49586156114ca5760208095611528936115646116589a8f61156a966000926117145750611288565b6114bc919250863d81116114c3576114b481836102f9565b90610c7a61043b83610414565b6101d6604061031f565b61174b611739565b906000825260006020830152565b6101d6611743565b60005b82811061177057505050565b60209061177b611759565b8184015201611764565b906101b161179b6117958461172c565b93610414565b601f190160208401611761565b906117b76000820151836115b8565b60208101916117d66117d28451602081519101511590151690565b1590565b6117df57505050565b61181f6118196101b1946117fb6117f66001610201565b611785565b94505160009061181361180d83610201565b8761159e565b52610201565b8361159e565b506115b8565b90600f5b811015610ef0576020020190565b906006611829565b6101d66001610201565b80151561019d565b905051906101b182611849565b906020828203126100fb576101d691611851565b906020806101b19361188c6000820151600086019061020e565b015191019061020e565b9061022881604093611872565b6118af610238600f9390565b6000915b8383106118c05750505050565b6118d061025d6001928451611896565b920191906118b3565b6118e561023860069390565b6000915b8383106118f65750505050565b61190661025d6001928451611896565b920191906118e9565b61191b61023860059390565b6000915b83831061192c5750505050565b61193c61025d6001928451611896565b9201919061191f565b805182526101b19190610fa09061034090611968602082015160208601906118a3565b61197b60408201516103e0860190611872565b61198e60608201516104208601906118d9565b6119a160808201516105a08601906118a3565b6119b460a0820151610960860190611872565b6119c760c08201516109a0860190611872565b6119da60e08201516109e0860190611872565b6119ee610100820151610a20860190611872565b611a02610120820151610a60860190611872565b611a16610140820151610aa0860190611872565b611a2a610160820151610ae0860190611872565b611a3e610180820151610b20860190611872565b611a526101a0820151610b60860190611872565b611a666101c0820151610ba0860190611872565b611a7a6101e0820151610be0860190611872565b611a8e610200820151610c20860190611872565b611aa2610220820151610c60860190611872565b611ab6610240820151610ca0860190611872565b611aca610260820151610ce0860190611872565b611ade610280820151610d2086019061190f565b611af26102a0820151610e60860190611872565b611b066102c0820151610ea0860190611872565b611b1a6102e0820151610ee0860190611872565b611b2e610300820151610f20860190611872565b611b42610320820151610f60860190611872565b0151910190611872565b91610fe06101b1929493611b696110008201966000830190611945565b0152565b6101d66002610201565b6101d66003610201565b6101d66004610201565b6101d66005610201565b6101d66006610201565b6101d66007610201565b6101d66008610201565b6101d66009610201565b91908201809211610ebe57565b906005611829565b6101d6600e610201565b6101d6600f610201565b6101d66010610201565b6101d66011610201565b6101d66012610201565b6101d66013610201565b91611c1d604083015184612328565b611c2b60a083015184612328565b611c3960c083015184612328565b611c4760e083015184612328565b611c5661010083015184612328565b611c6561012083015184612328565b611c7461014083015184612328565b600091611c8083610201565b6020820190600f811015611cab5761106f611c9f82611ca69451611825565b5187612328565b611c80565b5050611cb683610201565b6080820190600f811015611cda5761106f611c9f82611cd59451611825565b611cb6565b5050611ce583610201565b606082016006821015611d09579061106f611c9f82611d049451611837565b611ce5565b50509273__$5266f7fddfb270b1d15c020a3f3b772855$__93611d298590565b93611d5a63ed802845916020611d3d61183f565b60405180948192611d4e8860e01b90565b83528860048401611b4c565b03818a5af480156114ca57611d819260009161230a575b506122f6575b6020611d3d611b6d565b03818a5af480156114ca57611da8926000916122d8575b506122c4575b6020611d3d611b77565b03818a5af480156114ca57611dcf926000916122a6575b50612292575b6020611d3d611b81565b03818a5af480156114ca57611df692600091612274575b50612260575b6020611d3d611b8b565b03818a5af480156114ca57611e1d92600091612242575b5061222e575b6020611d3d611b95565b03818a5af480156114ca57611e4492600091612210575b506121fc575b6020611d3d611b9f565b03818a5af480156114ca57611e6b926000916121de575b506121ca575b6020611d3d611ba9565b03818a5af480156114ca57611e8c926000916121ac575b5061219857610201565b6102808301906005811015611f4457611ece6020611eb183611eac611bb3565b611bbd565b60405180938192611ec28960e01b90565b83528960048401611b4c565b03818b5af49283156114ca57611ef5938392600091611f16575b50611efa575b5050610eaf565b611e8c565b611f0f91611f089151611bca565b5186612328565b8038611eee565b611f37915060203d8111611f3d575b611f2f81836102f9565b81019061185e565b38611ee8565b503d611f25565b5050611f769194959293956020611f59611bd2565b60405180958192611f6a8760e01b90565b83528a60048401611b4c565b0381845af480156114ca57611f9d9360009161217a575b50612166575b6020611f59611bdc565b0381845af480156114ca57611fc493600091612148575b50612134575b6020611f59611be6565b0381845af480156114ca57611feb93600091612116575b50612102575b6020611f59611bf0565b0381845af480156114ca57612012936000916120e4575b506120d0575b6020611f59611bfa565b0381845af49384156114ca57612056946020946000916120b3575b5061209f575b50611ec261203f611c04565b9261204960405190565b9586948593849360e01b90565b03915af49081156114ca57600091612081575b50612072575050565b6103406101b192015190612328565b612099915060203d8111611f3d57611f2f81836102f9565b38612069565b6120ae61032088015187612328565b612033565b6120ca9150853d8111611f3d57611f2f81836102f9565b3861202d565b6120df61030087015186612328565b612008565b6120fc915060203d8111611f3d57611f2f81836102f9565b38612002565b6121116102e087015186612328565b611fe1565b61212e915060203d8111611f3d57611f2f81836102f9565b38611fdb565b6121436102c087015186612328565b611fba565b612160915060203d8111611f3d57611f2f81836102f9565b38611fb4565b6121756102a087015186612328565b611f93565b612192915060203d8111611f3d57611f2f81836102f9565b38611f8d565b6121a761026085015186612328565b610201565b6121c4915060203d8111611f3d57611f2f81836102f9565b38611e82565b6121d961024085015186612328565b611e61565b6121f6915060203d8111611f3d57611f2f81836102f9565b38611e5b565b61220b61022085015186612328565b611e3a565b612228915060203d8111611f3d57611f2f81836102f9565b38611e34565b61223d61020085015186612328565b611e13565b61225a915060203d8111611f3d57611f2f81836102f9565b38611e0d565b61226f6101e085015186612328565b611dec565b61228c915060203d8111611f3d57611f2f81836102f9565b38611de6565b6122a16101c085015186612328565b611dc5565b6122be915060203d8111611f3d57611f2f81836102f9565b38611dbf565b6122d36101a085015186612328565b611d9e565b6122f0915060203d8111611f3d57611f2f81836102f9565b38611d98565b61230561018085015186612328565b611d77565b612322915060203d8111611f3d57611f2f81836102f9565b38611d71565b61081060206101b19361234561233f600083015190565b856112e5565b015190565b919060005b61235a6101d6835190565b8110156123915761238c9061237d6000612374838661159e565b51015186611375565b61106f6020612374838661159e565b61234f565b50509050565b60206123dd916123a5600090565b5073__$19c19effc8be3ecf94e62eb93bcc8d35fb$__5b6123d261203f6397fa2522936107f06010610201565b8352600483016107ce565b03915af49081156114ca576000916123f3575090565b6101d6915060203d81116114c3576114b481836102f9565b60206123dd91612419600090565b5073__$0f2ef74df25658b59f87c747afcc439be9$__6123bc565b61247161203f91612443600090565b5073__$19c19effc8be3ecf94e62eb93bcc8d35fb$__5b6397fa2522906123d260209586946107f086610201565b03915af49182156114ca5760009261248857505090565b6101d69250803d106114c3576114b481836102f9565b61247161203f916124ad600090565b5073__$0f2ef74df25658b59f87c747afcc439be9$__61245a565b61043b6101d6916108be565b906101b16124ea6124e4846124c8565b936108be565b83610c7f565b6101d660036124d4565b60005b82811061250957505050565b6020906125146124f0565b81840152016124fd565b906101b161252e6124e4846124c8565b836124fa565b6101d6600361251e565b612546612534565b5061255160036124c8565b6125c061255e60036124c8565b73__$0f2ef74df25658b59f87c747afcc439be9$__809163133579149060207f1a9bd250757e29ef4959b9bef59b4e60e20a56307d6491e7b7ea1fac679c79036125a760405190565b809781926125b58760e01b90565b8352600483016103b9565b0381875af49485156114ca5761260c956125e0916000916128fa57508252565b60207f384aa09faf3a48737e2d64f6a030aa242e6d5d455ae4a13696b48a7320c506cd6125a760405190565b0381875af49485156114ca5761265c95612630916000916128dc575b506020830152565b60207f3d2b7b0209bc3080064d5ce4a7a03653f8346506bfa6d076061217be9e6cfed56125a760405190565b0381875af49081156114ca57612683612687926126bd97600091612885575b506040830152565b8652565b61269160036124c8565b60207f09ee57c70bc351220b107983afcfabbea79868a4a8a5913e24b7aaf3b4bf3a426125a760405190565b0381875af49485156114ca57612709956126dd916000916128fa57508252565b60207f20989996bc29a96d17684d3ad4c859813115267f35225d7e1e9a5b5436a2458f6125a760405190565b0381875af49485156114ca576127589561272c916000916128dc57506020830152565b60207f14e39adb2e171ae232116419ee7f26d9191edde8a5632298347cdb74c3b2e69d6125a760405190565b0381875af49081156114ca5761277e612785926127bc9760009161288557506040830152565b6020870152565b61278f60036124c8565b9260207f174544357b687f65a9590c1df621818b5452d5d441597a94357f112316ef67cb6125a760405190565b0381845af49485156114ca57612808956127dc916000916128c057508552565b60207f3ca9263dc1a19d17cfbf15b0166bb25f95dffc53212db207fcee35f02c2c41376125a760405190565b0381845af49283156114ca5761282d60209461285c976000916128a3575b5085870152565b506125b57f3cf1fbef75d4ab63b7a812f80b7b0373b2dc21d269ba7c4c4d6581d50aae114c9261157460405190565b03915af49182156114ca576101d69261287e9160009161288557506040830152565b6040830152565b61289d915060203d81116114c3576114b481836102f9565b3861267b565b6128ba9150863d81116114c3576114b481836102f9565b38612826565b6128d8915060203d81116114c3576114b481836102f9565b8552565b6128f4915060203d81116114c3576114b481836102f9565b38612628565b612912915060203d81116114c3576114b481836102f9565b825256fea264697066735822122005cb8a01950761f012b68378ef035fd8e4583310a97575a7c6e6ed4c8b03e79464736f6c63430008150033",
  "linkReferences": {
    "lib/Proof.sol": {
      "Proof": [
        {
          "length": 20,
          "start": 7476
        }
      ]
    },
    "lib/bn254/Fields.sol": {
      "Base": [
        {
          "length": 20,
          "start": 5172
        },
        {
          "length": 20,
          "start": 5401
        },
        {
          "length": 20,
          "start": 5660
        },
        {
          "length": 20,
          "start": 5863
        },
        {
          "length": 20,
          "start": 9166
        },
        {
          "length": 20,
          "start": 9324
        }
      ],
      "Scalar": [
        {
          "length": 20,
          "start": 9282
        },
        {
          "length": 20,
          "start": 9430
        },
        {
          "length": 20,
          "start": 9606
        }
      ]
    }
  },
  "deployedLinkReferences": {
    "lib/Proof.sol": {
      "Proof": [
        {
          "length": 20,
          "start": 7438
        }
      ]
    },
    "lib/bn254/Fields.sol": {
      "Base": [
        {
          "length": 20,
          "start": 5134
        },
        {
          "length": 20,
          "start": 5363
        },
        {
          "length": 20,
          "start": 5622
        },
        {
          "length": 20,
          "start": 5825
        },
        {
          "length": 20,
          "start": 9128
        },
        {
          "length": 20,
          "start": 9286
        }
      ],
      "Scalar": [
        {
          "length": 20,
          "start": 9244
        },
        {
          "length": 20,
          "start": 9392
        },
        {
          "length": 20,
          "start": 9568
        }
      ]
    }
  }
}