{
  "abi": [
    {
      "inputs": [],
      "name": "IncorrectPublicInputLength",
      "type": "error"
    },
    {
      "inputs": [],
      "name": "InvalidPolycommLength",
      "type": "error"
    },
    {
      "inputs": [],
      "name": "MSMInvalidLengths",
      "type": "error"
    },
    {
      "inputs": [],
      "name": "UnavailableState",
      "type": "error"
    },
    {
      "inputs": [],
      "name": "is_state_available",
      "outputs": [
        {
          "internalType": "bool",
          "name": "",
          "type": "bool"
        }
      ],
      "stateMutability": "view",
      "type": "function"
    },
    {
      "inputs": [
        {
          "internalType": "Scalar.FE[]",
          "name": "public_inputs",
          "type": "uint256[]"
        }
      ],
      "name": "partial_verify",
      "outputs": [],
      "stateMutability": "nonpayable",
      "type": "function"
    },
    {
      "inputs": [],
      "name": "retrieve_state_creator",
      "outputs": [
        {
          "internalType": "string",
          "name": "",
          "type": "string"
        }
      ],
      "stateMutability": "view",
      "type": "function"
    },
    {
      "inputs": [],
      "name": "retrieve_state_hash",
      "outputs": [
        {
          "internalType": "uint256",
          "name": "",
          "type": "uint256"
        }
      ],
      "stateMutability": "view",
      "type": "function"
    },
    {
      "inputs": [],
      "name": "retrieve_state_height",
      "outputs": [
        {
          "internalType": "uint256",
          "name": "",
          "type": "uint256"
        }
      ],
      "stateMutability": "view",
      "type": "function"
    },
    {
      "inputs": [],
      "name": "set_verifier_index_for_testing",
      "outputs": [],
      "stateMutability": "nonpayable",
      "type": "function"
    },
    {
      "inputs": [
        {
          "components": [
            {
              "internalType": "uint256",
              "name": "x",
              "type": "uint256"
            },
            {
              "internalType": "uint256",
              "name": "y",
              "type": "uint256"
            }
          ],
          "internalType": "struct BN254.G1Point[]",
          "name": "g",
          "type": "tuple[]"
        },
        {
          "components": [
            {
              "internalType": "uint256",
              "name": "x",
              "type": "uint256"
            },
            {
              "internalType": "uint256",
              "name": "y",
              "type": "uint256"
            }
          ],
          "internalType": "struct BN254.G1Point",
          "name": "h",
          "type": "tuple"
        },
        {
          "internalType": "uint256",
          "name": "public_len",
          "type": "uint256"
        },
        {
          "internalType": "uint256",
          "name": "domain_size",
          "type": "uint256"
        },
        {
          "internalType": "uint256",
          "name": "max_poly_size",
          "type": "uint256"
        },
        {
          "components": [
            {
              "components": [
                {
                  "internalType": "Scalar.FE[]",
                  "name": "zeta",
                  "type": "uint256[]"
                },
                {
                  "internalType": "Scalar.FE[]",
                  "name": "zeta_omega",
                  "type": "uint256[]"
                }
              ],
              "internalType": "struct PointEvaluationsArray[]",
              "name": "public_evals",
              "type": "tuple[]"
            }
          ],
          "internalType": "struct ProofEvaluations",
          "name": "evals",
          "type": "tuple"
        }
      ],
      "name": "setup",
      "outputs": [],
      "stateMutability": "nonpayable",
      "type": "function"
    },
    {
      "inputs": [
        {
          "internalType": "bytes",
          "name": "state_serialized",
          "type": "bytes"
        },
        {
          "internalType": "bytes",
          "name": "proof_serialized",
          "type": "bytes"
        }
      ],
      "name": "verify_state",
      "outputs": [
        {
          "internalType": "bool",
          "name": "",
          "type": "bool"
        }
      ],
      "stateMutability": "nonpayable",
      "type": "function"
    }
  ],
  "bytecode": {
    "object": "0x6080806040523461001657611d81908161001c8239f35b600080fdfe6080604052600436101561001257600080fd5b6000803560e01c90816304792fb71461009a575080630a24c16b146100955780632ba00330146100905780633b8e3cbe1461008b5780635ece546114610086578063990d59f114610081578063c4e2ec4c1461007c5763e1d006e71461007757600080fd5b61092a565b6108d4565b610811565b610696565b610673565b61065c565b610391565b3461018257806003193601126101825760ff600f5416156101715780600c546100c281611a75565b9081608052600190818116908160001461015257506001146100fd575b6100ec607f198401610239565b604051806100f9816101dd565b0390f35b909150600c83527fdf6966c971051c3d54ec59162606531493a51404a002842f56009d7e5cf4a8c75b82841061013e5750505060a06100ec910182806100df565b81816020925460a087015201930192610126565b9150506100ec935060a0925060ff19168252151560051b0182806100df565b6314b2b72960e11b60805260046080fd5b80fd5b600091031261019057565b600080fd5b60005b8381106101a85750506000910152565b8181015183820152602001610198565b906020916101d181518092818552858086019101610195565b601f01601f1916010190565b90602091828152608051808483015260005b818110610210575060409293506000838284010152601f8019910116010190565b60a08101518382016040015284016101ef565b634e487b7160e01b600052604160045260246000fd5b601f8019910116608001608081106001600160401b0382111761025b57604052565b610223565b6001600160401b03811161025b57604052565b604081019081106001600160401b0382111761025b57604052565b602081019081106001600160401b0382111761025b57604052565b608081019081106001600160401b0382111761025b57604052565b606081019081106001600160401b0382111761025b57604052565b90601f801991011681019081106001600160401b0382111761025b57604052565b6040519061030d8261028e565b565b6040519061030d82610273565b6001600160401b03811161025b5760051b60200190565b9080601f8301121561019057602090823561034d8161031c565b9361035b60405195866102df565b818552838086019260051b820101928311610190578301905b828210610382575050505090565b81358152908301908301610374565b34610190576020806003193601126101905760049081356001600160401b038111610190576103c39036908401610333565b9060065490600191825480821060001461064c575082935b805191600054809303610638576103ff610404916000526005602052604060002090565b611534565b91610417610411826115ca565b93611656565b60005b82811061060f5750505061042c6115b7565b508051806104ec5750505050506104428161113f565b9060005b8181106104c0575050610457610300565b525b73__$ac24b2e4a6622aa3539a1a69d65062654d$__803b1561019057604051639ebec25760e01b8152600092810183815290929183918290819060200103915af480156104bb576104a657005b806104b36104b992610260565b80610185565b005b61119e565b6104e7906104cc611518565b6104d68286610ac5565b526104e18185610ac5565b50610a89565b610446565b6104fb91929394969550611624565b928560009273__$2412af110404eb2b232af38199405c3460$__915b61057c575b505050509061052a916116ef565b610535815151611624565b906000845b610551575b5061054b9293506119da565b50610459565b81515181101561057757610571818661056b819487610ac5565b52610a89565b9061053a565b61053f565b855184101561060a576105b2836105938684610ac5565b51604051809381926377d2f20360e01b83528c83019190602083019252565b0381865af49485156104bb5789956105d7926000916105dd575b5061056b828a610ac5565b93610517565b6105fd9150863d8811610603575b6105f581836102df565b81019061118f565b386105cc565b503d6105eb565b61051c565b8061061d6106339284610ac5565b516106288288610ac5565b526104e18187610ac5565b61041a565b604051600162088c5b60e21b031981528790fd5b6106569082611080565b936103db565b346101905760003660031901126101905760018055005b3461019057600036600319011261019057602060ff600f54166040519015158152f35b346101905760003660031901126101905760ff600f5416156106bf576020600d54604051908152f35b6040516314b2b72960e11b8152600490fd5b604090602319011261019057604051906106ea82610273565b60243582526044356020830152565b91908260409103126101905760405161071181610273565b6020808294803584520135910152565b919091602080828503126101905760409081519161073e8361028e565b829584356001600160401b039586821161019057019181601f840112156101905782359061076b8261031c565b96610778825198896102df565b828852858089019360051b8601019484861161019057868101935b8685106107a557505050505050505052565b84358381116101905782019084601f198389030112610190578451906107ca82610273565b8983013585811161019057888b6107e392860101610333565b8252858301359185831161019057610802898c80969581960101610333565b83820152815201940193610793565b346101905760e0366003190112610190576001600160401b03600435818111610190573660238201121561019057806004013561084d8161031c565b9160409161085d835194856102df565b80845260209060248286019160061b8401019236841161019057602401905b8382106108bc57868661088e366106d1565b9060c435928311610190576108aa6104b9933690600401610721565b9160a435916084359160643591610d87565b8285916108c936856106f9565b81520191019061087c565b346101905760003660031901126101905760ff600f5416156106bf576020600e54604051908152f35b9181601f84011215610190578235916001600160401b038311610190576020838186019501011161019057565b34610190576040366003190112610190576001600160401b036004358181116101905761095b9036906004016108fd565b9091602435908111610190576109759036906004016108fd565b9290836040519485926311254bc960e01b8452602060048501528160248501526044840137600060448284010152816044610100968793601f8019910116810103018173__$9a9b9e43ab5848dc902e46e09dcaf689c7$__5af480156104bb576100f9946109f99260009081928294610a41575b50506109f361137f565b90611490565b9182610a14575b505060405190151581529081906020820190565b610a2891610a23913691611348565b611c21565b610a3a600160ff19600f541617600f55565b3880610a00565b91509150610a649250803d10610a6c575b610a5c81836102df565b8101906112c7565b9138806109e9565b503d610a52565b634e487b7160e01b600052601160045260246000fd5b6000198114610a985760010190565b610a73565b634e487b7160e01b600052603260045260246000fd5b805115610ac05760200190565b610a9d565b8051821015610ac05760209160051b010190565b60025490600160401b82101561025b576001820180600255821015610ac05761030d91600260005260011b7f405787fa12a823e0f2b7631cc41b3ba8828b3321ca811111fa75cd3aa3bb5ace01906020600191805184550151910155565b908154600160401b81101561025b5760018101808455811015610ac05761030d9260005260206000209060011b01906020600191805184550151910155565b81810292918115918404141715610a9857565b80549060009081815582610b9c57505050565b815260208120918201915b828110610bb357505050565b818155600101610ba7565b600160401b821161025b57805491808255828110610bdb57505050565b60009182526020822092830192015b828110610bf657505050565b818155600101610bea565b9080519081516001600160401b039283821161025b57610c218286610bbe565b602080910191600092868452828420845b838110610c845750505050806001809601930151805194851161025b578190610c5b8686610bbe565b01928252808220915b848110610c7357505050505050565b835183820155928101928501610c64565b82518282015591840191600101610c32565b51805190600160401b821161025b57600b5482600b55808310610d10575b50600b6000526020908101907f0175b7a638427703f0dbe7bb9bbf987a2551717b34e79f33b5b1008d1fa01db96000925b848410610cf3575050505050565b60028382610d046001945186610c01565b01920193019290610ce5565b60016001600160ff1b038281168303610a985784168403610a9857600b6000527f0175b7a638427703f0dbe7bb9bbf987a2551717b34e79f33b5b1008d1fa01db991811b82019184821b015b828110610d6a575050610cb4565b80610d76600292610b89565b610d81838201610b89565b01610d5c565b9593919492909460005b8751811015610dbb5780610db1610dab610db6938b610ac5565b51610ad9565b610a89565b610d91565b50919395909294610dd59060209080516003550151600455565b805190610df382610dee610de98288611057565b611064565b611080565b91610dfd836110a0565b9260009173__$c6c5f4599f88e7253ab6b4c9dc3636c36f$__915b808410610ebf575050505050610e38836000526005602052604060002090565b8151906001918282015560005b858110610e6f575050505091610e65610e6a9261030d9594600055600655565b600155565b610c96565b826000815b610e89575b5050610e8490610a89565b610e45565b8551811015610eba5780610db1610ead85610ea7610eb4958b610ac5565b51610ac5565b5186610b37565b81610e74565b610e79565b92969398909499919597610ed28561113f565b9860005b8a51811015610f0657808b610ef6610f0193610ef06112a4565b92610ac5565b526104e1818d610ac5565b610ed6565b5096929a95919994979098610f1b8383610b76565b610f2d84610f2885611049565b610b76565b60408051637ae2b5c760e01b8152600480820193909352602481018d905291929091602080826044818c5af480156104bb57610f7492849260009261102c575b5050611073565b9060005b8a838210610ff95750509151633bca3c7b60e21b81529493600093869350839250610fa59190830161125a565b0381875af480156104bb57610fd292600091610fd8575b50610fc78289610ac5565b526104e18188610ac5565b92610e18565b610ff3913d8091833e610feb81836102df565b8101906111d2565b38610fbc565b906104e161100a8261102794610ac5565b516110158386611057565b90611020828b610ac5565b5288610ac5565b610f78565b6110429250803d10610603576105f581836102df565b3880610f6d565b9060018201809211610a9857565b91908201809211610a9857565b600019810191908211610a9857565b91908203918211610a9857565b811561108a570490565b634e487b7160e01b600052601260045260246000fd5b906110aa8261031c565b6110b760405191826102df565b82815280926110c8601f199161031c565b019060005b8281106110d957505050565b8060606020809385010152016110cd565b604051906110f782610273565b60006020838281520152565b6040519061111082610273565b600182528160005b6020908181101561113a5760209161112e6110ea565b90828501015201611118565b505050565b906111498261031c565b61115660405191826102df565b8281528092611167601f199161031c565b019060005b82811061117857505050565b6020906111836110ea565b8282850101520161116c565b90816020910312610190575190565b6040513d6000823e3d90fd5b9190826040910312610190576040516111c281610273565b6020808294805184520151910152565b906020918281830312610190578051906001600160401b038211610190570181601f82011215610190578051926112088461031c565b93604093611218855196876102df565b818652828087019260061b85010193818511610190578301915b8483106112425750505050505090565b83869161124f84866111aa565b815201920191611232565b60208082019080835283518092528060408094019401926000905b83821061128457505050505090565b845180518752830151868401529485019493820193600190910190611275565b6112ac6110ea565b506040516112b981610273565b600081526000602082015290565b90918183039161010083126101905760806112ef6112e586846111aa565b95604084016111aa565b93607f1901126101905760e060405191611308836102a9565b6080810151835260a0810151602084015260c081015160408401520151606082015290565b6001600160401b03811161025b57601f01601f191660200190565b9291926113548261132d565b9161136260405193846102df565b829481845281830111610190578281602093846000960137010152565b6000606060405161138f816102a9565b82815282602082015282604082015201526040516113ac816102a9565b7f198e9393920d483a7260bfb731fb5d25f1aa493335a9e71297e485b7aef312c281527f1800deef121f1e76426a00665e5c4479674322d4f75edadd46debd5cd992f6ed60208201527f090689d0585ff075ec9e99ad690c3395bc4b313370b38ef355acdadcd122975b60408201527f12c85ea5db8c6deb4aab71808dcb408fe3d1e7690c43d37b4ce6cc0166fa7daa606082015290565b1561144b57565b60405162461bcd60e51b815260206004820152601c60248201527f426e3235343a2050616972696e6720636865636b206661696c656421000000006044820152606490fd5b916060610180929460009460405193815185528360209889809401518488015280516040880152838101518288015260408101516080880152015160a0860152805160c0860152015160e08401528051610100840152858101516101208401526040810151610140840152015161016082015260085afa61151360005191611444565b151590565b6040519061152582610273565b60035482526004546020830152565b90604080519061154382610273565b819380546115508161031c565b9061155d845192836102df565b808252600083815260208082209095868086015b85851061158a5750505092865250505060010154910152565b600191600291845161159b81610273565b8654815284870154838201528152019301930192918790611571565b604051906115c48261028e565b60608252565b906115d48261031c565b6040906115e3825191826102df565b83815280936115f4601f199161031c565b019160005b8381106116065750505050565b60209082516116148161028e565b60608152828286010152016115f9565b9061162e8261031c565b61163b60405191826102df565b828152809261164c601f199161031c565b0190602036910137565b9081515161167261166d6020850192835190611080565b6115ca565b92600091825b85518110156116e957815161168c8161113f565b90855b8181106116b7575050906116b2916116a5610300565b908152610fc78289610ac5565b611678565b6116e4906116d987516116d36116cd8689610b76565b84611057565b90610ac5565b516104d68286610ac5565b61168f565b50505050565b916116f86115b7565b5082511580156118af575b61188057825182510361186e57825190600091825b855181101561174f5761172b8187610ac5565b515151808510611745575b5061174090610a89565b611718565b9350611740611736565b509291909361175d8261113f565b9360005b83811061177b575050505050611775610300565b90815290565b6000805b83811061183757506117996117938261113f565b91611624565b906000805b8581106117c45750506117bf92916117b5916118b8565b610fc78289610ac5565b611761565b846117cf8289610ac5565b515151116117e6575b6117e190610a89565b61179e565b9061182f6117e191611803876117fc868c610ac5565b5151610ac5565b5161180e8287610ac5565b526118198186610ac5565b50611824848c610ac5565b5161056b8288610ac5565b9190506117d8565b826118428287610ac5565b51515111611859575b61185490610a89565b61177f565b9061186661185491610a89565b91905061184b565b60405163d4771fbb60e01b8152600490fd5b91505061188b611103565b6118936112a4565b61189c82610ab3565b526118a681610ab3565b50611775610300565b50815115611703565b906118c16110ea565b506118ca6112a4565b916000925b81518410156119105761190461190a916118fe6118ec8786610ac5565b516118f78888610ac5565b5190611965565b90611917565b93610a89565b926118cf565b9250505090565b6020929160c06060926119286110ea565b9586938160405193611939856102a9565b6080368637805185520151828401528051604084015201518482015260066107cf195a01fa1561019057565b906060906119716110ea565b50608061197c6110ea565b93849260206040519261198e846102c4565b863685378051845201516020830152604082015260076107cf195a01fa156101905790565b604051906119c082610273565b60606020836040516119d18161028e565b83815281520152565b906119e36119b3565b50815151815103611a63578151516119fa8161113f565b9260005b828110611a2657505050611a10610300565b918252611a1b61030f565b918252602082015290565b611a5e90611a54611a42611a38611518565b6118f78489610ac5565b611a4d838651610ac5565b5190611917565b6106288288610ac5565b6119fe565b604051631f32b69760e31b8152600490fd5b90600182811c92168015611aa5575b6020831014611a8f57565b634e487b7160e01b600052602260045260246000fd5b91607f1691611a84565b601f8111611abb575050565b600090600c82527fdf6966c971051c3d54ec59162606531493a51404a002842f56009d7e5cf4a8c7906020601f850160051c83019410611b16575b601f0160051c01915b828110611b0b57505050565b818155600101611aff565b9092508290611af6565b9081519182516001600160401b03811161025b57611b4881611b43600c54611a75565b611aaf565b60209081601f8211600114611b9a579080611b7e9260409697600092611b8f575b50508160011b916000199060031b1c19161790565b600c555b810151600d550151600e55565b015190503880611b69565b600c600052601f198216957fdf6966c971051c3d54ec59162606531493a51404a002842f56009d7e5cf4a8c79660005b818110611c0a5750916040969791846001959410611bf1575b505050811b01600c55611b82565b015160001960f88460031b161c19169055388080611be3565b838301518955600190980197928501928501611bca565b604080516355ddbb5b60e11b81526004810182905292918390611c489060448301906101b8565b816000958692836024830152038173__$9a9b9e43ab5848dc902e46e09dcaf689c7$__5af49182156104bb578492611c88575b505061030d919250611b20565b9091503d8085843e611c9a81846102df565b82016020908184820312611d475783516001600160401b0394858211611d4357019560608783031261018257835194611cd2866102c4565b8751908111611d3f57870182601f82011215611d3f57805191611cf48361132d565b93611d01875195866102df565b838552858484010111610182575091611d27849261030d98999484889785019101610195565b85528082015190850152015190820152829138611c7b565b5080fd5b8780fd5b8580fdfea264697066735822122084502138bdd2bdd33d8d024095b581d2ab3060a184d902a5af4a7923a7468e8764736f6c63430008150033",
    "linkReferences": {
      "lib/Fields.sol": {
        "Scalar": [
          {
            "start": 1310,
            "length": 20
          }
        ]
      },
      "lib/Oracles.sol": {
        "Oracles": [
          {
            "start": 1143,
            "length": 20
          }
        ]
      },
      "lib/Utils.sol": {
        "Utils": [
          {
            "start": 3615,
            "length": 20
          }
        ]
      },
      "lib/msgpack/Deserialize.sol": {
        "MsgPk": [
          {
            "start": 2518,
            "length": 20
          },
          {
            "start": 7284,
            "length": 20
          }
        ]
      }
    }
  },
  "methodIdentifiers": {
    "is_state_available()": "3b8e3cbe",
    "partial_verify(uint256[])": "0a24c16b",
    "retrieve_state_creator()": "04792fb7",
    "retrieve_state_hash()": "5ece5461",
    "retrieve_state_height()": "c4e2ec4c",
    "set_verifier_index_for_testing()": "2ba00330",
    "setup((uint256,uint256)[],(uint256,uint256),uint256,uint256,uint256,((uint256[],uint256[])[]))": "990d59f1",
    "verify_state(bytes,bytes)": "e1d006e7"
  },
  "id": 32
}