{
  "abi": [
    {
      "inputs": [
        {
          "internalType": "Scalar.FE[]",
          "name": "public_inputs",
          "type": "uint256[]"
        }
      ],
      "name": "partial_verify",
      "outputs": [],
      "stateMutability": "view",
      "type": "function"
    },
    {
      "inputs": [
        {
          "internalType": "uint256[]",
          "name": "serializedProof",
          "type": "uint256[]"
        }
      ],
      "name": "verify",
      "outputs": [
        {
          "internalType": "bool",
          "name": "",
          "type": "bool"
        }
      ],
      "stateMutability": "view",
      "type": "function"
    }
  ],
  "bytecode": {
    "object": "0x608060405234801561001057600080fd5b506101c6806100206000396000f3fe608060405234801561001057600080fd5b50600436106100365760003560e01c80630a24c16b1461003b5780630ca5fc251461004e575b600080fd5b61004c6100493660046100fa565b50565b005b61006161005c3660046100fa565b610075565b604051901515815260200160405180910390f35b600080604081806080605c60085afa506001949350505050565b634e487b7160e01b600052604160045260246000fd5b604051601f8201601f1916810167ffffffffffffffff811182821017156100ce576100ce61008f565b604052919050565b600067ffffffffffffffff8211156100f0576100f061008f565b5060051b60200190565b6000602080838503121561010d57600080fd5b823567ffffffffffffffff81111561012457600080fd5b8301601f8101851361013557600080fd5b8035610148610143826100d6565b6100a5565b81815260059190911b8201830190838101908783111561016757600080fd5b928401925b828410156101855783358252928401929084019061016c565b97965050505050505056fea264697066735822122000ac5415fc3802aa0a1dc160967eea3797694b2c06389d5f709f753c72644d2964736f6c63430008150033",
    "linkReferences": {}
  },
  "methodIdentifiers": {
    "partial_verify(uint256[])": "0a24c16b",
    "verify(uint256[])": "0ca5fc25"
  },
  "id": 23
}