{
  "abi": [
    {
      "type": "constructor",
      "inputs": [
        {
          "name": "_alignedServiceAddr",
          "type": "address",
          "internalType": "address"
        },
        {
          "name": "_tipStateHash",
          "type": "bytes32",
          "internalType": "bytes32"
        }
      ],
      "stateMutability": "nonpayable"
    },
    {
      "type": "function",
      "name": "BRIDGE_TRANSITION_FRONTIER_LEN",
      "inputs": [],
      "outputs": [
        {
          "name": "",
          "type": "uint256",
          "internalType": "uint256"
        }
      ],
      "stateMutability": "view"
    },
    {
      "type": "function",
      "name": "getLedgerAccountPair",
      "inputs": [
        {
          "name": "accountIdHash",
          "type": "bytes32",
          "internalType": "bytes32"
        }
      ],
      "outputs": [
        {
          "name": "",
          "type": "tuple",
          "internalType": "struct Account.LedgerAccountPair",
          "components": [
            {
              "name": "ledgerHash",
              "type": "bytes32",
              "internalType": "bytes32"
            },
            {
              "name": "accountHash",
              "type": "bytes32",
              "internalType": "bytes32"
            }
          ]
        }
      ],
      "stateMutability": "view"
    },
    {
      "type": "function",
      "name": "getTipStateHash",
      "inputs": [],
      "outputs": [
        {
          "name": "",
          "type": "bytes32",
          "internalType": "bytes32"
        }
      ],
      "stateMutability": "view"
    },
    {
      "type": "function",
      "name": "isAccountUpdated",
      "inputs": [
        {
          "name": "accountIdHash",
          "type": "bytes32",
          "internalType": "bytes32"
        }
      ],
      "outputs": [
        {
          "name": "",
          "type": "bool",
          "internalType": "bool"
        }
      ],
      "stateMutability": "view"
    },
    {
      "type": "function",
      "name": "updateAccount",
      "inputs": [
        {
          "name": "proofCommitment",
          "type": "bytes32",
          "internalType": "bytes32"
        },
        {
          "name": "provingSystemAuxDataCommitment",
          "type": "bytes32",
          "internalType": "bytes32"
        },
        {
          "name": "proofGeneratorAddr",
          "type": "bytes20",
          "internalType": "bytes20"
        },
        {
          "name": "batchMerkleRoot",
          "type": "bytes32",
          "internalType": "bytes32"
        },
        {
          "name": "merkleProof",
          "type": "bytes",
          "internalType": "bytes"
        },
        {
          "name": "verificationDataBatchIndex",
          "type": "uint256",
          "internalType": "uint256"
        },
        {
          "name": "pubInput",
          "type": "bytes",
          "internalType": "bytes"
        }
      ],
      "outputs": [],
      "stateMutability": "nonpayable"
    },
    {
      "type": "function",
      "name": "updateTipState",
      "inputs": [
        {
          "name": "proofCommitment",
          "type": "bytes32",
          "internalType": "bytes32"
        },
        {
          "name": "provingSystemAuxDataCommitment",
          "type": "bytes32",
          "internalType": "bytes32"
        },
        {
          "name": "proofGeneratorAddr",
          "type": "bytes20",
          "internalType": "bytes20"
        },
        {
          "name": "batchMerkleRoot",
          "type": "bytes32",
          "internalType": "bytes32"
        },
        {
          "name": "merkleProof",
          "type": "bytes",
          "internalType": "bytes"
        },
        {
          "name": "verificationDataBatchIndex",
          "type": "uint256",
          "internalType": "uint256"
        },
        {
          "name": "pubInput",
          "type": "bytes",
          "internalType": "bytes"
        }
      ],
      "outputs": [],
      "stateMutability": "nonpayable"
    },
    {
      "type": "error",
      "name": "AccountIsNotValid",
      "inputs": [
        {
          "name": "accountIdHash",
          "type": "bytes32",
          "internalType": "bytes32"
        }
      ]
    },
    {
      "type": "error",
      "name": "NewStateIsNotValid",
      "inputs": []
    },
    {
      "type": "error",
      "name": "TipStateIsWrong",
      "inputs": [
        {
          "name": "pubInputTipStateHash",
          "type": "bytes32",
          "internalType": "bytes32"
        },
        {
          "name": "tipStatehash",
          "type": "bytes32",
          "internalType": "bytes32"
        }
      ]
    }
  ],
  "bytecode": {
    "object": "0x608060405234801561001057600080fd5b5060405161079038038061079083398101604081905261002f91610073565b602180546001600160a01b0319166001600160a01b038416179055806000610059600160106100ad565b60108110610069576100696100d2565b0155506100e89050565b6000806040838503121561008657600080fd5b82516001600160a01b038116811461009d57600080fd5b6020939093015192949293505050565b6000828210156100cd57634e487b7160e01b600052601160045260246000fd5b500390565b634e487b7160e01b600052603260045260246000fd5b610699806100f76000396000f3fe608060405234801561001057600080fd5b50600436106100625760003560e01c8063461cede21461006757806378dd3e161461008f578063afa264c1146100a4578063b8184745146100b7578063be9c0643146100cd578063fb299cd814610132575b600080fd5b61007a610075366004610401565b61013a565b60405190151581526020015b60405180910390f35b6100a261009d3660046104bd565b610172565b005b6100a26100b23660046104bd565b61028f565b6100bf6103db565b604051908152602001610086565b6101176100db366004610401565b60408051808201909152600080825260208201525060009081526020808052604091829020825180840190935280548352600101549082015290565b60408051825181526020928301519281019290925201610086565b6100bf601081565b6000601061014960018261056c565b6010811061015957610159610591565b0154600092835260208052604090922054909114919050565b60008060006020840151925060408401519150606084015190506000848051906020012090506000602160009054906101000a90046001600160a01b03166001600160a01b031663fa534dc08d848e8e8e8e8e6040518863ffffffff1660e01b81526004016101e797969594939291906105a7565b602060405180830381865afa158015610204573d6000803e3d6000fd5b505050506040513d601f19601f82011682018060405250810190610228919061063a565b905080156102605760408051808201825286815260208082018781526000878152918052929020905181559051600190910155610281565b60405163f63ab27560e01b8152600481018490526024015b60405180910390fd5b505050505050505050505050565b602081015160006102a26001601061056c565b601081106102b2576102b2610591565b015481146102fd578060006102c96001601061056c565b601081106102d9576102d9610591565b015460405163177b002560e31b815260048101929092526024820152604401610278565b815160208301206021546040516303e94d3760e61b81526000916001600160a01b03169063fa534dc090610341908d9086908e908e908e908e908e906004016105a7565b602060405180830381865afa15801561035e573d6000803e3d6000fd5b505050506040513d601f19601f82011682018060405250810190610382919061063a565b905080156103b65760005b60108110156103b05760408501518155610240850151601082015560010161038d565b506103cf565b604051630114602f60e41b815260040160405180910390fd5b50505050505050505050565b6000806103ea6001601061056c565b601081106103fa576103fa610591565b0154905090565b60006020828403121561041357600080fd5b5035919050565b634e487b7160e01b600052604160045260246000fd5b600082601f83011261044157600080fd5b813567ffffffffffffffff8082111561045c5761045c61041a565b604051601f8301601f19908116603f011681019082821181831017156104845761048461041a565b8160405283815286602085880101111561049d57600080fd5b836020870160208301376000602085830101528094505050505092915050565b600080600080600080600060e0888a0312156104d857600080fd5b873596506020880135955060408801356bffffffffffffffffffffffff198116811461050357600080fd5b945060608801359350608088013567ffffffffffffffff8082111561052757600080fd5b6105338b838c01610430565b945060a08a0135935060c08a013591508082111561055057600080fd5b5061055d8a828b01610430565b91505092959891949750929550565b60008282101561058c57634e487b7160e01b600052601160045260246000fd5b500390565b634e487b7160e01b600052603260045260246000fd5b8781526000602088818401528760408401526bffffffffffffffffffffffff198716606084015285608084015260e060a084015284518060e085015260005b8181101561060357868101830151858201610100015282016105e6565b8181111561061657600061010083870101525b5060c08401949094525050601f91909101601f191601610100019695505050505050565b60006020828403121561064c57600080fd5b8151801515811461065c57600080fd5b939250505056fea264697066735822122018103860aa237718a2b73fab3110f2aa90005084cc7db373cf43cc7def7762f764736f6c634300080c0033",
    "linkReferences": {}
  },
  "methodIdentifiers": {
    "BRIDGE_TRANSITION_FRONTIER_LEN()": "fb299cd8",
    "getLedgerAccountPair(bytes32)": "be9c0643",
    "getTipStateHash()": "b8184745",
    "isAccountUpdated(bytes32)": "461cede2",
    "updateAccount(bytes32,bytes32,bytes20,bytes32,bytes,uint256,bytes)": "78dd3e16",
    "updateTipState(bytes32,bytes32,bytes20,bytes32,bytes,uint256,bytes)": "afa264c1"
  },
  "id": 64
}