{"abi":[{"type":"constructor","inputs":[{"name":"_alignedServiceAddr","type":"address","internalType":"address"},{"name":"_tipStateHash","type":"bytes32","internalType":"bytes32"}],"stateMutability":"nonpayable"},{"type":"function","name":"getLedgerAccountPair","inputs":[{"name":"accountIdHash","type":"bytes32","internalType":"bytes32"}],"outputs":[{"name":"","type":"tuple","internalType":"struct Account.LedgerAccountPair","components":[{"name":"ledgerHash","type":"bytes32","internalType":"bytes32"},{"name":"accountHash","type":"bytes32","internalType":"bytes32"}]}],"stateMutability":"view"},{"type":"function","name":"getTipLedgerHash","inputs":[],"outputs":[{"name":"","type":"bytes32","internalType":"bytes32"}],"stateMutability":"view"},{"type":"function","name":"getTipStateHash","inputs":[],"outputs":[{"name":"","type":"bytes32","internalType":"bytes32"}],"stateMutability":"view"},{"type":"function","name":"isAccountUpdated","inputs":[{"name":"accountIdHash","type":"bytes32","internalType":"bytes32"}],"outputs":[{"name":"","type":"bool","internalType":"bool"}],"stateMutability":"view"},{"type":"function","name":"updateAccount","inputs":[{"name":"proofCommitment","type":"bytes32","internalType":"bytes32"},{"name":"provingSystemAuxDataCommitment","type":"bytes32","internalType":"bytes32"},{"name":"proofGeneratorAddr","type":"bytes20","internalType":"bytes20"},{"name":"batchMerkleRoot","type":"bytes32","internalType":"bytes32"},{"name":"merkleProof","type":"bytes","internalType":"bytes"},{"name":"verificationDataBatchIndex","type":"uint256","internalType":"uint256"},{"name":"pubInput","type":"bytes","internalType":"bytes"}],"outputs":[],"stateMutability":"nonpayable"},{"type":"function","name":"updateTipState","inputs":[{"name":"proofCommitment","type":"bytes32","internalType":"bytes32"},{"name":"provingSystemAuxDataCommitment","type":"bytes32","internalType":"bytes32"},{"name":"proofGeneratorAddr","type":"bytes20","internalType":"bytes20"},{"name":"batchMerkleRoot","type":"bytes32","internalType":"bytes32"},{"name":"merkleProof","type":"bytes","internalType":"bytes"},{"name":"verificationDataBatchIndex","type":"uint256","internalType":"uint256"},{"name":"pubInput","type":"bytes","internalType":"bytes"}],"outputs":[],"stateMutability":"nonpayable"},{"type":"error","name":"AccountIsNotValid","inputs":[{"name":"accountIdHash","type":"bytes32","internalType":"bytes32"}]},{"type":"error","name":"NewStateIsNotValid","inputs":[]},{"type":"error","name":"TipStateIsWrong","inputs":[{"name":"pubInputTipStateHash","type":"bytes32","internalType":"bytes32"},{"name":"tipStatehash","type":"bytes32","internalType":"bytes32"}]}],"bytecode":{"object":"0x608060405234801561001057600080fd5b5060405161066338038061066383398101604081905261002f91610058565b600380546001600160a01b0319166001600160a01b039390931692909217909155600055610092565b6000806040838503121561006b57600080fd5b82516001600160a01b038116811461008257600080fd5b6020939093015192949293505050565b6105c2806100a16000396000f3fe608060405234801561001057600080fd5b50600436106100625760003560e01c80633886c09b14610067578063461cede21461007e57806378dd3e16146100b3578063afa264c1146100c8578063b8184745146100db578063be9c0643146100e3575b600080fd5b6001545b6040519081526020015b60405180910390f35b6100a361008c366004610365565b600154600091825260026020526040909120541490565b6040519015158152602001610075565b6100c66100c1366004610421565b61014a565b005b6100c66100d6366004610421565b610269565b60005461006b565b61012f6100f1366004610365565b604080518082019091526000808252602082015250600090815260026020908152604091829020825180840190935280548352600101549082015290565b60408051825181526020928301519281019290925201610075565b60008060006020840151925060408401519150606084015190506000848051906020012090506000600360009054906101000a90046001600160a01b03166001600160a01b031663fa534dc08d848e8e8e8e8e6040518863ffffffff1660e01b81526004016101bf97969594939291906104d0565b602060405180830381865afa1580156101dc573d6000803e3d6000fd5b505050506040513d601f19601f820116820180604052508101906102009190610563565b9050801561023a5760408051808201825286815260208082018781526000878152600290925292902090518155905160019091015561025b565b60405163f63ab27560e01b8152600481018490526024015b60405180910390fd5b505050505050505050505050565b6060810151600054811461029e5760005460405163177b002560e31b8152610252918391600401918252602082015260400190565b815160208301206003546040516303e94d3760e61b81526000916001600160a01b03169063fa534dc0906102e2908d9086908e908e908e908e908e906004016104d0565b602060405180830381865afa1580156102ff573d6000803e3d6000fd5b505050506040513d601f19601f820116820180604052508101906103239190610563565b905080156103405760208401516001556040840151600055610359565b604051630114602f60e41b815260040160405180910390fd5b50505050505050505050565b60006020828403121561037757600080fd5b5035919050565b634e487b7160e01b600052604160045260246000fd5b600082601f8301126103a557600080fd5b813567ffffffffffffffff808211156103c0576103c061037e565b604051601f8301601f19908116603f011681019082821181831017156103e8576103e861037e565b8160405283815286602085880101111561040157600080fd5b836020870160208301376000602085830101528094505050505092915050565b600080600080600080600060e0888a03121561043c57600080fd5b873596506020880135955060408801356bffffffffffffffffffffffff198116811461046757600080fd5b945060608801359350608088013567ffffffffffffffff8082111561048b57600080fd5b6104978b838c01610394565b945060a08a0135935060c08a01359150808211156104b457600080fd5b506104c18a828b01610394565b91505092959891949750929550565b8781526000602088818401528760408401526bffffffffffffffffffffffff198716606084015285608084015260e060a084015284518060e085015260005b8181101561052c578681018301518582016101000152820161050f565b8181111561053f57600061010083870101525b5060c08401949094525050601f91909101601f191601610100019695505050505050565b60006020828403121561057557600080fd5b8151801515811461058557600080fd5b939250505056fea2646970667358221220791c8ea79991537c2914cba05e1fcc8fa717dde812f22a58280e28f75b62e11464736f6c634300080c0033","linkReferences":{}},"methodIdentifiers":{"getLedgerAccountPair(bytes32)":"be9c0643","getTipLedgerHash()":"3886c09b","getTipStateHash()":"b8184745","isAccountUpdated(bytes32)":"461cede2","updateAccount(bytes32,bytes32,bytes20,bytes32,bytes,uint256,bytes)":"78dd3e16","updateTipState(bytes32,bytes32,bytes20,bytes32,bytes,uint256,bytes)":"afa264c1"},"id":64}