{"abi":[{"type":"constructor","inputs":[{"name":"_alignedServiceAddr","type":"address","internalType":"address payable"},{"name":"_tipStateHash","type":"bytes32","internalType":"bytes32"}],"stateMutability":"nonpayable"},{"type":"function","name":"BRIDGE_TRANSITION_FRONTIER_LEN","inputs":[],"outputs":[{"name":"","type":"uint256","internalType":"uint256"}],"stateMutability":"view"},{"type":"function","name":"getChainLedgerHashes","inputs":[],"outputs":[{"name":"","type":"bytes32[16]","internalType":"bytes32[16]"}],"stateMutability":"view"},{"type":"function","name":"getChainStateHashes","inputs":[],"outputs":[{"name":"","type":"bytes32[16]","internalType":"bytes32[16]"}],"stateMutability":"view"},{"type":"function","name":"getTipLedgerHash","inputs":[],"outputs":[{"name":"","type":"bytes32","internalType":"bytes32"}],"stateMutability":"view"},{"type":"function","name":"getTipStateHash","inputs":[],"outputs":[{"name":"","type":"bytes32","internalType":"bytes32"}],"stateMutability":"view"},{"type":"function","name":"updateChain","inputs":[{"name":"proofCommitment","type":"bytes32","internalType":"bytes32"},{"name":"provingSystemAuxDataCommitment","type":"bytes32","internalType":"bytes32"},{"name":"proofGeneratorAddr","type":"bytes20","internalType":"bytes20"},{"name":"batchMerkleRoot","type":"bytes32","internalType":"bytes32"},{"name":"merkleProof","type":"bytes","internalType":"bytes"},{"name":"verificationDataBatchIndex","type":"uint256","internalType":"uint256"},{"name":"pubInput","type":"bytes","internalType":"bytes"}],"outputs":[],"stateMutability":"nonpayable"},{"type":"error","name":"NewStateIsNotValid","inputs":[]},{"type":"error","name":"TipStateIsWrong","inputs":[{"name":"pubInputTipStateHash","type":"bytes32","internalType":"bytes32"},{"name":"tipStatehash","type":"bytes32","internalType":"bytes32"}]}],"bytecode":{"object":"0x608060405234801561001057600080fd5b506040516107b13803806107b183398101604081905261002f91610073565b602080546001600160a01b0319166001600160a01b038416179055806000610059600160106100ad565b60108110610069576100696100d4565b0155506100ea9050565b6000806040838503121561008657600080fd5b82516001600160a01b038116811461009d57600080fd5b6020939093015192949293505050565b818103818111156100ce57634e487b7160e01b600052601160045260246000fd5b92915050565b634e487b7160e01b600052603260045260246000fd5b6106b8806100f96000396000f3fe608060405234801561001057600080fd5b50600436106100625760003560e01c806303f93e50146100675780632bc4f8d9146100855780633886c09b1461008d578063a92d923a146100a3578063b8184745146100b8578063fb299cd8146100c0575b600080fd5b61006f6100c8565b60405161007c91906103d8565b60405180910390f35b61006f610104565b61009561013a565b60405190815260200161007c565b6100b66100b13660046104ad565b610160565b005b61009561033f565b610095601081565b6100d06103b9565b604080516102008101918290529060009060109082845b8154815260200190600101908083116100e7575050505050905090565b61010c6103b9565b60408051610200810191829052601080548252909181906011602085018083116100e7575050505050905090565b6000601061014960018261055c565b6010811061015957610159610583565b0154905090565b602081015160006101736001601061055c565b6010811061018357610183610583565b01548114610206576101bf604051806040016040528060138152602001725469702073746174652069732077726f6e672160681b81525061034e565b8060006101ce6001601061055c565b601081106101de576101de610583565b015460405163177b002560e31b81526004810192909252602482015260440160405180910390fd5b815160208084019190912090546040516306045a9160e01b81526000916001600160a01b0316906306045a919061024f908d9086908e908e908e908e908e908b906004016105df565b602060405180830381865afa15801561026c573d6000803e3d6000fd5b505050506040513d601f19601f820116820180604052508101906102909190610646565b905080156102dc5760006010604086016102408701835b60108110156102d25782518555815184556001948501949384019360209384019390920191016102a7565b5050505050610333565b61031a6040518060400160405280601781526020017f4e6577207374617465206973206e6f742076616c69642100000000000000000081525061034e565b604051630114602f60e41b815260040160405180910390fd5b50505050505050505050565b6000806101496001601061055c565b61039181604051602401610362919061066f565b60408051601f198184030181529190526020810180516001600160e01b031663104c13eb60e21b179052610394565b50565b6103918180516a636f6e736f6c652e6c6f67602083016000808483855afa5050505050565b6040518061020001604052806010906020820280368337509192915050565b6102008101818360005b60108110156104015781518352602092830192909101906001016103e2565b50505092915050565b634e487b7160e01b600052604160045260246000fd5b600082601f83011261043157600080fd5b813567ffffffffffffffff8082111561044c5761044c61040a565b604051601f8301601f19908116603f011681019082821181831017156104745761047461040a565b8160405283815286602085880101111561048d57600080fd5b836020870160208301376000602085830101528094505050505092915050565b600080600080600080600060e0888a0312156104c857600080fd5b873596506020880135955060408801356bffffffffffffffffffffffff19811681146104f357600080fd5b945060608801359350608088013567ffffffffffffffff8082111561051757600080fd5b6105238b838c01610420565b945060a08a0135935060c08a013591508082111561054057600080fd5b5061054d8a828b01610420565b91505092959891949750929550565b8181038181111561057d57634e487b7160e01b600052601160045260246000fd5b92915050565b634e487b7160e01b600052603260045260246000fd5b6000815180845260005b818110156105bf576020818501810151868301820152016105a3565b506000602082860101526020601f19601f83011685010191505092915050565b60006101008a83528960208401528860408401526bffffffffffffffffffffffff19881660608401528660808401528060a084015261062081840187610599565b60c084019590955250506001600160a01b039190911660e0909101529695505050505050565b60006020828403121561065857600080fd5b8151801515811461066857600080fd5b9392505050565b602081526000610668602083018461059956fea26469706673582212205bb6a46b17433a4b6f64ef627c5cf25128999085ed8ed7b2dda79f31a0e081ec64736f6c63430008150033","linkReferences":{}},"methodIdentifiers":{"BRIDGE_TRANSITION_FRONTIER_LEN()":"fb299cd8","getChainLedgerHashes()":"2bc4f8d9","getChainStateHashes()":"03f93e50","getTipLedgerHash()":"3886c09b","getTipStateHash()":"b8184745","updateChain(bytes32,bytes32,bytes20,bytes32,bytes,uint256,bytes)":"a92d923a"},"id":63}