{"abi":[{"type":"function","name":"validateAccount","inputs":[{"name":"account","type":"tuple","internalType":"struct MinaAccountValidation.Account","components":[{"name":"publicKey","type":"tuple","internalType":"struct MinaAccountValidation.CompressedECPoint","components":[{"name":"x","type":"bytes32","internalType":"bytes32"},{"name":"isOdd","type":"bool","internalType":"bool"}]},{"name":"tokenIdKeyHash","type":"bytes32","internalType":"bytes32"},{"name":"tokenSymbol","type":"string","internalType":"string"},{"name":"balance","type":"uint64","internalType":"uint64"},{"name":"nonce","type":"uint32","internalType":"uint32"},{"name":"receiptChainHash","type":"bytes32","internalType":"bytes32"},{"name":"delegate","type":"tuple","internalType":"struct MinaAccountValidation.CompressedECPoint","components":[{"name":"x","type":"bytes32","internalType":"bytes32"},{"name":"isOdd","type":"bool","internalType":"bool"}]},{"name":"votingFor","type":"bytes32","internalType":"bytes32"},{"name":"timing","type":"tuple","internalType":"struct MinaAccountValidation.Timing","components":[{"name":"initialMinimumBalance","type":"uint64","internalType":"uint64"},{"name":"cliffTime","type":"uint32","internalType":"uint32"},{"name":"cliffAmount","type":"uint64","internalType":"uint64"},{"name":"vestingPeriod","type":"uint32","internalType":"uint32"},{"name":"vestingIncrement","type":"uint64","internalType":"uint64"}]},{"name":"permissions","type":"tuple","internalType":"struct MinaAccountValidation.Permissions","components":[{"name":"editState","type":"uint8","internalType":"enum MinaAccountValidation.AuthRequired"},{"name":"access","type":"uint8","internalType":"enum MinaAccountValidation.AuthRequired"},{"name":"send","type":"uint8","internalType":"enum MinaAccountValidation.AuthRequired"},{"name":"rreceive","type":"uint8","internalType":"enum MinaAccountValidation.AuthRequired"},{"name":"setDelegate","type":"uint8","internalType":"enum MinaAccountValidation.AuthRequired"},{"name":"setPermissions","type":"uint8","internalType":"enum MinaAccountValidation.AuthRequired"},{"name":"setVerificationKeyAuth","type":"uint8","internalType":"enum MinaAccountValidation.AuthRequired"},{"name":"setVerificationKeyUint","type":"uint32","internalType":"uint32"},{"name":"setZkappUri","type":"uint8","internalType":"enum MinaAccountValidation.AuthRequired"},{"name":"editActionState","type":"uint8","internalType":"enum MinaAccountValidation.AuthRequired"},{"name":"setTokenSymbol","type":"uint8","internalType":"enum MinaAccountValidation.AuthRequired"},{"name":"incrementNonce","type":"uint8","internalType":"enum MinaAccountValidation.AuthRequired"},{"name":"setVotingFor","type":"uint8","internalType":"enum MinaAccountValidation.AuthRequired"},{"name":"setTiming","type":"uint8","internalType":"enum MinaAccountValidation.AuthRequired"}]},{"name":"zkapp","type":"tuple","internalType":"struct MinaAccountValidation.ZkappAccount","components":[{"name":"appState","type":"bytes32[8]","internalType":"bytes32[8]"},{"name":"verificationKey","type":"tuple","internalType":"struct MinaAccountValidation.VerificationKey","components":[{"name":"maxProofsVerified","type":"uint8","internalType":"enum MinaAccountValidation.ProofsVerified"},{"name":"actualWrapDomainSize","type":"uint8","internalType":"enum MinaAccountValidation.ProofsVerified"},{"name":"wrapIndex","type":"tuple","internalType":"struct MinaAccountValidation.WrapIndex","components":[{"name":"sigmaComm","type":"tuple[7]","internalType":"struct MinaAccountValidation.Commitment[7]","components":[{"name":"x","type":"bytes32","internalType":"bytes32"},{"name":"y","type":"bytes32","internalType":"bytes32"}]},{"name":"coefficientsComm","type":"tuple[15]","internalType":"struct MinaAccountValidation.Commitment[15]","components":[{"name":"x","type":"bytes32","internalType":"bytes32"},{"name":"y","type":"bytes32","internalType":"bytes32"}]},{"name":"genericComm","type":"tuple","internalType":"struct MinaAccountValidation.Commitment","components":[{"name":"x","type":"bytes32","internalType":"bytes32"},{"name":"y","type":"bytes32","internalType":"bytes32"}]},{"name":"psmComm","type":"tuple","internalType":"struct MinaAccountValidation.Commitment","components":[{"name":"x","type":"bytes32","internalType":"bytes32"},{"name":"y","type":"bytes32","internalType":"bytes32"}]},{"name":"completeAddComm","type":"tuple","internalType":"struct MinaAccountValidation.Commitment","components":[{"name":"x","type":"bytes32","internalType":"bytes32"},{"name":"y","type":"bytes32","internalType":"bytes32"}]},{"name":"mulComm","type":"tuple","internalType":"struct MinaAccountValidation.Commitment","components":[{"name":"x","type":"bytes32","internalType":"bytes32"},{"name":"y","type":"bytes32","internalType":"bytes32"}]},{"name":"emulComm","type":"tuple","internalType":"struct MinaAccountValidation.Commitment","components":[{"name":"x","type":"bytes32","internalType":"bytes32"},{"name":"y","type":"bytes32","internalType":"bytes32"}]},{"name":"endomulScalarComm","type":"tuple","internalType":"struct MinaAccountValidation.Commitment","components":[{"name":"x","type":"bytes32","internalType":"bytes32"},{"name":"y","type":"bytes32","internalType":"bytes32"}]}]}]},{"name":"zkappVersion","type":"uint32","internalType":"uint32"},{"name":"actionState","type":"bytes32[5]","internalType":"bytes32[5]"},{"name":"lastActionSlot","type":"uint32","internalType":"uint32"},{"name":"provedState","type":"bool","internalType":"bool"},{"name":"zkappUri","type":"bytes","internalType":"bytes"}]}]}],"outputs":[{"name":"","type":"bool","internalType":"bool"}],"stateMutability":"nonpayable"}],"bytecode":{"object":"0x608060405234801561001057600080fd5b5060c88061001f6000396000f3fe6080604052348015600f57600080fd5b506004361060285760003560e01c80631b26d6f714602d575b600080fd5b603e60383660046052565b50600090565b604051901515815260200160405180910390f35b600060208284031215606357600080fd5b813567ffffffffffffffff811115607957600080fd5b82016103c08185031215608b57600080fd5b939250505056fea2646970667358221220134f42fcdfa05e67770ece73dcb0bb101c17ff730732f5f763cec0647474386564736f6c634300080c0033","linkReferences":{}},"methodIdentifiers":{"validateAccount(((bytes32,bool),bytes32,string,uint64,uint32,bytes32,(bytes32,bool),bytes32,(uint64,uint32,uint64,uint32,uint64),(uint8,uint8,uint8,uint8,uint8,uint8,uint8,uint32,uint8,uint8,uint8,uint8,uint8,uint8),(bytes32[8],(uint8,uint8,((bytes32,bytes32)[7],(bytes32,bytes32)[15],(bytes32,bytes32),(bytes32,bytes32),(bytes32,bytes32),(bytes32,bytes32),(bytes32,bytes32),(bytes32,bytes32))),uint32,bytes32[5],uint32,bool,bytes)))":"1b26d6f7"},"id":64}