{"abi":[{"type":"constructor","inputs":[{"name":"_alignedServiceAddr","type":"address","internalType":"address payable"},{"name":"_tipStateHash","type":"bytes32","internalType":"bytes32"}],"stateMutability":"nonpayable"},{"type":"function","name":"BRIDGE_TRANSITION_FRONTIER_LEN","inputs":[],"outputs":[{"name":"","type":"uint256","internalType":"uint256"}],"stateMutability":"view"},{"type":"function","name":"getChainLedgerHashes","inputs":[],"outputs":[{"name":"","type":"bytes32[16]","internalType":"bytes32[16]"}],"stateMutability":"view"},{"type":"function","name":"getChainStateHashes","inputs":[],"outputs":[{"name":"","type":"bytes32[16]","internalType":"bytes32[16]"}],"stateMutability":"view"},{"type":"function","name":"getTipLedgerHash","inputs":[],"outputs":[{"name":"","type":"bytes32","internalType":"bytes32"}],"stateMutability":"view"},{"type":"function","name":"getTipStateHash","inputs":[],"outputs":[{"name":"","type":"bytes32","internalType":"bytes32"}],"stateMutability":"view"},{"type":"function","name":"isLedgerVerified","inputs":[{"name":"ledgerHash","type":"bytes32","internalType":"bytes32"}],"outputs":[{"name":"","type":"bool","internalType":"bool"}],"stateMutability":"view"},{"type":"function","name":"updateChain","inputs":[{"name":"proofCommitment","type":"bytes32","internalType":"bytes32"},{"name":"provingSystemAuxDataCommitment","type":"bytes32","internalType":"bytes32"},{"name":"proofGeneratorAddr","type":"bytes20","internalType":"bytes20"},{"name":"batchMerkleRoot","type":"bytes32","internalType":"bytes32"},{"name":"merkleProof","type":"bytes","internalType":"bytes"},{"name":"verificationDataBatchIndex","type":"uint256","internalType":"uint256"},{"name":"pubInput","type":"bytes","internalType":"bytes"},{"name":"batcherPaymentService","type":"address","internalType":"address"}],"outputs":[],"stateMutability":"nonpayable"},{"type":"error","name":"NewStateIsNotValid","inputs":[]},{"type":"error","name":"TipStateIsWrong","inputs":[{"name":"pubInputTipStateHash","type":"bytes32","internalType":"bytes32"},{"name":"tipStatehash","type":"bytes32","internalType":"bytes32"}]}],"bytecode":{"object":"0x608060405234801561001057600080fd5b506040516107c93803806107c983398101604081905261002f91610073565b602080546001600160a01b0319166001600160a01b038416179055806000610059600160106100ad565b60108110610069576100696100d2565b0155506100e89050565b6000806040838503121561008657600080fd5b82516001600160a01b038116811461009d57600080fd5b6020939093015192949293505050565b6000828210156100cd57634e487b7160e01b600052601160045260246000fd5b500390565b634e487b7160e01b600052603260045260246000fd5b6106d2806100f76000396000f3fe608060405234801561001057600080fd5b506004361061007d5760003560e01c80633886c09b1161005b5780633886c09b146100bd5780633e16b011146100d3578063b8184745146100f6578063fb299cd8146100fe57600080fd5b806303f93e50146100825780632bc4f8d9146100a057806337baff0f146100a8575b600080fd5b61008a610106565b604051610097919061039c565b60405180910390f35b61008a610142565b6100bb6100b636600461048d565b610178565b005b6100c56102e6565b604051908152602001610097565b6100e66100e136600461054d565b61030c565b6040519015158152602001610097565b6100c561036e565b6100c5601081565b61010e61037d565b604080516102008101918290529060009060109082845b815481526020019060010190808311610125575050505050905090565b61014a61037d565b6040805161020081019182905260108054825290918190601160208501808311610125575050505050905090565b6020820151600061018b6001601061057c565b6010811061019b5761019b610593565b015481146101ea578060006101b26001601061057c565b601081106101c2576101c2610593565b015460405163177b002560e31b81526004810192909252602482015260440160405180910390fd5b825160208085019190912090546040516306045a9160e01b81526000916001600160a01b0316906306045a9190610233908e9086908f908f908f908f908f908e906004016105a9565b602060405180830381865afa158015610250573d6000803e3d6000fd5b505050506040513d601f19601f820116820180604052508101906102749190610658565b905080156102c05760006010604087016102408801835b60108110156102b657825185558151845560019485019493840193602093840193909201910161028b565b50505050506102d9565b604051630114602f60e41b815260040160405180910390fd5b5050505050505050505050565b600060106102f560018261057c565b6010811061030557610305610593565b0154905090565b6000805b6010811015610365578260108261032860018361057c565b610332919061057c565b6010811061034257610342610593565b015414156103535750600192915050565b8061035d81610681565b915050610310565b50600092915050565b6000806102f56001601061057c565b6040518061020001604052806010906020820280368337509192915050565b6102008101818360005b60108110156103c55781518352602092830192909101906001016103a6565b50505092915050565b634e487b7160e01b600052604160045260246000fd5b600082601f8301126103f557600080fd5b813567ffffffffffffffff80821115610410576104106103ce565b604051601f8301601f19908116603f01168101908282118183101715610438576104386103ce565b8160405283815286602085880101111561045157600080fd5b836020870160208301376000602085830101528094505050505092915050565b80356001600160a01b038116811461048857600080fd5b919050565b600080600080600080600080610100898b0312156104aa57600080fd5b883597506020890135965060408901356bffffffffffffffffffffffff19811681146104d557600080fd5b955060608901359450608089013567ffffffffffffffff808211156104f957600080fd5b6105058c838d016103e4565b955060a08b0135945060c08b013591508082111561052257600080fd5b5061052f8b828c016103e4565b92505061053e60e08a01610471565b90509295985092959890939650565b60006020828403121561055f57600080fd5b5035919050565b634e487b7160e01b600052601160045260246000fd5b60008282101561058e5761058e610566565b500390565b634e487b7160e01b600052603260045260246000fd5b60006101008a835260208a818501528960408501526bffffffffffffffffffffffff19891660608501528760808501528160a085015286518083860152600092505b8083101561060a578783018201518584016101200152918101916105eb565b8083111561061d57600061012082870101525b60c08501879052601f01601f1916840161012001925061064b91505060e08301846001600160a01b03169052565b9998505050505050505050565b60006020828403121561066a57600080fd5b8151801515811461067a57600080fd5b9392505050565b600060001982141561069557610695610566565b506001019056fea2646970667358221220014058d3f427e422f5f6255597f9e29ad0ddb218dd504fb8aaa5e2b91076921964736f6c634300080c0033","linkReferences":{}},"methodIdentifiers":{"BRIDGE_TRANSITION_FRONTIER_LEN()":"fb299cd8","getChainLedgerHashes()":"2bc4f8d9","getChainStateHashes()":"03f93e50","getTipLedgerHash()":"3886c09b","getTipStateHash()":"b8184745","isLedgerVerified(bytes32)":"3e16b011","updateChain(bytes32,bytes32,bytes20,bytes32,bytes,uint256,bytes,address)":"37baff0f"},"id":65}