{"abi":[{"type":"constructor","inputs":[{"name":"alignedServiceAddr","type":"address","internalType":"address"}],"stateMutability":"nonpayable"},{"type":"function","name":"getLastVerifiedStateHash","inputs":[],"outputs":[{"name":"","type":"uint256","internalType":"uint256"}],"stateMutability":"view"},{"type":"function","name":"updateLastVerifiedState","inputs":[{"name":"proofCommitment","type":"bytes32","internalType":"bytes32"},{"name":"provingSystemAuxDataCommitment","type":"bytes32","internalType":"bytes32"},{"name":"proofGeneratorAddr","type":"bytes20","internalType":"bytes20"},{"name":"batchMerkleRoot","type":"bytes32","internalType":"bytes32"},{"name":"merkleProof","type":"bytes","internalType":"bytes"},{"name":"verificationDataBatchIndex","type":"uint256","internalType":"uint256"},{"name":"pubInput","type":"bytes","internalType":"bytes"}],"outputs":[],"stateMutability":"nonpayable"},{"type":"error","name":"NewStateIsNotValid","inputs":[]}],"bytecode":{"object":"0x6080604052602a60005534801561001557600080fd5b5060405161040238038061040283398101604081905261003491610059565b600180546001600160a01b0319166001600160a01b0392909216919091179055610089565b60006020828403121561006b57600080fd5b81516001600160a01b038116811461008257600080fd5b9392505050565b61036a806100986000396000f3fe608060405234801561001057600080fd5b50600436106100365760003560e01c8063233d4f381461003b5780639e48bbf114610050575b600080fd5b61004e6100493660046101c9565b610065565b005b60005460405190815260200160405180910390f35b8051602082012060c860009081556001546040516303e94d3760e61b81526001600160a01b039091169063fa534dc0906100af908c9086908d908d908d908d908d90600401610278565b602060405180830381865afa1580156100cc573d6000803e3d6000fd5b505050506040513d601f19601f820116820180604052508101906100f0919061030b565b9050801561010257606460005561011b565b604051630114602f60e41b815260040160405180910390fd5b505050505050505050565b634e487b7160e01b600052604160045260246000fd5b600082601f83011261014d57600080fd5b813567ffffffffffffffff8082111561016857610168610126565b604051601f8301601f19908116603f0116810190828211818310171561019057610190610126565b816040528381528660208588010111156101a957600080fd5b836020870160208301376000602085830101528094505050505092915050565b600080600080600080600060e0888a0312156101e457600080fd5b873596506020880135955060408801356bffffffffffffffffffffffff198116811461020f57600080fd5b945060608801359350608088013567ffffffffffffffff8082111561023357600080fd5b61023f8b838c0161013c565b945060a08a0135935060c08a013591508082111561025c57600080fd5b506102698a828b0161013c565b91505092959891949750929550565b8781526000602088818401528760408401526bffffffffffffffffffffffff198716606084015285608084015260e060a084015284518060e085015260005b818110156102d457868101830151858201610100015282016102b7565b818111156102e757600061010083870101525b5060c08401949094525050601f91909101601f191601610100019695505050505050565b60006020828403121561031d57600080fd5b8151801515811461032d57600080fd5b939250505056fea264697066735822122094b74d8a743f336a61a0102f258ca0647728e2c278a4a6291d6cad9d7f0eec8a64736f6c634300080c0033","linkReferences":{}},"methodIdentifiers":{"getLastVerifiedStateHash()":"9e48bbf1","updateLastVerifiedState(bytes32,bytes32,bytes20,bytes32,bytes,uint256,bytes)":"233d4f38"},"id":63}