{"abi":[{"type":"constructor","inputs":[{"name":"_alignedServiceAddr","type":"address","internalType":"address payable"},{"name":"_tipStateHash","type":"bytes32","internalType":"bytes32"}],"stateMutability":"nonpayable"},{"type":"function","name":"BRIDGE_TRANSITION_FRONTIER_LEN","inputs":[],"outputs":[{"name":"","type":"uint256","internalType":"uint256"}],"stateMutability":"view"},{"type":"function","name":"getChainLedgerHashes","inputs":[],"outputs":[{"name":"","type":"bytes32[16]","internalType":"bytes32[16]"}],"stateMutability":"view"},{"type":"function","name":"getChainStateHashes","inputs":[],"outputs":[{"name":"","type":"bytes32[16]","internalType":"bytes32[16]"}],"stateMutability":"view"},{"type":"function","name":"getTipLedgerHash","inputs":[],"outputs":[{"name":"","type":"bytes32","internalType":"bytes32"}],"stateMutability":"view"},{"type":"function","name":"getTipStateHash","inputs":[],"outputs":[{"name":"","type":"bytes32","internalType":"bytes32"}],"stateMutability":"view"},{"type":"function","name":"updateChain","inputs":[{"name":"proofCommitment","type":"bytes32","internalType":"bytes32"},{"name":"provingSystemAuxDataCommitment","type":"bytes32","internalType":"bytes32"},{"name":"proofGeneratorAddr","type":"bytes20","internalType":"bytes20"},{"name":"batchMerkleRoot","type":"bytes32","internalType":"bytes32"},{"name":"merkleProof","type":"bytes","internalType":"bytes"},{"name":"verificationDataBatchIndex","type":"uint256","internalType":"uint256"},{"name":"pubInput","type":"bytes","internalType":"bytes"},{"name":"batcherPaymentServiceAddress","type":"address","internalType":"address"}],"outputs":[],"stateMutability":"nonpayable"},{"type":"error","name":"NewStateIsNotValid","inputs":[]},{"type":"error","name":"TipStateIsWrong","inputs":[{"name":"pubInputTipStateHash","type":"bytes32","internalType":"bytes32"},{"name":"tipStatehash","type":"bytes32","internalType":"bytes32"}]}],"bytecode":{"object":"0x608060405234801561001057600080fd5b506040516106ed3803806106ed83398101604081905261002f91610073565b602080546001600160a01b0319166001600160a01b038416179055806000610059600160106100ad565b60108110610069576100696100d2565b0155506100e89050565b6000806040838503121561008657600080fd5b82516001600160a01b038116811461009d57600080fd5b6020939093015192949293505050565b6000828210156100cd57634e487b7160e01b600052601160045260246000fd5b500390565b634e487b7160e01b600052603260045260246000fd5b6105f6806100f76000396000f3fe608060405234801561001057600080fd5b50600436106100625760003560e01c806303f93e50146100675780632bc4f8d91461008557806337baff0f1461008d5780633886c09b146100a2578063b8184745146100b8578063fb299cd8146100c0575b600080fd5b61006f6100c8565b60405161007c91906102fc565b60405180910390f35b61006f610104565b6100a061009b3660046103ed565b61013a565b005b6100aa6102a8565b60405190815260200161007c565b6100aa6102ce565b6100aa601081565b6100d06102dd565b604080516102008101918290529060009060109082845b8154815260200190600101908083116100e7575050505050905090565b61010c6102dd565b60408051610200810191829052601080548252909181906011602085018083116100e7575050505050905090565b6020820151600061014d600160106104ad565b6010811061015d5761015d6104d2565b015481146101ac57806000610174600160106104ad565b60108110610184576101846104d2565b015460405163177b002560e31b81526004810192909252602482015260440160405180910390fd5b825160208085019190912090546040516306045a9160e01b81526000916001600160a01b0316906306045a91906101f5908e9086908f908f908f908f908f908e906004016104e8565b602060405180830381865afa158015610212573d6000803e3d6000fd5b505050506040513d601f19601f820116820180604052508101906102369190610597565b905080156102825760006010604087016102408801835b601081101561027857825185558151845560019485019493840193602093840193909201910161024d565b505050505061029b565b604051630114602f60e41b815260040160405180910390fd5b5050505050505050505050565b600060106102b76001826104ad565b601081106102c7576102c76104d2565b0154905090565b6000806102b7600160106104ad565b6040518061020001604052806010906020820280368337509192915050565b6102008101818360005b6010811015610325578151835260209283019290910190600101610306565b50505092915050565b634e487b7160e01b600052604160045260246000fd5b600082601f83011261035557600080fd5b813567ffffffffffffffff808211156103705761037061032e565b604051601f8301601f19908116603f011681019082821181831017156103985761039861032e565b816040528381528660208588010111156103b157600080fd5b836020870160208301376000602085830101528094505050505092915050565b80356001600160a01b03811681146103e857600080fd5b919050565b600080600080600080600080610100898b03121561040a57600080fd5b883597506020890135965060408901356bffffffffffffffffffffffff198116811461043557600080fd5b955060608901359450608089013567ffffffffffffffff8082111561045957600080fd5b6104658c838d01610344565b955060a08b0135945060c08b013591508082111561048257600080fd5b5061048f8b828c01610344565b92505061049e60e08a016103d1565b90509295985092959890939650565b6000828210156104cd57634e487b7160e01b600052601160045260246000fd5b500390565b634e487b7160e01b600052603260045260246000fd5b60006101008a835260208a818501528960408501526bffffffffffffffffffffffff19891660608501528760808501528160a085015286518083860152600092505b808310156105495787830182015185840161012001529181019161052a565b8083111561055c57600061012082870101525b60c08501879052601f01601f1916840161012001925061058a91505060e08301846001600160a01b03169052565b9998505050505050505050565b6000602082840312156105a957600080fd5b815180151581146105b957600080fd5b939250505056fea2646970667358221220ef1dfa56a7745f411941fdf41532616d1975e6a1d2f177f7c3dddd128b17353264736f6c634300080c0033","linkReferences":{}},"methodIdentifiers":{"BRIDGE_TRANSITION_FRONTIER_LEN()":"fb299cd8","getChainLedgerHashes()":"2bc4f8d9","getChainStateHashes()":"03f93e50","getTipLedgerHash()":"3886c09b","getTipStateHash()":"b8184745","updateChain(bytes32,bytes32,bytes20,bytes32,bytes,uint256,bytes,address)":"37baff0f"},"id":65}