{"abi":[{"type":"constructor","inputs":[{"name":"_alignedServiceAddr","type":"address","internalType":"address"}],"stateMutability":"nonpayable"},{"type":"function","name":"validateAccount","inputs":[{"name":"proofCommitment","type":"bytes32","internalType":"bytes32"},{"name":"provingSystemAuxDataCommitment","type":"bytes32","internalType":"bytes32"},{"name":"proofGeneratorAddr","type":"bytes20","internalType":"bytes20"},{"name":"batchMerkleRoot","type":"bytes32","internalType":"bytes32"},{"name":"merkleProof","type":"bytes","internalType":"bytes"},{"name":"verificationDataBatchIndex","type":"uint256","internalType":"uint256"},{"name":"pubInput","type":"bytes","internalType":"bytes"}],"outputs":[{"name":"","type":"tuple","internalType":"struct MinaAccountValidation.Account","components":[{"name":"publicKey","type":"tuple","internalType":"struct MinaAccountValidation.CompressedECPoint","components":[{"name":"x","type":"bytes32","internalType":"bytes32"},{"name":"isOdd","type":"bool","internalType":"bool"}]},{"name":"tokenIdKeyHash","type":"bytes32","internalType":"bytes32"},{"name":"tokenSymbol","type":"string","internalType":"string"},{"name":"balance","type":"uint64","internalType":"uint64"},{"name":"nonce","type":"uint32","internalType":"uint32"},{"name":"receiptChainHash","type":"bytes32","internalType":"bytes32"},{"name":"delegate","type":"tuple","internalType":"struct MinaAccountValidation.CompressedECPoint","components":[{"name":"x","type":"bytes32","internalType":"bytes32"},{"name":"isOdd","type":"bool","internalType":"bool"}]},{"name":"votingFor","type":"bytes32","internalType":"bytes32"},{"name":"timing","type":"tuple","internalType":"struct MinaAccountValidation.Timing","components":[{"name":"initialMinimumBalance","type":"uint64","internalType":"uint64"},{"name":"cliffTime","type":"uint32","internalType":"uint32"},{"name":"cliffAmount","type":"uint64","internalType":"uint64"},{"name":"vestingPeriod","type":"uint32","internalType":"uint32"},{"name":"vestingIncrement","type":"uint64","internalType":"uint64"}]},{"name":"permissions","type":"tuple","internalType":"struct MinaAccountValidation.Permissions","components":[{"name":"editState","type":"uint8","internalType":"enum MinaAccountValidation.AuthRequired"},{"name":"access","type":"uint8","internalType":"enum MinaAccountValidation.AuthRequired"},{"name":"send","type":"uint8","internalType":"enum MinaAccountValidation.AuthRequired"},{"name":"rreceive","type":"uint8","internalType":"enum MinaAccountValidation.AuthRequired"},{"name":"setDelegate","type":"uint8","internalType":"enum MinaAccountValidation.AuthRequired"},{"name":"setPermissions","type":"uint8","internalType":"enum MinaAccountValidation.AuthRequired"},{"name":"setVerificationKeyAuth","type":"uint8","internalType":"enum MinaAccountValidation.AuthRequired"},{"name":"setVerificationKeyUint","type":"uint32","internalType":"uint32"},{"name":"setZkappUri","type":"uint8","internalType":"enum MinaAccountValidation.AuthRequired"},{"name":"editActionState","type":"uint8","internalType":"enum MinaAccountValidation.AuthRequired"},{"name":"setTokenSymbol","type":"uint8","internalType":"enum MinaAccountValidation.AuthRequired"},{"name":"incrementNonce","type":"uint8","internalType":"enum MinaAccountValidation.AuthRequired"},{"name":"setVotingFor","type":"uint8","internalType":"enum MinaAccountValidation.AuthRequired"},{"name":"setTiming","type":"uint8","internalType":"enum MinaAccountValidation.AuthRequired"}]},{"name":"zkapp","type":"tuple","internalType":"struct MinaAccountValidation.ZkappAccount","components":[{"name":"appState","type":"bytes32[8]","internalType":"bytes32[8]"},{"name":"verificationKey","type":"tuple","internalType":"struct MinaAccountValidation.VerificationKey","components":[{"name":"maxProofsVerified","type":"uint8","internalType":"enum MinaAccountValidation.ProofsVerified"},{"name":"actualWrapDomainSize","type":"uint8","internalType":"enum MinaAccountValidation.ProofsVerified"},{"name":"wrapIndex","type":"tuple","internalType":"struct MinaAccountValidation.WrapIndex","components":[{"name":"sigmaComm","type":"tuple[7]","internalType":"struct MinaAccountValidation.Commitment[7]","components":[{"name":"x","type":"bytes32","internalType":"bytes32"},{"name":"y","type":"bytes32","internalType":"bytes32"}]},{"name":"coefficientsComm","type":"tuple[15]","internalType":"struct MinaAccountValidation.Commitment[15]","components":[{"name":"x","type":"bytes32","internalType":"bytes32"},{"name":"y","type":"bytes32","internalType":"bytes32"}]},{"name":"genericComm","type":"tuple","internalType":"struct MinaAccountValidation.Commitment","components":[{"name":"x","type":"bytes32","internalType":"bytes32"},{"name":"y","type":"bytes32","internalType":"bytes32"}]},{"name":"psmComm","type":"tuple","internalType":"struct MinaAccountValidation.Commitment","components":[{"name":"x","type":"bytes32","internalType":"bytes32"},{"name":"y","type":"bytes32","internalType":"bytes32"}]},{"name":"completeAddComm","type":"tuple","internalType":"struct MinaAccountValidation.Commitment","components":[{"name":"x","type":"bytes32","internalType":"bytes32"},{"name":"y","type":"bytes32","internalType":"bytes32"}]},{"name":"mulComm","type":"tuple","internalType":"struct MinaAccountValidation.Commitment","components":[{"name":"x","type":"bytes32","internalType":"bytes32"},{"name":"y","type":"bytes32","internalType":"bytes32"}]},{"name":"emulComm","type":"tuple","internalType":"struct MinaAccountValidation.Commitment","components":[{"name":"x","type":"bytes32","internalType":"bytes32"},{"name":"y","type":"bytes32","internalType":"bytes32"}]},{"name":"endomulScalarComm","type":"tuple","internalType":"struct MinaAccountValidation.Commitment","components":[{"name":"x","type":"bytes32","internalType":"bytes32"},{"name":"y","type":"bytes32","internalType":"bytes32"}]}]}]},{"name":"zkappVersion","type":"uint32","internalType":"uint32"},{"name":"actionState","type":"bytes32[5]","internalType":"bytes32[5]"},{"name":"lastActionSlot","type":"uint32","internalType":"uint32"},{"name":"provedState","type":"bool","internalType":"bool"},{"name":"zkappUri","type":"bytes","internalType":"bytes"}]}]}],"stateMutability":"view"},{"type":"error","name":"AccountIsNotVerified","inputs":[]}],"bytecode":{"object":"0x608060405234801561001057600080fd5b506040516113cc3803806113cc83398101604081905261002f91610054565b600080546001600160a01b0319166001600160a01b0392909216919091179055610084565b60006020828403121561006657600080fd5b81516001600160a01b038116811461007d57600080fd5b9392505050565b611339806100936000396000f3fe608060405234801561001057600080fd5b506004361061002b5760003560e01c8063f4c7c1fa14610030575b600080fd5b61004361003e3660046105a9565b610059565b6040516100509190610a2a565b60405180910390f35b610061610164565b3660006100718460208188610b5c565b9150915060008585604051610087929190610b86565b6040518091039020905060008060009054906101000a90046001600160a01b03166001600160a01b031663fa534dc08e848f8f8f8f8f6040518863ffffffff1660e01b81526004016100df9796959493929190610b96565b602060405180830381865afa1580156100fc573d6000803e3d6000fd5b505050506040513d601f19601f820116820180604052508101906101209190610bfb565b9050801561013f57610134838501856111e3565b945050505050610158565b604051634de35c5f60e11b815260040160405180910390fd5b98975050505050505050565b604080516101a081018252600061016082018181526101808301829052825260208083018290526060838501819052808401839052608080850184905260a08086018590528651808801885285815280850186905260c087015260e08601859052865190810187528481529283018490529482018390528101829052928301526101008101919091526101208101610267604080516101c0810190915280600081526020016000815260200160008152602001600081526020016000815260200160008152602001600081526000602082018190526040909101908152602001600081526020016000815260200160008152602001600081526020016000905290565b8152602001610274610279565b905290565b6040518060e0016040528061028c6102c6565b81526020016102996102e5565b8152600060208201526040016102ad610304565b8152600060208201819052604082015260609081015290565b6040518061010001604052806008906020820280368337509192915050565b6040805160608101825260008082526020820152908101610274610322565b6040518060a001604052806005906020820280368337509192915050565b6040518061010001604052806103366103cd565b8152602001610343610406565b8152604080518082018252600080825260208083018290528085019290925282518084018452818152808301829052838501528251808401845281815280830182905260608501528251808401845281815280830182905260808501528251808401845281815280830182905260a085015282518084019093528083529082015260c09091015290565b6040518060e001604052806007905b60408051808201909152600080825260208201528152602001906001900390816103dc5790505090565b60408051610220810190915260006101e082018181526102008301919091528152600e602082016103dc565b634e487b7160e01b600052604160045260246000fd5b604080519081016001600160401b038111828210171561046a5761046a610432565b60405290565b6040516101c081016001600160401b038111828210171561046a5761046a610432565b604051606081016001600160401b038111828210171561046a5761046a610432565b60405161010081016001600160401b038111828210171561046a5761046a610432565b60405160e081016001600160401b038111828210171561046a5761046a610432565b60405161016081016001600160401b038111828210171561046a5761046a610432565b600082601f83011261052e57600080fd5b81356001600160401b038082111561054857610548610432565b604051601f8301601f19908116603f0116810190828211818310171561057057610570610432565b8160405283815286602085880101111561058957600080fd5b836020870160208301376000602085830101528094505050505092915050565b60008060008060008060008060e0898b0312156105c557600080fd5b883597506020890135965060408901356bffffffffffffffffffffffff19811681146105f057600080fd5b95506060890135945060808901356001600160401b038082111561061357600080fd5b61061f8c838d0161051d565b955060a08b0135945060c08b013591508082111561063c57600080fd5b818b0191508b601f83011261065057600080fd5b81358181111561065f57600080fd5b8c602082850101111561067157600080fd5b6020830194508093505050509295985092959890939650565b6000815180845260005b818110156106b057602081850181015186830182015201610694565b818111156106c2576000602083870101525b50601f01601f19169290920160200192915050565b634e487b7160e01b600052602160045260246000fd5b600581106106fd576106fd6106d7565b9052565b61070c8282516106ed565b602081015161071e60208401826106ed565b50604081015161073160408401826106ed565b50606081015161074460608401826106ed565b50608081015161075760808401826106ed565b5060a081015161076a60a08401826106ed565b5060c081015161077d60c08401826106ed565b5060e081015161079560e084018263ffffffff169052565b50610100808201516107a9828501826106ed565b5050610120808201516107be828501826106ed565b5050610140808201516107d3828501826106ed565b5050610160808201516107e8828501826106ed565b5050610180808201516107fd828501826106ed565b50506101a080820151610812828501826106ed565b50505050565b600381106106fd576106fd6106d7565b8060005b600f8110156108125761084a84835180518252602090810151910152565b604093909301926020919091019060010161082c565b61086b828251610818565b60208082015161087d82850182610818565b50604082810151805160008684015b60078210156108bc576108aa81845180518252602090810151910152565b9185019160019190910190840161088c565b50505091820151916108d2610200860184610828565b9081015180516105c08601526020908101516105e0860152606082015180516106008701528101516106208601526080820151805161064087015281015161066086015260a082015180516106808701528101516106a086015260c082015180516106c08701528101516106e086015260e09091015180516107008601520151610720909301929092525050565b8060005b6005811015610812578151845260209384019390910190600101610964565b80516000906109609084835b60088110156109ae57825182526020928301929091019060010161098f565b50505060208301516109c4610100860182610860565b50604083015163ffffffff1661084085015260608301516109e9610860860182610960565b50608083015163ffffffff1661090085015260a0830151151561092085015260c08301516109408501829052610a218286018261068a565b95945050505050565b6020808252825180518383015201511515604082015260208201516060820152600060408301516103c0806080850152610a686103e085018361068a565b91506060850151610a8460a08601826001600160401b03169052565b50608085015163ffffffff811660c08601525060a085015160e085015260c0850151610100610ac181870183805182526020908101511515910152565b60e0870151610140878101919091528188015180516001600160401b039081166101608a0152602082015163ffffffff9081166101808b0152604083015182166101a08b01526060830151166101c08a0152608090910151166101e08801526101208801519250610b36610200880184610701565b870151868503601f1901848801529150610b5290508382610983565b9695505050505050565b60008085851115610b6c57600080fd5b83861115610b7957600080fd5b5050820193919092039150565b8183823760009101908152919050565b8781528660208201528560408201526bffffffffffffffffffffffff198516606082015283608082015260e060a08201526000610bd660e083018561068a565b90508260c083015298975050505050505050565b8015158114610bf857600080fd5b50565b600060208284031215610c0d57600080fd5b8151610c1881610bea565b9392505050565b8035610c2a81610bea565b919050565b600060408284031215610c4157600080fd5b610c49610448565b9050813581526020820135610c5d81610bea565b602082015292915050565b80356001600160401b0381168114610c2a57600080fd5b803563ffffffff81168114610c2a57600080fd5b600060a08284031215610ca557600080fd5b60405160a081018181106001600160401b0382111715610cc757610cc7610432565b604052905080610cd683610c68565b8152610ce460208401610c7f565b6020820152610cf560408401610c68565b6040820152610d0660608401610c7f565b6060820152610d1760808401610c68565b60808201525092915050565b803560058110610c2a57600080fd5b60006101c08284031215610d4557600080fd5b610d4d610470565b9050610d5882610d23565b8152610d6660208301610d23565b6020820152610d7760408301610d23565b6040820152610d8860608301610d23565b6060820152610d9960808301610d23565b6080820152610daa60a08301610d23565b60a0820152610dbb60c08301610d23565b60c0820152610dcc60e08301610c7f565b60e0820152610100610ddf818401610d23565b90820152610120610df1838201610d23565b90820152610140610e03838201610d23565b90820152610160610e15838201610d23565b90820152610180610e27838201610d23565b908201526101a0610e39838201610d23565b9082015292915050565b600082601f830112610e5457600080fd5b6040516101008082018281106001600160401b0382111715610e7857610e78610432565b60405283018185821115610e8b57600080fd5b845b82811015610ea5578035825260209182019101610e8d565b509195945050505050565b803560038110610c2a57600080fd5b600060408284031215610ed157600080fd5b610ed9610448565b9050813581526020820135602082015292915050565b600082601f830112610f0057600080fd5b6040805160e081018181106001600160401b0382111715610f2357610f23610432565b8252806101c0850186811115610f3857600080fd5b855b81811015610f5b57610f4c8882610ebf565b83526020909201918401610f3a565b50919695505050505050565b600082601f830112610f7857600080fd5b604080516101e081018181106001600160401b0382111715610f9c57610f9c610432565b8252806103c0850186811115610fb157600080fd5b855b81811015610f5b57610fc58882610ebf565b83526020909201918401610fb3565b6000818303610740811215610fe857600080fd5b610ff0610493565b9150610ffb83610eb0565b825261100960208401610eb0565b602083015261070080603f198301121561102257600080fd5b61102a6104b5565b91506110398560408601610eef565b8252611049856102008601610f67565b602083015261105c856105c08601610ebf565b604083015261106f856106008601610ebf565b6060830152611082856106408601610ebf565b6080830152611095856106808601610ebf565b60a08301526110a8856106c08601610ebf565b60c08301526110b985828601610ebf565b60e083015250604082015292915050565b600082601f8301126110db57600080fd5b60405160a081018181106001600160401b03821117156110fd576110fd610432565b6040528060a084018581111561111257600080fd5b845b81811015610ea5578035835260209283019201611114565b6000610960828403121561113f57600080fd5b6111476104d8565b90506111538383610e43565b8152611163836101008401610fd4565b60208201526111756108408301610c7f565b60408201526111888361086084016110ca565b606082015261119a6109008301610c7f565b60808201526111ac6109208301610c1f565b60a08201526109408201356001600160401b038111156111cb57600080fd5b6111d78482850161051d565b60c08301525092915050565b6000602082840312156111f557600080fd5b81356001600160401b038082111561120c57600080fd5b908301906103c0828603121561122157600080fd5b6112296104fa565b6112338684610c2f565b81526040830135602082015260608301358281111561125157600080fd5b61125d8782860161051d565b60408301525061126f60808401610c68565b606082015261128060a08401610c7f565b608082015260c083013560a082015261129c8660e08501610c2f565b60c08201526101208084013560e08301526101406112bc88828701610c93565b6101008401526112d0886101e08701610d32565b828401526103a08501359150838211156112e957600080fd5b6112f58883870161112c565b90830152509594505050505056fea26469706673582212208b239796807adc48e2dac4f6a38299d1769b443c9b5e7fa346aeeff055d9094764736f6c634300080c0033","linkReferences":{}},"methodIdentifiers":{"validateAccount(bytes32,bytes32,bytes20,bytes32,bytes,uint256,bytes)":"f4c7c1fa"},"id":63}