{"abi":[{"type":"constructor","inputs":[{"name":"_alignedServiceAddr","type":"address","internalType":"address payable"}],"stateMutability":"nonpayable"},{"type":"function","name":"validateAccount","inputs":[{"name":"args","type":"tuple","internalType":"struct MinaAccountValidation.AlignedArgs","components":[{"name":"proofCommitment","type":"bytes32","internalType":"bytes32"},{"name":"provingSystemAuxDataCommitment","type":"bytes32","internalType":"bytes32"},{"name":"proofGeneratorAddr","type":"bytes20","internalType":"bytes20"},{"name":"batchMerkleRoot","type":"bytes32","internalType":"bytes32"},{"name":"merkleProof","type":"bytes","internalType":"bytes"},{"name":"verificationDataBatchIndex","type":"uint256","internalType":"uint256"},{"name":"pubInput","type":"bytes","internalType":"bytes"},{"name":"batcherPaymentService","type":"address","internalType":"address"}]}],"outputs":[{"name":"","type":"tuple","internalType":"struct MinaAccountValidation.Account","components":[{"name":"publicKey","type":"tuple","internalType":"struct MinaAccountValidation.CompressedECPoint","components":[{"name":"x","type":"bytes32","internalType":"bytes32"},{"name":"isOdd","type":"bool","internalType":"bool"}]},{"name":"tokenIdKeyHash","type":"bytes32","internalType":"bytes32"},{"name":"tokenSymbol","type":"string","internalType":"string"},{"name":"balance","type":"uint64","internalType":"uint64"},{"name":"nonce","type":"uint32","internalType":"uint32"},{"name":"receiptChainHash","type":"bytes32","internalType":"bytes32"},{"name":"delegate","type":"tuple","internalType":"struct MinaAccountValidation.CompressedECPoint","components":[{"name":"x","type":"bytes32","internalType":"bytes32"},{"name":"isOdd","type":"bool","internalType":"bool"}]},{"name":"votingFor","type":"bytes32","internalType":"bytes32"},{"name":"timing","type":"tuple","internalType":"struct MinaAccountValidation.Timing","components":[{"name":"initialMinimumBalance","type":"uint64","internalType":"uint64"},{"name":"cliffTime","type":"uint32","internalType":"uint32"},{"name":"cliffAmount","type":"uint64","internalType":"uint64"},{"name":"vestingPeriod","type":"uint32","internalType":"uint32"},{"name":"vestingIncrement","type":"uint64","internalType":"uint64"}]},{"name":"permissions","type":"tuple","internalType":"struct MinaAccountValidation.Permissions","components":[{"name":"editState","type":"uint8","internalType":"enum MinaAccountValidation.AuthRequired"},{"name":"access","type":"uint8","internalType":"enum MinaAccountValidation.AuthRequired"},{"name":"send","type":"uint8","internalType":"enum MinaAccountValidation.AuthRequired"},{"name":"rreceive","type":"uint8","internalType":"enum MinaAccountValidation.AuthRequired"},{"name":"setDelegate","type":"uint8","internalType":"enum MinaAccountValidation.AuthRequired"},{"name":"setPermissions","type":"uint8","internalType":"enum MinaAccountValidation.AuthRequired"},{"name":"setVerificationKeyAuth","type":"uint8","internalType":"enum MinaAccountValidation.AuthRequired"},{"name":"setVerificationKeyUint","type":"uint32","internalType":"uint32"},{"name":"setZkappUri","type":"uint8","internalType":"enum MinaAccountValidation.AuthRequired"},{"name":"editActionState","type":"uint8","internalType":"enum MinaAccountValidation.AuthRequired"},{"name":"setTokenSymbol","type":"uint8","internalType":"enum MinaAccountValidation.AuthRequired"},{"name":"incrementNonce","type":"uint8","internalType":"enum MinaAccountValidation.AuthRequired"},{"name":"setVotingFor","type":"uint8","internalType":"enum MinaAccountValidation.AuthRequired"},{"name":"setTiming","type":"uint8","internalType":"enum MinaAccountValidation.AuthRequired"}]},{"name":"zkapp","type":"tuple","internalType":"struct MinaAccountValidation.ZkappAccount","components":[{"name":"appState","type":"bytes32[8]","internalType":"bytes32[8]"},{"name":"verificationKey","type":"tuple","internalType":"struct MinaAccountValidation.VerificationKey","components":[{"name":"maxProofsVerified","type":"uint8","internalType":"enum MinaAccountValidation.ProofsVerified"},{"name":"actualWrapDomainSize","type":"uint8","internalType":"enum MinaAccountValidation.ProofsVerified"},{"name":"wrapIndex","type":"tuple","internalType":"struct MinaAccountValidation.WrapIndex","components":[{"name":"sigmaComm","type":"tuple[7]","internalType":"struct MinaAccountValidation.Commitment[7]","components":[{"name":"x","type":"bytes32","internalType":"bytes32"},{"name":"y","type":"bytes32","internalType":"bytes32"}]},{"name":"coefficientsComm","type":"tuple[15]","internalType":"struct MinaAccountValidation.Commitment[15]","components":[{"name":"x","type":"bytes32","internalType":"bytes32"},{"name":"y","type":"bytes32","internalType":"bytes32"}]},{"name":"genericComm","type":"tuple","internalType":"struct MinaAccountValidation.Commitment","components":[{"name":"x","type":"bytes32","internalType":"bytes32"},{"name":"y","type":"bytes32","internalType":"bytes32"}]},{"name":"psmComm","type":"tuple","internalType":"struct MinaAccountValidation.Commitment","components":[{"name":"x","type":"bytes32","internalType":"bytes32"},{"name":"y","type":"bytes32","internalType":"bytes32"}]},{"name":"completeAddComm","type":"tuple","internalType":"struct MinaAccountValidation.Commitment","components":[{"name":"x","type":"bytes32","internalType":"bytes32"},{"name":"y","type":"bytes32","internalType":"bytes32"}]},{"name":"mulComm","type":"tuple","internalType":"struct MinaAccountValidation.Commitment","components":[{"name":"x","type":"bytes32","internalType":"bytes32"},{"name":"y","type":"bytes32","internalType":"bytes32"}]},{"name":"emulComm","type":"tuple","internalType":"struct MinaAccountValidation.Commitment","components":[{"name":"x","type":"bytes32","internalType":"bytes32"},{"name":"y","type":"bytes32","internalType":"bytes32"}]},{"name":"endomulScalarComm","type":"tuple","internalType":"struct MinaAccountValidation.Commitment","components":[{"name":"x","type":"bytes32","internalType":"bytes32"},{"name":"y","type":"bytes32","internalType":"bytes32"}]}]}]},{"name":"zkappVersion","type":"uint32","internalType":"uint32"},{"name":"actionState","type":"bytes32[5]","internalType":"bytes32[5]"},{"name":"lastActionSlot","type":"uint32","internalType":"uint32"},{"name":"provedState","type":"bool","internalType":"bool"},{"name":"zkappUri","type":"bytes","internalType":"bytes"}]}]}],"stateMutability":"view"},{"type":"error","name":"AccountIsNotVerified","inputs":[]}],"bytecode":{"object":"0x608060405234801561001057600080fd5b506040516113f93803806113f983398101604081905261002f91610054565b600080546001600160a01b0319166001600160a01b0392909216919091179055610084565b60006020828403121561006657600080fd5b81516001600160a01b038116811461007d57600080fd5b9392505050565b611366806100936000396000f3fe608060405234801561001057600080fd5b506004361061002b5760003560e01c80639029ad1514610030575b600080fd5b61004361003e366004610475565b610059565b6040516100509190610850565b60405180910390f35b6100616101a7565b36600061007160c0850185610978565b61007f9160289082906109c5565b9092509050600061009360c0860186610978565b6040516100a19291906109ef565b604080519182900390912060008054919350916001600160a01b03909116906306045a9190883590859060208b0135906100e19060608d01908d016109ff565b60608c01356100f360808e018e610978565b8e60a001358f60e001602081019061010b9190610a2e565b6040518a63ffffffff1660e01b815260040161012f99989796959493929190610a57565b602060405180830381865afa15801561014c573d6000803e3d6000fd5b505050506040513d601f19601f820116820180604052508101906101709190610ae5565b9050801561018e5761018483850185611210565b9695505050505050565b604051634de35c5f60e11b815260040160405180910390fd5b604080516101a081018252600061016082018181526101808301829052825260208083018290526060838501819052808401839052608080850184905260a08086018590528651808801885285815280850186905260c087015260e086018590528651908101875284815292830184905294820183905281018290529283015261010081019190915261012081016102aa604080516101c0810190915280600081526020016000815260200160008152602001600081526020016000815260200160008152602001600081526000602082018190526040909101908152602001600081526020016000815260200160008152602001600081526020016000905290565b81526020016102b76102bc565b905290565b6040518060e001604052806102cf610309565b81526020016102dc610328565b8152600060208201526040016102f0610347565b8152600060208201819052604082015260609081015290565b6040518061010001604052806008906020820280368337509192915050565b60408051606081018252600080825260208201529081016102b7610365565b6040518060a001604052806005906020820280368337509192915050565b604051806101000160405280610379610410565b8152602001610386610449565b8152604080518082018252600080825260208083018290528085019290925282518084018452818152808301829052838501528251808401845281815280830182905260608501528251808401845281815280830182905260808501528251808401845281815280830182905260a085015282518084019093528083529082015260c09091015290565b6040518060e001604052806007905b604080518082019091526000808252602082015281526020019060019003908161041f5790505090565b60408051610220810190915260006101e082018181526102008301919091528152600e6020820161041f565b60006020828403121561048757600080fd5b81356001600160401b0381111561049d57600080fd5b820161010081850312156104b057600080fd5b9392505050565b6000815180845260005b818110156104dd576020818501810151868301820152016104c1565b506000602082860101526020601f19601f83011685010191505092915050565b634e487b7160e01b600052602160045260246000fd5b60058110610523576105236104fd565b9052565b610532828251610513565b60208101516105446020840182610513565b5060408101516105576040840182610513565b50606081015161056a6060840182610513565b50608081015161057d6080840182610513565b5060a081015161059060a0840182610513565b5060c08101516105a360c0840182610513565b5060e08101516105bb60e084018263ffffffff169052565b50610100808201516105cf82850182610513565b5050610120808201516105e482850182610513565b5050610140808201516105f982850182610513565b50506101608082015161060e82850182610513565b50506101808082015161062382850182610513565b50506101a08082015161063882850182610513565b50505050565b60038110610523576105236104fd565b8060005b600f8110156106385761067084835180518252602090810151910152565b6040939093019260209190910190600101610652565b61069182825161063e565b6020808201516106a38285018261063e565b50604082810151805160008684015b60078210156106e2576106d081845180518252602090810151910152565b918501916001919091019084016106b2565b50505091820151916106f861020086018461064e565b9081015180516105c08601526020908101516105e0860152606082015180516106008701528101516106208601526080820151805161064087015281015161066086015260a082015180516106808701528101516106a086015260c082015180516106c08701528101516106e086015260e09091015180516107008601520151610720909301929092525050565b8060005b600581101561063857815184526020938401939091019060010161078a565b80516000906109609084835b60088110156107d45782518252602092830192909101906001016107b5565b50505060208301516107ea610100860182610686565b50604083015163ffffffff16610840850152606083015161080f610860860182610786565b50608083015163ffffffff1661090085015260a0830151151561092085015260c08301516109408501829052610847828601826104b7565b95945050505050565b6020808252825180518383015201511515604082015260208201516060820152600060408301516103c080608085015261088e6103e08501836104b7565b915060608501516108aa60a08601826001600160401b03169052565b50608085015163ffffffff811660c08601525060a085015160e085015260c08501516101006108e781870183805182526020908101511515910152565b60e0870151610140878101919091528188015180516001600160401b039081166101608a0152602082015163ffffffff9081166101808b0152604083015182166101a08b01526060830151166101c08a0152608090910151166101e0880152610120880151925061095c610200880184610527565b870151868503601f1901848801529150610184905083826107a9565b6000808335601e1984360301811261098f57600080fd5b8301803591506001600160401b038211156109a957600080fd5b6020019150368190038213156109be57600080fd5b9250929050565b600080858511156109d557600080fd5b838611156109e257600080fd5b5050820193919092039150565b8183823760009101908152919050565b600060208284031215610a1157600080fd5b81356bffffffffffffffffffffffff19811681146104b057600080fd5b600060208284031215610a4057600080fd5b81356001600160a01b03811681146104b057600080fd5b60006101008b83528a60208401528960408401526bffffffffffffffffffffffff19891660608401528760808401528060a0840152858184015250610120858782850137600083870182015260c0830194909452506001600160a01b039190911660e0820152601f909201601f1916909101019695505050505050565b8015158114610ae257600080fd5b50565b600060208284031215610af757600080fd5b81516104b081610ad4565b634e487b7160e01b600052604160045260246000fd5b604080519081016001600160401b0381118282101715610b3a57610b3a610b02565b60405290565b6040516101c081016001600160401b0381118282101715610b3a57610b3a610b02565b604051606081016001600160401b0381118282101715610b3a57610b3a610b02565b60405161010081016001600160401b0381118282101715610b3a57610b3a610b02565b60405160e081016001600160401b0381118282101715610b3a57610b3a610b02565b60405161016081016001600160401b0381118282101715610b3a57610b3a610b02565b8035610bf881610ad4565b919050565b600060408284031215610c0f57600080fd5b610c17610b18565b9050813581526020820135610c2b81610ad4565b602082015292915050565b600082601f830112610c4757600080fd5b81356001600160401b0380821115610c6157610c61610b02565b604051601f8301601f19908116603f01168101908282118183101715610c8957610c89610b02565b81604052838152866020858801011115610ca257600080fd5b836020870160208301376000602085830101528094505050505092915050565b80356001600160401b0381168114610bf857600080fd5b803563ffffffff81168114610bf857600080fd5b600060a08284031215610cff57600080fd5b60405160a081018181106001600160401b0382111715610d2157610d21610b02565b604052905080610d3083610cc2565b8152610d3e60208401610cd9565b6020820152610d4f60408401610cc2565b6040820152610d6060608401610cd9565b6060820152610d7160808401610cc2565b60808201525092915050565b803560058110610bf857600080fd5b60006101c08284031215610d9f57600080fd5b610da7610b40565b9050610db282610d7d565b8152610dc060208301610d7d565b6020820152610dd160408301610d7d565b6040820152610de260608301610d7d565b6060820152610df360808301610d7d565b6080820152610e0460a08301610d7d565b60a0820152610e1560c08301610d7d565b60c0820152610e2660e08301610cd9565b60e0820152610100610e39818401610d7d565b90820152610120610e4b838201610d7d565b90820152610140610e5d838201610d7d565b90820152610160610e6f838201610d7d565b90820152610180610e81838201610d7d565b908201526101a0610e93838201610d7d565b9082015292915050565b600082601f830112610eae57600080fd5b610eb6610b85565b80610100840185811115610ec957600080fd5b845b81811015610ee3578035845260209384019301610ecb565b509095945050505050565b803560038110610bf857600080fd5b600060408284031215610f0f57600080fd5b610f17610b18565b9050813581526020820135602082015292915050565b600082601f830112610f3e57600080fd5b610f46610ba8565b806101c0840185811115610f5957600080fd5b845b81811015610ee357610f6d8782610efd565b8452602090930192604001610f5b565b600082601f830112610f8e57600080fd5b604080516101e081018181106001600160401b0382111715610fb257610fb2610b02565b8252806103c0850186811115610fc757600080fd5b855b81811015610fea57610fdb8882610efd565b83526020909201918401610fc9565b50919695505050505050565b600081830361074081121561100a57600080fd5b611012610b63565b915061101d83610eee565b825261102b60208401610eee565b602083015261070080603f198301121561104457600080fd5b61104c610b85565b915061105b8560408601610f2d565b825261106b856102008601610f7d565b602083015261107e856105c08601610efd565b6040830152611091856106008601610efd565b60608301526110a4856106408601610efd565b60808301526110b7856106808601610efd565b60a08301526110ca856106c08601610efd565b60c08301526110db85828601610efd565b60e083015250604082015292915050565b600082601f8301126110fd57600080fd5b60405160a081018181106001600160401b038211171561111f5761111f610b02565b6040528060a084018581111561113457600080fd5b845b8181101561114e578035835260209283019201611136565b509195945050505050565b6000610960828403121561116c57600080fd5b611174610ba8565b90506111808383610e9d565b8152611190836101008401610ff6565b60208201526111a26108408301610cd9565b60408201526111b58361086084016110ec565b60608201526111c76109008301610cd9565b60808201526111d96109208301610bed565b60a08201526109408201356001600160401b038111156111f857600080fd5b61120484828501610c36565b60c08301525092915050565b60006020828403121561122257600080fd5b81356001600160401b038082111561123957600080fd5b908301906103c0828603121561124e57600080fd5b611256610bca565b6112608684610bfd565b81526040830135602082015260608301358281111561127e57600080fd5b61128a87828601610c36565b60408301525061129c60808401610cc2565b60608201526112ad60a08401610cd9565b608082015260c083013560a08201526112c98660e08501610bfd565b60c08201526101208084013560e08301526101406112e988828701610ced565b6101008401526112fd886101e08701610d8c565b828401526103a085013591508382111561131657600080fd5b61132288838701611159565b90830152509594505050505056fea26469706673582212205d8660752cda5cd761469155afd3eadf779f3bd2113014d619299d1a9bc32b2664736f6c63430008150033","linkReferences":{}},"methodIdentifiers":{"validateAccount((bytes32,bytes32,bytes20,bytes32,bytes,uint256,bytes,address))":"9029ad15"},"id":38}