{"abi":[{"type":"constructor","inputs":[{"name":"_alignedServiceAddr","type":"address","internalType":"address"},{"name":"_tipStateHash","type":"bytes32","internalType":"bytes32"}],"stateMutability":"nonpayable"},{"type":"function","name":"getTipStateHash","inputs":[],"outputs":[{"name":"","type":"bytes32","internalType":"bytes32"}],"stateMutability":"view"},{"type":"function","name":"updateTipState","inputs":[{"name":"proofCommitment","type":"bytes32","internalType":"bytes32"},{"name":"provingSystemAuxDataCommitment","type":"bytes32","internalType":"bytes32"},{"name":"proofGeneratorAddr","type":"bytes20","internalType":"bytes20"},{"name":"batchMerkleRoot","type":"bytes32","internalType":"bytes32"},{"name":"merkleProof","type":"bytes","internalType":"bytes"},{"name":"verificationDataBatchIndex","type":"uint256","internalType":"uint256"},{"name":"pubInput","type":"bytes","internalType":"bytes"}],"outputs":[],"stateMutability":"nonpayable"},{"type":"error","name":"NewStateIsNotValid","inputs":[]},{"type":"error","name":"TipStateIsWrong","inputs":[{"name":"pubInputTipStateHash","type":"bytes32","internalType":"bytes32"},{"name":"tipStatehash","type":"bytes32","internalType":"bytes32"}]}],"bytecode":{"object":"0x608060405234801561001057600080fd5b5060405161044738038061044783398101604081905261002f91610058565b600180546001600160a01b0319166001600160a01b039390931692909217909155600055610092565b6000806040838503121561006b57600080fd5b82516001600160a01b038116811461008257600080fd5b6020939093015192949293505050565b6103a6806100a16000396000f3fe608060405234801561001057600080fd5b50600436106100365760003560e01c8063afa264c11461003b578063b818474514610050575b600080fd5b61004e610049366004610205565b610065565b005b60005460405190815260200160405180910390f35b604081015160005481146100a35760005460405163177b002560e31b815261009a918391600401918252602082015260400190565b60405180910390fd5b815160208301206001546040516303e94d3760e61b81526000916001600160a01b03169063fa534dc0906100e7908d9086908e908e908e908e908e906004016102b4565b602060405180830381865afa158015610104573d6000803e3d6000fd5b505050506040513d601f19601f820116820180604052508101906101289190610347565b9050801561013d576020840151600055610156565b604051630114602f60e41b815260040160405180910390fd5b50505050505050505050565b634e487b7160e01b600052604160045260246000fd5b600082601f83011261018957600080fd5b813567ffffffffffffffff808211156101a4576101a4610162565b604051601f8301601f19908116603f011681019082821181831017156101cc576101cc610162565b816040528381528660208588010111156101e557600080fd5b836020870160208301376000602085830101528094505050505092915050565b600080600080600080600060e0888a03121561022057600080fd5b873596506020880135955060408801356bffffffffffffffffffffffff198116811461024b57600080fd5b945060608801359350608088013567ffffffffffffffff8082111561026f57600080fd5b61027b8b838c01610178565b945060a08a0135935060c08a013591508082111561029857600080fd5b506102a58a828b01610178565b91505092959891949750929550565b8781526000602088818401528760408401526bffffffffffffffffffffffff198716606084015285608084015260e060a084015284518060e085015260005b8181101561031057868101830151858201610100015282016102f3565b8181111561032357600061010083870101525b5060c08401949094525050601f91909101601f191601610100019695505050505050565b60006020828403121561035957600080fd5b8151801515811461036957600080fd5b939250505056fea264697066735822122073dc6f9580f69149a190b7aadeec83b18f341c608aab952e03fd0a4bf748252664736f6c634300080c0033","linkReferences":{}},"methodIdentifiers":{"getTipStateHash()":"b8184745","updateTipState(bytes32,bytes32,bytes20,bytes32,bytes,uint256,bytes)":"afa264c1"},"id":63}