{"abi":[{"type":"constructor","inputs":[{"name":"_alignedServiceAddr","type":"address","internalType":"address payable"},{"name":"_tipStateHash","type":"bytes32","internalType":"bytes32"},{"name":"_devnetFlag","type":"bool","internalType":"bool"}],"stateMutability":"nonpayable"},{"type":"function","name":"BRIDGE_TRANSITION_FRONTIER_LEN","inputs":[],"outputs":[{"name":"","type":"uint256","internalType":"uint256"}],"stateMutability":"view"},{"type":"function","name":"getChainLedgerHashes","inputs":[],"outputs":[{"name":"","type":"bytes32[16]","internalType":"bytes32[16]"}],"stateMutability":"view"},{"type":"function","name":"getChainStateHashes","inputs":[],"outputs":[{"name":"","type":"bytes32[16]","internalType":"bytes32[16]"}],"stateMutability":"view"},{"type":"function","name":"getTipLedgerHash","inputs":[],"outputs":[{"name":"","type":"bytes32","internalType":"bytes32"}],"stateMutability":"view"},{"type":"function","name":"getTipStateHash","inputs":[],"outputs":[{"name":"","type":"bytes32","internalType":"bytes32"}],"stateMutability":"view"},{"type":"function","name":"isLedgerVerified","inputs":[{"name":"ledgerHash","type":"bytes32","internalType":"bytes32"}],"outputs":[{"name":"","type":"bool","internalType":"bool"}],"stateMutability":"view"},{"type":"function","name":"updateChain","inputs":[{"name":"proofCommitment","type":"bytes32","internalType":"bytes32"},{"name":"provingSystemAuxDataCommitment","type":"bytes32","internalType":"bytes32"},{"name":"proofGeneratorAddr","type":"bytes20","internalType":"bytes20"},{"name":"batchMerkleRoot","type":"bytes32","internalType":"bytes32"},{"name":"merkleProof","type":"bytes","internalType":"bytes"},{"name":"verificationDataBatchIndex","type":"uint256","internalType":"uint256"},{"name":"pubInput","type":"bytes","internalType":"bytes"},{"name":"batcherPaymentService","type":"address","internalType":"address"}],"outputs":[],"stateMutability":"nonpayable"},{"type":"error","name":"MinaNetworkIsWrong","inputs":[]},{"type":"error","name":"MinaProvingSystemIdIsNotValid","inputs":[{"name":"","type":"bytes32","internalType":"bytes32"}]},{"type":"error","name":"NewStateIsNotValid","inputs":[]},{"type":"error","name":"TipStateIsWrong","inputs":[{"name":"pubInputTipStateHash","type":"bytes32","internalType":"bytes32"},{"name":"tipStatehash","type":"bytes32","internalType":"bytes32"}]}],"bytecode":{"object":"0x608060405234801561001057600080fd5b5060405161094d38038061094d83398101604081905261002f91610089565b60208054610100600160a81b0319166101006001600160a01b0386160217905581600061005e600160106100dd565b6010811061006e5761006e610104565b01556020805460ff19169115159190911790555061011a9050565b60008060006060848603121561009e57600080fd5b83516001600160a01b03811681146100b557600080fd5b60208501516040860151919450925080151581146100d257600080fd5b809150509250925092565b818103818111156100fe57634e487b7160e01b600052601160045260246000fd5b92915050565b634e487b7160e01b600052603260045260246000fd5b610824806101296000396000f3fe608060405234801561001057600080fd5b506004361061007d5760003560e01c80633886c09b1161005b5780633886c09b146100bd5780633e16b011146100d3578063b8184745146100f6578063fb299cd8146100fe57600080fd5b806303f93e50146100825780632bc4f8d9146100a057806337baff0f146100a8575b600080fd5b61008a610106565b60405161009791906104fe565b60405180910390f35b61008a610142565b6100bb6100b63660046105ef565b610178565b005b6100c56103a7565b604051908152602001610097565b6100e66100e13660046106af565b6103cd565b6040519015158152602001610097565b6100c5610424565b6100c5601081565b61010e6104df565b604080516102008101918290529060009060109082845b815481526020019060010190808311610125575050505050905090565b61014a6104df565b6040805161020081019182905260108054825290918190601160208501808311610125575050505050905090565b7fdbb8d0f4c497851a5043c6363657698cb1387682cac2f786c731f8936109d79587146101c05760405163c35f1ecd60e01b8152600481018890526024015b60405180910390fd5b6101c982610433565b6000826000815181106101de576101de6106c8565b6020910181015190546001600160f81b0319909116600160f81b14915060ff161515811461021f5760405163042eb0cf60e01b815260040160405180910390fd5b600183015161022d81610479565b600061023b600160106106de565b6010811061024b5761024b6106c8565b0154811461029657806000610262600160106106de565b60108110610272576102726106c8565b015460405163177b002560e31b8152600481019290925260248201526044016101b7565b6000848051906020012090506000602060019054906101000a90046001600160a01b03166001600160a01b03166306045a918d848e8e8e8e8e8d6040518963ffffffff1660e01b81526004016102f398979695949392919061074b565b602060405180830381865afa158015610310573d6000803e3d6000fd5b505050506040513d601f19601f8201168201806040525081019061033491906107b2565b905080156103805760006010604188016102418901835b601081101561037657825185558151845560019485019493840193602093840193909201910161034b565b5050505050610399565b604051630114602f60e41b815260040160405180910390fd5b505050505050505050505050565b600060106103b66001826106de565b601081106103c6576103c66106c8565b0154905090565b6000805b601081101561041b57826010826103e96001836106de565b6103f391906106de565b60108110610403576104036106c8565b0154036104135750600192915050565b6001016103d1565b50600092915050565b6000806103b6600160106106de565b6104768160405160240161044791906107db565b60408051601f198184030181529190526020810180516001600160e01b03166305f3bfab60e11b1790526104ba565b50565b6104768160405160240161048f91815260200190565b60408051601f198184030181529190526020810180516001600160e01b03166327b7cf8560e01b1790525b6104768180516a636f6e736f6c652e6c6f67602083016000808483855afa5050505050565b6040518061020001604052806010906020820280368337509192915050565b6102008101818360005b6010811015610527578151835260209283019290910190600101610508565b50505092915050565b634e487b7160e01b600052604160045260246000fd5b600082601f83011261055757600080fd5b813567ffffffffffffffff8082111561057257610572610530565b604051601f8301601f19908116603f0116810190828211818310171561059a5761059a610530565b816040528381528660208588010111156105b357600080fd5b836020870160208301376000602085830101528094505050505092915050565b80356001600160a01b03811681146105ea57600080fd5b919050565b600080600080600080600080610100898b03121561060c57600080fd5b883597506020890135965060408901356bffffffffffffffffffffffff198116811461063757600080fd5b955060608901359450608089013567ffffffffffffffff8082111561065b57600080fd5b6106678c838d01610546565b955060a08b0135945060c08b013591508082111561068457600080fd5b506106918b828c01610546565b9250506106a060e08a016105d3565b90509295985092959890939650565b6000602082840312156106c157600080fd5b5035919050565b634e487b7160e01b600052603260045260246000fd5b818103818111156106ff57634e487b7160e01b600052601160045260246000fd5b92915050565b6000815180845260005b8181101561072b5760208185018101518683018201520161070f565b506000602082860101526020601f19601f83011685010191505092915050565b60006101008a83528960208401528860408401526bffffffffffffffffffffffff19881660608401528660808401528060a084015261078c81840187610705565b60c084019590955250506001600160a01b039190911660e0909101529695505050505050565b6000602082840312156107c457600080fd5b815180151581146107d457600080fd5b9392505050565b6020815260006107d4602083018461070556fea26469706673582212200d643c804f2b8650c8df0958ce3ae23550d566f8da5ae254a9edad428e5c2c5f64736f6c63430008180033","linkReferences":{}},"methodIdentifiers":{"BRIDGE_TRANSITION_FRONTIER_LEN()":"fb299cd8","getChainLedgerHashes()":"2bc4f8d9","getChainStateHashes()":"03f93e50","getTipLedgerHash()":"3886c09b","getTipStateHash()":"b8184745","isLedgerVerified(bytes32)":"3e16b011","updateChain(bytes32,bytes32,bytes20,bytes32,bytes,uint256,bytes,address)":"37baff0f"},"id":39}