{"abi":[{"type":"constructor","inputs":[{"name":"_alignedServiceAddr","type":"address","internalType":"address payable"}],"stateMutability":"nonpayable"},{"type":"function","name":"validateAccount","inputs":[{"name":"args","type":"tuple","internalType":"struct MinaAccountValidation.AlignedArgs","components":[{"name":"proofCommitment","type":"bytes32","internalType":"bytes32"},{"name":"provingSystemAuxDataCommitment","type":"bytes32","internalType":"bytes32"},{"name":"proofGeneratorAddr","type":"bytes20","internalType":"bytes20"},{"name":"batchMerkleRoot","type":"bytes32","internalType":"bytes32"},{"name":"merkleProof","type":"bytes","internalType":"bytes"},{"name":"verificationDataBatchIndex","type":"uint256","internalType":"uint256"},{"name":"pubInput","type":"bytes","internalType":"bytes"},{"name":"batcherPaymentService","type":"address","internalType":"address"}]}],"outputs":[{"name":"","type":"bool","internalType":"bool"}],"stateMutability":"view"},{"type":"function","name":"validateAccountAndReturn","inputs":[{"name":"args","type":"tuple","internalType":"struct MinaAccountValidation.AlignedArgs","components":[{"name":"proofCommitment","type":"bytes32","internalType":"bytes32"},{"name":"provingSystemAuxDataCommitment","type":"bytes32","internalType":"bytes32"},{"name":"proofGeneratorAddr","type":"bytes20","internalType":"bytes20"},{"name":"batchMerkleRoot","type":"bytes32","internalType":"bytes32"},{"name":"merkleProof","type":"bytes","internalType":"bytes"},{"name":"verificationDataBatchIndex","type":"uint256","internalType":"uint256"},{"name":"pubInput","type":"bytes","internalType":"bytes"},{"name":"batcherPaymentService","type":"address","internalType":"address"}]}],"outputs":[{"name":"","type":"tuple","internalType":"struct MinaAccountValidation.Account","components":[{"name":"publicKey","type":"tuple","internalType":"struct MinaAccountValidation.CompressedECPoint","components":[{"name":"x","type":"bytes32","internalType":"bytes32"},{"name":"isOdd","type":"bool","internalType":"bool"}]},{"name":"tokenIdKeyHash","type":"bytes32","internalType":"bytes32"},{"name":"tokenSymbol","type":"string","internalType":"string"},{"name":"balance","type":"uint64","internalType":"uint64"},{"name":"nonce","type":"uint32","internalType":"uint32"},{"name":"receiptChainHash","type":"bytes32","internalType":"bytes32"},{"name":"delegate","type":"tuple","internalType":"struct MinaAccountValidation.CompressedECPoint","components":[{"name":"x","type":"bytes32","internalType":"bytes32"},{"name":"isOdd","type":"bool","internalType":"bool"}]},{"name":"votingFor","type":"bytes32","internalType":"bytes32"},{"name":"timing","type":"tuple","internalType":"struct MinaAccountValidation.Timing","components":[{"name":"initialMinimumBalance","type":"uint64","internalType":"uint64"},{"name":"cliffTime","type":"uint32","internalType":"uint32"},{"name":"cliffAmount","type":"uint64","internalType":"uint64"},{"name":"vestingPeriod","type":"uint32","internalType":"uint32"},{"name":"vestingIncrement","type":"uint64","internalType":"uint64"}]},{"name":"permissions","type":"tuple","internalType":"struct MinaAccountValidation.Permissions","components":[{"name":"editState","type":"uint8","internalType":"enum MinaAccountValidation.AuthRequired"},{"name":"access","type":"uint8","internalType":"enum MinaAccountValidation.AuthRequired"},{"name":"send","type":"uint8","internalType":"enum MinaAccountValidation.AuthRequired"},{"name":"rreceive","type":"uint8","internalType":"enum MinaAccountValidation.AuthRequired"},{"name":"setDelegate","type":"uint8","internalType":"enum MinaAccountValidation.AuthRequired"},{"name":"setPermissions","type":"uint8","internalType":"enum MinaAccountValidation.AuthRequired"},{"name":"setVerificationKeyAuth","type":"uint8","internalType":"enum MinaAccountValidation.AuthRequired"},{"name":"setVerificationKeyUint","type":"uint32","internalType":"uint32"},{"name":"setZkappUri","type":"uint8","internalType":"enum MinaAccountValidation.AuthRequired"},{"name":"editActionState","type":"uint8","internalType":"enum MinaAccountValidation.AuthRequired"},{"name":"setTokenSymbol","type":"uint8","internalType":"enum MinaAccountValidation.AuthRequired"},{"name":"incrementNonce","type":"uint8","internalType":"enum MinaAccountValidation.AuthRequired"},{"name":"setVotingFor","type":"uint8","internalType":"enum MinaAccountValidation.AuthRequired"},{"name":"setTiming","type":"uint8","internalType":"enum MinaAccountValidation.AuthRequired"}]},{"name":"zkapp","type":"tuple","internalType":"struct MinaAccountValidation.ZkappAccount","components":[{"name":"appState","type":"bytes32[8]","internalType":"bytes32[8]"},{"name":"verificationKey","type":"tuple","internalType":"struct MinaAccountValidation.VerificationKey","components":[{"name":"maxProofsVerified","type":"uint8","internalType":"enum MinaAccountValidation.ProofsVerified"},{"name":"actualWrapDomainSize","type":"uint8","internalType":"enum MinaAccountValidation.ProofsVerified"},{"name":"wrapIndex","type":"tuple","internalType":"struct MinaAccountValidation.WrapIndex","components":[{"name":"sigmaComm","type":"tuple[7]","internalType":"struct MinaAccountValidation.Commitment[7]","components":[{"name":"x","type":"bytes32","internalType":"bytes32"},{"name":"y","type":"bytes32","internalType":"bytes32"}]},{"name":"coefficientsComm","type":"tuple[15]","internalType":"struct MinaAccountValidation.Commitment[15]","components":[{"name":"x","type":"bytes32","internalType":"bytes32"},{"name":"y","type":"bytes32","internalType":"bytes32"}]},{"name":"genericComm","type":"tuple","internalType":"struct MinaAccountValidation.Commitment","components":[{"name":"x","type":"bytes32","internalType":"bytes32"},{"name":"y","type":"bytes32","internalType":"bytes32"}]},{"name":"psmComm","type":"tuple","internalType":"struct MinaAccountValidation.Commitment","components":[{"name":"x","type":"bytes32","internalType":"bytes32"},{"name":"y","type":"bytes32","internalType":"bytes32"}]},{"name":"completeAddComm","type":"tuple","internalType":"struct MinaAccountValidation.Commitment","components":[{"name":"x","type":"bytes32","internalType":"bytes32"},{"name":"y","type":"bytes32","internalType":"bytes32"}]},{"name":"mulComm","type":"tuple","internalType":"struct MinaAccountValidation.Commitment","components":[{"name":"x","type":"bytes32","internalType":"bytes32"},{"name":"y","type":"bytes32","internalType":"bytes32"}]},{"name":"emulComm","type":"tuple","internalType":"struct MinaAccountValidation.Commitment","components":[{"name":"x","type":"bytes32","internalType":"bytes32"},{"name":"y","type":"bytes32","internalType":"bytes32"}]},{"name":"endomulScalarComm","type":"tuple","internalType":"struct MinaAccountValidation.Commitment","components":[{"name":"x","type":"bytes32","internalType":"bytes32"},{"name":"y","type":"bytes32","internalType":"bytes32"}]}]}]},{"name":"zkappVersion","type":"uint32","internalType":"uint32"},{"name":"actionState","type":"bytes32[5]","internalType":"bytes32[5]"},{"name":"lastActionSlot","type":"uint32","internalType":"uint32"},{"name":"provedState","type":"bool","internalType":"bool"},{"name":"zkappUri","type":"bytes","internalType":"bytes"}]}]}],"stateMutability":"view"},{"type":"error","name":"MinaAccountProvingSystemIdIsNotValid","inputs":[{"name":"","type":"bytes32","internalType":"bytes32"}]}],"bytecode":{"object":"0x6080604052348015600f57600080fd5b50604051611593380380611593833981016040819052602c916050565b600080546001600160a01b0319166001600160a01b0392909216919091179055607e565b600060208284031215606157600080fd5b81516001600160a01b0381168114607757600080fd5b9392505050565b6115068061008d6000396000f3fe608060405234801561001057600080fd5b50600436106100365760003560e01c80639029ad151461003b578063c647871314610063575b600080fd5b61004e610049366004610605565b610083565b60405190151581526020015b60405180910390f35b610076610071366004610605565b6101c1565b60405161005a91906109e5565b600060208201357fd0591206d9e81e07f4defc5327957173572bcd1bca7838caa7be39b0c12b1873146100d45760405163060bd7bf60e21b8152602083013560048201526024015b60405180910390fd5b60006100e360c0840184610b17565b6040516100f1929190610b64565b60408051918290039091206000549092506001600160a01b0316906306045a9190853590849060208801359061012d9060608a01908a01610b74565b606089013561013f60808b018b610b17565b60a08c01356101556101008e0160e08f01610ba3565b6040518a63ffffffff1660e01b815260040161017999989796959493929190610bcc565b602060405180830381865afa158015610196573d6000803e3d6000fd5b505050506040513d601f19601f820116820180604052508101906101ba9190610c5a565b9392505050565b6101c9610337565b60208201357fd0591206d9e81e07f4defc5327957173572bcd1bca7838caa7be39b0c12b1873146102135760405163060bd7bf60e21b8152602083013560048201526024016100cb565b600061022260c0840184610b17565b604051610230929190610b64565b604080519182900390912060008054919350916001600160a01b03909116906306045a919086359085906020890135906102709060608b01908b01610b74565b60608a013561028260808c018c610b17565b8c60a001358d60e001602081019061029a9190610ba3565b6040518a63ffffffff1660e01b81526004016102be99989796959493929190610bcc565b602060405180830381865afa1580156102db573d6000803e3d6000fd5b505050506040513d601f19601f820116820180604052508101906102ff9190610c5a565b905080156100365761031460c0850185610b17565b610322916028908290610c77565b81019061032f91906113b0565b949350505050565b604080516101a081018252600061016082018181526101808301829052825260208083018290526060838501819052808401839052608080850184905260a08086018590528651808801885285815280850186905260c087015260e0860185905286519081018752848152928301849052948201839052810182905292830152610100810191909152610120810161043a604080516101c0810190915280600081526020016000815260200160008152602001600081526020016000815260200160008152602001600081526000602082018190526040909101908152602001600081526020016000815260200160008152602001600081526020016000905290565b815260200161044761044c565b905290565b6040518060e0016040528061045f610499565b815260200161046c6104b8565b8152600060208201526040016104806104d7565b8152600060208201819052604082015260609081015290565b6040518061010001604052806008906020820280368337509192915050565b60408051606081018252600080825260208201529081016104476104f5565b6040518060a001604052806005906020820280368337509192915050565b6040518061010001604052806105096105a0565b81526020016105166105d9565b8152604080518082018252600080825260208083018290528085019290925282518084018452818152808301829052838501528251808401845281815280830182905260608501528251808401845281815280830182905260808501528251808401845281815280830182905260a085015282518084019093528083529082015260c09091015290565b6040518060e001604052806007905b60408051808201909152600080825260208201528152602001906001900390816105af5790505090565b60408051610220810190915260006101e082018181526102008301919091528152600e602082016105af565b60006020828403121561061757600080fd5b81356001600160401b0381111561062d57600080fd5b820161010081850312156101ba57600080fd5b6000815180845260005b818110156106665760208185018101518683018201520161064a565b506000602082860101526020601f19601f83011685010191505092915050565b634e487b7160e01b600052602160045260246000fd5b600581106106ac576106ac610686565b9052565b6106bb82825161069c565b60208101516106cd602084018261069c565b5060408101516106e0604084018261069c565b5060608101516106f3606084018261069c565b506080810151610706608084018261069c565b5060a081015161071960a084018261069c565b5060c081015161072c60c084018261069c565b5060e081015161074460e084018263ffffffff169052565b50610100808201516107588285018261069c565b50506101208082015161076d8285018261069c565b5050610140808201516107828285018261069c565b5050610160808201516107978285018261069c565b5050610180808201516107ac8285018261069c565b50506101a0808201516107c18285018261069c565b50505050565b600381106106ac576106ac610686565b8060005b600f8110156107c1576107f984835180518252602090810151910152565b60409390930192602091909101906001016107db565b61081a8282516107c7565b60208082015161082d60208501826107c7565b50604082810151805160008684015b600782101561086c5761085a81845180518252602090810151910152565b9185019160019190910190840161083c565b505050602081015192506108846102008601846107d7565b604081015180516105c08701526020908101516105e0870152606082015180516106008801528101516106208701526080820151805161064088015281015161066087015260a082015180516106808801528101516106a087015260c082015180516106c08801528101516106e087015260e09091015180516107008701529081015161072086015291506109169050565b505050565b8060005b60058110156107c157815184526020938401939091019060010161091f565b80516000906109609084835b600881101561096957825182526020928301929091019060010161094a565b505050602083015161097f61010086018261080f565b50604083015163ffffffff1661084085015260608301516109a461086086018261091b565b50608083015163ffffffff1661090085015260a0830151151561092085015260c083015161094085018290526109dc82860182610640565b95945050505050565b6020808252825180518383015201511515604082015260208201516060820152600060408301516103c0806080850152610a236103e0850183610640565b91506060850151610a3f60a08601826001600160401b03169052565b50608085015163ffffffff811660c08601525060a085015160e085015260c0850151610100610a7c81870183805182526020908101511515910152565b60e0870151610140878101919091528188015180516001600160401b039081166101608a0152602082015163ffffffff9081166101808b0152604083015182166101a08b01526060830151166101c08a0152608090910151166101e08801526101208801519250610af16102008801846106b0565b870151868503601f1901848801529150610b0d9050838261093e565b9695505050505050565b6000808335601e19843603018112610b2e57600080fd5b8301803591506001600160401b03821115610b4857600080fd5b602001915036819003821315610b5d57600080fd5b9250929050565b8183823760009101908152919050565b600060208284031215610b8657600080fd5b81356bffffffffffffffffffffffff19811681146101ba57600080fd5b600060208284031215610bb557600080fd5b81356001600160a01b03811681146101ba57600080fd5b60006101008b83528a60208401528960408401526bffffffffffffffffffffffff19891660608401528760808401528060a0840152858184015250610120858782850137600083870182015260c0830194909452506001600160a01b039190911660e0820152601f909201601f1916909101019695505050505050565b8015158114610c5757600080fd5b50565b600060208284031215610c6c57600080fd5b81516101ba81610c49565b60008085851115610c8757600080fd5b83861115610c9457600080fd5b5050820193919092039150565b634e487b7160e01b600052604160045260246000fd5b604080519081016001600160401b0381118282101715610cd957610cd9610ca1565b60405290565b6040516101c081016001600160401b0381118282101715610cd957610cd9610ca1565b604051606081016001600160401b0381118282101715610cd957610cd9610ca1565b60405161010081016001600160401b0381118282101715610cd957610cd9610ca1565b60405160e081016001600160401b0381118282101715610cd957610cd9610ca1565b60405161016081016001600160401b0381118282101715610cd957610cd9610ca1565b8035610d9781610c49565b919050565b600060408284031215610dae57600080fd5b610db6610cb7565b9050813581526020820135610dca81610c49565b602082015292915050565b600082601f830112610de657600080fd5b81356001600160401b0380821115610e0057610e00610ca1565b604051601f8301601f19908116603f01168101908282118183101715610e2857610e28610ca1565b81604052838152866020858801011115610e4157600080fd5b836020870160208301376000602085830101528094505050505092915050565b80356001600160401b0381168114610d9757600080fd5b803563ffffffff81168114610d9757600080fd5b600060a08284031215610e9e57600080fd5b60405160a081018181106001600160401b0382111715610ec057610ec0610ca1565b604052905080610ecf83610e61565b8152610edd60208401610e78565b6020820152610eee60408401610e61565b6040820152610eff60608401610e78565b6060820152610f1060808401610e61565b60808201525092915050565b803560058110610d9757600080fd5b60006101c08284031215610f3e57600080fd5b610f46610cdf565b9050610f5182610f1c565b8152610f5f60208301610f1c565b6020820152610f7060408301610f1c565b6040820152610f8160608301610f1c565b6060820152610f9260808301610f1c565b6080820152610fa360a08301610f1c565b60a0820152610fb460c08301610f1c565b60c0820152610fc560e08301610e78565b60e0820152610100610fd8818401610f1c565b90820152610120610fea838201610f1c565b90820152610140610ffc838201610f1c565b9082015261016061100e838201610f1c565b90820152610180611020838201610f1c565b908201526101a0611032838201610f1c565b9082015292915050565b600082601f83011261104d57600080fd5b611055610d24565b8061010084018581111561106857600080fd5b845b8181101561108257803584526020938401930161106a565b509095945050505050565b803560038110610d9757600080fd5b6000604082840312156110ae57600080fd5b6110b6610cb7565b9050813581526020820135602082015292915050565b600082601f8301126110dd57600080fd5b6110e5610d47565b806101c08401858111156110f857600080fd5b845b818110156110825761110c878261109c565b84526020909301926040016110fa565b600082601f83011261112d57600080fd5b604080516101e081018181106001600160401b038211171561115157611151610ca1565b604052806103c085018681111561116757600080fd5b855b8181101561118a5761117b888261109c565b83526020909201918401611169565b50919695505050505050565b60008183036107408112156111aa57600080fd5b6111b2610d02565b91506111bd8361108d565b82526111cb6020840161108d565b602083015261070080603f19830112156111e457600080fd5b6111ec610d24565b91506111fb85604086016110cc565b825261120b85610200860161111c565b602083015261121e856105c0860161109c565b604083015261123185610600860161109c565b606083015261124485610640860161109c565b608083015261125785610680860161109c565b60a083015261126a856106c0860161109c565b60c083015261127b8582860161109c565b60e083015250604082015292915050565b600082601f83011261129d57600080fd5b60405160a081018181106001600160401b03821117156112bf576112bf610ca1565b6040528060a08401858111156112d457600080fd5b845b818110156112ee5780358352602092830192016112d6565b509195945050505050565b6000610960828403121561130c57600080fd5b611314610d47565b9050611320838361103c565b8152611330836101008401611196565b60208201526113426108408301610e78565b604082015261135583610860840161128c565b60608201526113676109008301610e78565b60808201526113796109208301610d8c565b60a08201526109408201356001600160401b0381111561139857600080fd5b6113a484828501610dd5565b60c08301525092915050565b6000602082840312156113c257600080fd5b81356001600160401b03808211156113d957600080fd5b908301906103c082860312156113ee57600080fd5b6113f6610d69565b6114008684610d9c565b81526040830135602082015260608301358281111561141e57600080fd5b61142a87828601610dd5565b60408301525061143c60808401610e61565b606082015261144d60a08401610e78565b608082015260c083013560a08201526114698660e08501610d9c565b60c08201526101208084013560e083015261014061148988828701610e8c565b61010084015261149d886101e08701610f2b565b828401526103a08501359150838211156114b657600080fd5b6114c2888387016112f9565b90830152509594505050505056fea2646970667358221220fcefcf52c4bbe905da29ff627b373ac0555ded268aa8911edf48272a70a47f2f64736f6c63430008190033","linkReferences":{}},"methodIdentifiers":{"validateAccount((bytes32,bytes32,bytes20,bytes32,bytes,uint256,bytes,address))":"9029ad15","validateAccountAndReturn((bytes32,bytes32,bytes20,bytes32,bytes,uint256,bytes,address))":"c6478713"},"id":38}