{"abi":[{"type":"constructor","inputs":[{"name":"_alignedServiceAddr","type":"address","internalType":"address payable"},{"name":"_tipStateHash","type":"bytes32","internalType":"bytes32"}],"stateMutability":"nonpayable"},{"type":"function","name":"BRIDGE_TRANSITION_FRONTIER_LEN","inputs":[],"outputs":[{"name":"","type":"uint256","internalType":"uint256"}],"stateMutability":"view"},{"type":"function","name":"getChainLedgerHashes","inputs":[],"outputs":[{"name":"","type":"bytes32[16]","internalType":"bytes32[16]"}],"stateMutability":"view"},{"type":"function","name":"getChainStateHashes","inputs":[],"outputs":[{"name":"","type":"bytes32[16]","internalType":"bytes32[16]"}],"stateMutability":"view"},{"type":"function","name":"getTipLedgerHash","inputs":[],"outputs":[{"name":"","type":"bytes32","internalType":"bytes32"}],"stateMutability":"view"},{"type":"function","name":"getTipStateHash","inputs":[],"outputs":[{"name":"","type":"bytes32","internalType":"bytes32"}],"stateMutability":"view"},{"type":"function","name":"updateChain","inputs":[{"name":"proofCommitment","type":"bytes32","internalType":"bytes32"},{"name":"provingSystemAuxDataCommitment","type":"bytes32","internalType":"bytes32"},{"name":"proofGeneratorAddr","type":"bytes20","internalType":"bytes20"},{"name":"batchMerkleRoot","type":"bytes32","internalType":"bytes32"},{"name":"merkleProof","type":"bytes","internalType":"bytes"},{"name":"verificationDataBatchIndex","type":"uint256","internalType":"uint256"},{"name":"pubInput","type":"bytes","internalType":"bytes"}],"outputs":[],"stateMutability":"nonpayable"},{"type":"error","name":"NewStateIsNotValid","inputs":[]},{"type":"error","name":"TipStateIsWrong","inputs":[{"name":"pubInputTipStateHash","type":"bytes32","internalType":"bytes32"},{"name":"tipStatehash","type":"bytes32","internalType":"bytes32"}]}],"bytecode":{"object":"0x608060405234801561001057600080fd5b506040516106bf3803806106bf83398101604081905261002f91610073565b602080546001600160a01b0319166001600160a01b038416179055806000610059600160106100ad565b60108110610069576100696100d2565b0155506100e89050565b6000806040838503121561008657600080fd5b82516001600160a01b038116811461009d57600080fd5b6020939093015192949293505050565b6000828210156100cd57634e487b7160e01b600052601160045260246000fd5b500390565b634e487b7160e01b600052603260045260246000fd5b6105c8806100f76000396000f3fe608060405234801561001057600080fd5b50600436106100625760003560e01c806303f93e50146100675780632bc4f8d9146100855780633886c09b1461008d578063a92d923a146100a3578063b8184745146100b8578063fb299cd8146100c0575b600080fd5b61006f6100c8565b60405161007c91906102fb565b60405180910390f35b61006f610104565b61009561013a565b60405190815260200161007c565b6100b66100b13660046103d0565b610160565b005b6100956102cd565b610095601081565b6100d06102dc565b604080516102008101918290529060009060109082845b8154815260200190600101908083116100e7575050505050905090565b61010c6102dc565b60408051610200810191829052601080548252909181906011602085018083116100e7575050505050905090565b6000601061014960018261047f565b60108110610159576101596104a4565b0154905090565b602081015160006101736001601061047f565b60108110610183576101836104a4565b015481146101d25780600061019a6001601061047f565b601081106101aa576101aa6104a4565b015460405163177b002560e31b81526004810192909252602482015260440160405180910390fd5b815160208084019190912090546040516306045a9160e01b81526000916001600160a01b0316906306045a919061021b908d9086908e908e908e908e908e908b906004016104ba565b602060405180830381865afa158015610238573d6000803e3d6000fd5b505050506040513d601f19601f8201168201806040525081019061025c9190610569565b905080156102a85760006010604086016102408701835b601081101561029e578251855581518455600194850194938401936020938401939092019101610273565b50505050506102c1565b604051630114602f60e41b815260040160405180910390fd5b50505050505050505050565b6000806101496001601061047f565b6040518061020001604052806010906020820280368337509192915050565b6102008101818360005b6010811015610324578151835260209283019290910190600101610305565b50505092915050565b634e487b7160e01b600052604160045260246000fd5b600082601f83011261035457600080fd5b813567ffffffffffffffff8082111561036f5761036f61032d565b604051601f8301601f19908116603f011681019082821181831017156103975761039761032d565b816040528381528660208588010111156103b057600080fd5b836020870160208301376000602085830101528094505050505092915050565b600080600080600080600060e0888a0312156103eb57600080fd5b873596506020880135955060408801356bffffffffffffffffffffffff198116811461041657600080fd5b945060608801359350608088013567ffffffffffffffff8082111561043a57600080fd5b6104468b838c01610343565b945060a08a0135935060c08a013591508082111561046357600080fd5b506104708a828b01610343565b91505092959891949750929550565b60008282101561049f57634e487b7160e01b600052601160045260246000fd5b500390565b634e487b7160e01b600052603260045260246000fd5b60006101008a835260208a818501528960408501526bffffffffffffffffffffffff19891660608501528760808501528160a085015286518083860152600092505b8083101561051b578783018201518584016101200152918101916104fc565b8083111561052e57600061012082870101525b60c08501879052601f01601f1916840161012001925061055c91505060e08301846001600160a01b03169052565b9998505050505050505050565b60006020828403121561057b57600080fd5b8151801515811461058b57600080fd5b939250505056fea2646970667358221220f67050a4ae1e0b02650c780caac27ab639b26cd5fb868d6465d8b448b291078a64736f6c634300080c0033","linkReferences":{}},"methodIdentifiers":{"BRIDGE_TRANSITION_FRONTIER_LEN()":"fb299cd8","getChainLedgerHashes()":"2bc4f8d9","getChainStateHashes()":"03f93e50","getTipLedgerHash()":"3886c09b","getTipStateHash()":"b8184745","updateChain(bytes32,bytes32,bytes20,bytes32,bytes,uint256,bytes)":"a92d923a"},"id":65}