{"abi":[{"type":"constructor","inputs":[{"name":"_alignedServiceAddr","type":"address","internalType":"address"},{"name":"_tipStateHash","type":"bytes32","internalType":"bytes32"}],"stateMutability":"nonpayable"},{"type":"function","name":"BRIDGE_TRANSITION_FRONTIER_LEN","inputs":[],"outputs":[{"name":"","type":"uint256","internalType":"uint256"}],"stateMutability":"view"},{"type":"function","name":"getChainLedgerHashes","inputs":[],"outputs":[{"name":"","type":"bytes32[16]","internalType":"bytes32[16]"}],"stateMutability":"view"},{"type":"function","name":"getChainStateHashes","inputs":[],"outputs":[{"name":"","type":"bytes32[16]","internalType":"bytes32[16]"}],"stateMutability":"view"},{"type":"function","name":"getTipLedgerHash","inputs":[],"outputs":[{"name":"","type":"bytes32","internalType":"bytes32"}],"stateMutability":"view"},{"type":"function","name":"getTipStateHash","inputs":[],"outputs":[{"name":"","type":"bytes32","internalType":"bytes32"}],"stateMutability":"view"},{"type":"function","name":"isAccountVerified","inputs":[{"name":"proofCommitment","type":"bytes32","internalType":"bytes32"},{"name":"provingSystemAuxDataCommitment","type":"bytes32","internalType":"bytes32"},{"name":"proofGeneratorAddr","type":"bytes20","internalType":"bytes20"},{"name":"batchMerkleRoot","type":"bytes32","internalType":"bytes32"},{"name":"merkleProof","type":"bytes","internalType":"bytes"},{"name":"verificationDataBatchIndex","type":"uint256","internalType":"uint256"},{"name":"pubInput","type":"bytes","internalType":"bytes"}],"outputs":[{"name":"","type":"bool","internalType":"bool"}],"stateMutability":"view"},{"type":"function","name":"updateChain","inputs":[{"name":"proofCommitment","type":"bytes32","internalType":"bytes32"},{"name":"provingSystemAuxDataCommitment","type":"bytes32","internalType":"bytes32"},{"name":"proofGeneratorAddr","type":"bytes20","internalType":"bytes20"},{"name":"batchMerkleRoot","type":"bytes32","internalType":"bytes32"},{"name":"merkleProof","type":"bytes","internalType":"bytes"},{"name":"verificationDataBatchIndex","type":"uint256","internalType":"uint256"},{"name":"pubInput","type":"bytes","internalType":"bytes"}],"outputs":[],"stateMutability":"nonpayable"},{"type":"error","name":"NewStateIsNotValid","inputs":[]},{"type":"error","name":"TipStateIsWrong","inputs":[{"name":"pubInputTipStateHash","type":"bytes32","internalType":"bytes32"},{"name":"tipStatehash","type":"bytes32","internalType":"bytes32"}]}],"bytecode":{"object":"0x608060405234801561001057600080fd5b506040516107a43803806107a483398101604081905261002f91610073565b602080546001600160a01b0319166001600160a01b038416179055806000610059600160106100ad565b60108110610069576100696100d2565b0155506100e89050565b6000806040838503121561008657600080fd5b82516001600160a01b038116811461009d57600080fd5b6020939093015192949293505050565b6000828210156100cd57634e487b7160e01b600052601160045260246000fd5b500390565b634e487b7160e01b600052603260045260246000fd5b6106ad806100f76000396000f3fe608060405234801561001057600080fd5b506004361061007d5760003560e01c806361f0e7181161005b57806361f0e718146100be578063a92d923a146100e1578063b8184745146100f6578063fb299cd8146100fe57600080fd5b806303f93e50146100825780632bc4f8d9146100a05780633886c09b146100a8575b600080fd5b61008a610106565b60405161009791906103fc565b60405180910390f35b61008a610142565b6100b0610178565b604051908152602001610097565b6100d16100cc3660046104d1565b61019e565b6040519015158152602001610097565b6100f46100ef3660046104d1565b610263565b005b6100b06103ce565b6100b0601081565b61010e6103dd565b604080516102008101918290529060009060109082845b815481526020019060010190808311610125575050505050905090565b61014a6103dd565b6040805161020081019182905260108054825290918190601160208501808311610125575050505050905090565b60006010610187600182610580565b60108110610197576101976105a5565b0154905090565b600080600080602085015192506040850151915060608501519050600085805190602001209050602060009054906101000a90046001600160a01b03166001600160a01b031663fa534dc08d838e8e8e8e8e6040518863ffffffff1660e01b815260040161021297969594939291906105bb565b602060405180830381865afa15801561022f573d6000803e3d6000fd5b505050506040513d601f19601f82011682018060405250810190610253919061064e565b9c9b505050505050505050505050565b6020810151600061027660016010610580565b60108110610286576102866105a5565b015481146102d55780600061029d60016010610580565b601081106102ad576102ad6105a5565b015460405163177b002560e31b81526004810192909252602482015260440160405180910390fd5b815160208084019190912090546040516303e94d3760e61b81526000916001600160a01b03169063fa534dc09061031c908d9086908e908e908e908e908e906004016105bb565b602060405180830381865afa158015610339573d6000803e3d6000fd5b505050506040513d601f19601f8201168201806040525081019061035d919061064e565b905080156103a95760006010604086016102408701835b601081101561039f578251855581518455600194850194938401936020938401939092019101610374565b50505050506103c2565b604051630114602f60e41b815260040160405180910390fd5b50505050505050505050565b60008061018760016010610580565b6040518061020001604052806010906020820280368337509192915050565b6102008101818360005b6010811015610425578151835260209283019290910190600101610406565b50505092915050565b634e487b7160e01b600052604160045260246000fd5b600082601f83011261045557600080fd5b813567ffffffffffffffff808211156104705761047061042e565b604051601f8301601f19908116603f011681019082821181831017156104985761049861042e565b816040528381528660208588010111156104b157600080fd5b836020870160208301376000602085830101528094505050505092915050565b600080600080600080600060e0888a0312156104ec57600080fd5b873596506020880135955060408801356bffffffffffffffffffffffff198116811461051757600080fd5b945060608801359350608088013567ffffffffffffffff8082111561053b57600080fd5b6105478b838c01610444565b945060a08a0135935060c08a013591508082111561056457600080fd5b506105718a828b01610444565b91505092959891949750929550565b6000828210156105a057634e487b7160e01b600052601160045260246000fd5b500390565b634e487b7160e01b600052603260045260246000fd5b8781526000602088818401528760408401526bffffffffffffffffffffffff198716606084015285608084015260e060a084015284518060e085015260005b8181101561061757868101830151858201610100015282016105fa565b8181111561062a57600061010083870101525b5060c08401949094525050601f91909101601f191601610100019695505050505050565b60006020828403121561066057600080fd5b8151801515811461067057600080fd5b939250505056fea26469706673582212200de6fe76f788b59a7d48286dcde97996b77c2bc2a878889ad8abd89c101a22ee64736f6c634300080c0033","linkReferences":{}},"methodIdentifiers":{"BRIDGE_TRANSITION_FRONTIER_LEN()":"fb299cd8","getChainLedgerHashes()":"2bc4f8d9","getChainStateHashes()":"03f93e50","getTipLedgerHash()":"3886c09b","getTipStateHash()":"b8184745","isAccountVerified(bytes32,bytes32,bytes20,bytes32,bytes,uint256,bytes)":"61f0e718","updateChain(bytes32,bytes32,bytes20,bytes32,bytes,uint256,bytes)":"a92d923a"},"id":64}