{"abi":[{"type":"constructor","inputs":[{"name":"_alignedServiceAddr","type":"address","internalType":"address"},{"name":"_tipStateHash","type":"bytes32","internalType":"bytes32"}],"stateMutability":"nonpayable"},{"type":"function","name":"BRIDGE_TRANSITION_FRONTIER_LEN","inputs":[],"outputs":[{"name":"","type":"uint256","internalType":"uint256"}],"stateMutability":"view"},{"type":"function","name":"getChainStateHashes","inputs":[],"outputs":[{"name":"","type":"bytes32[16]","internalType":"bytes32[16]"}],"stateMutability":"view"},{"type":"function","name":"getLedgerAccountPair","inputs":[{"name":"accountIdHash","type":"bytes32","internalType":"bytes32"}],"outputs":[{"name":"","type":"tuple","internalType":"struct Account.LedgerAccountPair","components":[{"name":"ledgerHash","type":"bytes32","internalType":"bytes32"},{"name":"accountHash","type":"bytes32","internalType":"bytes32"}]}],"stateMutability":"view"},{"type":"function","name":"getTipLedgerHash","inputs":[],"outputs":[{"name":"","type":"bytes32","internalType":"bytes32"}],"stateMutability":"view"},{"type":"function","name":"getTipStateHash","inputs":[],"outputs":[{"name":"","type":"bytes32","internalType":"bytes32"}],"stateMutability":"view"},{"type":"function","name":"isAccountUpdated","inputs":[{"name":"accountIdHash","type":"bytes32","internalType":"bytes32"}],"outputs":[{"name":"","type":"bool","internalType":"bool"}],"stateMutability":"view"},{"type":"function","name":"updateAccount","inputs":[{"name":"proofCommitment","type":"bytes32","internalType":"bytes32"},{"name":"provingSystemAuxDataCommitment","type":"bytes32","internalType":"bytes32"},{"name":"proofGeneratorAddr","type":"bytes20","internalType":"bytes20"},{"name":"batchMerkleRoot","type":"bytes32","internalType":"bytes32"},{"name":"merkleProof","type":"bytes","internalType":"bytes"},{"name":"verificationDataBatchIndex","type":"uint256","internalType":"uint256"},{"name":"pubInput","type":"bytes","internalType":"bytes"}],"outputs":[],"stateMutability":"nonpayable"},{"type":"function","name":"updateChain","inputs":[{"name":"proofCommitment","type":"bytes32","internalType":"bytes32"},{"name":"provingSystemAuxDataCommitment","type":"bytes32","internalType":"bytes32"},{"name":"proofGeneratorAddr","type":"bytes20","internalType":"bytes20"},{"name":"batchMerkleRoot","type":"bytes32","internalType":"bytes32"},{"name":"merkleProof","type":"bytes","internalType":"bytes"},{"name":"verificationDataBatchIndex","type":"uint256","internalType":"uint256"},{"name":"pubInput","type":"bytes","internalType":"bytes"}],"outputs":[],"stateMutability":"nonpayable"},{"type":"error","name":"AccountIsNotValid","inputs":[{"name":"accountIdHash","type":"bytes32","internalType":"bytes32"}]},{"type":"error","name":"NewStateIsNotValid","inputs":[]},{"type":"error","name":"TipStateIsWrong","inputs":[{"name":"pubInputTipStateHash","type":"bytes32","internalType":"bytes32"},{"name":"tipStatehash","type":"bytes32","internalType":"bytes32"}]}],"bytecode":{"object":"0x608060405234801561001057600080fd5b5060405161088b38038061088b83398101604081905261002f91610073565b602180546001600160a01b0319166001600160a01b038416179055806000610059600160106100ad565b60108110610069576100696100d2565b0155506100e89050565b6000806040838503121561008657600080fd5b82516001600160a01b038116811461009d57600080fd5b6020939093015192949293505050565b6000828210156100cd57634e487b7160e01b600052601160045260246000fd5b500390565b634e487b7160e01b600052603260045260246000fd5b610794806100f76000396000f3fe608060405234801561001057600080fd5b50600436106100885760003560e01c8063a92d923a1161005b578063a92d923a146100f9578063b81847451461010c578063be9c064314610114578063fb299cd81461017957600080fd5b806303f93e501461008d5780633886c09b146100ab578063461cede2146100c157806378dd3e16146100e4575b600080fd5b610095610181565b6040516100a291906104ca565b60405180910390f35b6100b36101bd565b6040519081526020016100a2565b6100d46100cf3660046104fc565b6101e3565b60405190151581526020016100a2565b6100f76100f23660046105b8565b61021b565b005b6100f76101073660046105b8565b610338565b6100b361049c565b61015e6101223660046104fc565b60408051808201909152600080825260208201525060009081526020808052604091829020825180840190935280548352600101549082015290565b604080518251815260209283015192810192909252016100a2565b6100b3601081565b6101896104ab565b604080516102008101918290529060009060109082845b8154815260200190600101908083116101a0575050505050905090565b600060106101cc600182610667565b601081106101dc576101dc61068c565b0154905090565b600060106101f2600182610667565b601081106102025761020261068c565b0154600092835260208052604090922054909114919050565b60008060006020840151925060408401519150606084015190506000848051906020012090506000602160009054906101000a90046001600160a01b03166001600160a01b031663fa534dc08d848e8e8e8e8e6040518863ffffffff1660e01b815260040161029097969594939291906106a2565b602060405180830381865afa1580156102ad573d6000803e3d6000fd5b505050506040513d601f19601f820116820180604052508101906102d19190610735565b90508015610309576040805180820182528681526020808201878152600087815291805292902090518155905160019091015561032a565b60405163f63ab27560e01b8152600481018490526024015b60405180910390fd5b505050505050505050505050565b6020810151600061034b60016010610667565b6010811061035b5761035b61068c565b015481146103a65780600061037260016010610667565b601081106103825761038261068c565b015460405163177b002560e31b815260048101929092526024820152604401610321565b815160208301206021546040516303e94d3760e61b81526000916001600160a01b03169063fa534dc0906103ea908d9086908e908e908e908e908e906004016106a2565b602060405180830381865afa158015610407573d6000803e3d6000fd5b505050506040513d601f19601f8201168201806040525081019061042b9190610735565b905080156104775760006010604086016102408701835b601081101561046d578251855581518455600194850194938401936020938401939092019101610442565b5050505050610490565b604051630114602f60e41b815260040160405180910390fd5b50505050505050505050565b6000806101cc60016010610667565b6040518061020001604052806010906020820280368337509192915050565b6102008101818360005b60108110156104f35781518352602092830192909101906001016104d4565b50505092915050565b60006020828403121561050e57600080fd5b5035919050565b634e487b7160e01b600052604160045260246000fd5b600082601f83011261053c57600080fd5b813567ffffffffffffffff8082111561055757610557610515565b604051601f8301601f19908116603f0116810190828211818310171561057f5761057f610515565b8160405283815286602085880101111561059857600080fd5b836020870160208301376000602085830101528094505050505092915050565b600080600080600080600060e0888a0312156105d357600080fd5b873596506020880135955060408801356bffffffffffffffffffffffff19811681146105fe57600080fd5b945060608801359350608088013567ffffffffffffffff8082111561062257600080fd5b61062e8b838c0161052b565b945060a08a0135935060c08a013591508082111561064b57600080fd5b506106588a828b0161052b565b91505092959891949750929550565b60008282101561068757634e487b7160e01b600052601160045260246000fd5b500390565b634e487b7160e01b600052603260045260246000fd5b8781526000602088818401528760408401526bffffffffffffffffffffffff198716606084015285608084015260e060a084015284518060e085015260005b818110156106fe57868101830151858201610100015282016106e1565b8181111561071157600061010083870101525b5060c08401949094525050601f91909101601f191601610100019695505050505050565b60006020828403121561074757600080fd5b8151801515811461075757600080fd5b939250505056fea2646970667358221220720dba81d52bcb30f9f53fc6aee296bd94264fa5ff08c96d235fc98ae90a208f64736f6c634300080c0033","linkReferences":{}},"methodIdentifiers":{"BRIDGE_TRANSITION_FRONTIER_LEN()":"fb299cd8","getChainStateHashes()":"03f93e50","getLedgerAccountPair(bytes32)":"be9c0643","getTipLedgerHash()":"3886c09b","getTipStateHash()":"b8184745","isAccountUpdated(bytes32)":"461cede2","updateAccount(bytes32,bytes32,bytes20,bytes32,bytes,uint256,bytes)":"78dd3e16","updateChain(bytes32,bytes32,bytes20,bytes32,bytes,uint256,bytes)":"a92d923a"},"id":64}