{"abi":[{"type":"constructor","inputs":[{"name":"_alignedServiceAddr","type":"address","internalType":"address payable"},{"name":"_tipStateHash","type":"bytes32","internalType":"bytes32"}],"stateMutability":"nonpayable"},{"type":"function","name":"BRIDGE_TRANSITION_FRONTIER_LEN","inputs":[],"outputs":[{"name":"","type":"uint256","internalType":"uint256"}],"stateMutability":"view"},{"type":"function","name":"getChainLedgerHashes","inputs":[],"outputs":[{"name":"","type":"bytes32[16]","internalType":"bytes32[16]"}],"stateMutability":"view"},{"type":"function","name":"getChainStateHashes","inputs":[],"outputs":[{"name":"","type":"bytes32[16]","internalType":"bytes32[16]"}],"stateMutability":"view"},{"type":"function","name":"getTipLedgerHash","inputs":[],"outputs":[{"name":"","type":"bytes32","internalType":"bytes32"}],"stateMutability":"view"},{"type":"function","name":"getTipStateHash","inputs":[],"outputs":[{"name":"","type":"bytes32","internalType":"bytes32"}],"stateMutability":"view"},{"type":"function","name":"isLedgerVerified","inputs":[{"name":"ledgerHash","type":"bytes32","internalType":"bytes32"}],"outputs":[{"name":"","type":"bool","internalType":"bool"}],"stateMutability":"view"},{"type":"function","name":"updateChain","inputs":[{"name":"proofCommitment","type":"bytes32","internalType":"bytes32"},{"name":"provingSystemAuxDataCommitment","type":"bytes32","internalType":"bytes32"},{"name":"proofGeneratorAddr","type":"bytes20","internalType":"bytes20"},{"name":"batchMerkleRoot","type":"bytes32","internalType":"bytes32"},{"name":"merkleProof","type":"bytes","internalType":"bytes"},{"name":"verificationDataBatchIndex","type":"uint256","internalType":"uint256"},{"name":"pubInput","type":"bytes","internalType":"bytes"}],"outputs":[],"stateMutability":"nonpayable"},{"type":"error","name":"NewStateIsNotValid","inputs":[]},{"type":"error","name":"TipStateIsWrong","inputs":[{"name":"pubInputTipStateHash","type":"bytes32","internalType":"bytes32"},{"name":"tipStatehash","type":"bytes32","internalType":"bytes32"}]}],"bytecode":{"object":"0x608060405234801561001057600080fd5b5060405161079b38038061079b83398101604081905261002f91610073565b602080546001600160a01b0319166001600160a01b038416179055806000610059600160106100ad565b60108110610069576100696100d2565b0155506100e89050565b6000806040838503121561008657600080fd5b82516001600160a01b038116811461009d57600080fd5b6020939093015192949293505050565b6000828210156100cd57634e487b7160e01b600052601160045260246000fd5b500390565b634e487b7160e01b600052603260045260246000fd5b6106a4806100f76000396000f3fe608060405234801561001057600080fd5b506004361061007d5760003560e01c80633e16b0111161005b5780633e16b011146100be578063a92d923a146100e1578063b8184745146100f6578063fb299cd8146100fe57600080fd5b806303f93e50146100825780632bc4f8d9146100a05780633886c09b146100a8575b600080fd5b61008a610106565b604051610097919061039b565b60405180910390f35b61008a610142565b6100b0610178565b604051908152602001610097565b6100d16100cc3660046103cd565b61019e565b6040519015158152602001610097565b6100f46100ef366004610489565b610200565b005b6100b061036d565b6100b0601081565b61010e61037c565b604080516102008101918290529060009060109082845b815481526020019060010190808311610125575050505050905090565b61014a61037c565b6040805161020081019182905260108054825290918190601160208501808311610125575050505050905090565b6000601061018760018261054e565b6010811061019757610197610565565b0154905090565b6000805b60108110156101f757826010826101ba60018361054e565b6101c4919061054e565b601081106101d4576101d4610565565b015414156101e55750600192915050565b806101ef8161057b565b9150506101a2565b50600092915050565b602081015160006102136001601061054e565b6010811061022357610223610565565b015481146102725780600061023a6001601061054e565b6010811061024a5761024a610565565b015460405163177b002560e31b81526004810192909252602482015260440160405180910390fd5b815160208084019190912090546040516306045a9160e01b81526000916001600160a01b0316906306045a91906102bb908d9086908e908e908e908e908e908b90600401610596565b602060405180830381865afa1580156102d8573d6000803e3d6000fd5b505050506040513d601f19601f820116820180604052508101906102fc9190610645565b905080156103485760006010604086016102408701835b601081101561033e578251855581518455600194850194938401936020938401939092019101610313565b5050505050610361565b604051630114602f60e41b815260040160405180910390fd5b50505050505050505050565b6000806101876001601061054e565b6040518061020001604052806010906020820280368337509192915050565b6102008101818360005b60108110156103c45781518352602092830192909101906001016103a5565b50505092915050565b6000602082840312156103df57600080fd5b5035919050565b634e487b7160e01b600052604160045260246000fd5b600082601f83011261040d57600080fd5b813567ffffffffffffffff80821115610428576104286103e6565b604051601f8301601f19908116603f01168101908282118183101715610450576104506103e6565b8160405283815286602085880101111561046957600080fd5b836020870160208301376000602085830101528094505050505092915050565b600080600080600080600060e0888a0312156104a457600080fd5b873596506020880135955060408801356bffffffffffffffffffffffff19811681146104cf57600080fd5b945060608801359350608088013567ffffffffffffffff808211156104f357600080fd5b6104ff8b838c016103fc565b945060a08a0135935060c08a013591508082111561051c57600080fd5b506105298a828b016103fc565b91505092959891949750929550565b634e487b7160e01b600052601160045260246000fd5b60008282101561056057610560610538565b500390565b634e487b7160e01b600052603260045260246000fd5b600060001982141561058f5761058f610538565b5060010190565b60006101008a835260208a818501528960408501526bffffffffffffffffffffffff19891660608501528760808501528160a085015286518083860152600092505b808310156105f7578783018201518584016101200152918101916105d8565b8083111561060a57600061012082870101525b60c08501879052601f01601f1916840161012001925061063891505060e08301846001600160a01b03169052565b9998505050505050505050565b60006020828403121561065757600080fd5b8151801515811461066757600080fd5b939250505056fea26469706673582212204e84be234d08bc7364f2bbb84eb76e581134598fa3e9d9785f29d76ecc96df2364736f6c634300080c0033","linkReferences":{}},"methodIdentifiers":{"BRIDGE_TRANSITION_FRONTIER_LEN()":"fb299cd8","getChainLedgerHashes()":"2bc4f8d9","getChainStateHashes()":"03f93e50","getTipLedgerHash()":"3886c09b","getTipStateHash()":"b8184745","isLedgerVerified(bytes32)":"3e16b011","updateChain(bytes32,bytes32,bytes20,bytes32,bytes,uint256,bytes)":"a92d923a"},"id":64}