{"abi":[{"type":"constructor","inputs":[{"name":"_alignedServiceAddr","type":"address","internalType":"address payable"}],"stateMutability":"nonpayable"},{"type":"function","name":"validateAccount","inputs":[{"name":"proofCommitment","type":"bytes32","internalType":"bytes32"},{"name":"provingSystemAuxDataCommitment","type":"bytes32","internalType":"bytes32"},{"name":"proofGeneratorAddr","type":"bytes20","internalType":"bytes20"},{"name":"batchMerkleRoot","type":"bytes32","internalType":"bytes32"},{"name":"merkleProof","type":"bytes","internalType":"bytes"},{"name":"verificationDataBatchIndex","type":"uint256","internalType":"uint256"},{"name":"pubInput","type":"bytes","internalType":"bytes"}],"outputs":[{"name":"","type":"bool","internalType":"bool"}],"stateMutability":"view"},{"type":"function","name":"validateAccountAndReturn","inputs":[{"name":"proofCommitment","type":"bytes32","internalType":"bytes32"},{"name":"provingSystemAuxDataCommitment","type":"bytes32","internalType":"bytes32"},{"name":"proofGeneratorAddr","type":"bytes20","internalType":"bytes20"},{"name":"batchMerkleRoot","type":"bytes32","internalType":"bytes32"},{"name":"merkleProof","type":"bytes","internalType":"bytes"},{"name":"verificationDataBatchIndex","type":"uint256","internalType":"uint256"},{"name":"pubInput","type":"bytes","internalType":"bytes"}],"outputs":[{"name":"","type":"tuple","internalType":"struct MinaAccountValidation.Account","components":[{"name":"publicKey","type":"tuple","internalType":"struct MinaAccountValidation.CompressedECPoint","components":[{"name":"x","type":"bytes32","internalType":"bytes32"},{"name":"isOdd","type":"bool","internalType":"bool"}]},{"name":"tokenIdKeyHash","type":"bytes32","internalType":"bytes32"},{"name":"tokenSymbol","type":"string","internalType":"string"},{"name":"balance","type":"uint64","internalType":"uint64"},{"name":"nonce","type":"uint32","internalType":"uint32"},{"name":"receiptChainHash","type":"bytes32","internalType":"bytes32"},{"name":"delegate","type":"tuple","internalType":"struct MinaAccountValidation.CompressedECPoint","components":[{"name":"x","type":"bytes32","internalType":"bytes32"},{"name":"isOdd","type":"bool","internalType":"bool"}]},{"name":"votingFor","type":"bytes32","internalType":"bytes32"},{"name":"timing","type":"tuple","internalType":"struct MinaAccountValidation.Timing","components":[{"name":"initialMinimumBalance","type":"uint64","internalType":"uint64"},{"name":"cliffTime","type":"uint32","internalType":"uint32"},{"name":"cliffAmount","type":"uint64","internalType":"uint64"},{"name":"vestingPeriod","type":"uint32","internalType":"uint32"},{"name":"vestingIncrement","type":"uint64","internalType":"uint64"}]},{"name":"permissions","type":"tuple","internalType":"struct MinaAccountValidation.Permissions","components":[{"name":"editState","type":"uint8","internalType":"enum MinaAccountValidation.AuthRequired"},{"name":"access","type":"uint8","internalType":"enum MinaAccountValidation.AuthRequired"},{"name":"send","type":"uint8","internalType":"enum MinaAccountValidation.AuthRequired"},{"name":"rreceive","type":"uint8","internalType":"enum MinaAccountValidation.AuthRequired"},{"name":"setDelegate","type":"uint8","internalType":"enum MinaAccountValidation.AuthRequired"},{"name":"setPermissions","type":"uint8","internalType":"enum MinaAccountValidation.AuthRequired"},{"name":"setVerificationKeyAuth","type":"uint8","internalType":"enum MinaAccountValidation.AuthRequired"},{"name":"setVerificationKeyUint","type":"uint32","internalType":"uint32"},{"name":"setZkappUri","type":"uint8","internalType":"enum MinaAccountValidation.AuthRequired"},{"name":"editActionState","type":"uint8","internalType":"enum MinaAccountValidation.AuthRequired"},{"name":"setTokenSymbol","type":"uint8","internalType":"enum MinaAccountValidation.AuthRequired"},{"name":"incrementNonce","type":"uint8","internalType":"enum MinaAccountValidation.AuthRequired"},{"name":"setVotingFor","type":"uint8","internalType":"enum MinaAccountValidation.AuthRequired"},{"name":"setTiming","type":"uint8","internalType":"enum MinaAccountValidation.AuthRequired"}]},{"name":"zkapp","type":"tuple","internalType":"struct MinaAccountValidation.ZkappAccount","components":[{"name":"appState","type":"bytes32[8]","internalType":"bytes32[8]"},{"name":"verificationKey","type":"tuple","internalType":"struct MinaAccountValidation.VerificationKey","components":[{"name":"maxProofsVerified","type":"uint8","internalType":"enum MinaAccountValidation.ProofsVerified"},{"name":"actualWrapDomainSize","type":"uint8","internalType":"enum MinaAccountValidation.ProofsVerified"},{"name":"wrapIndex","type":"tuple","internalType":"struct MinaAccountValidation.WrapIndex","components":[{"name":"sigmaComm","type":"tuple[7]","internalType":"struct MinaAccountValidation.Commitment[7]","components":[{"name":"x","type":"bytes32","internalType":"bytes32"},{"name":"y","type":"bytes32","internalType":"bytes32"}]},{"name":"coefficientsComm","type":"tuple[15]","internalType":"struct MinaAccountValidation.Commitment[15]","components":[{"name":"x","type":"bytes32","internalType":"bytes32"},{"name":"y","type":"bytes32","internalType":"bytes32"}]},{"name":"genericComm","type":"tuple","internalType":"struct MinaAccountValidation.Commitment","components":[{"name":"x","type":"bytes32","internalType":"bytes32"},{"name":"y","type":"bytes32","internalType":"bytes32"}]},{"name":"psmComm","type":"tuple","internalType":"struct MinaAccountValidation.Commitment","components":[{"name":"x","type":"bytes32","internalType":"bytes32"},{"name":"y","type":"bytes32","internalType":"bytes32"}]},{"name":"completeAddComm","type":"tuple","internalType":"struct MinaAccountValidation.Commitment","components":[{"name":"x","type":"bytes32","internalType":"bytes32"},{"name":"y","type":"bytes32","internalType":"bytes32"}]},{"name":"mulComm","type":"tuple","internalType":"struct MinaAccountValidation.Commitment","components":[{"name":"x","type":"bytes32","internalType":"bytes32"},{"name":"y","type":"bytes32","internalType":"bytes32"}]},{"name":"emulComm","type":"tuple","internalType":"struct MinaAccountValidation.Commitment","components":[{"name":"x","type":"bytes32","internalType":"bytes32"},{"name":"y","type":"bytes32","internalType":"bytes32"}]},{"name":"endomulScalarComm","type":"tuple","internalType":"struct MinaAccountValidation.Commitment","components":[{"name":"x","type":"bytes32","internalType":"bytes32"},{"name":"y","type":"bytes32","internalType":"bytes32"}]}]}]},{"name":"zkappVersion","type":"uint32","internalType":"uint32"},{"name":"actionState","type":"bytes32[5]","internalType":"bytes32[5]"},{"name":"lastActionSlot","type":"uint32","internalType":"uint32"},{"name":"provedState","type":"bool","internalType":"bool"},{"name":"zkappUri","type":"bytes","internalType":"bytes"}]}]}],"stateMutability":"view"}],"bytecode":{"object":"0x608060405234801561001057600080fd5b5060405161148038038061148083398101604081905261002f91610054565b600080546001600160a01b0319166001600160a01b0392909216919091179055610084565b60006020828403121561006657600080fd5b81516001600160a01b038116811461007d57600080fd5b9392505050565b6113ed806100936000396000f3fe608060405234801561001057600080fd5b50600436106100365760003560e01c8063307b7a151461003b578063f4c7c1fa14610064575b600080fd5b61004e61004936600461064a565b610087565b60405161005b9190610acb565b60405180910390f35b61007761007236600461064a565b61015c565b604051901515815260200161005b565b61008f610205565b600083836040516100a1929190610bfd565b604051908190038120600080546306045a9160e01b8452919350916001600160a01b03909116906306045a91906100ea908e9086908f908f908f908f908f908b90600401610c0d565b602060405180830381865afa158015610107573d6000803e3d6000fd5b505050506040513d601f19601f8201168201806040525081019061012b9190610c85565b90508015610036576101408460288188610ca9565b81019061014d9190611297565b9b9a5050505050505050505050565b600080838360405161016f929190610bfd565b604051908190038120600080546306045a9160e01b84529193506001600160a01b03909116916306045a91916101b6918e9186918f918f918f918f918f9190600401610c0d565b602060405180830381865afa1580156101d3573d6000803e3d6000fd5b505050506040513d601f19601f820116820180604052508101906101f79190610c85565b9a9950505050505050505050565b604080516101a081018252600061016082018181526101808301829052825260208083018290526060838501819052808401839052608080850184905260a08086018590528651808801885285815280850186905260c087015260e08601859052865190810187528481529283018490529482018390528101829052928301526101008101919091526101208101610308604080516101c0810190915280600081526020016000815260200160008152602001600081526020016000815260200160008152602001600081526000602082018190526040909101908152602001600081526020016000815260200160008152602001600081526020016000905290565b815260200161031561031a565b905290565b6040518060e0016040528061032d610367565b815260200161033a610386565b81526000602082015260400161034e6103a5565b8152600060208201819052604082015260609081015290565b6040518061010001604052806008906020820280368337509192915050565b60408051606081018252600080825260208201529081016103156103c3565b6040518060a001604052806005906020820280368337509192915050565b6040518061010001604052806103d761046e565b81526020016103e46104a7565b8152604080518082018252600080825260208083018290528085019290925282518084018452818152808301829052838501528251808401845281815280830182905260608501528251808401845281815280830182905260808501528251808401845281815280830182905260a085015282518084019093528083529082015260c09091015290565b6040518060e001604052806007905b604080518082019091526000808252602082015281526020019060019003908161047d5790505090565b60408051610220810190915260006101e082018181526102008301919091528152600e6020820161047d565b634e487b7160e01b600052604160045260246000fd5b604080519081016001600160401b038111828210171561050b5761050b6104d3565b60405290565b6040516101c081016001600160401b038111828210171561050b5761050b6104d3565b604051606081016001600160401b038111828210171561050b5761050b6104d3565b60405161010081016001600160401b038111828210171561050b5761050b6104d3565b60405160e081016001600160401b038111828210171561050b5761050b6104d3565b60405161016081016001600160401b038111828210171561050b5761050b6104d3565b600082601f8301126105cf57600080fd5b81356001600160401b03808211156105e9576105e96104d3565b604051601f8301601f19908116603f01168101908282118183101715610611576106116104d3565b8160405283815286602085880101111561062a57600080fd5b836020870160208301376000602085830101528094505050505092915050565b60008060008060008060008060e0898b03121561066657600080fd5b883597506020890135965060408901356bffffffffffffffffffffffff198116811461069157600080fd5b95506060890135945060808901356001600160401b03808211156106b457600080fd5b6106c08c838d016105be565b955060a08b0135945060c08b01359150808211156106dd57600080fd5b818b0191508b601f8301126106f157600080fd5b81358181111561070057600080fd5b8c602082850101111561071257600080fd5b6020830194508093505050509295985092959890939650565b6000815180845260005b8181101561075157602081850181015186830182015201610735565b81811115610763576000602083870101525b50601f01601f19169290920160200192915050565b634e487b7160e01b600052602160045260246000fd5b6005811061079e5761079e610778565b9052565b6107ad82825161078e565b60208101516107bf602084018261078e565b5060408101516107d2604084018261078e565b5060608101516107e5606084018261078e565b5060808101516107f8608084018261078e565b5060a081015161080b60a084018261078e565b5060c081015161081e60c084018261078e565b5060e081015161083660e084018263ffffffff169052565b506101008082015161084a8285018261078e565b50506101208082015161085f8285018261078e565b5050610140808201516108748285018261078e565b5050610160808201516108898285018261078e565b50506101808082015161089e8285018261078e565b50506101a0808201516108b38285018261078e565b50505050565b6003811061079e5761079e610778565b8060005b600f8110156108b3576108eb84835180518252602090810151910152565b60409390930192602091909101906001016108cd565b61090c8282516108b9565b60208082015161091e828501826108b9565b50604082810151805160008684015b600782101561095d5761094b81845180518252602090810151910152565b9185019160019190910190840161092d565b50505091820151916109736102008601846108c9565b9081015180516105c08601526020908101516105e0860152606082015180516106008701528101516106208601526080820151805161064087015281015161066086015260a082015180516106808701528101516106a086015260c082015180516106c08701528101516106e086015260e09091015180516107008601520151610720909301929092525050565b8060005b60058110156108b3578151845260209384019390910190600101610a05565b80516000906109609084835b6008811015610a4f578251825260209283019290910190600101610a30565b5050506020830151610a65610100860182610901565b50604083015163ffffffff166108408501526060830151610a8a610860860182610a01565b50608083015163ffffffff1661090085015260a0830151151561092085015260c08301516109408501829052610ac28286018261072b565b95945050505050565b6020808252825180518383015201511515604082015260208201516060820152600060408301516103c0806080850152610b096103e085018361072b565b91506060850151610b2560a08601826001600160401b03169052565b50608085015163ffffffff811660c08601525060a085015160e085015260c0850151610100610b6281870183805182526020908101511515910152565b60e0870151610140878101919091528188015180516001600160401b039081166101608a0152602082015163ffffffff9081166101808b0152604083015182166101a08b01526060830151166101c08a0152608090910151166101e08801526101208801519250610bd76102008801846107a2565b870151868503601f1901848801529150610bf390508382610a24565b9695505050505050565b8183823760009101908152919050565b60006101008a83528960208401528860408401526bffffffffffffffffffffffff19881660608401528660808401528060a0840152610c4e8184018761072b565b60c084019590955250506001600160a01b039190911660e0909101529695505050505050565b8015158114610c8257600080fd5b50565b600060208284031215610c9757600080fd5b8151610ca281610c74565b9392505050565b60008085851115610cb957600080fd5b83861115610cc657600080fd5b5050820193919092039150565b8035610cde81610c74565b919050565b600060408284031215610cf557600080fd5b610cfd6104e9565b9050813581526020820135610d1181610c74565b602082015292915050565b80356001600160401b0381168114610cde57600080fd5b803563ffffffff81168114610cde57600080fd5b600060a08284031215610d5957600080fd5b60405160a081018181106001600160401b0382111715610d7b57610d7b6104d3565b604052905080610d8a83610d1c565b8152610d9860208401610d33565b6020820152610da960408401610d1c565b6040820152610dba60608401610d33565b6060820152610dcb60808401610d1c565b60808201525092915050565b803560058110610cde57600080fd5b60006101c08284031215610df957600080fd5b610e01610511565b9050610e0c82610dd7565b8152610e1a60208301610dd7565b6020820152610e2b60408301610dd7565b6040820152610e3c60608301610dd7565b6060820152610e4d60808301610dd7565b6080820152610e5e60a08301610dd7565b60a0820152610e6f60c08301610dd7565b60c0820152610e8060e08301610d33565b60e0820152610100610e93818401610dd7565b90820152610120610ea5838201610dd7565b90820152610140610eb7838201610dd7565b90820152610160610ec9838201610dd7565b90820152610180610edb838201610dd7565b908201526101a0610eed838201610dd7565b9082015292915050565b600082601f830112610f0857600080fd5b6040516101008082018281106001600160401b0382111715610f2c57610f2c6104d3565b60405283018185821115610f3f57600080fd5b845b82811015610f59578035825260209182019101610f41565b509195945050505050565b803560038110610cde57600080fd5b600060408284031215610f8557600080fd5b610f8d6104e9565b9050813581526020820135602082015292915050565b600082601f830112610fb457600080fd5b6040805160e081018181106001600160401b0382111715610fd757610fd76104d3565b8252806101c0850186811115610fec57600080fd5b855b8181101561100f576110008882610f73565b83526020909201918401610fee565b50919695505050505050565b600082601f83011261102c57600080fd5b604080516101e081018181106001600160401b0382111715611050576110506104d3565b8252806103c085018681111561106557600080fd5b855b8181101561100f576110798882610f73565b83526020909201918401611067565b600081830361074081121561109c57600080fd5b6110a4610534565b91506110af83610f64565b82526110bd60208401610f64565b602083015261070080603f19830112156110d657600080fd5b6110de610556565b91506110ed8560408601610fa3565b82526110fd85610200860161101b565b6020830152611110856105c08601610f73565b6040830152611123856106008601610f73565b6060830152611136856106408601610f73565b6080830152611149856106808601610f73565b60a083015261115c856106c08601610f73565b60c083015261116d85828601610f73565b60e083015250604082015292915050565b600082601f83011261118f57600080fd5b60405160a081018181106001600160401b03821117156111b1576111b16104d3565b6040528060a08401858111156111c657600080fd5b845b81811015610f595780358352602092830192016111c8565b600061096082840312156111f357600080fd5b6111fb610579565b90506112078383610ef7565b8152611217836101008401611088565b60208201526112296108408301610d33565b604082015261123c83610860840161117e565b606082015261124e6109008301610d33565b60808201526112606109208301610cd3565b60a08201526109408201356001600160401b0381111561127f57600080fd5b61128b848285016105be565b60c08301525092915050565b6000602082840312156112a957600080fd5b81356001600160401b03808211156112c057600080fd5b908301906103c082860312156112d557600080fd5b6112dd61059b565b6112e78684610ce3565b81526040830135602082015260608301358281111561130557600080fd5b611311878286016105be565b60408301525061132360808401610d1c565b606082015261133460a08401610d33565b608082015260c083013560a08201526113508660e08501610ce3565b60c08201526101208084013560e083015261014061137088828701610d47565b610100840152611384886101e08701610de6565b828401526103a085013591508382111561139d57600080fd5b6113a9888387016111e0565b90830152509594505050505056fea2646970667358221220408401dcf79b112a5d4db083ac49d1c032701dd0d75f7bf39ab9954a6600271e64736f6c634300080c0033","linkReferences":{}},"methodIdentifiers":{"validateAccount(bytes32,bytes32,bytes20,bytes32,bytes,uint256,bytes)":"f4c7c1fa","validateAccountAndReturn(bytes32,bytes32,bytes20,bytes32,bytes,uint256,bytes)":"307b7a15"},"id":40}