{"abi":[{"type":"constructor","inputs":[{"name":"_alignedServiceAddr","type":"address","internalType":"address payable"},{"name":"_tipStateHash","type":"bytes32","internalType":"bytes32"}],"stateMutability":"nonpayable"},{"type":"function","name":"BRIDGE_TRANSITION_FRONTIER_LEN","inputs":[],"outputs":[{"name":"","type":"uint256","internalType":"uint256"}],"stateMutability":"view"},{"type":"function","name":"getChainLedgerHashes","inputs":[],"outputs":[{"name":"","type":"bytes32[16]","internalType":"bytes32[16]"}],"stateMutability":"view"},{"type":"function","name":"getChainStateHashes","inputs":[],"outputs":[{"name":"","type":"bytes32[16]","internalType":"bytes32[16]"}],"stateMutability":"view"},{"type":"function","name":"getTipLedgerHash","inputs":[],"outputs":[{"name":"","type":"bytes32","internalType":"bytes32"}],"stateMutability":"view"},{"type":"function","name":"getTipStateHash","inputs":[],"outputs":[{"name":"","type":"bytes32","internalType":"bytes32"}],"stateMutability":"view"},{"type":"function","name":"updateChain","inputs":[{"name":"proofCommitment","type":"bytes32","internalType":"bytes32"},{"name":"provingSystemAuxDataCommitment","type":"bytes32","internalType":"bytes32"},{"name":"proofGeneratorAddr","type":"bytes20","internalType":"bytes20"},{"name":"batchMerkleRoot","type":"bytes32","internalType":"bytes32"},{"name":"merkleProof","type":"bytes","internalType":"bytes"},{"name":"verificationDataBatchIndex","type":"uint256","internalType":"uint256"},{"name":"pubInput","type":"bytes","internalType":"bytes"},{"name":"batcherPaymentService","type":"address","internalType":"address"}],"outputs":[],"stateMutability":"nonpayable"},{"type":"error","name":"NewStateIsNotValid","inputs":[]},{"type":"error","name":"ProvingSystemIdIsNotValid","inputs":[{"name":"","type":"bytes32","internalType":"bytes32"}]},{"type":"error","name":"TipStateIsWrong","inputs":[{"name":"pubInputTipStateHash","type":"bytes32","internalType":"bytes32"},{"name":"tipStatehash","type":"bytes32","internalType":"bytes32"}]}],"bytecode":{"object":"0x608060405234801561001057600080fd5b5060405161073138038061073183398101604081905261002f91610073565b602080546001600160a01b0319166001600160a01b038416179055806000610059600160106100ad565b60108110610069576100696100d2565b0155506100e89050565b6000806040838503121561008657600080fd5b82516001600160a01b038116811461009d57600080fd5b6020939093015192949293505050565b6000828210156100cd57634e487b7160e01b600052601160045260246000fd5b500390565b634e487b7160e01b600052603260045260246000fd5b61063a806100f76000396000f3fe608060405234801561001057600080fd5b50600436106100625760003560e01c806303f93e50146100675780632bc4f8d91461008557806337baff0f1461008d5780633886c09b146100a2578063b8184745146100b8578063fb299cd8146100c0575b600080fd5b61006f6100c8565b60405161007c9190610340565b60405180910390f35b61006f610104565b6100a061009b366004610431565b61013a565b005b6100aa6102ec565b60405190815260200161007c565b6100aa610312565b6100aa601081565b6100d0610321565b604080516102008101918290529060009060109082845b8154815260200190600101908083116100e7575050505050905090565b61010c610321565b60408051610200810191829052601080548252909181906011602085018083116100e7575050505050905090565b7fee2a4bc7db81da2b7164e56b3649b1e2a09c58c455b15dabddd9146c7582cebc871461018257604051637c95533560e11b8152600481018890526024015b60405180910390fd5b60208201516000610195600160106104f1565b601081106101a5576101a5610516565b015481146101f0578060006101bc600160106104f1565b601081106101cc576101cc610516565b015460405163177b002560e31b815260048101929092526024820152604401610179565b825160208085019190912090546040516306045a9160e01b81526000916001600160a01b0316906306045a9190610239908e9086908f908f908f908f908f908e9060040161052c565b602060405180830381865afa158015610256573d6000803e3d6000fd5b505050506040513d601f19601f8201168201806040525081019061027a91906105db565b905080156102c65760006010604087016102408801835b60108110156102bc578251855581518455600194850194938401936020938401939092019101610291565b50505050506102df565b604051630114602f60e41b815260040160405180910390fd5b5050505050505050505050565b600060106102fb6001826104f1565b6010811061030b5761030b610516565b0154905090565b6000806102fb600160106104f1565b6040518061020001604052806010906020820280368337509192915050565b6102008101818360005b601081101561036957815183526020928301929091019060010161034a565b50505092915050565b634e487b7160e01b600052604160045260246000fd5b600082601f83011261039957600080fd5b813567ffffffffffffffff808211156103b4576103b4610372565b604051601f8301601f19908116603f011681019082821181831017156103dc576103dc610372565b816040528381528660208588010111156103f557600080fd5b836020870160208301376000602085830101528094505050505092915050565b80356001600160a01b038116811461042c57600080fd5b919050565b600080600080600080600080610100898b03121561044e57600080fd5b883597506020890135965060408901356bffffffffffffffffffffffff198116811461047957600080fd5b955060608901359450608089013567ffffffffffffffff8082111561049d57600080fd5b6104a98c838d01610388565b955060a08b0135945060c08b01359150808211156104c657600080fd5b506104d38b828c01610388565b9250506104e260e08a01610415565b90509295985092959890939650565b60008282101561051157634e487b7160e01b600052601160045260246000fd5b500390565b634e487b7160e01b600052603260045260246000fd5b60006101008a835260208a818501528960408501526bffffffffffffffffffffffff19891660608501528760808501528160a085015286518083860152600092505b8083101561058d5787830182015185840161012001529181019161056e565b808311156105a057600061012082870101525b60c08501879052601f01601f191684016101200192506105ce91505060e08301846001600160a01b03169052565b9998505050505050505050565b6000602082840312156105ed57600080fd5b815180151581146105fd57600080fd5b939250505056fea26469706673582212202492d19910fc7e13e418c471e89bfd892e6e8613afea893b124ee06d8905e2b864736f6c634300080c0033","linkReferences":{}},"methodIdentifiers":{"BRIDGE_TRANSITION_FRONTIER_LEN()":"fb299cd8","getChainLedgerHashes()":"2bc4f8d9","getChainStateHashes()":"03f93e50","getTipLedgerHash()":"3886c09b","getTipStateHash()":"b8184745","updateChain(bytes32,bytes32,bytes20,bytes32,bytes,uint256,bytes,address)":"37baff0f"},"id":65}