{"abi":[{"type":"constructor","inputs":[{"name":"alignedServiceAddr","type":"address","internalType":"address"}],"stateMutability":"nonpayable"},{"type":"function","name":"getLastVerifiedStateHash","inputs":[],"outputs":[{"name":"","type":"uint256","internalType":"uint256"}],"stateMutability":"view"},{"type":"function","name":"lastVerifiedStateHash","inputs":[],"outputs":[{"name":"","type":"uint256","internalType":"uint256"}],"stateMutability":"view"},{"type":"function","name":"updateLastVerifiedState","inputs":[{"name":"proofCommitment","type":"bytes32","internalType":"bytes32"},{"name":"pubInputCommitment","type":"bytes32","internalType":"bytes32"},{"name":"provingSystemAuxDataCommitment","type":"bytes32","internalType":"bytes32"},{"name":"proofGeneratorAddr","type":"bytes20","internalType":"bytes20"},{"name":"batchMerkleRoot","type":"bytes32","internalType":"bytes32"},{"name":"merkleProof","type":"bytes","internalType":"bytes"},{"name":"verificationDataBatchIndex","type":"uint256","internalType":"uint256"}],"outputs":[],"stateMutability":"nonpayable"},{"type":"error","name":"NewStateIsNotValid","inputs":[]}],"bytecode":{"object":"0x608060405234801561001057600080fd5b506040516103d73803806103d783398101604081905261002f91610054565b600180546001600160a01b0319166001600160a01b0392909216919091179055610084565b60006020828403121561006657600080fd5b81516001600160a01b038116811461007d57600080fd5b9392505050565b610344806100936000396000f3fe608060405234801561001057600080fd5b50600436106100415760003560e01c80635932a2f4146100465780635c45a54d146100615780639e48bbf114610076575b600080fd5b61004f60005481565b60405190815260200160405180910390f35b61007461006f36600461014c565b61007e565b005b60005461004f565b6001546040516303e94d3760e61b815260009182916001600160a01b039091169063fa534dc0906100bf908c908c908c908c908c908c908c90600401610252565b602060405180830381865afa1580156100dc573d6000803e3d6000fd5b505050506040513d601f19601f8201168201806040525081019061010091906102e5565b9050801561011257600082905561012b565b604051630114602f60e41b815260040160405180910390fd5b505050505050505050565b634e487b7160e01b600052604160045260246000fd5b600080600080600080600060e0888a03121561016757600080fd5b87359650602088013595506040880135945060608801356bffffffffffffffffffffffff198116811461019957600080fd5b93506080880135925060a088013567ffffffffffffffff808211156101bd57600080fd5b818a0191508a601f8301126101d157600080fd5b8135818111156101e3576101e3610136565b604051601f8201601f19908116603f0116810190838211818310171561020b5761020b610136565b816040528281528d602084870101111561022457600080fd5b82602086016020830137600060208483010152809650505050505060c0880135905092959891949750929550565b8781526000602088818401528760408401526bffffffffffffffffffffffff198716606084015285608084015260e060a084015284518060e085015260005b818110156102ae5786810183015185820161010001528201610291565b818111156102c157600061010083870101525b5060c08401949094525050601f91909101601f191601610100019695505050505050565b6000602082840312156102f757600080fd5b8151801515811461030757600080fd5b939250505056fea264697066735822122000f1bb569efaa8c93c713f08c4eb4457839020b7297250119d492a7f4c6a7dc164736f6c634300080c0033","linkReferences":{}},"methodIdentifiers":{"getLastVerifiedStateHash()":"9e48bbf1","lastVerifiedStateHash()":"5932a2f4","updateLastVerifiedState(bytes32,bytes32,bytes32,bytes20,bytes32,bytes,uint256)":"5c45a54d"},"id":63}