{"abi":[{"type":"constructor","inputs":[{"name":"_alignedServiceAddr","type":"address","internalType":"address payable"}],"stateMutability":"nonpayable"},{"type":"function","name":"validateAccount","inputs":[{"name":"args","type":"tuple","internalType":"struct MinaAccountValidation.AlignedArgs","components":[{"name":"proofCommitment","type":"bytes32","internalType":"bytes32"},{"name":"provingSystemAuxDataCommitment","type":"bytes32","internalType":"bytes32"},{"name":"proofGeneratorAddr","type":"bytes20","internalType":"bytes20"},{"name":"batchMerkleRoot","type":"bytes32","internalType":"bytes32"},{"name":"merkleProof","type":"bytes","internalType":"bytes"},{"name":"verificationDataBatchIndex","type":"uint256","internalType":"uint256"},{"name":"pubInput","type":"bytes","internalType":"bytes"},{"name":"batcherPaymentService","type":"address","internalType":"address"}]}],"outputs":[{"name":"","type":"bool","internalType":"bool"}],"stateMutability":"view"},{"type":"function","name":"validateAccountAndReturn","inputs":[{"name":"args","type":"tuple","internalType":"struct MinaAccountValidation.AlignedArgs","components":[{"name":"proofCommitment","type":"bytes32","internalType":"bytes32"},{"name":"provingSystemAuxDataCommitment","type":"bytes32","internalType":"bytes32"},{"name":"proofGeneratorAddr","type":"bytes20","internalType":"bytes20"},{"name":"batchMerkleRoot","type":"bytes32","internalType":"bytes32"},{"name":"merkleProof","type":"bytes","internalType":"bytes"},{"name":"verificationDataBatchIndex","type":"uint256","internalType":"uint256"},{"name":"pubInput","type":"bytes","internalType":"bytes"},{"name":"batcherPaymentService","type":"address","internalType":"address"}]}],"outputs":[{"name":"","type":"tuple","internalType":"struct MinaAccountValidation.Account","components":[{"name":"publicKey","type":"tuple","internalType":"struct MinaAccountValidation.CompressedECPoint","components":[{"name":"x","type":"bytes32","internalType":"bytes32"},{"name":"isOdd","type":"bool","internalType":"bool"}]},{"name":"tokenIdKeyHash","type":"bytes32","internalType":"bytes32"},{"name":"tokenSymbol","type":"string","internalType":"string"},{"name":"balance","type":"uint64","internalType":"uint64"},{"name":"nonce","type":"uint32","internalType":"uint32"},{"name":"receiptChainHash","type":"bytes32","internalType":"bytes32"},{"name":"delegate","type":"tuple","internalType":"struct MinaAccountValidation.CompressedECPoint","components":[{"name":"x","type":"bytes32","internalType":"bytes32"},{"name":"isOdd","type":"bool","internalType":"bool"}]},{"name":"votingFor","type":"bytes32","internalType":"bytes32"},{"name":"timing","type":"tuple","internalType":"struct MinaAccountValidation.Timing","components":[{"name":"initialMinimumBalance","type":"uint64","internalType":"uint64"},{"name":"cliffTime","type":"uint32","internalType":"uint32"},{"name":"cliffAmount","type":"uint64","internalType":"uint64"},{"name":"vestingPeriod","type":"uint32","internalType":"uint32"},{"name":"vestingIncrement","type":"uint64","internalType":"uint64"}]},{"name":"permissions","type":"tuple","internalType":"struct MinaAccountValidation.Permissions","components":[{"name":"editState","type":"uint8","internalType":"enum MinaAccountValidation.AuthRequired"},{"name":"access","type":"uint8","internalType":"enum MinaAccountValidation.AuthRequired"},{"name":"send","type":"uint8","internalType":"enum MinaAccountValidation.AuthRequired"},{"name":"rreceive","type":"uint8","internalType":"enum MinaAccountValidation.AuthRequired"},{"name":"setDelegate","type":"uint8","internalType":"enum MinaAccountValidation.AuthRequired"},{"name":"setPermissions","type":"uint8","internalType":"enum MinaAccountValidation.AuthRequired"},{"name":"setVerificationKeyAuth","type":"uint8","internalType":"enum MinaAccountValidation.AuthRequired"},{"name":"setVerificationKeyUint","type":"uint32","internalType":"uint32"},{"name":"setZkappUri","type":"uint8","internalType":"enum MinaAccountValidation.AuthRequired"},{"name":"editActionState","type":"uint8","internalType":"enum MinaAccountValidation.AuthRequired"},{"name":"setTokenSymbol","type":"uint8","internalType":"enum MinaAccountValidation.AuthRequired"},{"name":"incrementNonce","type":"uint8","internalType":"enum MinaAccountValidation.AuthRequired"},{"name":"setVotingFor","type":"uint8","internalType":"enum MinaAccountValidation.AuthRequired"},{"name":"setTiming","type":"uint8","internalType":"enum MinaAccountValidation.AuthRequired"}]},{"name":"zkapp","type":"tuple","internalType":"struct MinaAccountValidation.ZkappAccount","components":[{"name":"appState","type":"bytes32[8]","internalType":"bytes32[8]"},{"name":"verificationKey","type":"tuple","internalType":"struct MinaAccountValidation.VerificationKey","components":[{"name":"maxProofsVerified","type":"uint8","internalType":"enum MinaAccountValidation.ProofsVerified"},{"name":"actualWrapDomainSize","type":"uint8","internalType":"enum MinaAccountValidation.ProofsVerified"},{"name":"wrapIndex","type":"tuple","internalType":"struct MinaAccountValidation.WrapIndex","components":[{"name":"sigmaComm","type":"tuple[7]","internalType":"struct MinaAccountValidation.Commitment[7]","components":[{"name":"x","type":"bytes32","internalType":"bytes32"},{"name":"y","type":"bytes32","internalType":"bytes32"}]},{"name":"coefficientsComm","type":"tuple[15]","internalType":"struct MinaAccountValidation.Commitment[15]","components":[{"name":"x","type":"bytes32","internalType":"bytes32"},{"name":"y","type":"bytes32","internalType":"bytes32"}]},{"name":"genericComm","type":"tuple","internalType":"struct MinaAccountValidation.Commitment","components":[{"name":"x","type":"bytes32","internalType":"bytes32"},{"name":"y","type":"bytes32","internalType":"bytes32"}]},{"name":"psmComm","type":"tuple","internalType":"struct MinaAccountValidation.Commitment","components":[{"name":"x","type":"bytes32","internalType":"bytes32"},{"name":"y","type":"bytes32","internalType":"bytes32"}]},{"name":"completeAddComm","type":"tuple","internalType":"struct MinaAccountValidation.Commitment","components":[{"name":"x","type":"bytes32","internalType":"bytes32"},{"name":"y","type":"bytes32","internalType":"bytes32"}]},{"name":"mulComm","type":"tuple","internalType":"struct MinaAccountValidation.Commitment","components":[{"name":"x","type":"bytes32","internalType":"bytes32"},{"name":"y","type":"bytes32","internalType":"bytes32"}]},{"name":"emulComm","type":"tuple","internalType":"struct MinaAccountValidation.Commitment","components":[{"name":"x","type":"bytes32","internalType":"bytes32"},{"name":"y","type":"bytes32","internalType":"bytes32"}]},{"name":"endomulScalarComm","type":"tuple","internalType":"struct MinaAccountValidation.Commitment","components":[{"name":"x","type":"bytes32","internalType":"bytes32"},{"name":"y","type":"bytes32","internalType":"bytes32"}]}]}]},{"name":"zkappVersion","type":"uint32","internalType":"uint32"},{"name":"actionState","type":"bytes32[5]","internalType":"bytes32[5]"},{"name":"lastActionSlot","type":"uint32","internalType":"uint32"},{"name":"provedState","type":"bool","internalType":"bool"},{"name":"zkappUri","type":"bytes","internalType":"bytes"}]}]}],"stateMutability":"view"},{"type":"error","name":"MinaAccountProvingSystemIdIsNotValid","inputs":[]}],"bytecode":{"object":"0x6080604052348015600f57600080fd5b50604051611582380380611582833981016040819052602c916050565b600080546001600160a01b0319166001600160a01b0392909216919091179055607e565b600060208284031215606157600080fd5b81516001600160a01b0381168114607757600080fd5b9392505050565b6114f58061008d6000396000f3fe608060405234801561001057600080fd5b50600436106100365760003560e01c80639029ad151461003b578063c647871314610063575b600080fd5b61004e6100493660046105f4565b610083565b60405190151581526020015b60405180910390f35b6100766100713660046105f4565b6101b6565b60405161005a91906109d4565b600060208201357fd33e25809fcaa2b6900567812852539da8559dc8b76a7ce3fc5ddd77e8d19a69146100c9576040516343f3ba2360e11b815260040160405180910390fd5b60006100d860c0840184610b06565b6040516100e6929190610b53565b60408051918290039091206000549092506001600160a01b0316906306045a919085359084906020880135906101229060608a01908a01610b63565b606089013561013460808b018b610b06565b60a08c013561014a6101008e0160e08f01610b92565b6040518a63ffffffff1660e01b815260040161016e99989796959493929190610bbb565b602060405180830381865afa15801561018b573d6000803e3d6000fd5b505050506040513d601f19601f820116820180604052508101906101af9190610c49565b9392505050565b6101be610326565b60208201357fd33e25809fcaa2b6900567812852539da8559dc8b76a7ce3fc5ddd77e8d19a6914610202576040516343f3ba2360e11b815260040160405180910390fd5b600061021160c0840184610b06565b60405161021f929190610b53565b604080519182900390912060008054919350916001600160a01b03909116906306045a9190863590859060208901359061025f9060608b01908b01610b63565b60608a013561027160808c018c610b06565b8c60a001358d60e00160208101906102899190610b92565b6040518a63ffffffff1660e01b81526004016102ad99989796959493929190610bbb565b602060405180830381865afa1580156102ca573d6000803e3d6000fd5b505050506040513d601f19601f820116820180604052508101906102ee9190610c49565b905080156100365761030360c0850185610b06565b610311916028908290610c66565b81019061031e919061139f565b949350505050565b604080516101a081018252600061016082018181526101808301829052825260208083018290526060838501819052808401839052608080850184905260a08086018590528651808801885285815280850186905260c087015260e08601859052865190810187528481529283018490529482018390528101829052928301526101008101919091526101208101610429604080516101c0810190915280600081526020016000815260200160008152602001600081526020016000815260200160008152602001600081526000602082018190526040909101908152602001600081526020016000815260200160008152602001600081526020016000905290565b815260200161043661043b565b905290565b6040518060e0016040528061044e610488565b815260200161045b6104a7565b81526000602082015260400161046f6104c6565b8152600060208201819052604082015260609081015290565b6040518061010001604052806008906020820280368337509192915050565b60408051606081018252600080825260208201529081016104366104e4565b6040518060a001604052806005906020820280368337509192915050565b6040518061010001604052806104f861058f565b81526020016105056105c8565b8152604080518082018252600080825260208083018290528085019290925282518084018452818152808301829052838501528251808401845281815280830182905260608501528251808401845281815280830182905260808501528251808401845281815280830182905260a085015282518084019093528083529082015260c09091015290565b6040518060e001604052806007905b604080518082019091526000808252602082015281526020019060019003908161059e5790505090565b60408051610220810190915260006101e082018181526102008301919091528152600e6020820161059e565b60006020828403121561060657600080fd5b81356001600160401b0381111561061c57600080fd5b820161010081850312156101af57600080fd5b6000815180845260005b8181101561065557602081850181015186830182015201610639565b506000602082860101526020601f19601f83011685010191505092915050565b634e487b7160e01b600052602160045260246000fd5b6005811061069b5761069b610675565b9052565b6106aa82825161068b565b60208101516106bc602084018261068b565b5060408101516106cf604084018261068b565b5060608101516106e2606084018261068b565b5060808101516106f5608084018261068b565b5060a081015161070860a084018261068b565b5060c081015161071b60c084018261068b565b5060e081015161073360e084018263ffffffff169052565b50610100808201516107478285018261068b565b50506101208082015161075c8285018261068b565b5050610140808201516107718285018261068b565b5050610160808201516107868285018261068b565b50506101808082015161079b8285018261068b565b50506101a0808201516107b08285018261068b565b50505050565b6003811061069b5761069b610675565b8060005b600f8110156107b0576107e884835180518252602090810151910152565b60409390930192602091909101906001016107ca565b6108098282516107b6565b60208082015161081c60208501826107b6565b50604082810151805160008684015b600782101561085b5761084981845180518252602090810151910152565b9185019160019190910190840161082b565b505050602081015192506108736102008601846107c6565b604081015180516105c08701526020908101516105e0870152606082015180516106008801528101516106208701526080820151805161064088015281015161066087015260a082015180516106808801528101516106a087015260c082015180516106c08801528101516106e087015260e09091015180516107008701529081015161072086015291506109059050565b505050565b8060005b60058110156107b057815184526020938401939091019060010161090e565b80516000906109609084835b6008811015610958578251825260209283019290910190600101610939565b505050602083015161096e6101008601826107fe565b50604083015163ffffffff16610840850152606083015161099361086086018261090a565b50608083015163ffffffff1661090085015260a0830151151561092085015260c083015161094085018290526109cb8286018261062f565b95945050505050565b6020808252825180518383015201511515604082015260208201516060820152600060408301516103c0806080850152610a126103e085018361062f565b91506060850151610a2e60a08601826001600160401b03169052565b50608085015163ffffffff811660c08601525060a085015160e085015260c0850151610100610a6b81870183805182526020908101511515910152565b60e0870151610140878101919091528188015180516001600160401b039081166101608a0152602082015163ffffffff9081166101808b0152604083015182166101a08b01526060830151166101c08a0152608090910151166101e08801526101208801519250610ae061020088018461069f565b870151868503601f1901848801529150610afc9050838261092d565b9695505050505050565b6000808335601e19843603018112610b1d57600080fd5b8301803591506001600160401b03821115610b3757600080fd5b602001915036819003821315610b4c57600080fd5b9250929050565b8183823760009101908152919050565b600060208284031215610b7557600080fd5b81356bffffffffffffffffffffffff19811681146101af57600080fd5b600060208284031215610ba457600080fd5b81356001600160a01b03811681146101af57600080fd5b60006101008b83528a60208401528960408401526bffffffffffffffffffffffff19891660608401528760808401528060a0840152858184015250610120858782850137600083870182015260c0830194909452506001600160a01b039190911660e0820152601f909201601f1916909101019695505050505050565b8015158114610c4657600080fd5b50565b600060208284031215610c5b57600080fd5b81516101af81610c38565b60008085851115610c7657600080fd5b83861115610c8357600080fd5b5050820193919092039150565b634e487b7160e01b600052604160045260246000fd5b604080519081016001600160401b0381118282101715610cc857610cc8610c90565b60405290565b6040516101c081016001600160401b0381118282101715610cc857610cc8610c90565b604051606081016001600160401b0381118282101715610cc857610cc8610c90565b60405161010081016001600160401b0381118282101715610cc857610cc8610c90565b60405160e081016001600160401b0381118282101715610cc857610cc8610c90565b60405161016081016001600160401b0381118282101715610cc857610cc8610c90565b8035610d8681610c38565b919050565b600060408284031215610d9d57600080fd5b610da5610ca6565b9050813581526020820135610db981610c38565b602082015292915050565b600082601f830112610dd557600080fd5b81356001600160401b0380821115610def57610def610c90565b604051601f8301601f19908116603f01168101908282118183101715610e1757610e17610c90565b81604052838152866020858801011115610e3057600080fd5b836020870160208301376000602085830101528094505050505092915050565b80356001600160401b0381168114610d8657600080fd5b803563ffffffff81168114610d8657600080fd5b600060a08284031215610e8d57600080fd5b60405160a081018181106001600160401b0382111715610eaf57610eaf610c90565b604052905080610ebe83610e50565b8152610ecc60208401610e67565b6020820152610edd60408401610e50565b6040820152610eee60608401610e67565b6060820152610eff60808401610e50565b60808201525092915050565b803560058110610d8657600080fd5b60006101c08284031215610f2d57600080fd5b610f35610cce565b9050610f4082610f0b565b8152610f4e60208301610f0b565b6020820152610f5f60408301610f0b565b6040820152610f7060608301610f0b565b6060820152610f8160808301610f0b565b6080820152610f9260a08301610f0b565b60a0820152610fa360c08301610f0b565b60c0820152610fb460e08301610e67565b60e0820152610100610fc7818401610f0b565b90820152610120610fd9838201610f0b565b90820152610140610feb838201610f0b565b90820152610160610ffd838201610f0b565b9082015261018061100f838201610f0b565b908201526101a0611021838201610f0b565b9082015292915050565b600082601f83011261103c57600080fd5b611044610d13565b8061010084018581111561105757600080fd5b845b81811015611071578035845260209384019301611059565b509095945050505050565b803560038110610d8657600080fd5b60006040828403121561109d57600080fd5b6110a5610ca6565b9050813581526020820135602082015292915050565b600082601f8301126110cc57600080fd5b6110d4610d36565b806101c08401858111156110e757600080fd5b845b81811015611071576110fb878261108b565b84526020909301926040016110e9565b600082601f83011261111c57600080fd5b604080516101e081018181106001600160401b038211171561114057611140610c90565b604052806103c085018681111561115657600080fd5b855b818110156111795761116a888261108b565b83526020909201918401611158565b50919695505050505050565b600081830361074081121561119957600080fd5b6111a1610cf1565b91506111ac8361107c565b82526111ba6020840161107c565b602083015261070080603f19830112156111d357600080fd5b6111db610d13565b91506111ea85604086016110bb565b82526111fa85610200860161110b565b602083015261120d856105c0860161108b565b604083015261122085610600860161108b565b606083015261123385610640860161108b565b608083015261124685610680860161108b565b60a0830152611259856106c0860161108b565b60c083015261126a8582860161108b565b60e083015250604082015292915050565b600082601f83011261128c57600080fd5b60405160a081018181106001600160401b03821117156112ae576112ae610c90565b6040528060a08401858111156112c357600080fd5b845b818110156112dd5780358352602092830192016112c5565b509195945050505050565b600061096082840312156112fb57600080fd5b611303610d36565b905061130f838361102b565b815261131f836101008401611185565b60208201526113316108408301610e67565b604082015261134483610860840161127b565b60608201526113566109008301610e67565b60808201526113686109208301610d7b565b60a08201526109408201356001600160401b0381111561138757600080fd5b61139384828501610dc4565b60c08301525092915050565b6000602082840312156113b157600080fd5b81356001600160401b03808211156113c857600080fd5b908301906103c082860312156113dd57600080fd5b6113e5610d58565b6113ef8684610d8b565b81526040830135602082015260608301358281111561140d57600080fd5b61141987828601610dc4565b60408301525061142b60808401610e50565b606082015261143c60a08401610e67565b608082015260c083013560a08201526114588660e08501610d8b565b60c08201526101208084013560e083015261014061147888828701610e7b565b61010084015261148c886101e08701610f1a565b828401526103a08501359150838211156114a557600080fd5b6114b1888387016112e8565b90830152509594505050505056fea2646970667358221220e57347658ecfe7abcc6672d7ffeb26559f17fb079c7a17d0c32ba61d80983eb664736f6c63430008190033","linkReferences":{}},"methodIdentifiers":{"validateAccount((bytes32,bytes32,bytes20,bytes32,bytes,uint256,bytes,address))":"9029ad15","validateAccountAndReturn((bytes32,bytes32,bytes20,bytes32,bytes,uint256,bytes,address))":"c6478713"},"id":38}