{
  "abi": [
    {
      "inputs": [],
      "name": "InvalidStringToUint",
      "type": "error"
    },
    {
      "inputs": [
        {
          "internalType": "uint256",
          "name": "i",
          "type": "uint256"
        },
        {
          "internalType": "uint256",
          "name": "size",
          "type": "uint256"
        }
      ],
      "name": "bit_reverse",
      "outputs": [
        {
          "internalType": "uint256",
          "name": "",
          "type": "uint256"
        }
      ],
      "stateMutability": "pure",
      "type": "function"
    },
    {
      "inputs": [
        {
          "components": [
            {
              "internalType": "uint256",
              "name": "x",
              "type": "uint256"
            },
            {
              "internalType": "uint256",
              "name": "y",
              "type": "uint256"
            }
          ],
          "internalType": "struct BN254.G1Point[]",
          "name": "points",
          "type": "tuple[]"
        }
      ],
      "name": "bit_reverse_permut",
      "outputs": [
        {
          "components": [
            {
              "internalType": "uint256",
              "name": "x",
              "type": "uint256"
            },
            {
              "internalType": "uint256",
              "name": "y",
              "type": "uint256"
            }
          ],
          "internalType": "struct BN254.G1Point[]",
          "name": "result",
          "type": "tuple[]"
        }
      ],
      "stateMutability": "pure",
      "type": "function"
    },
    {
      "inputs": [
        {
          "components": [
            {
              "internalType": "uint256",
              "name": "x",
              "type": "uint256"
            },
            {
              "internalType": "uint256",
              "name": "y",
              "type": "uint256"
            }
          ],
          "internalType": "struct BN254.G1Point[]",
          "name": "points",
          "type": "tuple[]"
        }
      ],
      "name": "get_odd_even",
      "outputs": [
        {
          "components": [
            {
              "internalType": "uint256",
              "name": "x",
              "type": "uint256"
            },
            {
              "internalType": "uint256",
              "name": "y",
              "type": "uint256"
            }
          ],
          "internalType": "struct BN254.G1Point[]",
          "name": "odd",
          "type": "tuple[]"
        },
        {
          "components": [
            {
              "internalType": "uint256",
              "name": "x",
              "type": "uint256"
            },
            {
              "internalType": "uint256",
              "name": "y",
              "type": "uint256"
            }
          ],
          "internalType": "struct BN254.G1Point[]",
          "name": "even",
          "type": "tuple[]"
        }
      ],
      "stateMutability": "pure",
      "type": "function"
    },
    {
      "inputs": [
        {
          "internalType": "uint256",
          "name": "order",
          "type": "uint256"
        }
      ],
      "name": "get_twiddles",
      "outputs": [
        {
          "internalType": "Scalar.FE[]",
          "name": "twiddles",
          "type": "uint256[]"
        }
      ],
      "stateMutability": "view",
      "type": "function"
    },
    {
      "inputs": [
        {
          "components": [
            {
              "internalType": "uint256",
              "name": "x",
              "type": "uint256"
            },
            {
              "internalType": "uint256",
              "name": "y",
              "type": "uint256"
            }
          ],
          "internalType": "struct BN254.G1Point[]",
          "name": "points",
          "type": "tuple[]"
        }
      ],
      "name": "ifft",
      "outputs": [
        {
          "components": [
            {
              "internalType": "uint256",
              "name": "x",
              "type": "uint256"
            },
            {
              "internalType": "uint256",
              "name": "y",
              "type": "uint256"
            }
          ],
          "internalType": "struct BN254.G1Point[]",
          "name": "results",
          "type": "tuple[]"
        }
      ],
      "stateMutability": "view",
      "type": "function"
    },
    {
      "inputs": [
        {
          "internalType": "uint256",
          "name": "n",
          "type": "uint256"
        }
      ],
      "name": "is_power_of_two",
      "outputs": [
        {
          "internalType": "bool",
          "name": "",
          "type": "bool"
        }
      ],
      "stateMutability": "pure",
      "type": "function"
    },
    {
      "inputs": [
        {
          "internalType": "uint256",
          "name": "n",
          "type": "uint256"
        }
      ],
      "name": "max_log2",
      "outputs": [
        {
          "internalType": "uint256",
          "name": "log",
          "type": "uint256"
        }
      ],
      "stateMutability": "pure",
      "type": "function"
    },
    {
      "inputs": [
        {
          "internalType": "uint256",
          "name": "a",
          "type": "uint256"
        },
        {
          "internalType": "uint256",
          "name": "b",
          "type": "uint256"
        }
      ],
      "name": "min",
      "outputs": [
        {
          "internalType": "uint256",
          "name": "",
          "type": "uint256"
        }
      ],
      "stateMutability": "pure",
      "type": "function"
    },
    {
      "inputs": [
        {
          "internalType": "uint256",
          "name": "n",
          "type": "uint256"
        }
      ],
      "name": "next_power_of_two",
      "outputs": [
        {
          "internalType": "uint256",
          "name": "res",
          "type": "uint256"
        },
        {
          "internalType": "uint256",
          "name": "order",
          "type": "uint256"
        }
      ],
      "stateMutability": "pure",
      "type": "function"
    },
    {
      "inputs": [
        {
          "components": [
            {
              "internalType": "uint256",
              "name": "x",
              "type": "uint256"
            },
            {
              "internalType": "uint256",
              "name": "y",
              "type": "uint256"
            }
          ],
          "internalType": "struct BN254.G1Point[]",
          "name": "points",
          "type": "tuple[]"
        },
        {
          "internalType": "Scalar.FE[]",
          "name": "twiddles",
          "type": "uint256[]"
        }
      ],
      "name": "nr_2radix_fft",
      "outputs": [
        {
          "components": [
            {
              "internalType": "uint256",
              "name": "x",
              "type": "uint256"
            },
            {
              "internalType": "uint256",
              "name": "y",
              "type": "uint256"
            }
          ],
          "internalType": "struct BN254.G1Point[]",
          "name": "results",
          "type": "tuple[]"
        }
      ],
      "stateMutability": "view",
      "type": "function"
    },
    {
      "inputs": [
        {
          "internalType": "string",
          "name": "s",
          "type": "string"
        }
      ],
      "name": "str_to_uint",
      "outputs": [
        {
          "internalType": "uint256",
          "name": "res",
          "type": "uint256"
        }
      ],
      "stateMutability": "pure",
      "type": "function"
    },
    {
      "inputs": [
        {
          "internalType": "uint256",
          "name": "n",
          "type": "uint256"
        }
      ],
      "name": "trailing_zeros",
      "outputs": [
        {
          "internalType": "uint256",
          "name": "i",
          "type": "uint256"
        }
      ],
      "stateMutability": "pure",
      "type": "function"
    }
  ],
  "bytecode": {
    "object": "0x6080806040523461001a57610eb99081610020823930815050f35b600080fdfe6080604052600436101561001257600080fd5b60003560e01c80630b085d17146100d75780630c36eb87146100d257806312c7de99146100cd5780635f27da5c146100c85780637ae2b5c7146100c357806393961353146100be57806394caa6cb146100b9578063a790f296146100b4578063ebf63140146100af578063ec339b7b146100aa578063ef28f1ec146100a55763f33b483b146100a057600080fd5b6106a1565b6105ef565b610543565b6104ba565b610497565b610472565b61044a565b61040d565b6103ec565b6102e0565b610137565b602080600319360112610132576100ef600435610a95565b906040519181839283018184528251809152816040850193019160005b82811061011b57505050500390f35b83518552869550938101939281019260010161010c565b600080fd5b60203660031901126101325761014e600435610d26565b5050602060405160008152f35b634e487b7160e01b600052604160045260246000fd5b6040810190811067ffffffffffffffff82111761018d57604052565b61015b565b90601f8019910116810190811067ffffffffffffffff82111761018d57604052565b67ffffffffffffffff811161018d5760051b60200190565b9080601f830112156101325781359160206101e6846101b4565b936040936101f685519687610192565b818652828087019260061b85010193818511610132578301915b8483106102205750505050505090565b858383031261013257838691825161023781610171565b853581528286013583820152815201920191610210565b6020600319820112610132576004359067ffffffffffffffff821161013257610279916004016101cc565b90565b90815180825260208080930193019160005b82811061029c575050505090565b835180518652820151858301526040909401939281019260010161028e565b90916102d26102799360408452604084019061027c565b91602081840391015261027c565b6102e93661024e565b80516001811661038c5760011c6102ff81610ca2565b9061030981610ca2565b9260005b82811061032a57505050610326604051928392836102bb565b0390f35b8061034861034261033d61038794610733565b61091a565b846107ad565b5161035382876107ad565b5261035e81866107ad565b5061036b61034282610733565b5161037682886107ad565b5261038181876107ad565b5061071f565b61030d565b60405162461bcd60e51b815260206004820152603260248201527f63616e277420676574206f646420616e64206576656e2066726f6d2061206e6f6044820152716e206576656e2073697a656420617272617960701b6064820152608490fd5b6020366003190112610132576020610405600435610d6f565b604051908152f35b6040366003190112610132576020600435602435808210156104325750604051908152f35b9050610405565b90602061027992818152019061027c565b61032661045e6104593661024e565b610c08565b60405191829160208352602083019061027c565b602036600319011261013257604061048b600435610d26565b82519182526020820152f35b60203660031901126101325760206104b0600435610cf2565b6040519015158152f35b60203660031901126101325767ffffffffffffffff600435818111610132573660238201121561013257806004013591821161018d57604051610507601f8401601f191660200182610192565b828152366024848401011161013257600060208461032695602461053396018386013783010152610db6565b6040519081529081906020820190565b60403660031901126101325767ffffffffffffffff600435818111610132576105709036906004016101cc565b6024359182116101325736602383011215610132578160040135610593816101b4565b926105a16040519485610192565b81845260209160248386019160051b8301019136831161013257602401905b8282106105e0576103266105d487876107c6565b60405191829182610439565b813581529083019083016105c0565b6105f83661024e565b6106028151610d26565b919081518111610626575b6103266105d46104598461062087610a95565b906107c6565b61062f81610ca2565b9160005b8281106106455750505061045961060d565b610679908251811060009060001461067e575061066281846107ad565b515b61066e82876107ad565b5261038181866107ad565b610633565b610686610901565b506040519061069482610171565b8082526020820152610664565b6040366003190112610132576020610405602435600435610c84565b156106c457565b60405162461bcd60e51b815260206004820152601e60248201527f66667420776974682073697a65206e6f6e20706f776572206f662074776f00006044820152606490fd5b634e487b7160e01b600052601160045260246000fd5b600019811461072e5760010190565b610709565b600181901b91906001600160ff1b0381160361072e57565b908160011b918083046002149015171561072e57565b90600a820291808304600a149015171561072e57565b8181029291811591840414171561072e57565b9190820180921161072e57565b634e487b7160e01b600052603260045260246000fd5b80518210156107c15760209160051b010190565b610797565b91908251926107dc6107d785610cf2565b6106bd565b60018094146108fc5792809291819480519181955b6107ff575b50505050909150565b81518710156108f75760005b87811061082b575061081f8495969761074b565b96959492841c926107f1565b6108358482610777565b84861c610842818361078a565b9061084d84866107ad565b51925b82811061086957505050506108649061071f565b61080b565b80610381886108bf6108918861088b610885896108f29961078a565b856107ad565b516109f0565b6108b96108b2866108ac846108a683896107ad565b5161098f565b956107ad565b5191610929565b9061098f565b906108ca848c6107ad565b526108d5838b6107ad565b506108e0858461078a565b906108eb828c6107ad565b52896107ad565b610850565b6107f6565b925050565b6040519061090e82610171565b60006020838281520152565b60001981019190821161072e57565b610931610901565b50805190602081015190811583151661098957507f30644e72e131a029b85045b68181585d97816a916871ca8d3c208c16d87cfd47809106810390811161072e576040519161097f83610171565b8252602082015290565b91505090565b91909161099a610901565b92604051608081019080821067ffffffffffffffff83111761018d57602086938160609660c0956040526080368637805185520151828401528051604084015201518482015260066107cf195a01fa1561013257565b91906109fa610901565b9260405190606082019180831067ffffffffffffffff84111761018d5760609360206080938895604052863685378051845201516020830152604082015260076107cf195a01fa1561013257565b90816020910312610132575190565b6040513d6000823e3d90fd5b90610a6d826101b4565b610a7a6040519182610192565b8281528092610a8b601f19916101b4565b0190602036910137565b60408051631d3c49c160e11b8152600480820184905291939260209173__$2412af110404eb2b232af38199405c3460$__918382602481865af4918215610bc057610b02928591600091610beb575b50885180948192633d0a179760e11b83528983019190602083019252565b0381865af4918215610bc057600092610bc5575b50610b2260019161091a565b1b93610b2d85610a63565b9660005b868110610b415750505050505050565b8151632e4c697f60e01b8152838101858152602081018390529091908790839081906040010381895af48015610bc057610b8e92600091610b93575b50610b88828c6107ad565b5261071f565b610b31565b610bb39150883d8a11610bb9575b610bab8183610192565b810190610a48565b38610b7d565b503d610ba1565b610a57565b6001919250610be3610b2291863d8811610bb957610bab8183610192565b929150610b16565b610c029150823d8411610bb957610bab8183610192565b38610ae4565b8060005b815180821015610c7e5790610c24610c319282610c84565b818111610c36575061071f565b610c0c565b610c7790610c4483866107ad565b51610c4f82876107ad565b51610c5a85886107ad565b52610c6584876107ad565b50610c7082876107ad565b52846107ad565b5038610381565b50505090565b9060018114610c9e57610c979150610d26565b5050600090565b5090565b90610cac826101b4565b610cb96040519182610192565b8281528092610cca601f19916101b4565b019060005b828110610cdb57505050565b602090610ce6610901565b82828501015201610ccf565b9060015b15610d17575b60009160028114610d105760011c91610cf6565b5060019150565b6001821615610cfc5760009150565b600019810190811161072e57906001805b6101008110610d535750820180921161072e5761027982610d6f565b9280841c179280821b90808204600214901517610d3757610709565b6000905b6001808216610d8d571c90610d879061071f565b90610d73565b505090565b9081518110156107c1570160200190565b60ff602f199116019060ff821161072e57565b906000805b83518210156108fc576001600160f81b0319600360fc1b610def82610de08689610d92565b51166001600160f81b03191690565b10159081610e66575b5015610e5457610e48610e0d610e4e92610761565b610e42610e3c610e37610e31610e23888b610d92565b516001600160f81b03191690565b60f81c90565b610da3565b60ff1690565b9061078a565b9161071f565b90610dbb565b60405163332e591b60e11b8152600490fd5b603960f81b9150610e7a610e238588610d92565b16111538610df856fea2646970667358221220c68a9d070d87cd215cb5625ae63331c18ba36681c76402cb01585055a50f1d7764736f6c63430008150033",
    "linkReferences": {
      "lib/Fields.sol": {
        "Scalar": [
          {
            "start": 2771,
            "length": 20
          }
        ]
      }
    }
  },
  "methodIdentifiers": {
    "bit_reverse(uint256,uint256)": "f33b483b",
    "bit_reverse_permut(BN254.G1Point[])": "93961353",
    "get_odd_even(BN254.G1Point[])": "12c7de99",
    "get_twiddles(uint256)": "0b085d17",
    "ifft(BN254.G1Point[])": "ef28f1ec",
    "is_power_of_two(uint256)": "a790f296",
    "max_log2(uint256)": "0c36eb87",
    "min(uint256,uint256)": "7ae2b5c7",
    "next_power_of_two(uint256)": "94caa6cb",
    "nr_2radix_fft(BN254.G1Point[],uint256[])": "ec339b7b",
    "str_to_uint(string)": "ebf63140",
    "trailing_zeros(uint256)": "5f27da5c"
  },
  "id": 8
}