{
  "_format": "hh-sol-artifact-1",
  "contractName": "KimchiVerifier",
  "sourceName": "src/Verifier.sol",
  "abi": [
    {
      "inputs": [],
      "name": "CantRegisterNewConstraints",
      "type": "error"
    },
    {
      "inputs": [
        {
          "internalType": "bytes",
          "name": "verifier_index_serialized",
          "type": "bytes"
        },
        {
          "internalType": "bytes",
          "name": "prover_proof_serialized",
          "type": "bytes"
        },
        {
          "internalType": "bytes",
          "name": "linearization_serialized_rlp",
          "type": "bytes"
        },
        {
          "internalType": "bytes",
          "name": "public_inputs_serialized",
          "type": "bytes"
        }
      ],
      "name": "deserialize_proof",
      "outputs": [],
      "stateMutability": "nonpayable",
      "type": "function"
    },
    {
      "inputs": [
        {
          "internalType": "Scalar.FE[2]",
          "name": "evaluation_points",
          "type": "uint256[2]"
        }
      ],
      "name": "divisor_commitment",
      "outputs": [
        {
          "components": [
            {
              "internalType": "uint256",
              "name": "x0",
              "type": "uint256"
            },
            {
              "internalType": "uint256",
              "name": "x1",
              "type": "uint256"
            },
            {
              "internalType": "uint256",
              "name": "y0",
              "type": "uint256"
            },
            {
              "internalType": "uint256",
              "name": "y1",
              "type": "uint256"
            }
          ],
          "internalType": "struct BN254.G2Point",
          "name": "result",
          "type": "tuple"
        }
      ],
      "stateMutability": "view",
      "type": "function"
    },
    {
      "inputs": [
        {
          "internalType": "Scalar.FE[2]",
          "name": "evaluation_points",
          "type": "uint256[2]"
        },
        {
          "internalType": "Scalar.FE[]",
          "name": "evals",
          "type": "uint256[]"
        },
        {
          "components": [
            {
              "components": [
                {
                  "internalType": "uint256",
                  "name": "x",
                  "type": "uint256"
                },
                {
                  "internalType": "uint256",
                  "name": "y",
                  "type": "uint256"
                }
              ],
              "internalType": "struct BN254.G1Point[]",
              "name": "g",
              "type": "tuple[]"
            },
            {
              "components": [
                {
                  "internalType": "uint256",
                  "name": "x",
                  "type": "uint256"
                },
                {
                  "internalType": "uint256",
                  "name": "y",
                  "type": "uint256"
                }
              ],
              "internalType": "struct BN254.G1Point",
              "name": "h",
              "type": "tuple"
            }
          ],
          "internalType": "struct URS",
          "name": "full_urs",
          "type": "tuple"
        }
      ],
      "name": "eval_commitment",
      "outputs": [
        {
          "components": [
            {
              "internalType": "uint256",
              "name": "x",
              "type": "uint256"
            },
            {
              "internalType": "uint256",
              "name": "y",
              "type": "uint256"
            }
          ],
          "internalType": "struct BN254.G1Point",
          "name": "",
          "type": "tuple"
        }
      ],
      "stateMutability": "view",
      "type": "function"
    },
    {
      "inputs": [
        {
          "components": [
            {
              "components": [
                {
                  "components": [
                    {
                      "internalType": "uint256",
                      "name": "x",
                      "type": "uint256"
                    },
                    {
                      "internalType": "uint256",
                      "name": "y",
                      "type": "uint256"
                    }
                  ],
                  "internalType": "struct BN254.G1Point",
                  "name": "commitment",
                  "type": "tuple"
                },
                {
                  "internalType": "Scalar.FE[2]",
                  "name": "evaluations",
                  "type": "uint256[2]"
                },
                {
                  "internalType": "uint128",
                  "name": "degree_bound",
                  "type": "uint128"
                }
              ],
              "internalType": "struct Evaluation[]",
              "name": "evaluations",
              "type": "tuple[]"
            },
            {
              "internalType": "Scalar.FE[2]",
              "name": "evaluation_points",
              "type": "uint256[2]"
            },
            {
              "internalType": "Scalar.FE",
              "name": "polyscale",
              "type": "uint256"
            },
            {
              "components": [
                {
                  "components": [
                    {
                      "internalType": "uint256",
                      "name": "x",
                      "type": "uint256"
                    },
                    {
                      "internalType": "uint256",
                      "name": "y",
                      "type": "uint256"
                    }
                  ],
                  "internalType": "struct BN254.G1Point",
                  "name": "quotient",
                  "type": "tuple"
                },
                {
                  "internalType": "Scalar.FE",
                  "name": "blinding",
                  "type": "uint256"
                }
              ],
              "internalType": "struct Proof.PairingProof",
              "name": "opening",
              "type": "tuple"
            }
          ],
          "internalType": "struct Proof.AggregatedEvaluationProof",
          "name": "agg_proof",
          "type": "tuple"
        }
      ],
      "name": "final_verify",
      "outputs": [
        {
          "internalType": "bool",
          "name": "",
          "type": "bool"
        }
      ],
      "stateMutability": "view",
      "type": "function"
    },
    {
      "inputs": [
        {
          "internalType": "bytes",
          "name": "urs_serialized",
          "type": "bytes"
        }
      ],
      "name": "setup",
      "outputs": [],
      "stateMutability": "nonpayable",
      "type": "function"
    },
    {
      "inputs": [
        {
          "internalType": "bytes",
          "name": "verifier_index_serialized",
          "type": "bytes"
        },
        {
          "internalType": "bytes",
          "name": "prover_proof_serialized",
          "type": "bytes"
        },
        {
          "internalType": "bytes",
          "name": "linearization_serialized_rlp",
          "type": "bytes"
        },
        {
          "internalType": "bytes",
          "name": "public_inputs_serialized",
          "type": "bytes"
        }
      ],
      "name": "verify_with_index",
      "outputs": [
        {
          "internalType": "bool",
          "name": "",
          "type": "bool"
        }
      ],
      "stateMutability": "nonpayable",
      "type": "function"
    }
  ],
  "bytecode": "0x608060405234630000002a57630000001763000001f4565b6040516138b7630000669782396138b790f35b600080fd5b634e487b7160e01b600052604160045260246000fd5b90601f01601f191681019081106001600160401b03821117630000006857604052565b630000002f565b906300000089630000008060405190565b92836300000045565b565b6001600160401b03811163000000685760200290565b63000000b363000000ba91630000008b565b630000006f565b90565b63000000ba63000000ba63000000ba9290565b919063000000e963000000ba63000001019363000000bd565b90835460001960089290920291821b191691901b1790565b9055565b63000000899160009163000000d0565b8181106300000122575050565b80630000013460006001936300000105565b016300000115565b9091828110630000014c57505050565b6300000089929091630000015f565b9290565b90810191016300000115565b906801000000000000000081116300000068576300000089916101bc90630000013c565b6101bc9163000001ae630000015b60019263000000ba8686630000016b565b92049160005b83811063000001c35750505050565b600190602063000001d763000000ba865190565b940193818401550163000001b4565b90630000008991630000018f565b630000008963000002086101bc63000000a1565b630000023e630000023a7f280c10e2f52fb4ab3ba21204b30df5b69560978e0911a5c673ad0558070f17c163000000bd565b8252565b630000027763000002707f287897da7c8db33cd988a1328770890b2754155612290448267f9ca4c549cb3963000000bd565b6020830152565b63000002b063000002a97f0b35633d832d4d9f7eba915557958008c10eb77f2f0d8229f0d35b1f6727b3e063000000bd565b6040830152565b63000002e963000002e27f12797f9857171467fffa845854dee787f76f8e6f84dc905d44dbf1a38282fde663000000bd565b6060830152565b6300000322630000031b7f04ad02e8adf9100cc71684755f19eeb9608783afda9afbbe18c0393af28e140d63000000bd565b6080830152565b630000035b63000003547f2f70312db0f90936954edd3f59f9eecc4ac8a185a768511e1c2269aabb8a7c9963000000bd565b60a0830152565b6300000394630000038d7f271766293d02edfff8434c46585e86f3c19583e7cf9c705132f2319078d17f5463000000bd565b60c0830152565b63000003cd63000003c67f092c0f673d87d22ae4db6dd8a274772fff359f875f1264a1fa0187ce2205393163000000bd565b60e0830152565b630000040763000003ff7f02c8d86c838f0f1b55aafbc673b773019846427f0e01cfa2be0935013c715d0263000000bd565b610100830152565b630000044163000004397f1d624d98b43da309ff45aac457fd494c6c80b997b596ca77bc1c2a80cb2a031b63000000bd565b610120830152565b630000047b63000004737f27c52b0a95a56de35271f7264403a6de81ce55d2cf230918dbebeffef32fe61663000000bd565b610140830152565b63000004b563000004ad7f02a0f959cdbe8b91b1bcde12c6620bff1315ed73cc816a3e5883b81882d44cf163000000bd565b610160830152565b63000004ef63000004e77f276be2fc3702f4e949e23e27ec2dc690f69484281370cf6dddfd2b35f5f1e26a63000000bd565b610180830152565b630000052963000005217f0ba5adc27ec5b0a3062e8072a0b6084553ed816b02d002298bb5ae8322cc516b63000000bd565b6101a0830152565b6300000563630000055b7f0568f61c26e436c23841663d09ef6c6f846a7240396885d4b9b0881d2bd76d8e63000000bd565b6101c0830152565b630000059d63000005957f26c3429a60200dc4789a21b7b8d229a637b6e48c2b83f81f20de82879cf034f763000000bd565b6101e0830152565b63000005d763000005cf7f1415ef3ab36e25d70022aff521924902728d9d4e85f9582263fce1bf7d2250f963000000bd565b610200830152565b630000061163000006097f2450d39e546ce79628f8b7ed88d4cba391126b86d36198c682f8480a91a74cdf63000000bd565b610220830152565b630000064b63000006437f053afbe53799c6a160f3c7939385bdfba27400ce5f419831f0f1f77ac1c8057a63000000bd565b610240830152565b6300000685630000067d7f1f1c797e23a026cbc4f171facf2678b54e9b6e04f7787db2f69dc4dbb78f921663000000bd565b610260830152565b63000006bf63000006b77f2e75c424744020262cd2b455579cbccc499b74fe7234bdbd1aea8b032b5e2b2663000000bd565b610280830152565b63000006f963000006f17f29e5de9b3e9ae5aeac7228b80b94b8846236b48263cff55b6de098ecc947734263000000bd565b6102a0830152565b6300000733630000072b7f0761f2817bd0b4cdc27926a71578dd7e6e2784f959929a735b0f0be270ccf1bd63000000bd565b6102c0830152565b630000076d63000007657f2b03680ded90ad4ab1b635b9e964618f394e21af353e362e1a22586b290127da63000000bd565b6102e0830152565b63000007a7630000079f7f076a11f7adad8c85b46a84c14475a5267114baddf18f668422c1b0c87996894063000000bd565b610300830152565b63000007e063000007d87edd2c4490fcf02139e44b89366746b90f3c5b3dbc9e72d66d2a9d7e21cf50ae63000000bd565b610320830152565b630000081a63000008127f2e5679683713053be9a1bfb090e58979b031e46cdc22dd87f67ed30812ba2cde63000000bd565b610340830152565b6300000854630000084c7f24e5e038ca2f61f40dffffd2875005ddf06e67968a8cc82f66e93a26b1386b2a63000000bd565b610360830152565b630000088e63000008867f16dcf147773d680ab9badada9a080c61f0aca1545e9b119641397e55caf605c463000000bd565b610380830152565b63000008c863000008c07f1ad7e83da0c481d94e44cbe06ab98a0ef83cf783f3922cea0ef5998e472c9f5363000000bd565b6103a0830152565b630000090263000008fa7f12c71038092013ff6bd28166b39414f932884927f34cdde753fb75450fb4f88763000000bd565b6103c0830152565b630000093c63000009347f28c3bff7d03ff7b47d606c7012fce237c781cb53c46cb0a0818ee02fac0b7f9d63000000bd565b6103e0830152565b6300000976630000096e7f11f468453cd9f8d0d975f54d1ca0f1cf607f20635ca4ecdfdf89f7ef69134ec963000000bd565b610400830152565b63000009b063000009a87f21bd4409c98533a8e4084c113d492f86d51e3a032e999b256c3abd60d9bf35e663000000bd565b610420830152565b63000009ea63000009e27f2425b2e2af4a4ed32bf46ab8eeb6bbbc260f245937be5120376124b9904e836163000000bd565b610440830152565b6300000a246300000a1c7f0253beac14d5fa6154f368e5dba09a84afa88897e3def6b0a8cd7f49534c7ea263000000bd565b610460830152565b6300000a5e6300000a567f053e2938e2867fc95e600c8e5044e261d80c3b4a809458d8cebc89441a48678463000000bd565b610480830152565b6300000a986300000a907f2dadf5b72aa2f3274d9fe6d75a63d269a686a1618836d416c645c04785a8206463000000bd565b6104a0830152565b6300000ad26300000aca7f1e39f1421fd52b1a49001c723218b75b7bab717d6cfd3166ae6b055581ab95f163000000bd565b6104c0830152565b6300000b0c6300000b047f1e193f74813f67ab490f6b4fb6f0c3dba94dfe96343dd7613ffff8fbdf70f96363000000bd565b6104e0830152565b6300000b466300000b3e7f0d65d9c0a34a6daace7fa20d6cda795ee2509ccdb1b4543829bd1995c5f5f84c63000000bd565b610500830152565b6300000b806300000b787f2a73659a3509dd49751bcc715fe890a692fe01c065f2e6990d842cf80736ed1763000000bd565b610520830152565b6300000bba6300000bb27f25f25479053a752fbfe81e136db719e614ca20e26134e70cc8069ee60a0b06b863000000bd565b610540830152565b6300000bf46300000bec7f122164e252b1750ccf4352d592ab6d9e5ae20d1b5d13928b11113474c078fad663000000bd565b610560830152565b6300000c2e6300000c267f26a3fedcf7bcf6d22b9fabe4bd8ab4f18e09f1150a741d2b460fd13823e0f3fa63000000bd565b610580830152565b6300000c686300000c607f11a5e2a432bce56873a2ee997ec42fae6b321994ce8676b7d5b221ab5ad4338863000000bd565b6105a0830152565b6300000ca26300000c9a7f030e2057b6c447ce083b102ed010420606b988e617cd8ab7ab58e2c0a8fdde1a63000000bd565b6105c0830152565b6300000cdc6300000cd47f03bff6bd98fbb5be7ede08407386c5df9f5a0bca5a4244eb2c2149807dd7d3b163000000bd565b6105e0830152565b6300000d166300000d0e7f2057b36cf35b11eadb81b17332424ca6ea71932fdab6d85dbe2978a472ef96b763000000bd565b610600830152565b6300000d506300000d487f2584783f50453707d356437333b3a20d144444fd32fa7d12b8e9a28f96edb47863000000bd565b610620830152565b6300000d8a6300000d827f1f3faf4e9658f08e54fa7f673900076e3c79c7adeec88b7a4140bd8cd585321063000000bd565b610640830152565b6300000dc46300000dbc7f270d957c87fa103c6b09a25586e91253937322306c0387f377f99f15cc2faaf763000000bd565b610660830152565b6300000dfe6300000df67f291d8bddffd637f134418bc548cac77fec194ba50af6e0f830c2edd3966ead0363000000bd565b610680830152565b6300000e386300000e307f04a2d902945e46ff51bc91152a876a3c91dd28e5fd37d64890abc01697ba4dc363000000bd565b6106a0830152565b6300000e726300000e6a7f174fb8362dde006c124d27597b502bfd2afa720d64b3b274f1d497b4c4ab544d63000000bd565b6106c0830152565b6300000eac6300000ea47f2ccb199af752904f8b705ec66ec7f6b57ff2b09f2d48d186392f153d964af4f363000000bd565b6106e0830152565b6300000ee66300000ede7f0fc73b2c85b9003989c1eb632039e8896299651b55b9d3f7c22be743678b2e3a63000000bd565b610700830152565b6300000f206300000f187f2e9ad2b7114b3ee63223d02defc584a6f262f882ec7b61666c9e84d07d075d8763000000bd565b610720830152565b6300000f5a6300000f527f0e6d3a168c8fde835967cddf0dae70e0903b3a0d89e9dc3ba49b441654f6ea6e63000000bd565b610740830152565b6300000f946300000f8c7f2351edc48f1240e8f7b9374fd30cfae08cedd349063849cca70a00a9e0f55dcb63000000bd565b610760830152565b6300000fce6300000fc67f1bfd8e2a9aa0e0988a3a6f176bbb3a12a17a867a26360b8186229e56b87cb82963000000bd565b610780830152565b630000100863000010007f20bfe79e8fbcf858d2f61fe08f43106f4b4beefaca4e7f43e317f942fc94e1f563000000bd565b6107a0830152565b6300001042630000103a7f05d143832d5a51f4e089df33ffb40f454e8190aeb6b5eee9e9201ee8c014af1863000000bd565b6107c0830152565b630000107c63000010747f1b3302206f4effbfba676d4f3a53da6bab1737399119c26eb9010625c66fb1d263000000bd565b6107e0830152565b63000010b663000010ae7f11c106a107995a130224f0b6c36fd5ebe762c9f71023db6e2fdfb17243727e6863000000bd565b610800830152565b63000010ef63000010e77edd911f33e13cade5fe8df0d6b94d1ea255f365e886cc5a2e336e4ad9882dab63000000bd565b610820830152565b630000112963000011217f1db8329775754b57d2115959120c9da4c1b3d483fe1ab9782fd2aa30962fc0b663000000bd565b610840830152565b6300001163630000115b7f05eab078f9ad588817aa72a0713543c7d21b5462458da14bff4ced9dee4254fe63000000bd565b610860830152565b630000119d63000011957f0f2fbded6963a5a2625c8d8dbbd638a7885f5a27efb2d130d6adab890bb07bba63000000bd565b610880830152565b63000011d763000011cf7f2882e35a48271ddc1e489fae00a8b2ebe10b0e4c71ec490e599ea3069f04abe463000000bd565b6108a0830152565b630000121163000012097f024656a7b7782894f53252f88b9fe79e45e23d93f7b0d7a339669947a640b4b863000000bd565b6108c0830152565b630000124b63000012437f1d844bd43b6fc6a921fe06b8e1caac0f6a70bc712f01ea909a6408f4f03368bf63000000bd565b6108e0830152565b6300001285630000127d7f20a899556b22d6b002512810cfd4db69e3d7bb96c97edeaa8f5a9e34f73180ed63000000bd565b610900830152565b63000012bf63000012b77f225ba3e9af0d2753ca77d37848700fcee5ea96b88a707ee5482668daf49a851663000000bd565b610920830152565b63000012f963000012f17f2fc93be5919e768542b52f9293ef40ad31c16ca163486dca1b831cfd9333070063000000bd565b610940830152565b6300001333630000132b7f05c519f5f8b5ca27e4391e07c61f50d43346659d660dd81b2f32bf64c9e6013a63000000bd565b610960830152565b630000136d63000013657f2a750e84c0959537afd0d2058e7e34b09e6bdbab086de27c406c7fff7d4e09fb63000000bd565b610980830152565b63000013a7630000139f7f29e1aa8bceb9437688c5b60dbee7c27134983f7e7c9754a5f4226a41f1761dd363000000bd565b6109a0830152565b63000013e163000013d97f2581fd70afe609b219e6d00ac70fe7d68735daeb4ed35d3d2298d75714a2661363000000bd565b6109c0830152565b630000141b63000014137f07e28578ec0938602064f60f92f0bcd13299a48fcbbc0d877df3f9f1dc9ae70263000000bd565b6109e0830152565b6300001455630000144d7f12a686d6fce4f27b23714a379f57e1fa239e83db2205aa1fb5e49eb3d4f4c37063000000bd565b610a00830152565b630000148f63000014877f26d20c6127c72c99dd14855471631d3c858938a4efabe72c86887faf28d9201e63000000bd565b610a20830152565b63000014c963000014c17f0bb5fb5915f039033776b5908f589f00ca2c3da250fd15eec2a11ee98324443d63000000bd565b610a40830152565b630000150363000014fb7f173f7c76f9989859b8b1ad5f4a2d8c96f3c627dffa74346c6c6c7a149c7a374463000000bd565b610a60830152565b630000153d63000015357f054663b982ecc976b841b1996a10ce86cc6fed5a8d6322aa74f2c4c3da8ed6cc63000000bd565b610a80830152565b6300001577630000156f7f09f5cb23e080fbff892b10224633c7606e38b872e8affd959c2d1c33e5a9d8a363000000bd565b610aa0830152565b63000015b163000015a97f2814585c51803264a04e15ef6d080a42466d32be8eef984f07b594630990975d63000000bd565b610ac0830152565b63000015eb63000015e37f0b88b2b61017b5a77a2ecf429159707b840d849afd010a5112f18db16cce4f7b63000000bd565b610ae0830152565b6300001625630000161d7f201eedf3e6c69c8622e2234b0f3292591ef1cd527deef0bda609bd32bf5fc53963000000bd565b610b00830152565b630000165f63000016577f0a9d103136d9293a5132e649de097bc2ffc15f836d6e7f807b68bbdc3ef7898163000000bd565b610b20830152565b630000169963000016917f20b219cccbf74b0be063e8f196b9c4fbb9985cad7e113aacb802d34f51e4355e63000000bd565b610b40830152565b63000016d363000016cb7f12061149dc8aef0dce2261d487e2b84fa4ea2bdec7df116c162558526c3f28f163000000bd565b610b60830152565b630000170d63000017057f0abdeb6f97a1cbeca3f33cd7811276988e231f4fcc7443fe0e40a682b6e4284e63000000bd565b610b80830152565b6300001747630000173f7f06204e59e539052fa888e3a051fc13d712082e1eb6b94b2cecdf9be897b2fa5f63000000bd565b610ba0830152565b630000178063000017787eb56f9082027157a241705b82f7de6951727ad3625c2f09f573166fb1f9ba9a63000000bd565b610bc0830152565b63000017ba63000017b27f1b85db49542bfbddd037a0b75541c8bcfcb7d979b17135e6d485a097da526e0763000000bd565b610be0830152565b63000017f463000017ec7f0dd8c0b6cb3894bf4ad3e4b7d4f1dc814be7b7457eb120567be78c1f20a0d72c63000000bd565b610c00830152565b630000182e63000018267f172d78c09f0cda9a1da893fd0e6e14fdcb78936ae75032aa55f06358ee015dcb63000000bd565b610c20830152565b630000186863000018607f09935999fd05bab813395d0741361410401a2bb600c4d01e79fdc926ecea789463000000bd565b610c40830152565b63000018a2630000189a7f108ffb6b47266cf79d524aef791316558cc18293b07ca7ae981791a7ed29d3a563000000bd565b610c60830152565b63000018dc63000018d47f0ee210cd4fe292e11d56d99905779ec03642e3d9d324254f210e30000735e26663000000bd565b610c80830152565b6300001916630000190e7f0db1d54d185b0edd5d06de96986b49c370d259af97a25fd77efa045046866b6963000000bd565b610ca0830152565b630000195063000019487f1a033122bced0464908ed0e6d28565689b2b6a30fa53461972a26b5ff46024f263000000bd565b610cc0830152565b630000198a63000019827f29b13c0792af982c8ff3463a3a77c789c4a66587bfbda4d40ac8126c85a29ae163000000bd565b610ce0830152565b63000019c463000019bc7f0ab989ca09abe5838849dc206d322fd044fbbe9402e726b58b525a468609a7a763000000bd565b610d00830152565b63000019fe63000019f67f197fc744092b5e46b0bbea57ec342e871c9b35920e846792c671d50b98a7550863000000bd565b610d20830152565b6300001a386300001a307f2481d242e3a39c7dc839666f35595e82693fe1eba9f4f9dc62dfea42ae6d5edf63000000bd565b610d40830152565b6300001a726300001a6a7f17bf661575c0af25d0da1d782e69c4fe26768f18bd43f099e1a0e0e7cb62c24263000000bd565b610d60830152565b6300001aac6300001aa47f276fc35afe69a36c30ef6a49f3554f2452992ae0c4ad0ca325d16cf9280e7e7563000000bd565b610d80830152565b6300001ae66300001ade7f0ee7db2eecb0eaca0302bfdb497c4921564d332b55775adcd2aa82b8d358dd3663000000bd565b610da0830152565b6300001b206300001b187f020a340ca4419b3cbc5637679299497765c6454e7d9be42dd0204534c3ee9e8d63000000bd565b610dc0830152565b6300001b5a6300001b527f06ba09751fb654f7593fe72f38d0c0b2ad6f3238b21ad1e5382a84b0a194a2db63000000bd565b610de0830152565b6300001b946300001b8c7f2523c2dc87b0ad275b15471fb55cb7dbd1fbc151ecb5a9a1a45173d89929116163000000bd565b610e00830152565b6300001bce6300001bc67f060d8fabc3158969d132f0bfedcfa39a789428b9b7cddf4d6db22cb288de313c63000000bd565b610e20830152565b6300001c076300001bff7eff47c0f3ad1f40ce7cf45911142f72b193a771546517674f1d91e6e762895c63000000bd565b610e40830152565b6300001c416300001c397f08869a0b55cf06d1d0babcd06078cc338fd9003a4fa832b3c120a79296dabec563000000bd565b610e60830152565b6300001c7b6300001c737f0ddc122d99c9e7410bc1f834eb522f0f11ade5d864e9fd7c375f683e4fdfac8b63000000bd565b610e80830152565b6300001cb56300001cad7f1104d75d88d2229e89a1fcece114aea2b27857e60a9b87b3589870b6a98d11cc63000000bd565b610ea0830152565b6300001cef6300001ce77f090f7116a6a6bdeb5b918856cd14a41a419539399f342b3ba0a0c93702d3be8263000000bd565b610ec0830152565b6300001d296300001d217f11c4487be60bdadb77dbdbb90097a49b52476fea5ea0df86efeeeea2d963debe63000000bd565b610ee0830152565b6300001d636300001d5b7f06ea7add48d9bd61c385200bb35edae9b5e796a85a49d34ff71ce1b8fb6e7cee63000000bd565b610f00830152565b6300001d9d6300001d957f1da9d7e408a943d9ff87601dea81df67fff3609e21c91e8bbf218293b01fa18763000000bd565b610f20830152565b6300001dd76300001dcf7f25c7d70476fd91bb1f72b06eed2f63bc455e24608ba1e8e09ea86621d33396ea63000000bd565b610f40830152565b6300001e116300001e097f1a0ada56d28b9e730eb27e19f5f10a0306ef8a1b2f88060ac9ee829ba0359fda63000000bd565b610f60830152565b6300001e4b6300001e437f126b459623ffab27b9068f24b598ca5eb76c519cddfdeb83806672a5ba13848c63000000bd565b610f80830152565b6300001e856300001e7d7f252d593146ad911e6ef9af64bd80c31909bcfca654589cd22fd5d355e5a309fd63000000bd565b610fa0830152565b6300001ebf6300001eb77f25ca24ca7aae97ac6aba108e99188da5411046a48491058e8a6a0ac5deb9773463000000bd565b610fc0830152565b6300001ef96300001ef17f0538975e6367b39f3d3200d88d0b4e1e256ce5e9dea780459849e2ae7fb2c2a763000000bd565b610fe0830152565b6300001f336300001f2b7f0ffc26a7e0c55072fa30b05a199a2ba27bac806b6453bf5f00253790428a795663000000bd565b611000830152565b6300001f6d6300001f657f2706841422df0a020c67326107fbaeaeec9ce3137e7fe1412b702432158b4c7563000000bd565b611020830152565b6300001fa76300001f9f7f1ff30e494eaf288129b2a3ddf6c8af7d572d4dd3128540eae494b497cedc862c63000000bd565b611040830152565b6300001fe16300001fd97f0ea152778d9645e23aec29c2ae8ab1a0798412b774bcc9318caeafb85cc6e00e63000000bd565b611060830152565b630000201b63000020137f2eea3b6e7d16fdd46a27a72dc717516284c7d4569c1129701b621a3b990314d863000000bd565b611080830152565b6300002055630000204d7f2cc5d1c0fc8c6b6f37229708d6aa73ddbe2eff91a79e1bf94f7e9e080345743f63000000bd565b6110a0830152565b630000208f63000020877f044eb883f772ab28d41058e4b818b24e43ee3eb4b88ef0e527f773b85cd874ed63000000bd565b6110c0830152565b63000020c963000020c17f232053c7a4178f088bddac78ad99fec4a65ae6e8382e9e7d91e2a4a52972152963000000bd565b6110e0830152565b630000210363000020fb7f12f303e98e5f3839ed1d158c4efb477cbc8ad10bd9423e73034bf1af835e4c9e63000000bd565b611100830152565b630000213d63000021357f1bd3e7b0f62b0460540ee36e6a572b9197c5d3a7b803cb8e4dd5b6fe9e7b54c563000000bd565b611120830152565b6300002177630000216f7f0b5403a423d7dd802d167e8130021bb8cba0facbd72d0077a9d984c362da2e3263000000bd565b611140830152565b63000021b163000021a97f2f3b031ca7e8af93d3fb9df7801a592a0da27c5f7bab7c9a79ac2765cf7c275b63000000bd565b611160830152565b63000021eb63000021e37f2b697e5aaad3614541bdddf1f9ff099eb0c4285575af030617ad16b9bb84867663000000bd565b611180830152565b6300002225630000221d7f050d3496a0c05b27fc281d4aeb2129bd54c3b9c2ef7c8a63406d73afa3373af763000000bd565b6111a0830152565b630000225f63000022577f037d3c50fa200b42c7905db6c20ec682796d9017f379305a11702ec6e54767b563000000bd565b6111c0830152565b630000229963000022917f2b4acb3c9143d503f15354950964bc7051e93ce0ffed0e41b146fe494748e26c63000000bd565b6111e0830152565b63000022d363000022cb7f17b8f71d200812874eb927688811be357a23b6ca5eb3fc596354d3878d90a6e163000000bd565b611200830152565b630000230d63000023057f2a68cc2ce38f8d364292125185a331ceb63cdaab5f3c7b70524d693b0bc4542963000000bd565b611220830152565b6300002347630000233f7f102f919292719bee42e8a51f2248e03c28a12ce3726e2299f9d7bd31b9256c1463000000bd565b611240830152565b630000238163000023797f14dcfa622fd5c4b6ece0ff711746278d0b1eda51271ba9c8f7c7721a6c94c97363000000bd565b611260830152565b63000023bb63000023b37f2c789e6e71d25fe1bf6f6fbfc7d74eea4e0db9d237287e0111986e1edea3e95163000000bd565b611280830152565b63000023f563000023ed7f067d2ce378256905ec078d68dc1fa1eede6235d2479496179cf736c7d4388f3363000000bd565b6112a0830152565b630000242f63000024277f2d1bf8c7ae201b3121b9661ac6c2773ece888dfc2c0bb167777943c0c1bc42c163000000bd565b6112c0830152565b630000246963000024617f258ce58defa852c1e80ea06f7ce7376b8af22391df333033b5ae3fd265341e1963000000bd565b6112e0830152565b63000024a3630000249b7f2573933771f6f384c444ab91effecb9bf02f7585f15ee187540fff91121b319363000000bd565b611300830152565b63000024dd63000024d57f1670445b226abc20163f4ac7d5cff9b713009dd698f477ee784b2cfb12b3b2e463000000bd565b611320830152565b6300002517630000250f7f15201542f8f9772e6690140c17672d1fb5459540efead31a458affa5209515fd63000000bd565b611340830152565b630000255163000025497f0945455e35234051bf74dc4635e56d917dd809d04283d6f6c177c02518d6d5ab63000000bd565b611360830152565b630000258b63000025837f0e2a822824033325895980ecad43da320c12b88bdae24d98b55b94cb7c4a890763000000bd565b611380830152565b63000025c563000025bd7f2c3ef4d6fdb4db244c06a195557fa8dccb47e43d946b33a0307a067b38f4d0c363000000bd565b6113a0830152565b63000025ff63000025f77f025bc633a4f33575dbb9a8c598223899456382338e9dd4a52adbd9b779cf8c8d63000000bd565b6113c0830152565b630000263963000026317f278db1c1b68c094ac8edffb1ab2d13da78b5316f14faa7a375d4e2112cf56abf63000000bd565b6113e0830152565b6300002673630000266b7f120cd16c04070c8729d940feef1ed8a7e38efd6911eeebcdad7c2a7259f6e3a063000000bd565b611400830152565b63000026ad63000026a57f06cc3e3acb0d36b88d962faa4632ec3c345f87a2e81f659af105c29ec12623a463000000bd565b611420830152565b63000026e763000026df7f08a3acbe72fe4113f8e24069acde1e98433de864542ecbfac0a71c73d5327b0063000000bd565b611440830152565b630000272163000027197f284b7c6a05c1d10f0833fbb81fe10b702d909edf7b05295892c27029d1413d2463000000bd565b611460830152565b630000275b63000027537f0a26530f69db33d8eec5b3cc4b15f5eebbf3fb1ae09a5bb5c9b8ed90266243f063000000bd565b611480830152565b6300002795630000278d7f298e52b87df7c8d9b786375e1adbd48e59c848945709f815bf1db160ab333dd563000000bd565b6114a0830152565b63000027cf63000027c77f12f32063fb6ad00b7f0d0dca1debb10e3c6b2460cf2de9e610985cd9f66af58563000000bd565b6114c0830152565b630000280963000028017f2d267655be98bf0435e2d843d4875c3410d4f745b000f88b738337d52e45044d63000000bd565b6114e0830152565b6300002843630000283b7f238343eaec970af6a901fd4a395fed50911f1cd30626cde1c965a888202469d663000000bd565b611500830152565b630000287d63000028757f1559ee7e6ad71b2e51183ecbd549b4f844fa217330b0d4d743116acf853ef94863000000bd565b611520830152565b63000028b763000028af7f20ad47a2344e4128d752bbc6d23260855e37771a20bfa549c538957e7e7711db63000000bd565b611540830152565b63000028f163000028e97f08258bcb391f1019aa2c6b6fd71744ce7c4d9a69a1eaaaa86a26c6a36614d35463000000bd565b611560830152565b630000292b63000029237f2bfd6348ef6d63e0348586ff579eff53052153446e9090ddae6365754474ed4c63000000bd565b611580830152565b6300002965630000295d7f0c8e0314481c4b13dfa413258718d15cfb71b7ba6ec358a4e898304f32a9d30563000000bd565b6115a0830152565b630000299f63000029977f11f029f2752c58a2a8f6f2918b17e91dae8b02c2335f1e1a6b51d5ed4244c0fc63000000bd565b6115c0830152565b63000029d963000029d17f058a47bcf347d45d77cbebf9e261f1f4e57810c09c5f552427b6daf9f2af217563000000bd565b6115e0830152565b6300002a136300002a0b7f0e10d5d72fa3f6116e2ae6a1add5e5ae9e60cd20d102e7749b6e25a2aa826eb363000000bd565b611600830152565b6300002a4c6300002a447e49b054352fcc5acbaa748deae5e9d9f7d1d86c2ea5b93843d8a32c73d9075b63000000bd565b611620830152565b6300002a866300002a7e7f22505539b553e8fa90d7f0d3bdde5668878e24f4d52a59ee239190738238bcfa63000000bd565b611640830152565b6300002ac06300002ab87f0435b9134ba56d2f5a9f3526f07f172ea75032ba73f6ca644eee22e10345e59a63000000bd565b611660830152565b6300002afa6300002af27f17cd6b04e366f904b6f9c4423b144c0c37ab8e3790b29aa5338639f54cb130da63000000bd565b611680830152565b6300002b346300002b2c7f0bdfab75982b48b2e27a88156b0309494a7ff638288ca6ef9b9d7e56e249287763000000bd565b6116a0830152565b6300002b6e6300002b667f1dabece9bf4572c906c1697424f6225d656c11cf61a6e4c558e0174761316ccd63000000bd565b6116c0830152565b6300002ba86300002ba07f0cedd3bff56db431a4ea2810fdb67ff1f36f8064f5d665b3d45517c0fa98c5ed63000000bd565b6116e0830152565b6300002be26300002bda7f0865b5dac8334dc2cd345d6cc677c257982c837c2197b8fa488d7d5a7c79f5e463000000bd565b611700830152565b6300002c1c6300002c147f28d67f9613256869a1172c839bfdd63e85a36ed35b1352412953ab53429d958b63000000bd565b611720830152565b6300002c566300002c4e7f0b6176d0867432589b5339ea19f583952efab3cb15bcb6c0cd6d88859a3dd34f63000000bd565b611740830152565b6300002c906300002c887f23850c0ed09c94226b601c57b5b0fb41e5fd6c948906b4cf192c5756fc28437363000000bd565b611760830152565b6300002cca6300002cc27f0252f9352c413a425e6ed7dc1f2f8fe5d2515e344d61251c56c7d0bd3fee655663000000bd565b611780830152565b6300002d046300002cfc7f148561f88b0232f760ad63b212ec755946baa467ba65278b747b86a8aa07a5b363000000bd565b6117a0830152565b6300002d3e6300002d367f21e3f46a5708aa4d05883ca0f3c3e73a98952e281232a8f0f0c5352000f85b8c63000000bd565b6117c0830152565b6300002d786300002d707f1e434c2e5b26f2d89f02566f61bc19af1d211c2b1ed0cbcc58a7c342d0216a9a63000000bd565b6117e0830152565b6300002db26300002daa7f22563ba20ff7d66c71c0e5813e779fe6c675c3cf19dabd3e3952cc00f414310163000000bd565b611800830152565b6300002dec6300002de47f1df83b586996a1cc23cca932f9322ad9a6909d405d0576e24aee6d19b2a54f7363000000bd565b611820830152565b6300002e266300002e1e7f28382ccf7a8656d242ba83a3157858df570d4f2fd74e45fc14154809a7d0e8a763000000bd565b611840830152565b6300002e606300002e587f0b8d9549549b2982de5e52f060a9884f63939378d843e7242ad9e2d8395ac25e63000000bd565b611860830152565b6300002e9a6300002e927f29587dae39b268b017bc806bea60ed89b7a2fab8957fa314ee567f7694f93d7763000000bd565b611880830152565b6300002ed46300002ecc7f162a3a3347ae57173b23e69eed4feac090deaecce4fc7860025df73a5609029363000000bd565b6118a0830152565b6300002f0e6300002f067f0a0846c62ddfe3f64e5bd7a39fe838fe437dd899bddf950adce1ea8e4cb301f163000000bd565b6118c0830152565b6300002f476300002f3f7e54d69335d09f36d02b660439f3e12360f8030e2034ae7335341a4891f400b263000000bd565b6118e0830152565b6300002f816300002f797f135788793df981e718b65b5a06501a6d9e27e94f80bef9a233c10e2988089c3463000000bd565b611900830152565b6300002fbb6300002fb37f0abf8d2d8b4e89c3dca90a2df44abf686e610e1a8dcb4f23c5b7ac4dc0e9780c63000000bd565b611920830152565b6300002ff56300002fed7f0ed6286ee37ce212ab27431033b18e0d74fd196902bfc70725550350c6a9046863000000bd565b611940830152565b630000302f63000030277f150b5c19013a0d3253079b93f7d70e0b47d086104ccbc36190c01777849bacc063000000bd565b611960830152565b630000306963000030617f0ee51859e23a841aea64543318c970088a72744a69fb9dea0fdcfcf951d645d763000000bd565b611980830152565b63000030a3630000309b7f0f86cee78ae20d4cf5f362577e4830e72dea2b368dc81e03907a312c82aec33c63000000bd565b6119a0830152565b63000030dd63000030d57f25b5a95def96406c6b9bce923883f5bebac9a03eae2cd33b063915a9f94ea30663000000bd565b6119c0830152565b6300003117630000310f7f0f09ff1a60dd952a1bce74cc80a414f9fa8c6e422739e002af84c87b65f237cf63000000bd565b6119e0830152565b630000315163000031497f07ede0fbc267b87135707c54a8cffed53d28b45eac53674b495f71099ec76eef63000000bd565b611a00830152565b630000318b63000031837f10eddb8fb0f8ffc304ce336bc4f572c8caed52dafeedafb49b51dd835c6e96e663000000bd565b611a20830152565b63000031c563000031bd7f11bdcdcae9c1d0cf0238864dba912f1283b4354d873f5ef22d819a6fdeac54dc63000000bd565b611a40830152565b63000031ff63000031f77f07e646a5ccb40703b896627a67a250b14c5236db848663ebf615c2591e170c7263000000bd565b611a60830152565b630000323963000032317f18623428dbbd69130d316483b08fd1e0a91a9d36f037f96620d8d9083579dba463000000bd565b611a80830152565b6300003273630000326b7f1f84656378c69a6d0dbb94f67cd22a8ff5bed6ccffbc1238ebe8bd9cf22d0eb163000000bd565b611aa0830152565b63000032ad63000032a57f0a74a929687b93cda19504c44f6cdd947744d08e66c45b3e6f479ea18f21674b63000000bd565b611ac0830152565b63000032e763000032df7f225b4bcb9638686a42e82138d0666d3b019a8846f05cebf4739ebadb56db717a63000000bd565b611ae0830152565b630000332163000033197f1693b4de1096620afc876af185fda33a69261992cc481e8dbdf767ea9e4e191f63000000bd565b611b00830152565b630000335b63000033537f25c22cf444be68387e41660b08994e26e281f9780e0cf4ffac86f9f74519865063000000bd565b611b20830152565b6300003395630000338d7f21f47db95884625c87b2a032fe6b3c79506bf808d81d0f856348d14c7a6b6c3863000000bd565b611b40830152565b63000033cf63000033c77f2c6e4151190280bce4c50cf2d450935c9201b68ae4e94bbc4c1c8fb3b6aacdc563000000bd565b611b60830152565b630000340963000034017f046b60ffc82e0d0026987018b3feb4b1f4871d0de6282c70341a64aab099742263000000bd565b611b80830152565b6300003443630000343b7f05ab33dda20d7f58b8464e4a839f940760754addeea91f14cb57612144f1f14d63000000bd565b611ba0830152565b630000347d63000034757f0beb305b4d3929518c2f42fb08c1730c59b93d9e30b7aeefbe53c473640821e963000000bd565b611bc0830152565b63000034b763000034af7f037ef370d2a1bbd37f00e5c481acd7c3522fcd99ed730ca9131c80ab69ca4c3263000000bd565b611be0830152565b63000034f163000034e97f2a0683594b2b24acab440c1471a453a07c88afba19ce27e09335db9d76155c3e63000000bd565b611c00830152565b630000352b63000035237f2e437dc5cb69134def607c4b1868859af79929921dd3c95ee49631ef92d651e063000000bd565b611c20830152565b6300003565630000355d7f0a9440008322d116c16dc562c36137889882a49984076292154d599cb883ea2c63000000bd565b611c40830152565b630000359f63000035977f04a10c2401a42d12cd73907d74bc9e84d0f1d43fe4d9f8e9b906e60f4871a7c363000000bd565b611c60830152565b63000035d963000035d17f05c2a6a81ed4724bde4d5778e86b267c9149adc1c83cc77b5dd4774bebcff23363000000bd565b611c80830152565b6300003612630000360a7e604e15f8699f37fc34ee527c25277b1a7b819b4391f4eb97ae1c7795a722dc63000000bd565b611ca0830152565b630000364c63000036447f1fe306488f3485b485ec95914aa14eeec7fc1d8b6e1dc1b5a2edd45173c4b6ac63000000bd565b611cc0830152565b6300003686630000367e7f2fd92b003fff24be07e4cbe499c4babd15a10dfc116015e15d57aad19fc0eedc63000000bd565b611ce0830152565b63000036c063000036b87f26c8c111c1797c190126bf33acbf4a9eaf80e52db0745926adf4a9de61470d8763000000bd565b611d00830152565b63000036fa63000036f27f19b717c7af2958be91a595ad756e45791b4da66da72367c53d906d6bc5e2b15a63000000bd565b611d20830152565b6300003734630000372c7f2a9f5815c788adb5e34670b549d7516a633ea53516f1b65374351af299a65bd063000000bd565b611d40830152565b630000376e63000037667f2e999491f98dd3f807fe2dfa0d1367fdf0f57b24fc4e8ae63fe73c3f2ca00b4c63000000bd565b611d60830152565b63000037a863000037a07f2cc5ae7e03a10afbf19d89388b822d56b57e8eb3e68c7414683f27d896a07c5a63000000bd565b611d80830152565b63000037e263000037da7f10ff257333f10cedc7857f44030b245bccde4a898263df5358d5ac650fce9ef163000000bd565b611da0830152565b630000381c63000038147f2b6e6d7ba8d2c1f83dc8cd979c04f38f79c06e4f324b87592557facdd954f8e563000000bd565b611dc0830152565b6300003856630000384e7f25f472ac5bfc784af9dfa96bcaab41cbcb5d7271615165363cdc1bd1307c242563000000bd565b611de0830152565b630000389063000038887f2cc4604b50928416d6d754d02200bbb926aecfb45865b9e2dd6dacb8bde2626c63000000bd565b611e00830152565b63000038ca63000038c27f06d9925be2346e3cd6df68f352ba54b0c055d5096be1671e6a4d36dfbd096c6a63000000bd565b611e20830152565b630000390463000038fc7f1453cdf0e5671662d851c09b5ec053687dfa9ee5862d7435d547c6dd6e76be8063000000bd565b611e40830152565b630000393e63000039367f1dc5ac7dcbaaa11c4286514e13edcc6b91261ea12943be307be24691bd017ed263000000bd565b611e60830152565b630000397863000039707f07a8fa5301fbaf95ced84517f99af5056110294889f803333330cd3923cb32ad63000000bd565b611e80830152565b63000039b263000039aa7f2a8253df4101527de721c8d9a396d23e0f99abc8d2f411bc7e8e9ec8146c823f63000000bd565b611ea0830152565b63000039ec63000039e47f119b0cfb576c0157702aacbf13e96df863b85a05020a39efe054494b68cfd1a363000000bd565b611ec0830152565b6300003a266300003a1e7f182c5bc30e9f3300fc07dbccbdc50fbc012fc26e4d8b7afc8918350f80b50e2263000000bd565b611ee0830152565b6300003a606300003a587f259df3129f7139b8eedd6155cfe12635d1b7d3e3f5dd4c47b0b2e76da961f43d63000000bd565b611f00830152565b6300003a9a6300003a927f0f7b3bdd12c0087702d0ad40ac23439660cda1c39bcc9d35e2095b8f339642f663000000bd565b611f20830152565b6300003ad46300003acc7f064130166808fe7dca567708f7cfef4f05f728142dea45cadfe4eb45c331e0bd63000000bd565b611f40830152565b6300003b0e6300003b067f190996c7990b08af6e51ab50c419b791ba52f4b2854a49b67d034105c265110d63000000bd565b611f60830152565b6300003b486300003b407f1b704bec77ae1907f2076ca2f4051d47c32831045805f82730113a8151c6f35363000000bd565b611f80830152565b6300003b826300003b7a7f280c8331f3ad7f3a1cbddb59d9e80e119c0aa7755d1e64b1c506e62f05f74f7563000000bd565b611fa0830152565b6300003bbc6300003bb47f0221185e67c1aa9f740453f1dd54da3e51d9426c8f35ae3a7ab414f3565f040563000000bd565b611fc0830152565b6300003bf66300003bee7f2b7b9a982dc45453781ae5c2c65980492b42e5455e1cb563c873e0a2f351305a63000000bd565b611fe0830152565b6300003c306300003c287f2217d8bf8dbdbd97589da802081c9a6f8a00ff315fa0b8aefe162602e7e8143a63000000bd565b612000830152565b6300003c6a6300003c627f1597da1c12c6fb440c2c0621f8980a36330657434ef647e50ae3b4c60fb910b963000000bd565b612020830152565b6300003ca46300003c9c7f1bf8de73601c2bfa0b410595aabf2b7a89593075545a6640165faa6a47ccf7b263000000bd565b612040830152565b6300003cde6300003cd67f29bba93f55cd8537e1e3fe8d8f84142ec6aa94f1ce6aaf227e73ff30ff5937d063000000bd565b612060830152565b6300003d186300003d107f029a65191c680574c13db8f0c56283e0b7a50075904b8defd76b0238462c231363000000bd565b612080830152565b6300003d526300003d4a7f02863fce7b6f7ed6d852aec2e646ca3bb0b0f7d29e2234bbb5e5c17619b4100363000000bd565b6120a0830152565b6300003d8c6300003d847f18149a8c5a759550b017f743001f7a5218dae3f47345f9d48948dfdc0240a34163000000bd565b6120c0830152565b6300003dc66300003dbe7f091cf42928f0753dd88c8ce7b2f7494d98fc53290746f1c9e5835350b3e44c0e63000000bd565b6120e0830152565b6300003e006300003df87f27588abe46f62632ea96659a8414031d5c0b89db4f92465caf2645f153040db663000000bd565b612100830152565b6300003e3a6300003e327f2a8491794820bdc9e37b13d3aa2b5835eb8ce36a756c31e800c6c797bc4eb53a63000000bd565b612120830152565b6300003e746300003e6c7f05975ad8511f6b2ab017fe37adcb2dfa41e82e11020dacb53a7d125f7597499963000000bd565b612140830152565b6300003eae6300003ea67f11999d491e307438574907bac3b0701c1cdf817963d9fd6563d8a3568859634d63000000bd565b612160830152565b6300003ee86300003ee07f1ef6edd6b0528d9f219ed18ac7fbed5a2d833911ce2fd7151c9e6175faaa375e63000000bd565b612180830152565b6300003f226300003f1a7f10329642e9a1b4947fbd7a3cc079b67d121fc7efa0520a0f9e34d8d53b0fe0c463000000bd565b6121a0830152565b6300003f5c6300003f547f2908c1d55f9ee0d8cd2bbed20c36193498f2fa5c189c67e53678245b7e4d0fde63000000bd565b6121c0830152565b6300003f956300003f8d7e9c7cf3957dca0400195048a4bb53759d6f5543092608bf311a558771fbeb6263000000bd565b6121e0830152565b6300003fcf6300003fc77f06bbee41b178b54260fcf86073ef91db8a9929d532f8ad3f333c765cec0e0f0863000000bd565b612200830152565b630000400963000040017f11ed2dc80f11b109c5592086e29373d39c267beedc19a6c51cdeb30880e31b0a63000000bd565b612220830152565b6300004043630000403b7f24ddc094d7e4ef98614703072e569c99029ea2e52592d0872aa1ee948c5417f963000000bd565b612240830152565b630000407d63000040757f24d8e96acebf1b69062a6c1a092b9e2e8143ec24b90099e2bbc584977f2291da63000000bd565b612260830152565b63000040b763000040af7f23db5c7f0b4713b40a6c8276c656577a6ba8a59b5254dd1e2dd9c43169b929b263000000bd565b612280830152565b63000040f163000040e97f2abcdd06322656098082287e6d6917e1201650e11666eb96899824df8050dc5463000000bd565b6122a0830152565b630000412b63000041237f2aacc44089109ad6976224d531789b97fc06bdff8eccdd324be01ccbc6c0ea9163000000bd565b6122c0830152565b6300004165630000415d7f276b874aa652cab6f36007c2600476c8c71290d45a402cbada53dbcd194f66c563000000bd565b6122e0830152565b630000419f63000041977f15682e53f8933b80e0cd1adf54b338eaebcb78dbe700f86cdbe770ce7b0b502863000000bd565b612300830152565b63000041d963000041d17f1fdc786e14f7fd42ce591e056833cb51e5707d789b7adf7abf85ed12ad64836663000000bd565b612320830152565b6300004213630000420b7f2c1329c3ae627f2833ad8ae6fd77ef4fad622d375d5bcd6b5c6f4daf4d2960e963000000bd565b612340830152565b630000424d63000042457f261f2cb4d89ecc9d4a4729741d5d84a5d5343d21165f3282486323420fefe8cc63000000bd565b612360830152565b6300004287630000427f7f043aac97ff0ce16e4cc14e9aa8c18b66d20e8a1bface9b49e4d9f0f10b0dc0f863000000bd565b612380830152565b63000042c163000042b97f1fa692dc3e9f09a39ac0c24cffe9ebb17aa9cd190ca59c4813438445577f0f7d63000000bd565b6123a0830152565b63000042fb63000042f37f0dd01b1b9e65dad12eca2ebc0c76432efa8083b897dde0e984d2db68eeca0afc63000000bd565b6123c0830152565b6300004335630000432d7f039baf53f3221efc825379714c79958f8c0e00ef751f60b9e31043777699bb0563000000bd565b6123e0830152565b630000436f63000043677f2911e51d52c3d00babd351a51b6205283f4f2a0d2c8143a4579683c15ad0b2f963000000bd565b612400830152565b63000043a963000043a17f12b465d84ba849a5c1129cbb207545eecd7f457cfdb096e722b9519802614c3163000000bd565b612420830152565b63000043e363000043db7f1b6103e09bb91151eb825e54010d0a90b2f871f3b80fd411f43984a7e88d143e63000000bd565b612440830152565b630000441d63000044157f1669b8f39df093d2bf16486a315f33cc56af00dcf5476e5b980ce2ad97bf6e8c63000000bd565b612460830152565b6300004457630000444f7f0b4b9cf7b3e30b0541ef5b22bc83be1aae20736b2ad8b4f42e2f24e65250b1b863000000bd565b612480830152565b630000449163000044897f1c3169c55427ad80216660f252732566f7138e8e9d72553697240af77ba3c37a63000000bd565b6124a0830152565b63000044cb63000044c37f2f03001944e0ab0b6291e4acfbda0a76603e5a3d66c41a0130f22b356acd2ce163000000bd565b6124c0830152565b630000450563000044fd7f16e70d097c6a7be6bf358ad9d946330e8e9bbba8fb6a6ed690ffe8223d006ca663000000bd565b6124e0830152565b630000453f63000045377f1c8d6ca753796ae170686255f212a0ec60df97bb94ef9e6c8096f8dd4f8330fc63000000bd565b612500830152565b630000457963000045717f066f76006b85155ab6e194ab68e0011b2ecfb1ff57d69d44af59b09b79b2992663000000bd565b612520830152565b63000045b363000045ab7f2124781160b9f9efbf04372db7bee74a26bbff8dffd6a60b3b3ac1c4cc0a11d363000000bd565b612540830152565b63000045ed63000045e57f02d5c7e3180a694d4f309a5f968f301fa837cf9e0f2a1615a8268b25fdfe113463000000bd565b612560830152565b6300004627630000461f7f164ab079ec76497e5b703fe787cd960ac73d31cdb00ac31c0f4d1586c669d4fb63000000bd565b612580830152565b630000466163000046597f1e2ae3a3bc434820a6d26d88fc20c76b4888343f68f824177dbecfb0f877a5dd63000000bd565b6125a0830152565b630000469b63000046937f0aaf24f62da2b73ac4e9eb2af1fec4b1e4375da0975cfabd95d168bc79d0657c63000000bd565b6125c0830152565b63000046d563000046cd7f2cb025f6132a889341c0ec078b8fae21b34b6c8d235eff542044786f266a82ae63000000bd565b6125e0830152565b630000470f63000047077f2746f704b9f38ad37823cc32c6b6daee8cb4e23dbe5f7508edac571a46712fe663000000bd565b612600830152565b630000474963000047417f0e94364d9f324e6e9e47f1846ea8b23f2e37e8c22643c6e64463c555a1385c2163000000bd565b612620830152565b6300004783630000477b7f0a686d66e63d381102192c370514c92e73ee0af6bc724e498cbbc7687966d51b63000000bd565b612640830152565b63000047bd63000047b57f2508f9c3bb5c13e26d0dded01a68b6dc747200319c869352cc2e4d1444cbf72663000000bd565b612660830152565b63000047f763000047ef7f020d9d9337cb2eb48daba66f17a8865845aace249c22fd8ff5b8c35a13c1ddd963000000bd565b612680830152565b630000483163000048297f0f3d704283962b7e830853c5dff19b1fbfd5248b6c4c07cf3f4b399076b3064263000000bd565b6126a0830152565b630000486b63000048637f1a352075031d9c71484c9625ff74668c06e30628b204aff96c48309ed3ea5d8463000000bd565b6126c0830152565b63000048a5630000489d7f2b655c81bb4b9efdb5e522fdb65829a60cfe66a5fb862f29483fbd89d948e6db63000000bd565b6126e0830152565b63000048df63000048d77f0677f0836859e090541338307d923b3aac98dd73ce251c7a473bd273e019da1763000000bd565b612700830152565b630000491963000049117f2de07656a1019b8692cc7c34e5e3b5d9f985fd2c36ec8897bdda249173c7da1063000000bd565b612720830152565b6300004953630000494b7f26f553c5529448a1cf5da3f2495278c3baa28ff6673934390892f353479e7afa63000000bd565b612740830152565b630000498d63000049857f2221081df73abca4608577a4f91e759c5454a993aa205a60cd06235ba95366c363000000bd565b612760830152565b63000049c763000049bf7f2b9968a8a5679c8767d50f5dfbdd6bdbf700458de165a2e4ee9f39dceabc538163000000bd565b612780830152565b6300004a0163000049f97f2058d6c705ca910c4c89c3f20516a831ba672e7a3f428af1f21b7bdd4fcd818663000000bd565b6127a0830152565b6300004a3b6300004a337f16fa3b29cd592d5bfb42f9163f67135f2b238650c30d3b3def231aaa0e2f5ab063000000bd565b6127c0830152565b6300004a756300004a6d7f255064daf7387500907820e804fa168337e76016234d57bccc653606cc7054ba63000000bd565b6127e0830152565b6300004aaf6300004aa77f12b145f88710a53a3b3ab61a4e8776e4e877a5f235560b53f0b9526e50fc3b3863000000bd565b612800830152565b6300004ae96300004ae17f2a2627b8b5d8aea9ec4cedad4ca8393f7d9a1a2162af167ca17145ca9d03457763000000bd565b612820830152565b6300004b236300004b1b7f0fb70eb291e12677be8186c06da2d037216090170aff6d0b1ac041aed2d90fc863000000bd565b612840830152565b6300004b5d6300004b557f205cd181129cc42d9542360117459621c1ddd66409c4c3f1ef3bb0cd9527d7a163000000bd565b612860830152565b6300004b976300004b8f7f038b737fe726f168c1620c7d6f498d25c516108638d48ad49cb1630e2d9677f463000000bd565b612880830152565b6300004bd16300004bc97f2ad3733f5fb5a071254c3e297a330562f54cb332b4ecf093e72d1469b71a8dc863000000bd565b6128a0830152565b6300004c0b6300004c037f02b789e19c4d446315a8c3a068971bec647a8571dc66b96451c64147a4a3a82b63000000bd565b6128c0830152565b6300004c456300004c3d7f29a33bc1c28ee959d614466af0c0c5ea7ec68d9314c8c7c54f0a30b2e2bf88a663000000bd565b6128e0830152565b6300004c7f6300004c777f02a2b7d8e34b1cc803675fa5e52b13face5a69cab01fd389742a6da93196368a63000000bd565b612900830152565b6300004cb96300004cb17f1e4e5e609630c259c7982b70e3fb2692c10f25259c383ea64717f9f9cd78e23663000000bd565b612920830152565b6300004cf36300004ceb7f15933d4f34718cfe5f60207b9cf35946e764d1013e34a9ad6faf4c0aab1294bc63000000bd565b612940830152565b6300004d2d6300004d257f29d0a6569aeb62543fe8b4c406dde6b568b0fa7452f42f9cf03244e9538114d363000000bd565b612960830152565b6300004d676300004d5f7f17e9f89117b8cf81e2e5cf757b9176ed9a0282bfd8a104621e571718c568421463000000bd565b612980830152565b6300004da16300004d997f17a6a25abab58e47f91586b80e6804232d7ec6d9fde548f2e56d00107222521263000000bd565b6129a0830152565b6300004ddb6300004dd37f084ea708bf682158e14f380eb301ebf3a62cac262cd7caab43ef0e746808231763000000bd565b6129c0830152565b6300004e156300004e0d7f0e55eef14308f971956e772e49cfd1f25ebc4127623860ac8707709b0417884b63000000bd565b6129e0830152565b6300004e4f6300004e477f1104b331b2d1736d5113cf0b88854faa635ce6c57a9e35dbd4dd95074c42704663000000bd565b612a00830152565b6300004e896300004e817f26b3827a100e4db2b6cb4b65aff54e129c809ac2b2b9f2912fa3f77598dbb2a563000000bd565b612a20830152565b6300004ec36300004ebb7f3050f71a4432c87820379054d9df9d3d697cf98d3b8a123ab976e27e4ccd56a863000000bd565b612a40830152565b6300004efd6300004ef57f24cee563097166f838fed9b079dedf9ec489256988767406617d5d5515445f0963000000bd565b612a60830152565b6300004f376300004f2f7f121481f71ffe3df6c446eb0160c500c7eae33d31e027247f6b73b2834980ac9f63000000bd565b612a80830152565b6300004f716300004f697f2a3f2ebfff57c0791bcfb394a7026cfaa75cdcd17812a1231d30b915d3f8c9bc63000000bd565b612aa0830152565b6300004fab6300004fa37f26ff86e3f5111313de01a8ab7ed5557606931cb912c561c7a1d8afd72e6e607763000000bd565b612ac0830152565b6300004fe56300004fdd7f20c942f6fd9e5a41aa62df6cd8a88dcefbc513cdfbace7d4c0acc538c816dae663000000bd565b612ae0830152565b630000501f63000050177f0ea305909a716f70e28a2f4856beb557ee1e6dfe25d45654c74cbaff8c1ffe7563000000bd565b612b00830152565b630000505963000050517f2848b5145382ae6028b6efc6957abe4c7ec6470cbf8650a8d1f04d1fdd888b5d63000000bd565b612b20830152565b6300005093630000508b7f01527069b94be0ea68e10bbfce949971301286e7f746560e1c7c15124214275c63000000bd565b612b40830152565b63000050cd63000050c57f0da2995704df9c41fcfedc39cee6590879c57f7005c6d9501a5cd1549b77397463000000bd565b612b60830152565b630000510763000050ff7f11f30187fd52ef26030693f78c0becb2aca53779778846834e2236620af11ebe63000000bd565b612b80830152565b630000514163000051397f28c3898f7db1e927ae71f2e8f16234f7afa997bd67db2d03480d52ec43ecd9db63000000bd565b612ba0830152565b630000517b63000051737f1917d205b6d1985f71ff937ba4c8360b5e16db019fea26a0c2715ba0b706078263000000bd565b612bc0830152565b63000051b563000051ad7f0c4d2207872ddfdbafb1de166fd3053d834e5e8538039d362a5c6a41be93b77a63000000bd565b612be0830152565b63000051ee63000051e67ec0ff82736b149a4b1697c9b65ae6d42c87cbab79519a1c157e6296f0908a0463000000bd565b612c00830152565b630000522863000052207f20b8d4e4a620a8a90a27dea53dde4ed5d5bd138386168abc3fa52d2596a17efc63000000bd565b612c20830152565b6300005262630000525a7f0212fe4ee38a6dd20c1bf74617211b8d723df640233014bebe9f03e1b8420a5b63000000bd565b612c40830152565b630000529c63000052947f14c6061894fd366f12c8c1ab0a4df285d82075c2a8bcb094176c41636c6e76ba63000000bd565b612c60830152565b63000052d663000052ce7f2b0e5bf67a965b2077ae5eca21a42399c966ae411574b352afd82c014052cc7163000000bd565b612c80830152565b630000531063000053087f0dec936f4f71ce340ac1fd7f357f32310e150946451d923cd3ff82dbfdf85f8663000000bd565b612ca0830152565b630000534a63000053427f0833661337c4bd28e8615ebe899bf52948b1828a00544b69c1c9bf1b88eb190463000000bd565b612cc0830152565b6300005384630000537c7f0f7801ed6d61a83c01b088324368a39e302aea1f703a9d0e0227489873500a0a63000000bd565b612ce0830152565b63000053be63000053b67f195948878156461ca5e2f6e84163c40523e11f9c48370d8bc6f637c77bf54db663000000bd565b612d00830152565b63000053f863000053f07f1845bf9a0403d6b8dfbfc735255652e136821ff021f0edc1a0e350abf5750d7a63000000bd565b612d20830152565b6300005432630000542a7f14f3bc8a23baf8e015a4c2b1c63f26ef1cd3c8280909326945c5acae09e48f1563000000bd565b612d40830152565b630000546c63000054647f25b2df5cdcb012356c3716c57bf44fba7f5433fe0ab6a23cf7b92c164d1ec84463000000bd565b612d60830152565b63000054a6630000549e7f1b65466d5c3824660e5d95a292ba846e8916a37dc582455c5db39658c2b641a863000000bd565b612d80830152565b63000054e063000054d87f107d686f133f97486df323e5a071023b9a06d4f831c641d78e6812dbe016509463000000bd565b612da0830152565b630000551a63000055127f15f2577c4c9b9da865069bfcdfc70c9bc512cb38c114349be6800672e9929c3963000000bd565b612dc0830152565b6300005554630000554c7f23673a465b71e3ef9b29712c472c552556731b5453e8ac7d05cf81c03b0b02b363000000bd565b612de0830152565b630000558e63000055867f09f80691c639f99f639212f9a073806cb958ba6c9de7e21b05ddca60a8a1946f63000000bd565b612e00830152565b63000055c863000055c07f1a701b623e400f5daa92e309c195e667f21ea190fd14617efcbebbb5932f7b4563000000bd565b612e20830152565b630000560263000055fa7f0a316396f127dc5119f06c95ea2f83973e77e4ac308243613eb4046990ffff4f63000000bd565b612e40830152565b630000563c63000056347f116c6195e12ac97eab1947900f1c7854db4349ec9b45c34fb8acdd43beede35563000000bd565b612e60830152565b6300005676630000566e7f1877e8af70dfdc693356762ebcf0cae23c5ccd5fbad39f23e00e1d5b1fa7195c63000000bd565b612e80830152565b63000056b063000056a87f22755aabf9a032853b0f49fb4d382661de9e6acd1009675789ddcacfd7ecdc4b63000000bd565b612ea0830152565b63000056ea63000056e27f2ee0834177fb40e40e7844326b9812be36808010d4a564080e1707372465ee4a63000000bd565b612ec0830152565b6300005724630000571c7f2b4c25633203d27626881e894b5db083d0e70b4ec757b476b0e459057c34b1fe63000000bd565b612ee0830152565b630000575e63000057567f033e057b3a88c1b2856f7ce7931399d212305efeb0a5afff7ee90a77f03a5be163000000bd565b612f00830152565b630000579863000057907f232b1cde31453151b6ffb5129c81ab8195e894b933d46e8969383b664e3b608363000000bd565b612f20830152565b63000057d263000057ca7f1f03ed585179c1ef833c0452aacf5c37e5af916e1a54ff256c5fac7f4cf2c55963000000bd565b612f40830152565b630000580c63000058047f2687a62e4ea3df289b3701bd9f09a319d8619110fbd759516b38f23f26b4249c63000000bd565b612f60830152565b6300005846630000583e7f034c014f502293d79ff2be303ca8e27482faec650fe728dbfbb33b77987ece4c63000000bd565b612f80830152565b630000588063000058787f236cd0a1d3c08b6cee682e2929318289f71f23e0c9255a8bf710a55b3bb5cab163000000bd565b612fa0830152565b63000058ba63000058b27f0648ee7a1c1e6d44e86fd675a0e2cc7ad573e7c25a1f43b7dc916a39ca39d27c63000000bd565b612fc0830152565b63000058f463000058ec7f2bee3f0cfcd5a7783cc72410b25f72199c98bb9735ac81b770a1583ec5ade6eb63000000bd565b612fe0830152565b630000592e63000059267f1c4e9f70e8f9606b2376efdc5401d0a8e7437c1ad3a0b6dd9b684ac4b345a9db63000000bd565b613000830152565b630000596863000059607f158e2fbf8d9bed68d6b33c224d0120db7951c05e07710d0d9cef0a5ba3d350f063000000bd565b613020830152565b63000059a2630000599a7f22864d60c1635a4e8ba4cbc9b5064c8043c730730db8ef248bb3139377a347ce63000000bd565b613040830152565b63000059dc63000059d47f29d1d4d22912c68184bd6f448d9f1dde01b791284b0bc2c31ad5171335f8b3fe63000000bd565b613060830152565b6300005a166300005a0e7f2cfa5037dc15aa34d77cfb07af0f707f79b1170a6ddc96bd4bc067ecd555695363000000bd565b613080830152565b6300005a506300005a487f19b35e49023f42a4a31b7e32e442bb9b987a9befa3d7c49a2b6afc34fda2602e63000000bd565b6130a0830152565b6300005a8a6300005a827f0f0c286286df6c840081ce60a510f5435cfecfcc8371c65021c3482adae55a6763000000bd565b6130c0830152565b6300005ac46300005abc7f2b6dee4b250dd4862ef9210e336445e629b32871615b5aa9aa933a180ccd45f863000000bd565b6130e0830152565b6300005afe6300005af67f06d730f3755d577515e3fc0ba6930efbd6681e3b2f835f09d2008030b7337e6863000000bd565b613100830152565b6300005b386300005b307f0f9edd7b8db7bd85d3d7d04e6f570947e56c6d9d468fb6e21bf2cb58fefe626763000000bd565b613120830152565b6300005b726300005b6a7f24957bc8cc4168f6b41693915d82b435dca765a6ce98c85d823499b8d9320d8b63000000bd565b613140830152565b6300005bac6300005ba47f2a20671033d18afb1445e1bf5399a5513f3bfd9305a082e7a541bb104ce08e9a63000000bd565b613160830152565b6300005be66300005bde7f19684734f018504d5880433c036501430403a1b488763cce723ae9a20c6004a063000000bd565b613180830152565b6300005c206300005c187f1dd8a1c8315c44c98b65c31cf62ec1cc6d3461ad3961d057e77faf8fbfb34a6c63000000bd565b6131a0830152565b6300005c5a6300005c527f0921d1eaa625fa5d3879315add5c82a3b1fce31848bea55ff3fdcf32551e500763000000bd565b6131c0830152565b6300005c946300005c8c7f1ec5196a337b46d44741944f25127ab866ca2043287e2d7c54223a2949e9c36b63000000bd565b6131e0830152565b6300005cce6300005cc67f29d77923cd40a984ea49957149f724ef59dbf1ca3576987e5e27251592663d3463000000bd565b613200830152565b6300005d086300005d007f1e222be65e7f3b32b1d5e34b5e6ab9bae777ce7ba61fce7e64cb6cee68b458a363000000bd565b613220830152565b6300005d426300005d3a7f0a012e2930d1069cf1e223fa242abf8cb8baaa704918c263b9bf11369bc5eb2463000000bd565b613240830152565b6300005d7c6300005d747f2430e34ae08b420472300ed22f6a191aa138a92c5f2fd13fb989deb5569fff3263000000bd565b613260830152565b6300005db66300005dae7f1461aeec3702e1cb7f79b02e16ec2ad3311f1d7e63848c7d2e1f724166e3682963000000bd565b613280830152565b6300005df06300005de87f01da0cc98c85e9a522dbe4379a6f4964356803bc136c056a93db98f58681bc1063000000bd565b6132a0830152565b6300005e2a6300005e227f22be5f0c8c6c73078d268c5753d46571813f4a0ce99bcf5714125cb244b610dc63000000bd565b6132c0830152565b6300005e646300005e5c7f0ce8ead0dad826910bec9373dfe829bb09000c1700690996c4f7f70b5898b95163000000bd565b6132e0830152565b6300005e9e6300005e967f17992835674848ed69ce6b6129bec2210366477ba9836127f810e869d668806063000000bd565b613300830152565b6300005ed86300005ed07f28a52563b87cb481fc254508d6f73af6291bb3e55feec2157bf3b07ed03105a763000000bd565b613320830152565b6300005f126300005f0a7f1fd60a1e29b71aca0461ceaf50871eedb6edfc047ae629456911638e8690d51d63000000bd565b613340830152565b6300005f4c6300005f447f10edf74ee1010d165d0a545f3edda080f69e2122f5887a43f5d531ecdc02bbbc63000000bd565b613360830152565b6300005f866300005f7e7f1642ff3f352e4a0bdd154937e389a48234a320ddc0dfb6e9686984266b04e0f363000000bd565b613380830152565b6300005fc06300005fb87f1c0fe501f5bf26c7207c61f1aab2d250cda6bd05e90984351d37140cd6d92f5163000000bd565b6133a0830152565b6300005ffa6300005ff27f18ed3d5fa255311c0a78d4c365a9f2dc95b4be94f7fd899566b74d4a9f6b7a2663000000bd565b6133c0830152565b6300006034630000602c7f199b50d23e8f11124ed30c5ee1a6dbd4f30278ca0dd514debd50ab1653b09a1a63000000bd565b6133e0830152565b630000606e63000060667f13f2e8db4910159d2f1eeaf4719a7d626fae859f1d1f1c22c65ea37337f9504163000000bd565b613400830152565b63000060a863000060a07f232e9164fbca661d1e9e6460bc6ea802e8e271cc74d1961df48c612fec158bed63000000bd565b613420830152565b63000060e263000060da7f1a1a04c22533388652c6dd73455b170c03a055d5cf6144af1968a4f3839127c263000000bd565b613440830152565b630000611c63000061147f2dc771310783451f8ef3a0f6e437211d8dabfd860fffa6f900bd45a4d98b153763000000bd565b613460830152565b6300006156630000614e7f25d2541b550aa37fb081117731c60f74e6efb546b78fb8eb7ab0e18f3ae0187d63000000bd565b613480830152565b630000619063000061887f15ee6e7706aa4dabe34a4b7f3a01f01f266e716235d00d01343a93a75aeff18963000000bd565b6134a0830152565b63000061ca63000061c27f2b86c9de07f7526fc6b53efc6ab4073f96abf71777fc1e3ec35a3a57b16bbdba63000000bd565b6134c0830152565b630000620463000061fc7f0fe44940d8609ba0734c5b5278f733081a8b7d34aedcfa2e0629e7a1cf27fb7563000000bd565b6134e0830152565b630000623e63000062367f1ae5d493778303e2911ce7279de3c113f35c03b4e62fe45683e1d256332e7a3963000000bd565b613500830152565b630000627863000062707f2076de9f66b1f539ce0fccf52eb5be7a84842cc9cffd856e0ced8d92dd57710d63000000bd565b613520830152565b63000062b263000062aa7f111f3300c4213d93c1b967a6720eec2a762cf2e544be25d9b4a52ca0e75bb23863000000bd565b613540830152565b63000062ec63000062e47f1a19a3582bbf40306dccbe41c0134ed50b48fe5aca961fa2441f9febecd55bbb63000000bd565b613560830152565b6300006326630000631e7f29d0baddec05e836192f0c360bac00770d2e5be997bf66fbad7aedd6e9659a5163000000bd565b613580830152565b630000636063000063587f1c094a1183892961984cd8f3ba683c9b390640922579b627a8f81785f61f8de263000000bd565b6135a0830152565b630000639a63000063927f1fbecd025b5c9b0174984c0429c4592d05e15d2b17369de4326ea2c64fae0ec663000000bd565b6135c0830152565b63000063d463000063cc7f0ec21aaec8046c3aec3bec0aa7e65fb3de06f52f5877ab2659462972c07ca37763000000bd565b6135e0830152565b630000640e63000064067f05751ddbe67d3a2820780f56ca2eb859403c80312b29c2e205ac5ed7a1c2ab9263000000bd565b613600830152565b630000644863000064407f0b12b40f3f53a5cf49148b9c893e56e124590e25ae27e6adba86ec65733c6c4c63000000bd565b613620830152565b6300006482630000647a7f1720877ed0f4faae162a9c7bb222ee7439ab32a961c41c8539b288ddc2e4311063000000bd565b613640830152565b63000064bc63000064b47f2d985a402cab1022f65fd08fc5a801c43ab94f4fe1fcdbac39fa0e6b7a2974a463000000bd565b613660830152565b63000064f663000064ee7f16c5673fd7e988f2d679d3e5d7ea84b7e3ab68c028b68f237ad658190808fee363000000bd565b613680830152565b630000653063000065287f2cb759866141c8008f5d8eb94ffc1d73c8c966767cf1430b64d871994209b06b63000000bd565b6136a0830152565b630000656a63000065627f149a0452616b277d8a8b81dfeb7fc937599afedd1fd81a81c7f2965437e99dc363000000bd565b6136c0830152565b63000065a4630000659c7f27959c6d2c17ad452084340178976a6fd1ba34513136f7e6de2050a58e9c65d063000000bd565b6136e0830152565b63000065de63000065d67f2152030c7928e8f77c1176ac85561c4bf27ff179d86e05925c977dfde744d3d863000000bd565b613700830152565b630000661863000066107f06a484c6cdd70b80963a22597aee524779892b6595014061a62ad6527b7ea0ac63000000bd565b613720830152565b6300006652630000664a7f07e651df50d21a07f4d3ae0e1058ec584f1e25e258d6b128739070a81a31702363000000bd565b613740830152565b630000668c63000066847f099b86f8a9c8738225fb2b8a1f2f5efa431c2c29bbc1a70802968b6a67603de463000000bd565b613760830152565b61015c63000001e656fe60a0604052600436101561001257600080fd5b60003560e01c8063084a4b221461007257806357098bce1461006d5780636f409e1b1461006857806384ef74d7146100635780638c7fd7e31461005e57639ded06df036100e957610753565b610698565b610671565b6105fa565b610513565b610353565b634e487b7160e01b600052604160045260246000fd5b90601f01601f191681019081106001600160401b038211176100ae57604052565b610077565b906100c76100c060405190565b928361008d565b565b6001600160401b0381116100ae5760208091020190565b805b036100e957565b600080fd5b905035906100c7826100e0565b9190916040818403126100e95761013061011560406100b3565b93600061012282856100ee565b9086015260208093016100ee565b90830152565b6001600160401b0381116100ae5760200290565b9092919261015f61015a82610136565b6100b3565b9360208592028301928184116100e957915b83831061017e5750505050565b6020809161018c84866100ee565b815201920191610171565b9080601f830112156100e9576101af9160029061014a565b90565b6fffffffffffffffffffffffffffffffff81166100e2565b905035906100c7826101b2565b91909160a0818403126100e9576101306101f160606100b3565b9360006101fe82856100fb565b9086015260409261021182858301610197565b60208701526080016101ca565b9092919261022e61015a826100c9565b9381855260a06020860192028301928184116100e957915b8383106102535750505050565b602060a09161026284866101d7565b815201920191610246565b9080601f830112156100e9578160206101af9335910161021e565b91906060838203126100e9576102bb906102a260406100b3565b9360006102af83836100fb565b908601526040016100ee565b6020830152565b91909160e0818403126100e9576102d960806100b3565b928135906001600160401b0382116100e9576102fa8161013093850161026d565b8552602061030a82858301610197565b9086015260609261031d828583016100ee565b6040870152608001610288565b906020828203126100e95781356001600160401b0381116100e9576101af92016102c2565b9052565b346100e95761038061036e61036936600461032a565b6121b2565b60405191829182901515815260200190565b0390f35b9092919261039461015a826100c9565b93818552602080860192028301928184116100e957915b8383106103b85750505050565b602080916103c684866100ee565b8152019201916103ab565b9080601f830112156100e9578160206101af93359101610384565b909291926103fc61015a826100c9565b9381855260406020860192028301928184116100e957915b8383106104215750505050565b602060409161043084866100fb565b815201920191610414565b9080601f830112156100e9578160206101af933591016103ec565b9190916060818403126100e95761046d60406100b3565b928135906001600160401b0382116100e95761048e8161013093850161043b565b855260209283016100fb565b916080838303126100e9576104af8284610197565b9260408101356001600160401b0381116100e957836104cf9183016103d1565b9260608201356001600160401b0381116100e9576101af9201610456565b805182526100c7919060209081905b0151910152565b6040810192916100c791906104ed565b346100e95761038061052f61052936600461049a565b9161342f565b60405191829182610503565b909182601f830112156100e9578135916001600160401b0383116100e95760200192600183028401116100e957565b90916080828403126100e95781356001600160401b0381116100e9578361059291840161053b565b92909360208201356001600160401b0381116100e957816105b491840161053b565b92909360408201356001600160401b0381116100e957836105d691840161053b565b92909360608201356001600160401b0381116100e9576105f6920161053b565b9091565b346100e95761061c61060d36600461056a565b96959095949194939293611a91565b604051005b906040828203126100e9576101af91610197565b805182526100c79190606090819061065260208201516020860152565b6104fc60408201516040860152565b6080810192916100c79190610635565b346100e95761038061068c610687366004610621565b612d86565b60405191829182610661565b346100e95761038061036e6106ae36600461056a565b96959095949194939293612034565b6001600160401b0381116100ae57602090601f01601f19160190565b0190565b90826000939282370152565b909291926106f961015a826106bd565b938185526020850190828401116100e9576100c7926106dd565b9080601f830112156100e9578160206101af933591016106e9565b906020828203126100e95781356001600160401b0381116100e9576101af9201610713565b346100e95761061c61076636600461072e565b61093b565b60005b83811061077e5750506000910152565b818101518382015260200161076e565b9092919261079e61015a826106bd565b938185526020850190828401116100e9576100c79261076b565b9080601f830112156100e95781516101af9260200161078e565b905051906100c7826100e0565b9190916040818403126100e9576107f660406100b3565b815190936001600160401b0382116100e957610817816101309385016107b8565b855260209283016107d2565b906020828203126100e95781516001600160401b0381116100e9576101af92016107df565b6108696108726020936106d99361085d815190565b80835293849260200190565b9586910161076b565b601f01601f191690565b60208082526101af92910190610848565b6040513d6000823e3d90fd5b60009103126100e957565b906101af906020806108c56040840160008701518582036000870152610848565b940151910152565b929160206108ea6100c793604087019087820360008901526108a4565b940152565b6101af6101af6101af9290565b6101af60156108ef565b6101af60036108ef565b90600019905b9181191691161790565b906109306101af610937926108ef565b8254610910565b9055565b73__$9a9b9e43ab5848dc902e46e09dcaf689c7$__906304150feb906000610978638393719e61098361096d60405190565b948593849360e01b90565b83526004830161087c565b0381865af4908115610a3c57600091610a41575b5061015292803b156100e9576109c26000936109cd6109b560405190565b9687958694859460e01b90565b8452600484016108cd565b03915af48015610a3c57610a1e575b506100c760b7610a0b60bc6109fb60006109f46108fc565b9083610c20565b6012610a05610906565b91610c20565b609a610a15610f0d565b92905001610920565b610a36906000610a2e818361008d565b810190610899565b386109dc565b61088d565b610a5c913d8091833e610a54818361008d565b810190610823565b38610997565b634e487b7160e01b600052602160045260246000fd5b60131115610a8257565b610a62565b906100c782610a78565b61015a6101af91610136565b6101af9081565b6101af9054610a9d565b6101af90610a87565b90610ac190610aae565b600052602052604060002090565b634e487b7160e01b600052600060045260246000fd5b634e487b7160e01b600052601160045260246000fd5b9190610b06565b9290565b91808302928184041490151715610b1957565b610ae5565b9160001960089290920291821b911b610916565b9190610b436101af610937936108ef565b908354610b1e565b6100c791600091610b32565b818110610b62575050565b80610b706000600193610b4b565b01610b57565b90610b8990600019906020036008021c90565b8154169055565b9091828110610b9e57505050565b6100c79282019101610b57565b90600160401b81116100ae576100c791600290610b90565b600291610bd9610b026001926101af8686610bab565b92049160005b838110610bec5750505050565b6001906020610bfc6101af865190565b9401938184015501610bdf565b906100c791610bc3565b91908201809211610b1957565b60028101549192600092610c3a610c36856108ef565b9190565b03610eca57610d0e610d1c92610d096100c7966001610c5881610a87565b610c6183610a87565b148015610eb0575b8015610e96575b8015610e7c575b8015610e62575b8015610e48575b8015610e2e575b8015610e14575b8015610dfa575b8015610de0575b8015610dc6575b8015610dac575b8015610d92575b8015610d78575b8015610d5e575b8015610d44575b8015610d2a575b610d22575b610ce16002610a91565b93610cf889820199610cf28b610aa4565b90870152565b610d03876020870152565b01610ab7565b610c09565b610d1783610aa4565b610c13565b90610920565b879150610cd7565b50610d356011610a87565b610d3e83610a87565b14610cd2565b50610d4f6010610a87565b610d5883610a87565b14610ccb565b50610d69600f610a87565b610d7283610a87565b14610cc4565b50610d83600e610a87565b610d8c83610a87565b14610cbd565b50610d9d600d610a87565b610da683610a87565b14610cb6565b50610db7600c610a87565b610dc083610a87565b14610caf565b50610dd1600b610a87565b610dda83610a87565b14610ca8565b50610deb600a610a87565b610df483610a87565b14610ca1565b50610e056009610a87565b610e0e83610a87565b14610c9a565b50610e1f6008610a87565b610e2883610a87565b14610c93565b50610e396007610a87565b610e4283610a87565b14610c8c565b50610e536006610a87565b610e5c83610a87565b14610c85565b50610e6d6005610a87565b610e7683610a87565b14610c7e565b50610e876004610a87565b610e9083610a87565b14610c77565b50610ea16003610a87565b610eaa83610a87565b14610c70565b50610ebb6002610a87565b610ec483610a87565b14610c69565b6040516307a74dd360e21b8152600490fd5b0390fd5b906020828203126100e9576101af916107d2565b61034f906108ef565b6020810192916100c79190610ef4565b610f739073__$19c19effc8be3ecf94e62eb93bcc8d35fb$__60206313357914917f30644e72e131a0295e6dd9e7e0acccb0c28f069fbb966e3de4bd44e5607cfd4890610f5960405190565b8080978194610f688860e01b90565b835260048301610efd565b03915af4908115610a3c57610fde9360009261101e575b5060209073__$0f2ef74df25658b59f87c747afcc439be9$__610f687f30644e72e131a029048b6e193fd84104cc37a73fec2bc5e9b8ca0b2d36636f2392610fd160405190565b9788948593849360e01b90565b03915af4928315610a3c57600093610ff557509190565b6101af91935060203d8111611017575b61100f818361008d565b810190610ee0565b503d611005565b602091925061103990823d81116110175761100f818361008d565b9190610f8a565b919061087281611057816106d99560209181520190565b80956106dd565b60208082526101af93910191611040565b6101af9136916106e9565b601311156100e957565b905035906100c78261107a565b9190916040818403126100e9576110a860406100b3565b9260006110b58284611084565b9085015260208201356001600160401b0381116100e9576102bb9201610713565b9291906110e561015a826100c9565b93818552602080860192028101918383116100e95781905b83821061110b575050505050565b81356001600160401b0381116100e95760209161112b8784938701611091565b8152019101906110fd565b9080601f830112156100e9578160206101af933591016110d6565b600b11156100e957565b905035906100c782611151565b9190916040818403126100e95761117f60406100b3565b9260006110b5828461115b565b9190916040818403126100e9576111a360406100b3565b9281356001600160401b0381116100e957816111c0918401611168565b845260208201356001600160401b0381116100e9576102bb9201611136565b9291906111ee61015a826100c9565b93818552602080860192028101918383116100e95781905b838210611214575050505050565b81356001600160401b0381116100e957602091611234878493870161118c565b815201910190611206565b9080601f830112156100e9578160206101af933591016111df565b9190916040818403126100e95761127160406100b3565b9281356001600160401b0381116100e9578161128e918401611136565b845260208201356001600160401b0381116100e9576102bb920161123f565b906020828203126100e95781356001600160401b0381116100e9576101af920161125a565b6101af906002610afb565b634e487b7160e01b600052602260045260246000fd5b9060016002830492168015611313575b602083101461130e57565b6112dd565b91607f1691611303565b818110611328575050565b806113366000600193610b4b565b0161131d565b600019600883021c1916906002021790565b9060009161136c61136482600052602060002090565b92835461133c565b905555565b91929060208210156113c957601f84116001146113935761093792935061133c565b50906113c46100c79360016113bb6113b085600052602060002090565b92601f602091010490565b8201910161131d565b61134e565b5061140982936113e0600194600052602060002090565b6114026020601f860104820192601f861680611411575b50601f602091010490565b019061131d565b600202179055565b61141d90888603610b76565b386113f7565b929091600160401b82116100ae576020111561146a57602081101561144b576109379161133c565b60019160ff191661146184600052602060002090565b55600202019055565b60019150600202019055565b908154611482816112f3565b908183116114ab575b818310611499575b50505050565b6114a293611371565b38808080611493565b6114b783838387611423565b61148b565b60006100c791611476565b906000036114d8576100c7906114bc565b610acf565b60008082556100c7916001016114c7565b906000036114d8576100c7906114dd565b81811061150a575050565b8061151860006002936114ee565b016114ff565b909182811061152c57505050565b61155061154461153e6100c7956112d2565b926112d2565b92600052602060002090565b90810191016114ff565b90600160401b81116100ae57816115726100c7935490565b9082815561151e565b6101af9051610a87565b9060ff90610916565b9061159e6101af61093792610aae565b8254611585565b9190601f81116115b457505050565b6115c66100c793600052602060002090565b906020601f8401819004830193106115e6575b6020601f90910104611402565b90915081906115d9565b906115f9815190565b906001600160401b0382116100ae5761161c8261161685546112f3565b856115a5565b602090601f831160011461164a5761093792916000918361163f575b505061133c565b015190503880611638565b601f1983169161165f85600052602060002090565b9260005b81811061169d57509160029391856001969410611684575b50505002019055565b01516000196008601f8516021c1916905538808061167b565b91936020600181928787015181550195019201611663565b906100c7916115f0565b6100c791906116e8906020906001906116e1816116db8761157b565b9061158e565b0192015190565b906116b5565b906100c7916116bf565b611723611717611706845190565b93611711858561155a565b60200190565b91600052602060002090565b6000915b8383106117345750505050565b600260208261174c6117466001955190565b866116ee565b01920192019190611727565b906100c7916116f8565b6101af906003610afb565b60006100c79161155a565b906000036114d8576100c79061176d565b600060026100c79261179d838083016114ee565b01611778565b906000036114d8576100c790611789565b8181106117bf575050565b806117cd60006003936117a3565b016117b4565b90918281106117e157505050565b6117f96115446117f36100c795611762565b92611762565b90810191016117b4565b90600160401b81116100ae578161181b6100c7935490565b908281556117d3565b600b1115610a8257565b906100c782611824565b6101af905161182e565b6101af9061182e565b9061159e6101af61093792611842565b6100c791906116e8906020906001906116e18161187787611838565b9061184b565b906100c79161185b565b906118ab602060026100c7946116e1600082016118a5600088015190565b9061187d565b90611758565b906100c791611887565b6118d46117176118c9845190565b936117118585611803565b6000915b8383106118e55750505050565b60036020826118fd6118f76001955190565b866118b1565b019201920191906118d8565b906100c7916118bb565b90611931602060016100c7946116e1600082016118ab600088015190565b90611909565b906100c791611913565b9092919261195161015a826100c9565b93818552602080860192028301928184116100e957915b8383106119755750505050565b6020809161198384866107d2565b815201920191611968565b9080601f830112156100e95781516101af92602001611941565b906020828203126100e95781516001600160401b0381116100e9576101af920161198e565b8181106119d8575050565b806119e66000600193610b4b565b016119cd565b90918281106119fa57505050565b6100c79290611a0890611544565b90810191016119cd565b90600160401b81116100ae5781611a2a6100c7935490565b908281556119ec565b8151916001600160401b0383116100ae57611a576115446001926117118686611a12565b92049160005b838110611a6a5750505050565b6001906020611a7a6101af865190565b9401938184015501611a5d565b906100c791611a33565b929594909195611ab273__$9a9b9e43ab5848dc902e46e09dcaf689c7$__90565b946000611adb63ebc0188595611ae6638393719e91611ad060405190565b998a94859460e01b90565b84526004840161105e565b0381895af4948515610a3c57600095611bc3575b5060b793863b156100e9576109c2600091611b1887611ad060405190565b0381895af4928315610a3c57611b4a611b43611b5294611b5998601097611bad575b5060009b61106f565b8a90611bde565b8101906112ad565b9101611937565b611adb630ddcf902611b6d6109b560405190565b03915af48015610a3c576100c791600091611b8c575b50610155611a87565b611ba7913d8091833e611b9f818361008d565b8101906119a8565b38611b83565b611bbd906000610a2e818361008d565b38611b3a565b611bd791953d8091833e610a54818361008d565b9338611afa565b60200190600160208351938484550191019160005b602e8110611d51575080600116611ca7575b5080518255602081015160018301556040810151600283015560608101516003830181905560049092019160809091019060005b60568110611c9157506000905b60148210611c55575050519055565b909281841c600116600114611c7357600260019101935b0190611c46565b91600160208181848295518855019501948051865501930193611c6c565b9291600160208282935186550193019301611c39565b9091602060405182815220600160208551958685550192019360005b818110611d2d57505050602060018183829451875501940193805185550192019060011c600116600114611d0a57602060018181816002829601965b955050505050611c05565b90602060018181818181818189829a518c550199019880518a5501970196611cff565b83518355602084015160018085019190915560409094019360029093019201611cc3565b9291600160208282935186550193019301611bf3565b9190916040818403126100e957610130611d8160406100b3565b936000611d8e82856107d2565b9086015260208093016107d2565b90929192611dac61015a82610136565b9360208592028301928184116100e957915b838310611dcb5750505050565b60208091611dd984866107d2565b815201920191611dbe565b9080601f830112156100e9576101af91600290611d9c565b905051906100c7826101b2565b91909160a0818403126100e957610130611e2360606100b3565b936000611e308285611d67565b90860152604092611e4382858301611de4565b6020870152608001611dfc565b90929192611e6061015a826100c9565b9381855260a06020860192028301928184116100e957915b838310611e855750505050565b602060a091611e948486611e09565b815201920191611e78565b9080601f830112156100e95781516101af92602001611e50565b91906060838203126100e9576102bb90611ed360406100b3565b936000611ee08383611d67565b908601526040016107d2565b91909160e0818403126100e957611f0360806100b3565b815190936001600160401b0382116100e957611f2481610130938501611e9f565b85526020611f3482858301611de4565b90860152606092611f47828583016107d2565b6040870152608001611eb9565b906020828203126100e95781516001600160401b0381116100e9576101af9201611eec565b906106d981602093610ef4565b90611f9f611544611f95845490565b8084529260200190565b9060005b818110611fb05750505090565b909192611fd1611fca600192611fc587610aa4565b611f79565b9460010190565b929101611fa3565b926120216100c7979260c0966120146120299461200d612030989e9d9b9e61200660e08c019660008d0152565b60208b0152565b6040890152565b8682036060880152611f86565b986080850152565b60a0830152565b0152565b6120449796959493929190611a91565b73__$9d5b7b73f3ab4cbcafaef012c71961750a$__638c344ab69060009060b7906120936101529461209f61015561015c61015a9061015b9261208660405190565b9a8b998a98899860e01b90565b88528b60048901611fd9565b03915af48015610a3c576101af916000916120bb575b506121b2565b6120d6913d8091833e6120ce818361008d565b810190611f54565b386120b5565b6101af60406100b3565b906100c761210e60016120f76120dc565b9461210861210482610aa4565b8752565b01610aa4565b6020840152565b6101af906120e6565b9061212b61015a836100c9565b918252565b90612139825490565b6121428161211e565b926121566020850191600052602060002090565b6000915b8383106121675750505050565b6002602060019261217785612115565b81520192019201919061215a565b906100c761210e60016121966120dc565b946121a361210482612130565b016120e6565b6101af90612185565b6121fb908051602082015191906121ca604083015190565b91602073__$0f2ef74df25658b59f87c747afcc439be9$__5b63901717d1906121f260405190565b97889260e01b90565b825260049082905af4948515610a3c576101af956122779461227d9461222993600093612295575b50612373565b93909161227261015296600061225b606061224660018c01612115565b95019461225560208751015190565b90612af9565b935101519661052961226c83612d86565b996121a9565b612a3f565b90612ae4565b9061228f612289612819565b9161296b565b91612c4a565b6122ae91935060203d81116110175761100f818361008d565b9138612223565b6122bd6120dc565b906000825260006020830152565b6101af6122b5565b634e487b7160e01b600052603260045260246000fd5b906122f2825190565b811015612303576020809102010190565b6122d3565b369037565b906100c761232361231d8461211e565b936100c9565b601f190160208401612308565b6000198114610b195760010190565b9160206100c792949361235a60408201966000830190610ef4565b0190610ef4565b9060025b811015612303576020020190565b91909261237e6122cb565b5073__$0f2ef74df25658b59f87c747afcc439be9$__9363901717d16123ad6123a660405190565b9160e01b90565b8152602081600481895af4908115610a3c576000916127c6575b50926123d16128e6565b906123da865190565b6123e7610c3660006108ef565b146127b65761240c60206124046123fe60006108ef565b896122e9565b506002919050565b955b6124178761230d565b60805260805161242760006108ef565b885b8110156124a85763bc1b392d9061244961244260405190565b9260e01b90565b82526020826004818e5af4908115610a3c5761247e612483926124299460009161248a575b5061247b836080516122e9565b52565b612330565b9050612427565b6124a2915060203d81116110175761100f818361008d565b3861246e565b50965096509193906124ba60006108ef565b965b6124c76101af825190565b8810156127ad578760006124de6125109a846122e9565b5101519360206124ee83856122e9565b510151966124fc60016108ef565b936127a3565b61250c60006108ef565b925b8b5b845b101561278657858410898e826126fc575b50506125b8575b63c8a4ac9c61253860405190565b9d8e9160e01b82528c600483019161254f9261233f565b038d73__$0f2ef74df25658b59f87c747afcc439be9$__91815a93602094f49c8d15610a3c576125126125906125109f8f9360009161259a575b5096612330565b959e50505061250e565b6125b2915060203d81116110175761100f818361008d565b38612589565b896125dc6101af9b9e9c9d9997959b6125d560009c9a989c6108ef565b9250600290565b8110156126ea5790818c8f95949361262d61260f612605836126096126056020966080516122e9565b5190565b9a612361565b9261263863c8a4ac9c9161262260405190565b958694859460e01b90565b84526004840161233f565b038173__$0f2ef74df25658b59f87c747afcc439be9$__5af48015610a3c5761267c966020926000926126cb575b50604051978892839263771602f760e01b61262d565b038173__$0f2ef74df25658b59f87c747afcc439be9$__5af4948515610a3c578f956125dc9261247e6126c1926101af9460009161248a575061247b836080516122e9565b9293949550600290565b6126e3919250833d81116110175761100f818361008d565b9038612666565b509b989294969a999b9793959761252a565b61262d60209161272363c8a4ac9c9c94959c9161271860405190565b968794859460e01b90565b038173__$0f2ef74df25658b59f87c747afcc439be9$__5af4918215610a3c576127609261275a91600091612768575b508b612af9565b90612a3f565b96898e612523565b612780915060203d81116110175761100f818361008d565b38612753565b95985095509850506127989150612330565b9691959390956124bc565b849a929b50612502565b50955050509050565b6127c060006108ef565b9561240e565b6127de915060203d81116110175761100f818361008d565b386123c7565b6101af60806100b3565b6127f66127e4565b60008082526020820181905260408201819052606082015290565b6101af6127ee565b612821612811565b507f198e9393920d483a7260bfb731fb5d25f1aa493335a9e71297e485b7aef312c26101af6128df7f12c85ea5db8c6deb4aab71808dcb408fe3d1e7690c43d37b4ce6cc0166fa7daa6128cc6128d87f090689d0585ff075ec9e99ad690c3395bc4b313370b38ef355acdadcd122975b826128d17f1800deef121f1e76426a00665e5c4479674322d4f75edadd46debd5cd992f6ed826128c86128c26127e4565b9b6108ef565b8b52565b6108ef565b6020890152565b6040860152565b6060830152565b6128ee6122cb565b5060006101af6128fc6120dc565b916102bb612909826108ef565b8092850152565b6101af7f30644e72e131a029b85045b68181585d97816a916871ca8d3c208c16d87cfd476108ef565b634e487b7160e01b600052601260045260246000fd5b8115612959570690565b612939565b91908203918211610b1957565b6129736122cb565b5080516020820151159015166101af576101af6129b560206129af612996855190565b946129aa6129a2612910565b938492015190565b61294f565b9061295e565b6102bb6129c06120dc565b938452565b906100c76129db6129d584610a91565b93610136565b83612308565b6101af60046129c5565b906004612365565b156129fa57565b60405162461bcd60e51b815260206004820152601d60248201527f426e3235343a2067726f7570206164646974696f6e206661696c6564210000006044820152606490fd5b919091612a4a6122cb565b9283612a546129e1565b91612a5d845190565b93600094612a6a866108ef565b612a7490866129eb565b5260200151612a8360016108ef565b612a8d90856129eb565b5283810151612a9c60026108ef565b612aa690856129eb565b5260200151612ab560036108ef565b612abf90846129eb565b525a6107d09003606092600660c092fa90818114612ae157506100c7906129f3565b80fd5b61275a6101af92612af36122cb565b5061296b565b612b0e6101af92612b086122cb565b506108ef565b90612b72565b6101af60036129c5565b906003612365565b15612b2d57565b60405162461bcd60e51b815260206004820152601960248201527f426e3235343a207363616c6172206d756c206661696c656421000000000000006044820152606490fd5b6060612bb3919392936080612b856122cb565b91612be48397612bd1612bbe6020612b9b612b14565b95612bb9612ba7825190565b61247b60009d8e6108ef565b8a612b1e565b015190565b61247b612bcb60016108ef565b86612b1e565b61247b612bde60026108ef565b84612b1e565b60076107d05a03fa90818114612ae157506100c790612b26565b15612c0557565b60405162461bcd60e51b815260206004820152601c60248201527f426e3235343a2050616972696e6720636865636b206661696c656421000000006044820152606490fd5b6060602094856000958361018096612c60600090565b5083604051978051895201518488015280516040880152838101518288015260408101516080880152015160a0860152805160c0860152015160e08401528051610100840152858101516101208401526040810151610140840152015161016082015260085afa612cd360005191612bfe565b612ce0610c3660006108ef565b141590565b9190916080818403126100e957610130612cff60806100b3565b936000612d0c82856107d2565b908601526020612d1e828286016107d2565b908601526040612d30828286016107d2565b9086015260608093016107d2565b906080828203126100e9576101af91612ce5565b90815260a0810192916100c7916020905b0190610635565b9160806100c7929493612d636101008201966000830190610635565b612d8e612811565b507f1800deef121f1e76426a00665e5c4479674322d4f75edadd46debd5cd992f6ed7f090689d0585ff075ec9e99ad690c3395bc4b313370b38ef355acdadcd122975b7f12c85ea5db8c6deb4aab71808dcb408fe3d1e7690c43d37b4ce6cc0166fa7daa7f198e9393920d483a7260bfb731fb5d25f1aa493335a9e71297e485b7aef312c2612e1b6127e4565b93612e25906108ef565b8452612e30906108ef565b6020840152612e3e906108ef565b6040830152612e4c906108ef565b60608201527f116da8c89a0d090f3d8644ada33a5f1c8013ba7204aeca62d66d931b99afe6e7917f25222d9816e5f86b4a7dedd00d04acc5c979c18bd22b834ea8c6d07c0ba441db7f076441042e77b6309644b56251f059cf14befc72ac8a6157d30924e58dc4c1727f12740934ba9615b77b6a49b06fcce83ce90d67b1d0e2a530069e3a7306569a91612ede6127e4565b95612ee8906108ef565b8652612ef3906108ef565b6020860152612f01906108ef565b6040850152612f0f906108ef565b60608401527f1f3c07cb202a4703327b7aa545ebd51936cc75a927e5ea44900fda7212f20da5917f1dae1514df395bf6b03bd82fe153c56d7419845b00d9592e637660ba8f4f339d7f227496fc46fcd4887801fe92f5d62804b7b26eab126b4f4e7a5f255fae7089e47f0a4292251d61b69443ef8d46761f92c88ff566b5fa90d261e3bebd5706f94ff7612fa16127e4565b95612fab906108ef565b8652612fb6906108ef565b6020860152612fc4906108ef565b6040850152612fd2906108ef565b6060840152612fe160036108ef565b612fea9061230d565b600090612ff6826108ef565b6130009085612361565b519573__$0f2ef74df25658b59f87c747afcc439be9$__9463c8a4ac9c978660019961302b8b6108ef565b6130359085612361565b519061304060405190565b938492839260e01b8352613057916004840161233f565b03815a93602094f48015610a3c57613084916000916133cf575b5061247b61307e876108ef565b866122e9565b602061262d896130c56130bd6126056130a86126056130a28c6108ef565b89612361565b966130b763771602f7956108ef565b90612361565b604051612622565b0381895af4908115610a3c576000916133b1575b506020610f686377d2f2036130f061096d60405190565b0381895af48015610a3c57613124966101af6121e392602094600091613394575b5061247b61311e8d6108ef565b886122e9565b825260049082905af4908115610a3c5761319f95600092613374575b5061315360029261247b61307e856108ef565b608073__$2c476fa0ca3b901deaae13b3f94b6c38a5$__956131826128cc61260561311e638767cdd0996108ef565b60405198899283926131948a60e01b90565b845260048401612d52565b0381885af4958615610a3c5760009661334e575b5060806131e3916131d16128cc61260561311e6345123adc9d6108ef565b60405193849283926131948a60e01b90565b0381885af48015610a3c5761321b9660809260009261332f575b5060405197889283926132108d60e01b90565b845260048401612d6a565b0381875af4948515610a3c576000956132f1575b50916132676132526128cc6126056131949561324c6080986108ef565b906122e9565b9661325c60405190565b978894859460e01b90565b0381845af4928315610a3c576000936132cd575b506132106080939461328f6109b560405190565b03915af4908115610a3c576000916132a5575090565b6101af915060803d81116132c6575b6132be818361008d565b810190612d3e565b503d6132b4565b608093506132ea61321091853d81116132c6576132be818361008d565b935061327b565b6080939195506132526128cc6126056131949561324c613320613267968a3d81116132c6576132be818361008d565b9a96985050955050505061322f565b613347919250833d81116132c6576132be818361008d565b90386131fd565b6131e391965061336c608091823d81116132c6576132be818361008d565b9691506131b3565b61338d91925060203d81116110175761100f818361008d565b9038613140565b6133ab9150853d81116110175761100f818361008d565b38613111565b6133c9915060203d81116110175761100f818361008d565b386130d9565b6133e7915060203d81116110175761100f818361008d565b38613071565b156133f457565b60405162461bcd60e51b81526020600482015260136024820152726d6f7265207468616e2074776f206576616c7360681b6044820152606490fd5b91909161343a6122cb565b5061344d61344860036108ef565b61230d565b9161346c613459855190565b613466610c3660026108ef565b146133ed565b6000916134f0613487612605613481866108ef565b84612361565b9561349a6126056001946130b7866108ef565b6134b96126056134af61260561307e8a6108ef565b9361324c876108ef565b73__$0f2ef74df25658b59f87c747afcc439be9$__9160208463b67d77c5936134e160405190565b978892839261262d8860e01b90565b0381865af4948515610a3c576000956136df575b5061352960208b63c8a4ac9c9361351a60405190565b938492839261262d8960e01b90565b0381875af4908115610a3c576000916136c1575b506020610f68637a142f2e61355461096d60405190565b0381875af48015610a3c57613581966020926000926136a2575b50604051978892839261262d8760e01b90565b0381865af4948515610a3c5760009561367c575b506135b36020916135bf6135a860405190565b9c8d93849360e01b90565b8352886004840161233f565b0381855af4988915610a3c57600099613652575b509061262d602093926135f56135e860405190565b9b8c958694859460e01b90565b03915af4958615610a3c5761307e61362d936128cc6101af9961247b94600091613634575b5061247b6136278a6108ef565b8b6122e9565b015161370c565b61364c915060203d81116110175761100f818361008d565b3861361a565b6020939291995061367261262d91853d81116110175761100f818361008d565b99919293506135d3565b602091955061369a6135b391833d81116110175761100f818361008d565b959150613595565b6136ba919250833d81116110175761100f818361008d565b903861356e565b6136d9915060203d81116110175761100f818361008d565b3861353d565b6136f891955060203d81116110175761100f818361008d565b9338613504565b8015610b19576000190190565b9190916137176122cb565b50613723613448825190565b9161372c825190565b61373660006108ef565b81111561376b57613746906136ff565b916137658361247b61375e6128cc612605848b6122e9565b91876122e9565b9161372c565b509250906101af916137c8565b1561377f57565b60405162461bcd60e51b815280610edc600482016020808252818101527f4d534d206572726f723a206c656e67746820646f6573206e6f74206d61746368604082015260600190565b91906137d26122cb565b506137f26137de825190565b6137ec610c366101af875190565b14613778565b6138196000612b0e61260561381361380c6123fe856108ef565b51936108ef565b856122e9565b926001918291613828836108ef565b935b6138345750505050565b909192946138436101af845190565b86101561387b5761386c6138729161275a61385e89866122e9565b51612b0e6126058b896122e9565b95612330565b9291908261382a565b9461149356fea2646970667358221220a8037c2285be5cf136da8889ef89a18253301611cd05cefb10861e09d12d06d664736f6c63430008150033",
  "linkReferences": {
    "lib/bn254/BN256G2.sol": {
      "BN256G2": [
        {
          "length": 20,
          "start": 38894
        }
      ]
    },
    "lib/bn254/Fields.sol": {
      "Base": [
        {
          "length": 20,
          "start": 30122
        }
      ],
      "Scalar": [
        {
          "length": 20,
          "start": 30247
        },
        {
          "length": 20,
          "start": 34918
        },
        {
          "length": 20,
          "start": 35352
        },
        {
          "length": 20,
          "start": 35818
        },
        {
          "length": 20,
          "start": 36051
        },
        {
          "length": 20,
          "start": 36119
        },
        {
          "length": 20,
          "start": 36286
        },
        {
          "length": 20,
          "start": 38555
        },
        {
          "length": 20,
          "start": 39762
        }
      ]
    },
    "lib/msgpack/Deserialize.sol": {
      "MsgPk": [
        {
          "length": 20,
          "start": 28628
        },
        {
          "length": 20,
          "start": 33075
        }
      ]
    },
    "src/KimchiPartialVerifier.sol": {
      "KimchiPartialVerifier": [
        {
          "length": 20,
          "start": 34525
        }
      ]
    }
  },
  "deployedLinkReferences": {
    "lib/bn254/BN256G2.sol": {
      "BN256G2": [
        {
          "length": 20,
          "start": 12631
        }
      ]
    },
    "lib/bn254/Fields.sol": {
      "Base": [
        {
          "length": 20,
          "start": 3859
        }
      ],
      "Scalar": [
        {
          "length": 20,
          "start": 3984
        },
        {
          "length": 20,
          "start": 8655
        },
        {
          "length": 20,
          "start": 9089
        },
        {
          "length": 20,
          "start": 9555
        },
        {
          "length": 20,
          "start": 9788
        },
        {
          "length": 20,
          "start": 9856
        },
        {
          "length": 20,
          "start": 10023
        },
        {
          "length": 20,
          "start": 12292
        },
        {
          "length": 20,
          "start": 13499
        }
      ]
    },
    "lib/msgpack/Deserialize.sol": {
      "MsgPk": [
        {
          "length": 20,
          "start": 2365
        },
        {
          "length": 20,
          "start": 6812
        }
      ]
    },
    "src/KimchiPartialVerifier.sol": {
      "KimchiPartialVerifier": [
        {
          "length": 20,
          "start": 8262
        }
      ]
    }
  }
}