{
  "_format": "hh-sol-artifact-1",
  "contractName": "MsgPk",
  "sourceName": "lib/msgpack/Deserialize.sol",
  "abi": [
    {
      "inputs": [
        {
          "internalType": "bytes",
          "name": "key",
          "type": "bytes"
        }
      ],
      "name": "EncodedMapKeyNotFound",
      "type": "error"
    },
    {
      "inputs": [
        {
          "internalType": "bytes1",
          "name": "prefix",
          "type": "bytes1"
        }
      ],
      "name": "NotImplementedType",
      "type": "error"
    },
    {
      "inputs": [
        {
          "internalType": "string",
          "name": "key",
          "type": "string"
        }
      ],
      "name": "StringMapKeyNotFound",
      "type": "error"
    },
    {
      "inputs": [
        {
          "internalType": "string",
          "name": "type_name",
          "type": "string"
        }
      ],
      "name": "UnmatchedGateType",
      "type": "error"
    },
    {
      "inputs": [
        {
          "internalType": "string",
          "name": "type_name",
          "type": "string"
        },
        {
          "internalType": "bytes1",
          "name": "prefix",
          "type": "bytes1"
        }
      ],
      "name": "UnmatchedTypePrefix",
      "type": "error"
    },
    {
      "inputs": [
        {
          "components": [
            {
              "internalType": "bytes",
              "name": "data",
              "type": "bytes"
            },
            {
              "internalType": "uint256",
              "name": "curr_index",
              "type": "uint256"
            }
          ],
          "internalType": "struct MsgPk.Stream",
          "name": "self",
          "type": "tuple"
        }
      ],
      "name": "curr",
      "outputs": [
        {
          "internalType": "bytes1",
          "name": "",
          "type": "bytes1"
        }
      ],
      "stateMutability": "pure",
      "type": "function"
    },
    {
      "inputs": [
        {
          "components": [
            {
              "internalType": "bytes",
              "name": "data",
              "type": "bytes"
            },
            {
              "internalType": "uint256",
              "name": "curr_index",
              "type": "uint256"
            }
          ],
          "internalType": "struct MsgPk.Stream",
          "name": "self",
          "type": "tuple"
        }
      ],
      "name": "deser_arr16",
      "outputs": [
        {
          "components": [
            {
              "internalType": "bytes[]",
              "name": "values",
              "type": "bytes[]"
            }
          ],
          "internalType": "struct MsgPk.EncodedArray",
          "name": "arr",
          "type": "tuple"
        }
      ],
      "stateMutability": "view",
      "type": "function"
    },
    {
      "inputs": [
        {
          "components": [
            {
              "internalType": "bytes",
              "name": "data",
              "type": "bytes"
            },
            {
              "internalType": "uint256",
              "name": "curr_index",
              "type": "uint256"
            }
          ],
          "internalType": "struct MsgPk.Stream",
          "name": "self",
          "type": "tuple"
        }
      ],
      "name": "deser_arr32",
      "outputs": [
        {
          "components": [
            {
              "internalType": "bytes[]",
              "name": "values",
              "type": "bytes[]"
            }
          ],
          "internalType": "struct MsgPk.EncodedArray",
          "name": "arr",
          "type": "tuple"
        }
      ],
      "stateMutability": "view",
      "type": "function"
    },
    {
      "inputs": [
        {
          "components": [
            {
              "internalType": "bytes",
              "name": "data",
              "type": "bytes"
            },
            {
              "internalType": "uint256",
              "name": "curr_index",
              "type": "uint256"
            }
          ],
          "internalType": "struct MsgPk.Stream",
          "name": "self",
          "type": "tuple"
        }
      ],
      "name": "deser_bin8",
      "outputs": [
        {
          "internalType": "bytes",
          "name": "",
          "type": "bytes"
        }
      ],
      "stateMutability": "pure",
      "type": "function"
    },
    {
      "inputs": [
        {
          "components": [
            {
              "internalType": "bytes",
              "name": "data",
              "type": "bytes"
            },
            {
              "internalType": "uint256",
              "name": "curr_index",
              "type": "uint256"
            }
          ],
          "internalType": "struct MsgPk.Stream",
          "name": "self",
          "type": "tuple"
        }
      ],
      "name": "deser_bool",
      "outputs": [
        {
          "internalType": "bool",
          "name": "",
          "type": "bool"
        }
      ],
      "stateMutability": "pure",
      "type": "function"
    },
    {
      "inputs": [
        {
          "internalType": "bytes",
          "name": "col",
          "type": "bytes"
        }
      ],
      "name": "deser_column",
      "outputs": [
        {
          "components": [
            {
              "internalType": "enum ColumnVariant",
              "name": "variant",
              "type": "ColumnVariant"
            },
            {
              "internalType": "bytes",
              "name": "data",
              "type": "bytes"
            }
          ],
          "internalType": "struct Column",
          "name": "",
          "type": "tuple"
        }
      ],
      "stateMutability": "view",
      "type": "function"
    },
    {
      "inputs": [
        {
          "components": [
            {
              "internalType": "bytes",
              "name": "data",
              "type": "bytes"
            },
            {
              "internalType": "uint256",
              "name": "curr_index",
              "type": "uint256"
            }
          ],
          "internalType": "struct MsgPk.Stream",
          "name": "self",
          "type": "tuple"
        }
      ],
      "name": "deser_encode",
      "outputs": [
        {
          "internalType": "bytes",
          "name": "",
          "type": "bytes"
        }
      ],
      "stateMutability": "view",
      "type": "function"
    },
    {
      "inputs": [
        {
          "components": [
            {
              "internalType": "bytes",
              "name": "data",
              "type": "bytes"
            },
            {
              "internalType": "uint256",
              "name": "curr_index",
              "type": "uint256"
            }
          ],
          "internalType": "struct MsgPk.Stream",
          "name": "self",
          "type": "tuple"
        }
      ],
      "name": "deser_fixarr",
      "outputs": [
        {
          "components": [
            {
              "internalType": "bytes[]",
              "name": "values",
              "type": "bytes[]"
            }
          ],
          "internalType": "struct MsgPk.EncodedArray",
          "name": "arr",
          "type": "tuple"
        }
      ],
      "stateMutability": "view",
      "type": "function"
    },
    {
      "inputs": [
        {
          "components": [
            {
              "internalType": "bytes",
              "name": "data",
              "type": "bytes"
            },
            {
              "internalType": "uint256",
              "name": "curr_index",
              "type": "uint256"
            }
          ],
          "internalType": "struct MsgPk.Stream",
          "name": "self",
          "type": "tuple"
        }
      ],
      "name": "deser_fixmap",
      "outputs": [
        {
          "components": [
            {
              "internalType": "bytes[]",
              "name": "keys",
              "type": "bytes[]"
            },
            {
              "internalType": "bytes[]",
              "name": "values",
              "type": "bytes[]"
            }
          ],
          "internalType": "struct MsgPk.EncodedMap",
          "name": "map",
          "type": "tuple"
        }
      ],
      "stateMutability": "view",
      "type": "function"
    },
    {
      "inputs": [
        {
          "components": [
            {
              "internalType": "bytes",
              "name": "data",
              "type": "bytes"
            },
            {
              "internalType": "uint256",
              "name": "curr_index",
              "type": "uint256"
            }
          ],
          "internalType": "struct MsgPk.Stream",
          "name": "self",
          "type": "tuple"
        }
      ],
      "name": "deser_int",
      "outputs": [
        {
          "internalType": "int256",
          "name": "",
          "type": "int256"
        }
      ],
      "stateMutability": "pure",
      "type": "function"
    },
    {
      "inputs": [
        {
          "components": [
            {
              "internalType": "bytes",
              "name": "data",
              "type": "bytes"
            },
            {
              "internalType": "uint256",
              "name": "curr_index",
              "type": "uint256"
            }
          ],
          "internalType": "struct MsgPk.Stream",
          "name": "self",
          "type": "tuple"
        }
      ],
      "name": "deser_map16",
      "outputs": [
        {
          "components": [
            {
              "internalType": "bytes[]",
              "name": "keys",
              "type": "bytes[]"
            },
            {
              "internalType": "bytes[]",
              "name": "values",
              "type": "bytes[]"
            }
          ],
          "internalType": "struct MsgPk.EncodedMap",
          "name": "map",
          "type": "tuple"
        }
      ],
      "stateMutability": "view",
      "type": "function"
    },
    {
      "inputs": [
        {
          "components": [
            {
              "internalType": "bytes",
              "name": "data",
              "type": "bytes"
            },
            {
              "internalType": "uint256",
              "name": "curr_index",
              "type": "uint256"
            }
          ],
          "internalType": "struct MsgPk.Stream",
          "name": "self",
          "type": "tuple"
        }
      ],
      "name": "deser_negfixint",
      "outputs": [
        {
          "internalType": "int8",
          "name": "",
          "type": "int8"
        }
      ],
      "stateMutability": "pure",
      "type": "function"
    },
    {
      "inputs": [
        {
          "components": [
            {
              "internalType": "bytes",
              "name": "data",
              "type": "bytes"
            },
            {
              "internalType": "uint256",
              "name": "curr_index",
              "type": "uint256"
            }
          ],
          "internalType": "struct MsgPk.Stream",
          "name": "self",
          "type": "tuple"
        }
      ],
      "name": "deser_null",
      "outputs": [
        {
          "internalType": "string",
          "name": "",
          "type": "string"
        }
      ],
      "stateMutability": "pure",
      "type": "function"
    },
    {
      "inputs": [
        {
          "components": [
            {
              "internalType": "bytes[]",
              "name": "keys",
              "type": "bytes[]"
            },
            {
              "internalType": "bytes[]",
              "name": "values",
              "type": "bytes[]"
            }
          ],
          "internalType": "struct MsgPk.EncodedMap",
          "name": "map",
          "type": "tuple"
        }
      ],
      "name": "deser_polishtoken",
      "outputs": [
        {
          "components": [
            {
              "internalType": "enum PolishTokenEvaluation.PolishTokenVariant",
              "name": "variant",
              "type": "PolishTokenEvaluation.PolishTokenVariant"
            },
            {
              "internalType": "bytes",
              "name": "data",
              "type": "bytes"
            }
          ],
          "internalType": "struct PolishTokenEvaluation.PolishToken",
          "name": "",
          "type": "tuple"
        }
      ],
      "stateMutability": "view",
      "type": "function"
    },
    {
      "inputs": [
        {
          "components": [
            {
              "internalType": "bytes[]",
              "name": "keys",
              "type": "bytes[]"
            },
            {
              "internalType": "bytes[]",
              "name": "values",
              "type": "bytes[]"
            }
          ],
          "internalType": "struct MsgPk.EncodedMap",
          "name": "map",
          "type": "tuple"
        }
      ],
      "name": "deser_poly_comm",
      "outputs": [
        {
          "components": [
            {
              "components": [
                {
                  "internalType": "uint256",
                  "name": "x",
                  "type": "uint256"
                },
                {
                  "internalType": "uint256",
                  "name": "y",
                  "type": "uint256"
                }
              ],
              "internalType": "struct BN254.G1Point[]",
              "name": "unshifted",
              "type": "tuple[]"
            },
            {
              "components": [
                {
                  "internalType": "uint256",
                  "name": "x",
                  "type": "uint256"
                },
                {
                  "internalType": "uint256",
                  "name": "y",
                  "type": "uint256"
                }
              ],
              "internalType": "struct BN254.G1Point",
              "name": "shifted",
              "type": "tuple"
            }
          ],
          "internalType": "struct PolyComm",
          "name": "",
          "type": "tuple"
        }
      ],
      "stateMutability": "view",
      "type": "function"
    },
    {
      "inputs": [
        {
          "components": [
            {
              "internalType": "bytes[]",
              "name": "keys",
              "type": "bytes[]"
            },
            {
              "internalType": "bytes[]",
              "name": "values",
              "type": "bytes[]"
            }
          ],
          "internalType": "struct MsgPk.EncodedMap",
          "name": "map",
          "type": "tuple"
        },
        {
          "internalType": "string",
          "name": "name",
          "type": "string"
        }
      ],
      "name": "deser_poly_comm_from_map",
      "outputs": [
        {
          "components": [
            {
              "components": [
                {
                  "internalType": "uint256",
                  "name": "x",
                  "type": "uint256"
                },
                {
                  "internalType": "uint256",
                  "name": "y",
                  "type": "uint256"
                }
              ],
              "internalType": "struct BN254.G1Point[]",
              "name": "unshifted",
              "type": "tuple[]"
            },
            {
              "components": [
                {
                  "internalType": "uint256",
                  "name": "x",
                  "type": "uint256"
                },
                {
                  "internalType": "uint256",
                  "name": "y",
                  "type": "uint256"
                }
              ],
              "internalType": "struct BN254.G1Point",
              "name": "shifted",
              "type": "tuple"
            }
          ],
          "internalType": "struct PolyComm",
          "name": "",
          "type": "tuple"
        }
      ],
      "stateMutability": "view",
      "type": "function"
    },
    {
      "inputs": [
        {
          "components": [
            {
              "internalType": "bytes[]",
              "name": "keys",
              "type": "bytes[]"
            },
            {
              "internalType": "bytes[]",
              "name": "values",
              "type": "bytes[]"
            }
          ],
          "internalType": "struct MsgPk.EncodedMap",
          "name": "map",
          "type": "tuple"
        },
        {
          "internalType": "string",
          "name": "name",
          "type": "string"
        }
      ],
      "name": "deser_poly_comm_from_map_optional",
      "outputs": [
        {
          "internalType": "bool",
          "name": "",
          "type": "bool"
        },
        {
          "components": [
            {
              "components": [
                {
                  "internalType": "uint256",
                  "name": "x",
                  "type": "uint256"
                },
                {
                  "internalType": "uint256",
                  "name": "y",
                  "type": "uint256"
                }
              ],
              "internalType": "struct BN254.G1Point[]",
              "name": "unshifted",
              "type": "tuple[]"
            },
            {
              "components": [
                {
                  "internalType": "uint256",
                  "name": "x",
                  "type": "uint256"
                },
                {
                  "internalType": "uint256",
                  "name": "y",
                  "type": "uint256"
                }
              ],
              "internalType": "struct BN254.G1Point",
              "name": "shifted",
              "type": "tuple"
            }
          ],
          "internalType": "struct PolyComm",
          "name": "",
          "type": "tuple"
        }
      ],
      "stateMutability": "view",
      "type": "function"
    },
    {
      "inputs": [
        {
          "components": [
            {
              "internalType": "bytes",
              "name": "data",
              "type": "bytes"
            },
            {
              "internalType": "uint256",
              "name": "curr_index",
              "type": "uint256"
            }
          ],
          "internalType": "struct MsgPk.Stream",
          "name": "self",
          "type": "tuple"
        }
      ],
      "name": "deser_posfixint",
      "outputs": [
        {
          "internalType": "uint8",
          "name": "",
          "type": "uint8"
        }
      ],
      "stateMutability": "pure",
      "type": "function"
    },
    {
      "inputs": [
        {
          "internalType": "bytes",
          "name": "data",
          "type": "bytes"
        }
      ],
      "name": "deser_public_inputs",
      "outputs": [
        {
          "internalType": "Scalar.FE[]",
          "name": "public_input",
          "type": "uint256[]"
        }
      ],
      "stateMutability": "view",
      "type": "function"
    },
    {
      "inputs": [
        {
          "internalType": "bytes",
          "name": "inner_bytes",
          "type": "bytes"
        }
      ],
      "name": "deser_scalar",
      "outputs": [
        {
          "internalType": "Scalar.FE",
          "name": "",
          "type": "uint256"
        }
      ],
      "stateMutability": "pure",
      "type": "function"
    },
    {
      "inputs": [
        {
          "components": [
            {
              "internalType": "bytes",
              "name": "data",
              "type": "bytes"
            },
            {
              "internalType": "uint256",
              "name": "curr_index",
              "type": "uint256"
            }
          ],
          "internalType": "struct MsgPk.Stream",
          "name": "self",
          "type": "tuple"
        }
      ],
      "name": "deser_str",
      "outputs": [
        {
          "internalType": "string",
          "name": "",
          "type": "string"
        }
      ],
      "stateMutability": "pure",
      "type": "function"
    },
    {
      "inputs": [
        {
          "components": [
            {
              "internalType": "bytes",
              "name": "data",
              "type": "bytes"
            },
            {
              "internalType": "uint256",
              "name": "curr_index",
              "type": "uint256"
            }
          ],
          "internalType": "struct MsgPk.Stream",
          "name": "self",
          "type": "tuple"
        }
      ],
      "name": "deser_uint",
      "outputs": [
        {
          "internalType": "uint256",
          "name": "",
          "type": "uint256"
        }
      ],
      "stateMutability": "pure",
      "type": "function"
    },
    {
      "inputs": [
        {
          "components": [
            {
              "internalType": "bytes[]",
              "name": "keys",
              "type": "bytes[]"
            },
            {
              "internalType": "bytes[]",
              "name": "values",
              "type": "bytes[]"
            }
          ],
          "internalType": "struct MsgPk.EncodedMap",
          "name": "self",
          "type": "tuple"
        },
        {
          "internalType": "bytes",
          "name": "key",
          "type": "bytes"
        }
      ],
      "name": "find_value",
      "outputs": [
        {
          "internalType": "bytes",
          "name": "",
          "type": "bytes"
        }
      ],
      "stateMutability": "pure",
      "type": "function"
    },
    {
      "inputs": [
        {
          "components": [
            {
              "internalType": "bytes[]",
              "name": "keys",
              "type": "bytes[]"
            },
            {
              "internalType": "bytes[]",
              "name": "values",
              "type": "bytes[]"
            }
          ],
          "internalType": "struct MsgPk.EncodedMap",
          "name": "self",
          "type": "tuple"
        },
        {
          "internalType": "bytes",
          "name": "key",
          "type": "bytes"
        }
      ],
      "name": "find_value_or_fail",
      "outputs": [
        {
          "internalType": "bytes",
          "name": "",
          "type": "bytes"
        },
        {
          "internalType": "bool",
          "name": "",
          "type": "bool"
        }
      ],
      "stateMutability": "pure",
      "type": "function"
    },
    {
      "inputs": [
        {
          "components": [
            {
              "internalType": "bytes[]",
              "name": "keys",
              "type": "bytes[]"
            },
            {
              "internalType": "bytes[]",
              "name": "values",
              "type": "bytes[]"
            }
          ],
          "internalType": "struct MsgPk.EncodedMap",
          "name": "self",
          "type": "tuple"
        },
        {
          "internalType": "string",
          "name": "string_key",
          "type": "string"
        }
      ],
      "name": "find_value_str",
      "outputs": [
        {
          "internalType": "bytes",
          "name": "",
          "type": "bytes"
        }
      ],
      "stateMutability": "pure",
      "type": "function"
    },
    {
      "inputs": [
        {
          "internalType": "bytes",
          "name": "self",
          "type": "bytes"
        }
      ],
      "name": "is_null",
      "outputs": [
        {
          "internalType": "bool",
          "name": "",
          "type": "bool"
        }
      ],
      "stateMutability": "pure",
      "type": "function"
    },
    {
      "inputs": [
        {
          "internalType": "bytes",
          "name": "data",
          "type": "bytes"
        }
      ],
      "name": "new_stream",
      "outputs": [
        {
          "components": [
            {
              "internalType": "bytes",
              "name": "data",
              "type": "bytes"
            },
            {
              "internalType": "uint256",
              "name": "curr_index",
              "type": "uint256"
            }
          ],
          "internalType": "struct MsgPk.Stream",
          "name": "",
          "type": "tuple"
        }
      ],
      "stateMutability": "pure",
      "type": "function"
    },
    {
      "inputs": [
        {
          "components": [
            {
              "internalType": "bytes",
              "name": "data",
              "type": "bytes"
            },
            {
              "internalType": "uint256",
              "name": "curr_index",
              "type": "uint256"
            }
          ],
          "internalType": "struct MsgPk.Stream",
          "name": "self",
          "type": "tuple"
        }
      ],
      "name": "next",
      "outputs": [
        {
          "internalType": "bytes1",
          "name": "b",
          "type": "bytes1"
        }
      ],
      "stateMutability": "pure",
      "type": "function"
    },
    {
      "inputs": [
        {
          "components": [
            {
              "internalType": "bytes",
              "name": "data",
              "type": "bytes"
            },
            {
              "internalType": "uint256",
              "name": "curr_index",
              "type": "uint256"
            }
          ],
          "internalType": "struct MsgPk.Stream",
          "name": "self",
          "type": "tuple"
        },
        {
          "internalType": "uint256",
          "name": "n",
          "type": "uint256"
        }
      ],
      "name": "next_n",
      "outputs": [
        {
          "internalType": "bytes",
          "name": "consumed",
          "type": "bytes"
        }
      ],
      "stateMutability": "pure",
      "type": "function"
    }
  ],
  "bytecode": "0x608060405234610021576040516172d16200002782393081600701526172d190f35b600080fdfe6080604052307f00000000000000000000000000000000000000000000000000000000000000001415600436101561003657600080fd5b60003560e01c90816301cd75d71461027257816303b9546f1461026d57816304150feb146102645781630996767e1461025f5781630ddcf9021461025a5781630f730c661461025557816310ef6d43146102505781631fe014051461024b5781632609267e146102465781632bcd61851461023d5781632cd2ae47146102385781632de53a2f14610233578163326f159b1461022e5781633a0b89de146102295781634738808314610220578163481dafca1461021b57816348499f74146102165781635b452b4a146102115781635d3712321461020c5781636cad287214610207578163705f9ca71461020257816377a2bf59146101fd5781637f84ad37146101f85781638393719e146101f35781639ad37831146101ea578163b0a3cca8146101e5578163b6595f39146101e0578163bb8be2dc146101db578163c15bed62146101d6578163ced1ae1d146101d1578163d59a48ba146101cc578163e6cc050e146101c7578163ebc01885146101bd575063fc22b56c146101b857600080fd5b610e0d565b610df9575b600080fd5b610de3565b610dcc565b610db6565b610da0565b610d8a565b610d68565b610cf2565b610c9157600080fd5b610bf9565b610b95565b610b59565b610ac4565b610aae565b610a8c565b6109c9565b61099f565b610953565b61093f57600080fd5b610929565b6108dc565b6108c6565b6108af565b61089b57600080fd5b610859565b610828565b610806565b6107a7565b610784565b6106a7565b61066957600080fd5b6105b1565b610522565b634e487b7160e01b600052604160045260246000fd5b90601f01601f191681019081106001600160401b038211176102ae57604052565b610277565b906102c76102c060405190565b928361028d565b565b6001600160401b0381116102ae5760208091020190565b6001600160401b0381116102ae57602090601f01601f19160190565b0190565b90826000939282370152565b9092919261032161031c826102e0565b6102b3565b938185526020850190828401116101c2576102c792610300565b9080601f830112156101c2578160206103569335910161030c565b90565b92919061036861031c826102c9565b93818552602080860192028101918383116101c25781905b83821061038e575050505050565b81356001600160401b0381116101c2576020916103ae878493870161033b565b815201910190610380565b9080601f830112156101c25781602061035693359101610359565b9190916040818403126101c2576103eb60406102b3565b9281356001600160401b0381116101c257816104089184016103b9565b845260208201356001600160401b0381116101c25761042792016103b9565b6020830152565b9190916040818403126101c25780356001600160401b0381116101c257836104579183016103d4565b9260208201356001600160401b0381116101c257610356920161033b565b9052565b90610499610492610488845190565b8084529260200190565b9260200190565b9060005b8181106104aa5750505090565b9091926104d36104cc6001928651805182526020908101519082015260400190565b9460200190565b92910161049d565b90610356906020806104fc6060840160008701518582036000870152610479565b94015191019080518252602090810151910152565b6020808252610356929101906104db565b61054561053961053336600461042e565b90612cd0565b60405191829182610511565b0390f35b60005b83811061055c5750506000910152565b818101518382015260200161054c565b61058d6105966020936102fc93610581815190565b80835293849260200190565b95869101610549565b601f01601f191690565b60208082526103569291019061056c565b6105456105c86105c236600461042e565b906110d4565b604051918291826105a0565b805b036101c257565b905035906102c7826105d4565b9190916040818403126101c25761060160406102b3565b928135906001600160401b0382116101c2576106228161062e93850161033b565b855260209283016105dd565b90830152565b91906040838203126101c2578235906001600160401b0382116101c257610660816103569386016105ea565b936020016105dd565b61067d610677366004610634565b90614996565b604051005b906020828203126101c25781356001600160401b0381116101c25761035692016105ea565b6105456105c86106b8366004610682565b61137b565b909182601f830112156101c2578135916001600160401b0383116101c25760200192600183028401116101c257565b906020828203126101c25781356001600160401b0381116101c25761071192016106bd565b9091565b6103566103566103569290565b61047590610715565b906102fc81602093610722565b90610747610492610488845190565b9060005b8181106107585750505090565b90919261076b6104cc600192865161072b565b92910161074b565b602080825261035692910190610738565b61054561079b6107953660046106ec565b90617193565b60405191829182610773565b6105456107bd6107b8366004610682565b6126cc565b6040519182918260ff909116815260200190565b906020828203126101c25781356001600160401b0381116101c257610356920161033b565b6020810192916102c79190610722565b61054561081c6108173660046107d1565b612a3a565b604051918291826107f6565b61054561083e610839366004610682565b610ee0565b604051918291826001600160f81b0319909116815260200190565b6105456105c861086a366004610682565b612866565b91906040838203126101c2578235906001600160401b0382116101c257610660816103569386016103d4565b61067d6108a936600461086f565b906133a8565b6105456105c86108c036600461042e565b9061101c565b6105456105c86108d7366004610682565b6118e5565b6105456108f26108ed366004610682565b612974565b60405191829182901515815260200190565b906020828203126101c25781356001600160401b0381116101c25761035692016103d4565b61054561053961093a366004610904565b61436b565b61067d61094d366004610634565b90614ef8565b610545610969610964366004610682565b612196565b6040519182918290815260200190565b929160206109966102c7936040870190878203600089015261056c565b94019015159052565b6109b36109ad36600461042e565b906111b1565b906105456109c060405190565b92839283610979565b6105456109df6109da366004610682565b6127a2565b6040519182918260009190910b815260200190565b906103569161056c565b90610a14610a0a835190565b8083529160200190565b9081610a266020830284019460200190565b926000915b838310610a3a57505050505090565b90919293946020610a5d610a56838560019503875289516109f4565b9760200190565b9301930191939290610a2b565b5160208083526103569201906109fe565b602080825261035692910190610a6a565b610545610aa2610a9d366004610682565b611beb565b60405191829182610a7b565b610545610aa2610abf366004610682565b611f3b565b610545610aa2610ad5366004610682565b611e24565b634e487b7160e01b600052602160045260246000fd5b60131115610afa57565b610ada565b906102c782610af0565b61035690610aff565b61047590610b09565b6103569160206040820192610b3860008201516000850190610b12565b015190602081840391015261056c565b602080825261035692910190610b1b565b610545610b6f610b6a366004610904565b61668c565b60405191829182610b48565b9015158152604060208201819052610356929101906104db565b610ba9610ba336600461042e565b90612d67565b90610545610bb660405190565b92839283610b7b565b9061035690602080610be0604084016000870151858203600087015261056c565b940151910152565b602080825261035692910190610bbf565b610545610c0f610c0a3660046107d1565b610e51565b60405191829182610be8565b90610356916104db565b90610c31610a0a835190565b9081610c436020830284019460200190565b926000915b838310610c5757505050505090565b90919293946020610c73610a5683856001950387528951610c1b565b9301930191939290610c48565b602080825261035692910190610c25565b610545610ca8610ca23660046106ec565b90614899565b60405191829182610c80565b805160408084526103569391602091610cd091908401906109fe565b9201519060208184039101526109fe565b602080825261035692910190610cb4565b610545610d08610d03366004610682565b61201e565b60405191829182610ce1565b600b1115610afa57565b906102c782610d14565b61035690610d1e565b61047590610d28565b6103569160206040820192610b3860008201516000850190610d31565b602080825261035692910190610d3a565b610545610d7e610d793660046107d1565b6154e4565b60405191829182610d57565b610545610969610d9b366004610682565b612437565b610545610d08610db1366004610682565b611d03565b61054561083e610dc7366004610682565b610f2d565b6105456105c8610ddd366004610634565b90610f93565b6105456105c8610df4366004610682565b611b10565b61067d610e07366004610634565b90613c05565b6105456108f2610e1e3660046107d1565b612890565b61035660406102b3565b610e35610e23565b9060605b825260006020830152565b905250565b610356610e2d565b610e59610e49565b506103566104276000610e74610e6d610e23565b9482860152565b610715565b5190565b634e487b7160e01b600052603260045260246000fd5b90610e9c825190565b811015610eaa570160200190565b610e7d565b634e487b7160e01b600052601160045260246000fd5b9190610ed0565b9290565b8201809211610edb57565b610eaf565b906102c76000830151610475610f13610f056020870193610eff855190565b90610e93565b516001600160f81b03191690565b94610f1e6001610715565b9050610f28835190565b610ec5565b610f0561035691610f3c600090565b508051602090910151610eff565b90610f5761031c836102e0565b918252565b369037565b906102c7610f77610f7184610f4a565b936102e0565b601f190160208401610f5c565b6000198114610edb5760010190565b91610f9d82610f61565b9081600091610fab83610715565b85811015610fe857610fe390610fd1610f0589610eff84610f2860208b85015194015190565b851a610fdd8288610e93565b53610f84565b610fab565b50939150936102c792506020610475910191610f28835190565b9061100b825190565b811015610eaa576020809102010190565b60009161102883610715565b8383018161103861035683515190565b8114159182611092575b5050156110575761105290610f84565b611028565b92820151518314611071575060200151610e799190611002565b6040516314814d7360e31b815290819061108e90600483016105a0565b0390fd5b61109d925051611002565b516110b06110a9825190565b9160200190565b206110cb6110c76110bf855190565b602086012090565b9190565b14158138611042565b6000916110e083610715565b926110ea60405190565b9361110985602081016110fd86826105a0565b9081038252038661028d565b8184018161111961035683515190565b811415918261117a575b5050156111385761113390610f84565b611109565b9350610356611148918401515190565b831461115d575060200151610e799190611002565b60405163aba00b8b60e01b815290819061108e90600483016105a0565b611185925051611002565b516111916110a9825190565b206111a86110c76111a0885190565b602089012090565b14158138611123565b9160006111bd81610715565b818501816111cd61035683515190565b811415918261122f575b5050156111ec576111e790610f84565b6111bd565b9192506111fd610356828601515190565b821461121b57506020836112149394500151611002565b5190600190565b9250506110c761122a83610715565b610f61565b61123a925051611002565b516112466110a9825190565b2061125d6110c7611255875190565b602088012090565b141581386111d7565b6112736103566103569290565b60ff1690565b6112a09061129b61128d6103569460ff1690565b916001600160f81b03191690565b901c90565b6001600160f81b03191690565b6112a06112ba6103569290565b60f81b90565b906112cc610a0a835190565b90816112de6020830284019460200190565b926000915b8383106112f257505050505090565b9091929394602061130e610a56838560019503875289516109f4565b93019301919392906112e3565b5160208083526103569201906112c0565b60208082526103569291019061131b565b80516040808452610356939160209161135991908401906112c0565b9201519060208184039101526112c0565b60208082526103569291019061133d565b61138481610f2d565b600561138f81611266565b9061139a8284611279565b906113a4816112ad565b6001600160f81b03198316148015611739575b801561171d575b8015611701575b156114015750505050806113d991506118e5565b6103566113e560405190565b80926113f56020830191826105a0565b9081038252038261028d565b61140b60c46112ad565b6001600160f81b031985160361142a5750505050806113d99150611b10565b60049261143684611266565b6114408187611279565b9061144b60086112ad565b6001600160f81b031983160361148957505050505050508061146d9150611d03565b61035661147960405190565b80926113f560208301918261136a565b5061149761128d60096112ad565b036114c8575050505050806114ac9150611beb565b6103566114b860405190565b80926113f560208301918261132c565b6114d260de6112ad565b6001600160f81b03198616036114f25750505050508061146d915061201e565b6114fc60dc6112ad565b6001600160f81b031986160361151c575050505050806114ac9150611e24565b600261152781611266565b6115318188611279565b9161153c60336112ad565b6001600160f81b031984160361157e5750505050505050508061155f9150612196565b61035661156b60405190565b60208101928352918290604082016113f5565b505061158d61128d60346112ad565b036115a25750505050508061155f9150612437565b6007916115b76115b184611266565b87611279565b6115c461128d60006112ad565b036115fd57505050505050806115da91506126cc565b6103566115e660405190565b60ff909216602083019081528290604082016113f5565b5061160c9161128d91506112ad565b03611641575061161d9190506127a2565b61035661162960405190565b60009290920b602083019081528290604082016113f5565b61164b60c26112ad565b6001600160f81b031983161480156116e5575b15611690575061166f919050612974565b61035661167b60405190565b911515602083019081528290604082016113f5565b61169a60c06112ad565b6001600160f81b03198316036116b657506113d9919050612866565b61108e6116c260405190565b632ef4343d60e01b815292839283016001600160f81b0319909116815260200190565b506116f060c36112ad565b6001600160f81b031983161461165e565b5061170c60db6112ad565b6001600160f81b03198516146113c5565b5061172860da6112ad565b6001600160f81b03198516146113be565b5061174460d96112ad565b6001600160f81b03198516146113b7565b1561175c57565b60405162461bcd60e51b81526020600482015260146024820152730dcdee840c240ccd2f0e6e8e440dee440e6e8e4b60631b6044820152606490fd5b6112736103566103569260ff1690565b6103569060f81c611798565b6103566103566103569260ff1690565b6117e06117d2610492835190565b516001600160e01b03191690565b90600481106117ed575090565b6118049063ffffffff60e01b906004036008021b90565b1690565b61181b6103566103569263ffffffff1690565b63ffffffff1690565b6103569060e01c611808565b6103566103566103569263ffffffff1690565b61185f611851610492835190565b516001600160f01b03191690565b906002811061186c575090565b6118049061ffff60f01b906002036008021b90565b6118926103566103569261ffff1690565b61ffff1690565b6103569060f01c611881565b6103566103566103569261ffff1690565b6118c4610f05610492835190565b90600181106118d1575090565b6118049060ff60f81b906001036008021b90565b6118ee81610ee0565b60056118f981611266565b906119048284611279565b61190d826112ad565b6001600160f81b031982161492838415611aa8575b8015611a8c575b8015611a6b575b61193990611755565b5050506000146119685761035691610ddd61196383610356945061195d601f6112ad565b166117a8565b6117b4565b61197a61196360039261195d846112ad565b6119848184610f93565b9161198f6000610715565b5061199a6001610715565b82036119bf57505061035691610ddd6119636119ba8461035695506118b6565b6117a8565b6119c96002610715565b82036119f357505061035691610ddd6119ee6119e9846103569550611843565b611899565b6118a5565b6110c76119ff91610715565b03611a265761035691610ddd611a21611a1c8461035695506117c4565b611824565b611830565b60405162461bcd60e51b815260206004820152601b60248201527f64657365725f73747220756e6578706563746564206c656e67746800000000006044820152606490fd5b50611939611a7960db6112ad565b6001600160f81b03198716149050611930565b50611a9760da6112ad565b6001600160f81b0319861614611929565b50611ab360d96112ad565b6001600160f81b0319861614611922565b15611acb57565b60405162461bcd60e51b815260206004820152601c60248201527f6e6f7420612073747265616d206f662062696e382028627974657329000000006044820152606490fd5b61035690611b33611b2082610ee0565b611b2d61128d60c46112ad565b14611ac4565b610ddd6119636119ba83610ee0565b61035660206102b3565b611b54611b42565b9060608252565b610356611b4c565b15611b6a57565b60405162461bcd60e51b815260206004820152600c60248201526b3737ba1030903334bc30b93960a11b6044820152606490fd5b90610f5761031c836102c9565b60005b828110611bba57505050565b606082820152602001611bae565b906102c7611bde611bd884611b9e565b936102c9565b601f190160208401611bab565b90611bf4611b5b565b50611c37611963611c0484610ee0565b611c2d611c1a611c146004611266565b83611279565b611c2761128d60096112ad565b14611b63565b61195d600f6112ad565b90611c4182611bc8565b92611c52611c4d611b42565b948552565b83600092611c5f84610715565b855b811015611ca05780611c728561137b565b91611c93611c9992611c6194898c015190611c8d8383611002565b52611002565b50610f84565b9050611c5f565b50935093505050565b611cb1610e23565b9060605b825260606020830152565b610356611ca9565b15611ccf57565b60405162461bcd60e51b815260206004820152600c60248201526b06e6f742061206669786d61760a41b6044820152606490fd5b90611d0c611cc0565b50611d3f611963611d1c84610ee0565b611c2d611d2c611c146004611266565b611d3961128d60086112ad565b14611cc8565b90611d4982611bc8565b90611d68611d5684611bc8565b611d61611c4d610e23565b6020840152565b81600091611d7583610715565b855b811015611ca05780611d888861137b565b86860151611d9b9291611c8d8383611002565b5080611da68861137b565b91611c93611dc292611d779460208a015190611c8d8383611002565b9050611d75565b15611dd057565b60405162461bcd60e51b815260206004820152600c60248201526b3737ba1030b71030b939189b60a11b6044820152606490fd5b6118926103566103569290565b61ffff1661ffff8114610edb5760010190565b90611e2d611b5b565b50611e4d611e3a83610ee0565b611e4761128d60dc6112ad565b14611dc9565b611e6b6119e9611e66611e606002610715565b85610f93565b611843565b90611e7d611e78836118a5565b611bc8565b92611e89611c4d611b42565b83600092611e9684611e04565b61ffff86165b61ffff82161015611ca057611eb08461137b565b611e9c91611ee2611ee892888b015190611ed2611ecc856118a5565b83611002565b52611edc836118a5565b90611002565b50611e11565b9050611e96565b15611ef657565b60405162461bcd60e51b815260206004820152600c60248201526b3737ba1030b71030b939199960a11b6044820152606490fd5b61181b6103566103569261ffff1690565b90611f44611b5b565b50611f64611f5183610ee0565b611f5e61128d60dd6112ad565b14611eef565b611f7c611a1c611f77611e606004610715565b6117c4565b90611f89611e7883611830565b92611f95611c4d611b42565b83600092611fa284611e04565b63ffffffff86165b611fb382611f2a565b1015611ca057611fdd611faa91611ee2611fcc8761137b565b888b015190611ed2611ecc856118a5565b9050611fa2565b15611feb57565b60405162461bcd60e51b815260206004820152600b60248201526a3737ba10309036b0b8189b60a91b6044820152606490fd5b90612027611cc0565b5061204761203483610ee0565b61204161128d60de6112ad565b14611fe4565b61205a6119e9611e66611e606002610715565b90612064826118a5565b9261209161207a61207486611bc8565b95611bc8565b61208a612085610e23565b968752565b6020860152565b8360009261209e84611e04565b61ffff86165b61ffff82161015611ca0576120b88461137b565b878601516120cc91611ed2611ecc856118a5565b506120d68461137b565b6120a491611ee26120f39260208b015190611ed2611ecc856118a5565b905061209e565b6103569061210e6110c76103569460ff1690565b901b90565b61212f612121610492835190565b516001600160c01b03191690565b906008811061213c575090565b6001600160c01b031960089182039091021b1690565b612168610356610356926001600160401b031690565b6001600160401b031690565b6103569060c01c612152565b610356610356610356926001600160401b031690565b906000916121a381610ee0565b9060006121af816112ad565b6001600160f81b03198416146122f857506002916121d56121cf84611266565b82611279565b6121e261128d60336112ad565b036122b1576001926121f960039261195d846112ad565b61221661220f61220887610715565b92836120fa565b8095610f93565b94508303612235575050506103569192506119ba8161196392506118b6565b61223e90610715565b820361225a5750506103569192506119e9816119ee9250611843565b61226390610715565b810361227e5750610356919250611a1c81611a2192506117c4565b61228b6110c76004610715565b146122935750565b6103569192506122a7816122ac9250612113565b612174565b612180565b60405163d2883ac360e01b815290819061108e90600483016040808252600490820152631d5a5b9d60e21b60608201526001600160f81b0319909116602082015260800190565b915050610356919250610715565b1561230d57565b60405162461bcd60e51b81526020600482015260096024820152681b9bdd0818481a5b9d60ba1b6044820152606490fd5b91908203918211610edb57565b6105d68160070b90565b905051906102c78261234b565b906020828203126101c25761035691612355565b6103566103566103569260070b90565b6105d68160030b90565b905051906102c782612386565b906020828203126101c25761035691612390565b6103566103566103569260030b90565b6105d68160010b90565b905051906102c7826123c1565b906020828203126101c257610356916123cb565b6103566103566103569260010b90565b6105d68160000b90565b905051906102c7826123fc565b906020828203126101c25761035691612406565b6103566103566103569260000b90565b9060009161244481610ee0565b9060029061247061245d61245784611266565b85611279565b61246a61128d60346112ad565b14612306565b60019261248260039161195d836112ad565b926124a061249961249287610715565b95866120fa565b8094610f93565b936000956124b9610f056124b389610715565b88610e93565b6124d261128d6040926124cb846112ad565b16926112ad565b6000910361267957506124e560ff6112ad565b965b816020976124f489610715565b6124fd81610f61565b9a8361250886610715565b905b61263a575b50508261251a835190565b905b6125f9575b50505050505061252e8490565b03612559575050506103569293509061255491612549825190565b818301019101612413565b612427565b61256290610715565b820361258d575050610356929350906125889161257d825190565b8183010191016123d8565b6123ec565b61259690610715565b81036125c05750610356929350906125bb916125b0825190565b81830101910161239d565b6123b1565b6125cd6110c76004610715565b146125d6575050565b610356929350906125f4916125e9825190565b818301019101612362565b612376565b818110156126355761262f908c610fdd82612627610f0561262161261b8a5190565b8461233e565b89610e93565b891a92610e93565b8361251c565b612521565b83519394929361264e90610356908661233e565b81101561267057612667908d610fdd82858a1a92610e93565b8294939261250a565b9392919361250f565b612682906112ad565b966124e7565b1561268f57565b60405162461bcd60e51b81526020600482015260156024820152741b9bdd0818481c1bdcda5d1a5d9948199a5e1a5b9d605a1b6044820152606490fd5b6126e1610356916126db600090565b50610ee0565b6119ba6126f1611c146007611266565b6126fe61128d60006112ad565b14612688565b1561270b57565b60405162461bcd60e51b81526020600482015260156024820152741b9bdd0818481b9959d85d1a5d9948199a5e1a5b9d605a1b6044820152606490fd5b60ff908116911690039060ff8211610edb57565b61276c6103566103569260ff1690565b60000b90565b61276c6103566103569290565b61278d9060000b9160000b90565b02906127998260000b90565b918203610edb57565b6127fc6127f76127f06127e06127bd610356956126db600090565b6119ba6127cd611c146005611266565b6127da61128d60076112ad565b14612704565b6127ea6001611266565b90612748565b1960ff1690565b61275c565b612807600019612772565b9061277f565b1561281457565b60405162461bcd60e51b81526020600482015260086024820152671b9bdd081b9d5b1b60c21b6044820152606490fd5b61284e6004610f4a565b631b9d5b1b60e21b602082015290565b610356612844565b612875612888916126db606090565b61288261128d60c06112ad565b1461280d565b61035661285e565b6040516128bd81602081016113f5816020808252600490820152631b9d5b1b60e21b604082015260600190565b81516128cd6110c7610356845190565b03612934576000906128de82610715565b6128e9610356855190565b81101561292b576128fd610f058286610e93565b61291061128d6112a0610f058587610e93565b036129235761291e90610f84565b6128de565b509092915050565b50505050600190565b5050600090565b1561294257565b60405162461bcd60e51b815260206004820152600a6024820152691b9bdd081848189bdbdb60b21b6044820152606490fd5b61297f9060006126db565b61298960c26112ad565b6001600160f81b031982161480156129b6575b6129a59061293b565b6129b261128d60c36112ad565b1490565b506129a56129c460c36112ad565b6001600160f81b0319831614905061299c565b6129e5610e79610492835190565b90602081106129f2575090565b61180490600019906020036008021b90565b61035690610715565b905051906102c7826105d4565b906020828203126101c25761035691612a0d565b6040513d6000823e3d90fd5b6020612a51612aa492612a4b600090565b50612ae7565b73__$0f2ef74df25658b59f87c747afcc439be9$__612a96612a7f612a7a6313357914946129d7565b612a04565b92612a8960405190565b9586948593849360e01b90565b835260048301526024820190565b03915af4908115612ae257600091612aba575090565b610356915060203d8111612adb575b612ad3818361028d565b810190612a1a565b503d612ac9565b612a2e565b90612af361122a835190565b600092612aff84610715565b612b0a610356835190565b811015612b5657612b5190612b45610f05612b3f612b2f84612b2a885190565b61233e565b612b396001610715565b9061233e565b85610e93565b861a610fdd8286610e93565b612aff565b5090925050565b612b65610e23565b906000610e39565b610356612b5d565b612b7d610e23565b90606082526020808301610e44612b6d565b610356612b75565b90929192612ba761031c826102e0565b938185526020850190828401116101c2576102c792610549565b9080601f830112156101c257815161035692602001612b97565b929190612bea61031c826102c9565b93818552602080860192028101918383116101c25781905b838210612c10575050505050565b81516001600160401b0381116101c257602091612c308784938701612bc1565b815201910190612c02565b9080601f830112156101c257815161035692602001612bdb565b9190916040818403126101c257612c6c60406102b3565b9260008201516001600160401b0381116101c25781612c8c918401612c3b565b845260208201516001600160401b0381116101c2576104279201612c3b565b906020828203126101c25781516001600160401b0381116101c2576103569201612c55565b612d116103569261093a92612ce3612b8f565b50612d0c612cf060405190565b8093612d006020830191826105a0565b9081038252038361028d565b61101c565b6020612d1b825190565b818301019101612cab565b60005b828110612d3557505050565b602090612d40612b6d565b8184015201612d29565b906102c7612d5a611bd884611b9e565b601f190160208401612d26565b612d749190612ce3612b8f565b612d84612d8082612890565b1590565b612dc25750600090612d9d612d9883610715565b612d4a565b916110c7612da9612dd6565b612dbb612db4610e23565b9584870152565b6020850152565b9061035661093a6001936020612d1b825190565b612dde612b6d565b506000610356612dec610e23565b91610427612df982610715565b8092850152565b9190916020818403126101c257612e1760206102b3565b9260008201516001600160401b0381116101c257612e359201612c3b565b8252565b906020828203126101c25781516001600160401b0381116101c2576103569201612e00565b60005b828110612e6d57505050565b602090612e78612b8f565b8184015201612e61565b906102c7612e92611bd884611b9e565b601f190160208401612e5e565b634e487b7160e01b600052600060045260246000fd5b81810292918115918404141715610edb57565b610356906003612eb5565b610356906002612eb5565b9160001960089290920291821b911b5b9181191691161790565b9190612f09610356612f1193610715565b908354612ede565b9055565b6102c791600091612ef8565b600060016102c792612f3583808301612f15565b01612f15565b90600003612f4c576102c790612f21565b612e9f565b818110612f5c575050565b80612f6a6000600293612f3b565b01612f51565b90612f8390600019906020036008021c90565b8154169055565b9091828110612f9857505050565b612fbc612fb0612faa6102c795612ed3565b92612ed3565b92600052602060002090565b9081019101612f51565b90600160401b81116102ae5781612fde6102c7935490565b90828155612f8a565b60006102c791612fc6565b90600003612f4c576102c790612fe7565b600060016102c79261301783808301612ff2565b01612f3b565b90600003612f4c576102c790613003565b818110613039575050565b80613047600060039361301d565b0161302e565b909182811061305b57505050565b613073612fb061306d6102c795612ec8565b92612ec8565b908101910161302e565b90600160401b81116102ae57816130956102c7935490565b9082815561304d565b9060001990612eee565b906130b8610356612f1192610715565b825461309e565b6102c791906130d8906020906001906130de8185875190565b906130a8565b0192015190565b906102c7916130bf565b61311a61310e6130fd845190565b936131088585612fc6565b60200190565b91600052602060002090565b6000915b83831061312b5750505050565b600260208261314361313d6001955190565b866130e5565b0192019201919061311e565b906102c7916130ef565b9061317d602060016102c7946130de60008201613177600088015190565b9061314f565b906130e5565b906102c791613159565b6131a661310e61319b845190565b93613108858561307d565b6000915b8383106131b75750505050565b60036020826131cf6131c96001955190565b86613183565b019201920191906131aa565b906102c79161318d565b8054821015610eaa576131ff600391600052602060002090565b91020190600090565b9190612f4c576102c791613159565b6132216003610f4a565b623c37b960e91b602082015290565b610356613217565b9060ff90612eee565b90613251610356612f1192151590565b8254613238565b6132626006610f4a565b6506c6f6f6b75760d41b602082015290565b610356613258565b613286600b610f4a565b6a72616e67655f636865636b60a81b602082015290565b61035661327c565b6132af6005610f4a565b6419999b5d5b60da1b602082015290565b6103566132a5565b6132d26009610f4a565b687461626c655f69647360b81b602082015290565b6103566132c8565b6132f96017610f4a565b7f72756e74696d655f7461626c65735f73656c6563746f72000000000000000000602082015290565b6103566132ef565b613334600b610f4a565b6a6c6f6f6b75705f696e666f60a81b602082015290565b61035661332a565b61335d600b610f4a565b6a6d61785f7065725f726f7760a81b602082015290565b610356613353565b613386600e610f4a565b6d6d61785f6a6f696e745f73697a6560901b602082015290565b61035661337c565b91906134066133f16133b960405190565b6133eb81602081016113f5816020808252600c908201526b6c6f6f6b75705f7461626c6560a01b604082015260600190565b8561101c565b60206133fb825190565b818301019101612e39565b8051519093909261341f61341985612e82565b846131db565b60009161342b83610715565b855b81101561347a576134738161346e61345c61093a61345161342d968a8e0151611002565b516020612d1b825190565b61346883898b016131e5565b90613208565b610f84565b905061342b565b506001929195506102c794506135cc6135b5612d116135f59361356f8689613515600c6135606134eb612d116134af60405190565b6134e581602081016113f58160208082526010908201526f6c6f6f6b75705f73656c6563746f727360801b604082015260600190565b8961101c565b61351a6134ff6134f9613230565b83612d67565b9760016135159089019960038b01928b01613183565b613241565b6135396135286134f9613274565b61351560078a019160048b01613183565b6135586135476134f961329d565b613515600b8a019160088b01613183565b610ba36132c0565b919094600f8101945001613183565b61358e61357d6134f96132e7565b61351560168c019160138d01613183565b6135ad61359c6134f9613322565b613515601a8c019160178d01613183565b6105c261334b565b6135ed6135e16135cc6135c6613374565b846110d4565b60206135d6825190565b818301019101612a1a565b601188019586016130a8565b6105c26133a0565b9250016130a8565b6001600160401b0381166105d6565b905051906102c7826135fd565b906020828203126101c2576103569161360c565b906001600160401b0390612eee565b9061364c610356612f1192612152565b825461362d565b906020828203126101c25781516001600160401b0381116101c2576103569201612bc1565b6121686103566103569290565b906fffffffffffffffff00000000000000009060401b612eee565b906136b0610356612f1192612152565b8254613685565b6001600160401b03166001600160401b038114610edb5760010190565b6121686103566103569260ff1690565b6136ff906001600160401b03165b916001600160401b031690565b02906001600160401b038216612799565b6121689061210e6136f2610356946001600160401b031690565b6103569060401c612168565b610356905461372a565b613752906001600160401b03166136f2565b01906001600160401b038211610edb57565b6103569061210e6110c76103569490565b1561377c57565b60405162461bcd60e51b815260206004820152601e60248201527f7368696674206172726179206973206e6f74206f66206c656e677468203700006044820152606490fd5b6007821015610eaa576001906131ff565b6103569081565b61035690546137d2565b61035690612168565b61035690546137e3565b613808906001600160401b03166136f2565b9003906001600160401b038211610edb57565b61047590612180565b9160206102c792949361383f60408201966000830190610722565b019061381b565b6001600160401b0381116102ae5760200290565b61031c61035691613846565b60005b82811061387557505050565b602090613880612b8f565b8184015201613869565b906102c76138a061389a8461385a565b93613846565b83613866565b610356600761388a565b9060075b811015610eaa576020020190565b60005b8281106138d157505050565b6020906138dc612b8f565b81840152016138c5565b906102c76138f661389a8461385a565b836138c2565b610356600f6138e6565b90600f6138b4565b909182811061391c57505050565b613073610ecc61306d6102c795612ec8565b90600160401b81116102ae576102c79160075b9061390e565b61395a6110c7600793610356858561392e565b6000915b83831061396b5750505050565b600360208261397d6131c96001955190565b0192019201919061395e565b906102c791613947565b90600160401b81116102ae576102c791600f613941565b6139bd6110c7600f936103568585613993565b6000915b8383106139ce5750505050565b60036020826139e06131c96001955190565b019201920191906139c1565b906102c7916139aa565b613a00600c610f4a565b6b67656e657269635f636f6d6d60a01b602082015290565b6103566139f6565b613a2a6008610f4a565b6770736d5f636f6d6d60c01b602082015290565b610356613a20565b613a506011610f4a565b70636f6d706c6574655f6164645f636f6d6d60781b602082015290565b610356613a46565b613a7f6008610f4a565b676d756c5f636f6d6d60c01b602082015290565b610356613a75565b613aa56009610f4a565b68656d756c5f636f6d6d60b81b602082015290565b610356613a9b565b613acc6013610f4a565b72656e646f6d756c5f7363616c61725f636f6d6d60681b602082015290565b610356613ac2565b613afd6011610f4a565b7072616e67655f636865636b305f636f6d6d60781b602082015290565b610356613af3565b613b2c6011610f4a565b7072616e67655f636865636b315f636f6d6d60781b602082015290565b610356613b22565b613b5b6016610f4a565b75666f726569676e5f6669656c645f6164645f636f6d6d60501b602082015290565b610356613b51565b613b8f6016610f4a565b75666f726569676e5f6669656c645f6d756c5f636f6d6d60501b602082015290565b610356613b85565b613bc36008610f4a565b67786f725f636f6d6d60c01b602082015290565b610356613bb9565b613be96008610f4a565b67726f745f636f6d6d60c01b602082015290565b610356613bdf565b613c0e9061201e565b90613c56613c4d6135cc613c2160405190565b6133eb81602081016113f5816020808252600690820152657075626c696360d01b604082015260600190565b600183016130a8565b613ca4613c9b6135cc613c6860405190565b6133eb81602081016113f5816020808252600d908201526c6d61785f706f6c795f73697a6560981b604082015260600190565b600283016130a8565b613cfb613ce6613cb360405190565b613ce081602081016113f5816020808252600790820152667a6b5f726f777360c81b604082015260600190565b8461101c565b6020613cf0825190565b818301019101613619565b90613d0a60038201928361363c565b613d5a613d45613d1960405190565b6133eb81602081016113f5816020808252600690820152653237b6b0b4b760d11b604082015260600190565b6020613d4f825190565b818301019101613653565b93600093613d6785613678565b613d7181866136a0565b600887613d7d82613678565b6001600160401b0384161015613dee57613dde613dd0613de99493613dca613dc4613dbe613db96119ba610f0589613de49a50610eff8c612180565b6136d4565b92613678565b866136e4565b90613710565b613dd989613736565b613740565b876136a0565b6136b7565b613d71565b505050939290613dfd84610715565b93845b613e0a6020610715565b861015613e6157613e55613e5b91613e36613e3c6119636119ba610f058e610eff8e613e36604c610715565b90610ec5565b613e4f613e496008610715565b8b612eb5565b90613764565b95610f84565b94613e00565b94509091929550613ea994602073__$0f2ef74df25658b59f87c747afcc439be9$__95613e8b8790565b612a966313357914613e9c60405190565b9a8b948593849360e01b90565b03915af4958615612ae25760009661434b575b50613ecb6004880196876130a8565b613f0b6133f1613eda60405190565b613f0581602081016113f5816020808252600590820152641cda1a599d60da1b604082015260600190565b8361101c565b9382850195613f1987515190565b97613f32600799613f2c6110c78c610715565b14613775565b613f3b85610715565b8a613f458b610715565b821015613f93578161346e613f8c92613f868360088f8f613f74613f459a613f7f938361081794505051611002565b516020613d4f825190565b93016137c1565b90612ef8565b9050613f3b565b505090929550613faa9194975060209396506137d9565b90613fe9613fcf632e4c697f95613fc9613fc382613736565b916137ec565b906137f6565b94613ff4613fdc60405190565b9687958694859460e01b90565b845260048401613824565b03915af48015612ae2576140149160009161432d575b50600f86016130a8565b6140536133f161402360405190565b613f0581602081016113f5816020808252600a90820152697369676d615f636f6d6d60b01b604082015260600190565b9061405c6138a6565b9461406684610715565b60078110156140a05761409b9061408661093a6134518389890151611002565b614090828a6138b0565b52611c9381896138b0565b614066565b50929150926140f16133f16140b460405190565b6140eb81602081016113f581602080825260119082015270636f656666696369656e74735f636f6d6d60781b604082015260600190565b8661101c565b906140fa6138fc565b9361410484610715565b600f81101561413e576141399061412461093a6134518389890151611002565b61412e8289613906565b52611c938188613906565b614104565b50949150946142e192936141586141619260128801613989565b602786016139ec565b61417e61417561416f613a18565b83612cd0565b60548601613183565b61419561418c61416f613a3e565b60578601613183565b6141ac6141a361416f613a6d565b605a8601613183565b6141c36141ba61416f613a93565b605d8601613183565b6141da6141d161416f613aba565b60608601613183565b6141f16141e861416f613aeb565b60638601613183565b6142106141ff6134f9613b1a565b613515606988019160668901613183565b61422f61421e6134f9613b49565b613515606d880191606a8901613183565b61424e61423d6134f9613b7d565b6135156071880191606e8901613183565b61426d61425c6134f9613bb1565b613515607588019160728901613183565b61428c61427b6134f9613bd7565b613515607988019160768901613183565b6142ab61429a6134f9613bfd565b613515607d880191607a8901613183565b60405190612d0c8260208101612d00816020808252600c908201526b0d8deded6eae0bed2dcc8caf60a31b604082015260600190565b906142ee612d8083612890565b1561431f57509061431461430b836102c794506020612d1b825190565b607e83016108a9565b609960019101613241565b905060996102c79201613241565b614345915060203d8111612adb57612ad3818361028d565b3861400a565b61436491965060203d8111612adb57612ad3818361028d565b9438613ebc565b6133f16143ae9161437a612b8f565b5060405190612d0c8260208101612d00816020808252600990820152681d5b9cda1a599d195960ba1b604082015260600190565b805151906143bb82612d4a565b906000936143c885610715565b845b8110156144145761440d6143ca916143f86143f36143ee613f74848c8a0151611002565b6129d7565b6144c2565b6144028288611002565b52611c938187611002565b90506143c8565b509392505061035690610427614428612dd6565b91614431610e23565b94850152565b6103567f30644e72e131a029b85045b68181585d97816a916871ca8d3c208c16d87cfd47610715565b634e487b7160e01b600052601260045260246000fd5b1561447d57565b60405162461bcd60e51b815260206004820152601860248201527f6465736572206661696c3a206e6f74206f6e20637572766500000000000000006044820152606490fd5b6144ca612b6d565b506144e96144e46144de600160fe1b610715565b92612a04565b6145d8565b60009181166144fa6110c784610715565b14614519575061035661450c82610715565b610427815b614431610e23565b614526600160ff1b610715565b81166145346110c784610715565b1415906145476001600160fe1b03610715565b169081614552614437565b9283156145bf57838180099084156145bf578491099260039381156145bf57816145899161458261035697610715565b90086147de565b9190936145968395614476565b6145a6575b505061042790614511565b919250610427916145b7919061233e565b91903861459b565b614460565b6103569061129b6110c76103569460ff1690565b61464c6146047fff00ff00ff00ff00ff00ff00ff00ff00ff00ff00ff00ff00ff00ff00ff00ff00610715565b8216600861461b61461482611266565b80936145c4565b936146447eff00ff00ff00ff00ff00ff00ff00ff00ff00ff00ff00ff00ff00ff00ff00ff610715565b1690506120fa565b176146b16146797fffff0000ffff0000ffff0000ffff0000ffff0000ffff0000ffff0000ffff0000610715565b8216601061468961461482611266565b936146447dffff0000ffff0000ffff0000ffff0000ffff0000ffff0000ffff0000ffff610715565b176147146146de7fffffffff00000000ffffffff00000000ffffffff00000000ffffffff00000000610715565b821660206146ee61461482611266565b936146447bffffffff00000000ffffffff00000000ffffffff00000000ffffffff610715565b1761476c61473a77ffffffffffffffff0000000000000000ffffffffffffffff19610715565b8216604061474a61461482611266565b9361464477ffffffffffffffff0000000000000000ffffffffffffffff610715565b1761478e60809161477c83611266565b9061478782826145c4565b93506120fa565b1790565b1561479957565b60405162461bcd60e51b815260206004820152601b60248201527f706f7720707265636f6d70696c652063616c6c206661696c65642100000000006044820152606490fd5b6148077f0c19139cb84c680a6e14116da060561765e05aa45a1c72a34f082305b61f3f52610715565b906020600060c0614816614437565b9460405190848252848083015284604083015285606083015260808201528560a082015260055afa9161484b60005193614792565b61485e6148586001611266565b846120fa565b811061487d575b80156145bf576110c7614879918480099290565b1491565b91614888908361233e565b91614865565b61035691369161030c565b610db1610c0a6020936148b4936148ae606090565b5061488e565b01516148d36148c8600092611edc84610715565b5160206133fb825190565b818101906148e082515190565b926148ea84612e82565b946148f58692610715565b855b811015611ca05761492b6148f79161491661093a613451838a51611002565b614920828b611002565b52611c93818a611002565b90506148f5565b61493c6008610f4a565b6766756c6c5f73727360c01b602082015290565b610356614932565b6149626001610f4a565b606760f81b602082015290565b610356614958565b6149816001610f4a565b600d60fb1b602082015290565b610356614977565b612d116149a56149ad92611d03565b6105c2614950565b906149d1613d456149c86133f16149c261496f565b866110d4565b936105c261498e565b916149df612d986002610715565b936000926149ec84610715565b6149f7610356885190565b811015614a3257614a2d90614a186143f36143ee613f74848a8a0151611002565b614a22828a611002565b52611c938189611002565b6149ec565b50909460019250614a5490614a4c6143f36102c7976129d7565b94830161314f565b016130e5565b614a62610e23565b906000611cb5565b610356614a5a565b60005b828110614a8157505050565b602090614a8c614a6a565b8184015201614a75565b906102c7614aa6611bd884611b9e565b601f190160208401614a72565b634e487b7160e01b600052602260045260246000fd5b9060016002830492168015614ae9575b6020831014614ae457565b614ab3565b91607f1691614ad9565b818110614afe575050565b80614b0c6000600193612f15565b01614af3565b600019600883021c1916906002021790565b90600091614b42614b3a82600052602060002090565b928354614b12565b905555565b9192906020821015614b9f57601f8411600114614b6957612f11929350614b12565b5090614b9a6102c7936001614b91614b8685600052602060002090565b92601f602091010490565b82019101614af3565b614b24565b50614bdf8293614bb6600194600052602060002090565b614bd86020601f860104820192601f861680614be7575b50601f602091010490565b0190614af3565b600202179055565b614bf390888603612f70565b38614bcd565b929091600160401b82116102ae5760201115614c40576020811015614c2157612f1191614b12565b60019160ff1916614c3784600052602060002090565b55600202019055565b60019150600202019055565b908154614c5881614ac9565b90818311614c81575b818310614c6f575b50505050565b614c7893614b47565b38808080614c69565b614c8d83838387614bf9565b614c61565b60006102c791614c4c565b90600003612f4c576102c790614c92565b60008082556102c791600101614c9d565b90600003612f4c576102c790614cae565b818110614cdb575050565b80614ce96000600293614cbf565b01614cd0565b9091828110614cfd57505050565b614d0f612fb0612faa6102c795612ed3565b9081019101614cd0565b90600160401b81116102ae5781614d316102c7935490565b90828155614cef565b6103569051610aff565b90613251610356612f1192610b09565b9190601f8111614d6357505050565b614d756102c793600052602060002090565b906020601f840181900483019310614d95575b6020601f90910104614bd8565b9091508190614d88565b90614da8815190565b906001600160401b0382116102ae57614dcb82614dc58554614ac9565b85614d54565b602090601f8311600114614df957612f11929160009183614dee575b5050614b12565b015190503880614de7565b601f19831691614e0e85600052602060002090565b9260005b818110614e4c57509160029391856001969410614e33575b50505002019055565b01516000196008601f8516021c19169055388080614e2a565b91936020600181928787015181550195019201614e12565b906102c791614d9f565b6102c79190614e90906020906001906130de81614e8a87614d3a565b90614d44565b90614e64565b906102c791614e6e565b614eb961310e614eae845190565b936131088585614d19565b6000915b838310614eca5750505050565b6002602082614ee2614edc6001955190565b86614e96565b01920192019190614ebd565b906102c791614ea0565b614f0490929192611f3b565b805151614f1090614a96565b90600092614f1d84610715565b848301614f2c61035682515190565b821015614f625790614f48610b6a61345183614f5d9551611002565b614f528287611002565b52611c938186611002565b614f1d565b5050936102c793915060100101614eee565b8015156105d6565b905051906102c782614f74565b906020828203126101c25761035691614f7c565b604080825261035692614fb29183019061056c565b90602081830391015260018152602d60f91b602082015260400190565b9061047590610d1e565b604080825261035692614fee9183019061056c565b906020818303910152600c81526b4c6f6f6b757041676772656760a01b602082015260400190565b60408082526103569261502b9183019061056c565b906020818303910152600b81526a4c6f6f6b75705461626c6560a81b602082015260400190565b6040808252610356926150679183019061056c565b90602081830391015260158152742637b7b5bab8293ab73a34b6b2a9b2b632b1ba37b960591b602082015260400190565b6040808252610356926150ad9183019061056c565b90602081830391015260128152714c6f6f6b757052756e74696d655461626c6560701b602082015260400190565b6040808252610356926150f09183019061056c565b90602081830391015260038152622c37b960e91b602082015260400190565b60041115610afa57565b906102c78261510f565b61035690615119565b61047590615123565b6020810192916102c7919061512c565b60408082526103569261515a9183019061056c565b906020818303910152600681526504c6f6f6b75760d41b602082015260400190565b6040808252610356926151919183019061056c565b906020818303910152600a81526952616e6765436865636b60b01b602082015260400190565b6040808252610356926151cc9183019061056c565b906020818303910152600f81526e119bdc995a59db919a595b19135d5b608a1b602082015260400190565b60408082526103569261520c9183019061056c565b90602081830391015260048152635a65726f60e01b602082015260400190565b60121115610afa57565b906102c78261522c565b61035690615236565b61047590615240565b6020810192916102c79190615249565b6040808252610356926152779183019061056c565b906020818303910152600781526647656e6572696360c81b602082015260400190565b6040808252610356926152af9183019061056c565b90602081830391015260088152672837b9b2b4b237b760c11b602082015260400190565b6040808252610356926152e89183019061056c565b906020818303910152600b81526a10dbdb5c1b195d1950591960aa1b602082015260400190565b6040808252610356926153249183019061056c565b906020818303910152600a81526915985c90985cd9535d5b60b21b602082015260400190565b60408082526103569261535f9183019061056c565b9060208183039101526007815266115b991bd35d5b60ca1b602082015260400190565b6040808252610356926153979183019061056c565b906020818303910152600d81526c22b73237a6bab629b1b0b630b960991b602082015260400190565b6040808252610356926153d59183019061056c565b906020818303910152600b81526a052616e6765436865636b360ac1b602082015260400190565b6040808252610356926154119183019061056c565b906020818303910152600b81526a52616e6765436865636b3160a81b602082015260400190565b60408082526103569261544d9183019061056c565b906020818303910152600f81526e119bdc995a59db919a595b19105919608a1b602082015260400190565b60408082526103569261548d9183019061056c565b90602081830391015260058152642c37b9189b60d91b602082015260400190565b6040808252610356926154c39183019061056c565b9060208183039101526005815264149bdd0d8d60da1b602082015260400190565b6154ec614a6a565b5080516154fc6110c76060610715565b11156160265780516155119190602090612d1b565b61555061551d60405190565b61554a81602081016113f5816020808252600790820152665769746e65737360c81b604082015260600190565b826111b1565b61600a575061559361556160405190565b61554a81602081016113f5816020808252600c908201526b131bdbdadd5c14dbdc9d195960a21b604082015260600190565b615ff757506155d96155a460405190565b61554a81602081016113f5816020808252600f908201526e098deded6eae096d2dcc892dcc8caf608b1b604082015260600190565b615dec575b506156166155eb60405190565b61554a81602081016113f581602080825260059082015264092dcc8caf60db1b604082015260600190565b615737575061565861562760405190565b61554a81602081016113f5816020808252600b908201526a10dbd959999a58da595b9d60aa1b604082015260600190565b9091906157255760405161569e9250906156998260208101612d00816020808252600b908201526a2832b936baba30ba34b7b760a91b604082015260600190565b6111b1565b61570d5760405162461bcd60e51b815260206004820152603f60248201527f436f756c646e2774206d6174636820616e7920436f6c756d6e2076617269616e60448201527f74207768696c6520646573657269616c697a696e67206120636f6c756d6e2e006064820152608490fd5b610356600a9161042761571e610e23565b9384614fcf565b5061035660099161042761571e610e23565b61574691506020613d4f825190565b73__$c6c5f4599f88e7253ab6b4c9dc3636c36f$__806344b7f83c61576a60405190565b6157748260e01b90565b81526020818061578788600483016151f7565b0381875af4908115612ae257600091615dce575b50615d87576040516157ad8260e01b90565b8152602081806157c08860048301615262565b0381875af4908115612ae257600091615d69575b50615d52576040516157e68260e01b90565b8152602081806157f9886004830161529a565b0381875af4908115612ae257600091615d34575b50615d1d5760405161581f8260e01b90565b81526020818061583288600483016152d3565b0381875af4908115612ae257600091615cff575b50615ce8576040516158588260e01b90565b81526020818061586b886004830161530f565b0381875af4908115612ae257600091615cca575b50615cb3576040516158918260e01b90565b8152602081806158a4886004830161534a565b0381875af4908115612ae257600091615c95575b50615c7e576040516158ca8260e01b90565b8152602081806158dd8860048301615382565b0381875af4908115612ae257600091615c60575b50615c49576040516159038260e01b90565b8152602081806159168860048301615145565b0381875af4908115612ae257600091615c2b575b50615c145760405161593c8260e01b90565b81526020818061594f88600483016153c0565b0381875af4908115612ae257600091615bf6575b50615bdf576040516159758260e01b90565b81526020818061598888600483016153fc565b0381875af4908115612ae257600091615bc1575b50615baa576040516159ae8260e01b90565b8152602081806159c18860048301615438565b0381875af4908115612ae257600091615b8c575b50615b75576040516159e78260e01b90565b8152602081806159fa88600483016151b7565b0381875af4908115612ae257600091615b57575b50615b4057604051615a208260e01b90565b815260208180615a338860048301615478565b0381875af4908115612ae257600091615b22575b50615b0b57615a669260209250615a5d60405190565b93849260e01b90565b82528180615a7787600483016154ae565b03915af4908115612ae257600091615add575b50615aae5760405161108e91905b63190af87760e11b8152918291600483016105a0565b5060086103566011615ad2615ac260405190565b80926113f5602083019182615252565b61042761571e610e23565b615afe915060203d8111615b04575b615af6818361028d565b810190614f89565b38615a8a565b503d615aec565b5050505060086103566010615ad2615ac260405190565b615b3a915060203d8111615b0457615af6818361028d565b38615a47565b505050506008610356600f615ad2615ac260405190565b615b6f915060203d8111615b0457615af6818361028d565b38615a0e565b505050506008610356600e615ad2615ac260405190565b615ba4915060203d8111615b0457615af6818361028d565b386159d5565b505050506008610356600d615ad2615ac260405190565b615bd9915060203d8111615b0457615af6818361028d565b3861599c565b505050506008610356600c615ad2615ac260405190565b615c0e915060203d8111615b0457615af6818361028d565b38615963565b5050505060086103566007615ad2615ac260405190565b615c43915060203d8111615b0457615af6818361028d565b3861592a565b5050505060086103566006615ad2615ac260405190565b615c78915060203d8111615b0457615af6818361028d565b386158f1565b5050505060086103566005615ad2615ac260405190565b615cad915060203d8111615b0457615af6818361028d565b386158b8565b5050505060086103566004615ad2615ac260405190565b615ce2915060203d8111615b0457615af6818361028d565b3861587f565b5050505060086103566003615ad2615ac260405190565b615d17915060203d8111615b0457615af6818361028d565b38615846565b5050505060086103566002615ad2615ac260405190565b615d4c915060203d8111615b0457615af6818361028d565b3861580d565b5050505060086103566001615ad2615ac260405190565b615d81915060203d8111615b0457615af6818361028d565b386157d4565b505050506008610356600091610427615d9f60405190565b91615dbe8360208101615db28882615252565b9081038252038461028d565b615dc6610e23565b948501614fcf565b615de6915060203d8111615b0457615af6818361028d565b3861579b565b8051615dfb9190602090613d4f565b60405173__$c6c5f4599f88e7253ab6b4c9dc3636c36f$__916344b7f83c91839063112dfe0f60e21b815260208180615e3786600483016150db565b0381855af4908115612ae257600091615fd9575b50615fad57604051615e5d8460e01b90565b815260208180615e708660048301615145565b0381855af4908115612ae257600091615f8f575b50615f7757604051615e968460e01b90565b815260208180615ea9866004830161517c565b0381855af4908115612ae257600091615f59575b50615f4157615ed6602093615ee19550612a8960405190565b8352600483016151b7565b03915af4908115612ae257600091615f23575b50615eff57386155de565b5060056103566003615ad2615f1360405190565b80926113f5602083019182615135565b615f3b915060203d8111615b0457615af6818361028d565b38615ef4565b505050505060056103566002615ad2615f1360405190565b615f71915060203d8111615b0457615af6818361028d565b38615ebd565b505050505060056103566001615ad2615f1360405190565b615fa7915060203d8111615b0457615af6818361028d565b38615e84565b50505050506005610356600091610427615fc660405190565b91615dbe8360208101615db28882615135565b615ff1915060203d8111615b0457615af6818361028d565b38615e4b565b905061035660029161042761571e610e23565b905061035660009161042761601d610e23565b93808501614fcf565b80516160359190602090613d4f565b73__$c6c5f4599f88e7253ab6b4c9dc3636c36f$__806344b7f83c61605960405190565b6160638260e01b90565b8152602081806160768860048301614f9d565b0381875af4908115612ae257600091616285575b5061626a5760405161609c8260e01b90565b8152602081806160af8860048301614fd9565b0381875af4908115612ae25760009161624c575b50616231576040516160d58260e01b90565b8152602081806160e88860048301615016565b0381875af4908115612ae257600091616213575b506161f85760405161610e8260e01b90565b8152602081806161218860048301615052565b0381875af4908115612ae2576000916161da575b506161bf5761614b9260209250615a5d60405190565b8252818061615c8760048301615098565b03915af4908115612ae2576000916161a1575b506161815760405161108e9190615a98565b506000610356600761042761619861122a85610715565b91615dc6610e23565b6161b9915060203d8111615b0457615af6818361028d565b3861616f565b50505050600661035660009161042761619861122a85610715565b6161f2915060203d8111615b0457615af6818361028d565b38616135565b50505050600461035660009161042761619861122a85610715565b61622b915060203d8111615b0457615af6818361028d565b386160fc565b50505050600361035660009161042761619861122a85610715565b616264915060203d8111615b0457615af6818361028d565b386160c3565b50505050600161035660009161042761619861122a85610715565b61629d915060203d8111615b0457615af6818361028d565b3861608a565b6040810192916102c7919080518252602090810151910152565b9061047590610aff565b906162d3610a0a835190565b90816162e56020830284019460200190565b926000915b8383106162f957505050505090565b90919293946020616315610a56838560019503875289516109f4565b93019301919392906162ea565b6020808252610356929101906162c7565b6040808252610356926163489183019061056c565b906020818303910152600481526321bab93960e11b602082015260400190565b60408082526103569261637d9183019061056c565b906020818303910152600481526313995e1d60e21b602082015260400190565b60021115610afa57565b906102c78261639d565b90610475906163a7565b610356906163a7565b610475906163bb565b90610356906020806163ee6040840160008701518582036000870152610d3a565b9401519101906163c4565b6020808252610356929101906163cd565b60408082526103569261641f9183019061056c565b9060208183039101526005815264616c70686160d81b602082015260400190565b6040808252610356926164559183019061056c565b90602081830391015260048152636265746160e01b602082015260400190565b60408082526103569261648a9183019061056c565b906020818303910152600581526467616d6d6160d81b602082015260400190565b6040808252610356926164c09183019061056c565b906020818303910152600d81526c3537b4b73a31b7b6b134b732b960991b602082015260400190565b6040808252610356926164fe9183019061056c565b906020818303910152600f81526e195b991bd8dbd959999a58da595b9d608a1b602082015260400190565b60408082526103569261653e9183019061056c565b906020818303910152600381526206475760ec1b602082015260400190565b6040808252610356926165729183019061056c565b906020818303910152600381526218591960ea1b602082015260400190565b6040808252610356926165a69183019061056c565b90602081830391015260038152621b5d5b60ea1b602082015260400190565b6040808252610356926165da9183019061056c565b906020818303910152600381526239bab160e91b602082015260400190565b60408082526103569261660e9183019061056c565b906020818303910152602681527f76616e69736865736f6e7a65726f6b6e6f776c65646765616e6470726576696f6020820152657573726f777360d01b604082015260600190565b60408082526103569261666b9183019061056c565b906020818303910152600581526473746f726560d81b602082015260400190565b90616695614a6a565b916166cf6166a260405190565b61554a81602081016113f5816020808252600790820152661d985c9a585b9d60ca1b604082015260600190565b15616c27576166e391506020613d4f825190565b73__$c6c5f4599f88e7253ab6b4c9dc3636c36f$__806344b7f83c9061670860405190565b6167128360e01b90565b815260208180616725886004830161640a565b0381875af4908115612ae257600091616c09575b501561676a57505050509050600061035661675661122a83610715565b610427616761610e23565b938085016162bd565b6040516167778360e01b90565b81526020818061678a8860048301616440565b0381875af4908115612ae257600091616beb575b50156167d25750505050905060016103566000916104276167c161122a85610715565b916167ca610e23565b9485016162bd565b6040516167df8360e01b90565b8152602081806167f28860048301616475565b0381875af4908115612ae257600091616bcd575b50156168295750505050905060026103566000916104276167c161122a85610715565b6040516168368360e01b90565b81526020818061684988600483016164ab565b0381875af4908115612ae257600091616baf575b50156168805750505050905060036103566000916104276167c161122a85610715565b60405161688d8360e01b90565b8152602081806168a088600483016164e9565b0381875af4908115612ae257600091616b91575b50156168d75750505050905060046103566000916104276167c161122a85610715565b6040516168e48360e01b90565b8152602081806168f78860048301616529565b0381875af4908115612ae257600091616b73575b501561692e5750505050905060086103566000916104276167c161122a85610715565b60405161693b8360e01b90565b81526020818061694e886004830161655d565b0381875af4908115612ae257600091616b55575b501561698557505050509050600a6103566000916104276167c161122a85610715565b6040516169928360e01b90565b8152602081806169a58860048301616591565b0381875af4908115612ae257600091616b37575b50156169dc57505050509050600b6103566000916104276167c161122a85610715565b6040516169e98360e01b90565b8152602081806169fc88600483016165c5565b0381875af4908115612ae257600091616b19575b5015616a3357505050509050600c6103566000916104276167c161122a85610715565b604051616a408360e01b90565b815260208180616a5388600483016165f9565b0381875af4908115612ae257600091616afb575b5015616a8a57505050509050600d6103566000916104276167c161122a85610715565b91616aa0616aab949260209450612a8960405190565b835260048301616656565b03915af4908115612ae257600091616add575b50616ac557565b90506000610356600f6104276167c161122a85610715565b616af5915060203d8111615b0457615af6818361028d565b38616abe565b616b13915060203d8111615b0457615af6818361028d565b38616a67565b616b31915060203d8111615b0457615af6818361028d565b38616a10565b616b4f915060203d8111615b0457615af6818361028d565b386169b9565b616b6d915060203d8111615b0457615af6818361028d565b38616962565b616b8b915060203d8111615b0457615af6818361028d565b3861690b565b616ba9915060203d8111615b0457615af6818361028d565b386168b4565b616bc7915060203d8111615b0457615af6818361028d565b3861685d565b616be5915060203d8111615b0457615af6818361028d565b38616806565b616c03915060203d8111615b0457615af6818361028d565b3861679e565b616c21915060203d8111615b0457615af6818361028d565b38616739565b50616c5d616c3460405190565b61554a81602081016113f5816020808252600390820152626d647360e81b604082015260600190565b6170c95750616c9b616c6e60405190565b61554a81602081016113f5816020808252600790820152661b1a5d195c985b60ca1b604082015260600190565b6170385750616cda616cac60405190565b61554a81602081016113f5816020808252600890820152677661726961626c6560c01b604082015260600190565b616e005750616d14616ceb60405190565b61554a81602081016113f581602080825260039082015262706f7760e81b604082015260600190565b616dda5750616d54616d2560405190565b61554a81602081016113f5816020808252600990820152681c9bdddbd9999cd95d60ba1b604082015260600190565b616dc55750604051616d8a916156998260208101612d00816020808252600490820152631b1bd85960e21b604082015260600190565b616d915750565b616da191925060206135d6825190565b610356601091616db361156b60405190565b610427616dbe610e23565b93846162bd565b91925050610356600e91610427616dbe610e23565b616dee9293508091505060206135d6825190565b610356600991616db361156b60405190565b616e14929350809150506020612d1b825190565b616e4c613d45616e2360405190565b613f0581602081016113f581602080825260039082015262726f7760e81b604082015260600190565b6000919073__$c6c5f4599f88e7253ab6b4c9dc3636c36f$__806344b7f83c90616e7560405190565b616e7f8360e01b90565b815260208180616e928860048301616333565b0381875af4908115612ae25760009161701a575b5015616f33575050505061035690616f0a616eee610d7985935b6040515b90612d0c8260208101612d008160208082526003908201526218dbdb60ea1b604082015260600190565b91616f01616efa610e23565b9386850152565b602083016163b1565b6104276007616f2b616f1b60405190565b8094615db26020830191826163f9565b6167ca610e23565b91616f49616f54949260209450612a8960405190565b835260048301616368565b03915af4908115612ae257600091616ffc575b5015616f825761035690616f0a616eee610d79600193616ec0565b60405162461bcd60e51b815260206004820152604660248201527f437572724f724e657874206469646e2774206d6174636820616e79207661726960448201527f616e74207768696c6520646573657269616c697a696e67206c696e656172697a60648201526530ba34b7b71760d11b608482015260a490fd5b617014915060203d8111615b0457615af6818361028d565b38616f67565b617032915060203d8111615b0457615af6818361028d565b38616ea6565b61708592935060209150806170519150826133fb825190565b5160405173__$c6c5f4599f88e7253ab6b4c9dc3636c36f$__9061707a9063cbf5a4d790612a89565b835260048301616322565b03915af4908115612ae2576000916170ab575b50610356600691616db361156b60405190565b6170c3915060203d8111612adb57612ad3818361028d565b38617098565b6170dd929350809150506020612d1b825190565b6103566171286135cc61711e6135cc6170f560405190565b6140eb81602081016113f581602080825260039082015262726f7760e81b604082015260600190565b93616ec460405190565b9161713f60059361042761713a610e23565b938452565b616db361714b60405190565b80926113f56020830191826162a3565b81156145bf570490565b906102c7610f77611bd884611b9e565b909392938483116101c25784116101c2578101920390565b356129e5565b9091826171ab6020946171a586610715565b9061715b565b926171b584617165565b9283906171c26000610715565b865b811015617291576172419088866171e36171dd83610715565b84612eb5565b612a9661722a612a7a6172248b73__$0f2ef74df25658b59f87c747afcc439be9$__9563133579149761721e6172188b610715565b83610ec5565b92617175565b9061718d565b9261723460405190565b9687948593849360e01b90565b03915af4908115612ae25761346e61726d926171c494600091617274575b5061726a838b611002565b52565b90506171c2565b61728b91508c8d3d10612adb57612ad3818361028d565b3861725f565b509450945050505056fea264697066735822122049ec1aac8d827afdd24768cadc539330dbd31bded5f0ac60db47a88330111b4664736f6c63430008150033",
  "linkReferences": {
    "lib/Utils.sol": {
      "Utils": [
        {
          "length": 20,
          "start": 22383
        },
        {
          "length": 20,
          "start": 24103
        },
        {
          "length": 20,
          "start": 24670
        },
        {
          "length": 20,
          "start": 26380
        },
        {
          "length": 20,
          "start": 28281
        },
        {
          "length": 20,
          "start": 28798
        }
      ]
    },
    "lib/bn254/Fields.sol": {
      "Scalar": [
        {
          "length": 20,
          "start": 10874
        },
        {
          "length": 20,
          "start": 16023
        },
        {
          "length": 20,
          "start": 29209
        }
      ]
    }
  },
  "deployedLinkReferences": {
    "lib/Utils.sol": {
      "Utils": [
        {
          "length": 20,
          "start": 22344
        },
        {
          "length": 20,
          "start": 24064
        },
        {
          "length": 20,
          "start": 24631
        },
        {
          "length": 20,
          "start": 26341
        },
        {
          "length": 20,
          "start": 28242
        },
        {
          "length": 20,
          "start": 28759
        }
      ]
    },
    "lib/bn254/Fields.sol": {
      "Scalar": [
        {
          "length": 20,
          "start": 10835
        },
        {
          "length": 20,
          "start": 15984
        },
        {
          "length": 20,
          "start": 29170
        }
      ]
    }
  }
}