{
  "_format": "hh-sol-artifact-1",
  "contractName": "Polynomial",
  "sourceName": "lib/Polynomial.sol",
  "abi": [
    {
      "inputs": [
        {
          "internalType": "Scalar.FE[]",
          "name": "coeffs",
          "type": "uint256[]"
        },
        {
          "internalType": "Scalar.FE",
          "name": "x",
          "type": "uint256"
        }
      ],
      "name": "build_and_eval",
      "outputs": [
        {
          "internalType": "Scalar.FE",
          "name": "result",
          "type": "uint256"
        }
      ],
      "stateMutability": "pure",
      "type": "function"
    },
    {
      "inputs": [
        {
          "internalType": "Scalar.FE",
          "name": "domain_gen",
          "type": "uint256"
        },
        {
          "internalType": "uint256",
          "name": "domain_size",
          "type": "uint256"
        },
        {
          "internalType": "uint256",
          "name": "i",
          "type": "uint256"
        },
        {
          "internalType": "Scalar.FE",
          "name": "x",
          "type": "uint256"
        }
      ],
      "name": "eval_vanishes_on_last_n_rows",
      "outputs": [
        {
          "internalType": "Scalar.FE",
          "name": "",
          "type": "uint256"
        }
      ],
      "stateMutability": "view",
      "type": "function"
    },
    {
      "inputs": [
        {
          "components": [
            {
              "internalType": "Scalar.FE[]",
              "name": "coeffs",
              "type": "uint256[]"
            }
          ],
          "internalType": "struct Polynomial.Dense",
          "name": "self",
          "type": "tuple"
        },
        {
          "components": [
            {
              "internalType": "Scalar.FE[]",
              "name": "coeffs",
              "type": "uint256[]"
            }
          ],
          "internalType": "struct Polynomial.Dense",
          "name": "other",
          "type": "tuple"
        }
      ],
      "name": "sub",
      "outputs": [
        {
          "components": [
            {
              "internalType": "Scalar.FE[]",
              "name": "coeffs",
              "type": "uint256[]"
            }
          ],
          "internalType": "struct Polynomial.Dense",
          "name": "",
          "type": "tuple"
        }
      ],
      "stateMutability": "pure",
      "type": "function"
    }
  ],
  "bytecode": "0x60806040523461001e57604051610a4e610024823930815050610a4e90f35b600080fdfe6080604052600436101561001257600080fd5b60003560e01c8063014fffde1461004257806345f165351461003d57637e8ba408036100b2576102f0565b6102ac565b61023e565b634e487b7160e01b600052604160045260246000fd5b90601f01601f1916810190811067ffffffffffffffff82111761007f57604052565b610047565b9061009861009160405190565b928361005d565b565b67ffffffffffffffff811161007f5760208091020190565b600080fd5b909291926100cc6100c78261009a565b610084565b93818552602080860192028301928184116100b257915b8383106100f05750505050565b82358152602092830192016100e3565b9080601f830112156100b25781602061011b933591016100b7565b90565b9190916020818403126100b2576101356020610084565b92813567ffffffffffffffff81116100b2576101519201610100565b8252565b9190916040818403126100b257803567ffffffffffffffff81116100b2578361017f91830161011e565b92602082013567ffffffffffffffff81116100b25761011b920161011e565b61011b61011b61011b9290565b6101b49061019e565b9052565b906101c5816020936101ab565b0190565b906101e96101e26101d8845190565b8084529260200190565b9260200190565b9060005b8181106101fa5750505090565b90919261021461020d60019286516101b8565b9460200190565b9291016101ed565b51602080835261011b9201906101c9565b602080825261011b9291019061021c565b61026161025561024f366004610155565b906105cc565b6040519182918261022d565b0390f35b91906040838203126100b25782359067ffffffffffffffff82116100b2576102928161011b938601610100565b9360200190503590565b60208101929161009891906101ab565b6102616102c36102bd366004610265565b906103b2565b6040519182918261029c565b6080818303126100b257803592602082013592506040820135916060013590565b6102616102c36103013660046102cf565b9291909161075f565b634e487b7160e01b600052601160045260246000fd5b9190820391821161032d57565b61030a565b634e487b7160e01b600052603260045260246000fd5b90610351825190565b811015610362576020809102010190565b610332565b801561032d576000190190565b906020828203126100b257505190565b91602061009892949361039f604082019660008301906101ab565b01906101ab565b6040513d6000823e3d90fd5b9091908051926103dd6103d96103d36001966103cd8861019e565b90610320565b84610348565b5190565b93846103e7845190565b6103f76103f38461019e565b9190565b14610544575091908261041461040b845190565b6103cd8361019e565b905b610421575b50505050565b80959192939550610432600061019e565b811461053c5761044190610367565b809173__$0f2ef74df25658b59f87c747afcc439be9$__602061047a63c8a4ac9c6104858861046f60405190565b968794859460e01b90565b845260048401610384565b0381845af49081156105185760209260009261051d575b5061047a6104b26103d963771602f7968a610348565b946104cc6104bf60405190565b9687958694859460e01b90565b03915af4908115610518576000916104ea575b509492919083610416565b61050b915060203d8111610511575b610503818361005d565b810190610374565b386104df565b503d6104f9565b6103a6565b610535919250833d811161051157610503818361005d565b903861049c565b81955061041b565b9450505050565b61011b6020610084565b61055d61054b565b9060608252565b61011b610555565b9081526040810192916100989160200152565b0152565b906105906100c78361009a565b918252565b369037565b906100986105b06105aa84610583565b9361009a565b601f190160208401610595565b600019811461032d5760010190565b91906105d6610564565b50825151815151637ae2b5c7939160209173__$c6c5f4599f88e7253ab6b4c9dc3636c36f$__9061061b909661062661060e60405190565b9889958694859460e01b90565b84526004840161056c565b03915af492831561051857600093610724575b506106438361059a565b936000916106508361019e565b855b81101561070b576106696103d98286860151610348565b90602073__$0f2ef74df25658b59f87c747afcc439be9$__9263b67d77c59361047a61069b6103d9868b8d0151610348565b956106b56106a860405190565b9788958694859460e01b90565b03915af4908115610518576106e16106e692610652946000916106ed575b506106de838c610348565b52565b6105bd565b9050610650565b610705915060203d811161051157610503818361005d565b386106d3565b50949193505061011b915061071e61054b565b92830152565b61073d91935060203d811161051157610503818361005d565b9138610639565b91602061009892949361057f604082019660008301906101ab565b60009161076b8361019e565b84146109a85773__$0f2ef74df25658b59f87c747afcc439be9$__9160206107b361079b87632e4c697f95610320565b936107bf6107a860405190565b958693849360e01b90565b83528560048401610744565b0381865af491821561051857600092610988575b508196610804602063b67d77c5946107ea60405190565b809381926107f88960e01b90565b83528c60048401610384565b0381885af480156105185761082d61011b916108459360009161096a575b50915091509561019e565b945b61084561011b61083f600161019e565b89610320565b86101561095f576040519863c8a4ac9c906020908b9081906108709088906332292b2760e21b61047a565b0381895af4998a156105185760009a61093b575b506108a59060208b8b61089660405190565b948592839261047a8c60e01b90565b03818a5af4908115610518576108d261047a9260209460009161091e575b50604051958694859460e01b90565b0381885af48015610518576108f761011b9161084593600091610900575b50976105bd565b9691505061082f565b610918915060203d811161051157610503818361005d565b386108f0565b6109359150853d811161051157610503818361005d565b386108c3565b6108a5919a506109589060203d811161051157610503818361005d565b9990610884565b975095505050505050565b610982915060203d811161051157610503818361005d565b38610822565b6109a191925060203d811161051157610503818361005d565b90386107d3565b50505050506109e560206109cd73__$0f2ef74df25658b59f87c747afcc439be9$__90565b63901717d1906109dc60405190565b93849260e01b90565b825260049082905af490811561051857600091610a00575090565b61011b915060203d811161051157610503818361005d56fea2646970667358221220404c8651d688405f590d21d6d3f9846595cf76befb8954708a31b4284b90415064736f6c63430008150033",
  "linkReferences": {
    "lib/Utils.sol": {
      "Utils": [
        {
          "length": 20,
          "start": 1549
        }
      ]
    },
    "lib/bn254/Fields.sol": {
      "Scalar": [
        {
          "length": 20,
          "start": 1129
        },
        {
          "length": 20,
          "start": 1682
        },
        {
          "length": 20,
          "start": 1943
        },
        {
          "length": 20,
          "start": 2523
        }
      ]
    }
  },
  "deployedLinkReferences": {
    "lib/Utils.sol": {
      "Utils": [
        {
          "length": 20,
          "start": 1513
        }
      ]
    },
    "lib/bn254/Fields.sol": {
      "Scalar": [
        {
          "length": 20,
          "start": 1093
        },
        {
          "length": 20,
          "start": 1646
        },
        {
          "length": 20,
          "start": 1907
        },
        {
          "length": 20,
          "start": 2487
        }
      ]
    }
  }
}