{
  "_format": "hh-sol-artifact-1",
  "contractName": "Aux",
  "sourceName": "lib/bn254/Fields.sol",
  "abi": [
    {
      "inputs": [
        {
          "internalType": "uint256",
          "name": "a",
          "type": "uint256"
        },
        {
          "internalType": "uint256",
          "name": "b",
          "type": "uint256"
        }
      ],
      "name": "xgcd",
      "outputs": [
        {
          "internalType": "uint256",
          "name": "r0",
          "type": "uint256"
        },
        {
          "internalType": "uint256",
          "name": "s0",
          "type": "uint256"
        }
      ],
      "stateMutability": "pure",
      "type": "function"
    }
  ],
  "bytecode": "0x60806040523461001e5760405161028961002482393081505061028990f35b600080fdfe6080604052600436101561001257600080fd5b63d91bbae560003560e01c14610068575b600080fd5b905035905b565b919060408382031261002357610052906100498185610028565b93602001610028565b90565b90815260408101929161002d9160200152565b61007c61007636600461002f565b90610134565b9061009261008960405190565b92839283610055565b0390f35b6100526100526100529290565b634e487b7160e01b600052601260045260246000fd5b634e487b7160e01b600052601160045260246000fd5b906100d9565b9190565b9081156100e4570490565b6100a3565b818102929181159184041417156100fc57565b6100b9565b919082039182116100fc57565b919082018092116100fc57565b60001981146100fc5760010190565b81156100e4570690565b91600191808461014385610096565b91829560009161015283610096565b80958382945b6101a3575b505050506100d561017d8261018393506101776002610096565b9061012a565b92610096565b1461019657509192610052925090610101565b6101a09250610101565b50565b93929a919990966101b386610096565b8c14610244578b6101c481856100cf565b93846101d361005284836100e9565b82111561022c576101ed926101e7916100e9565b90610101565b9b5b9b916101fb8c856100e9565b6102049161010e565b928861020f916100e9565b6102189161010e565b926102229061011b565b9380939193610158565b61023e92610239916100e9565b610101565b9b6101ef565b96829b50819a5083945061015d56fea26469706673582212208f58e16287474de1f497b5b75a4d7678d54ecdf3d1654e17b326371db24fb1d964736f6c63430008150033",
  "linkReferences": {},
  "deployedLinkReferences": {}
}