{
  "_format": "hh-sol-artifact-1",
  "contractName": "Base",
  "sourceName": "lib/bn254/Fields.sol",
  "abi": [
    {
      "inputs": [],
      "name": "MODULUS",
      "outputs": [
        {
          "internalType": "uint256",
          "name": "",
          "type": "uint256"
        }
      ],
      "stateMutability": "view",
      "type": "function"
    },
    {
      "inputs": [
        {
          "internalType": "Base.FE",
          "name": "self",
          "type": "uint256"
        },
        {
          "internalType": "Base.FE",
          "name": "other",
          "type": "uint256"
        }
      ],
      "name": "add",
      "outputs": [
        {
          "internalType": "Base.FE",
          "name": "res",
          "type": "uint256"
        }
      ],
      "stateMutability": "pure",
      "type": "function"
    },
    {
      "inputs": [
        {
          "internalType": "uint256",
          "name": "n",
          "type": "uint256"
        }
      ],
      "name": "from",
      "outputs": [
        {
          "internalType": "Base.FE",
          "name": "",
          "type": "uint256"
        }
      ],
      "stateMutability": "pure",
      "type": "function"
    },
    {
      "inputs": [
        {
          "internalType": "bytes",
          "name": "b",
          "type": "bytes"
        }
      ],
      "name": "from_bytes_be",
      "outputs": [
        {
          "internalType": "Base.FE",
          "name": "",
          "type": "uint256"
        }
      ],
      "stateMutability": "pure",
      "type": "function"
    },
    {
      "inputs": [
        {
          "internalType": "Base.FE",
          "name": "self",
          "type": "uint256"
        }
      ],
      "name": "inv",
      "outputs": [
        {
          "internalType": "Base.FE",
          "name": "",
          "type": "uint256"
        }
      ],
      "stateMutability": "pure",
      "type": "function"
    },
    {
      "inputs": [
        {
          "internalType": "Base.FE",
          "name": "self",
          "type": "uint256"
        },
        {
          "internalType": "Base.FE",
          "name": "other",
          "type": "uint256"
        }
      ],
      "name": "mul",
      "outputs": [
        {
          "internalType": "Base.FE",
          "name": "res",
          "type": "uint256"
        }
      ],
      "stateMutability": "pure",
      "type": "function"
    },
    {
      "inputs": [
        {
          "internalType": "Base.FE",
          "name": "self",
          "type": "uint256"
        }
      ],
      "name": "neg",
      "outputs": [
        {
          "internalType": "Base.FE",
          "name": "",
          "type": "uint256"
        }
      ],
      "stateMutability": "pure",
      "type": "function"
    },
    {
      "inputs": [],
      "name": "one",
      "outputs": [
        {
          "internalType": "Base.FE",
          "name": "",
          "type": "uint256"
        }
      ],
      "stateMutability": "pure",
      "type": "function"
    },
    {
      "inputs": [
        {
          "internalType": "Base.FE",
          "name": "self",
          "type": "uint256"
        },
        {
          "internalType": "uint256",
          "name": "exponent",
          "type": "uint256"
        }
      ],
      "name": "pow",
      "outputs": [
        {
          "internalType": "Base.FE",
          "name": "result",
          "type": "uint256"
        }
      ],
      "stateMutability": "pure",
      "type": "function"
    },
    {
      "inputs": [
        {
          "internalType": "Base.FE",
          "name": "self",
          "type": "uint256"
        }
      ],
      "name": "square",
      "outputs": [
        {
          "internalType": "Base.FE",
          "name": "res",
          "type": "uint256"
        }
      ],
      "stateMutability": "pure",
      "type": "function"
    },
    {
      "inputs": [
        {
          "internalType": "Base.FE",
          "name": "self",
          "type": "uint256"
        },
        {
          "internalType": "Base.FE",
          "name": "other",
          "type": "uint256"
        }
      ],
      "name": "sub",
      "outputs": [
        {
          "internalType": "Base.FE",
          "name": "res",
          "type": "uint256"
        }
      ],
      "stateMutability": "pure",
      "type": "function"
    },
    {
      "inputs": [],
      "name": "zero",
      "outputs": [
        {
          "internalType": "Base.FE",
          "name": "",
          "type": "uint256"
        }
      ],
      "stateMutability": "pure",
      "type": "function"
    }
  ],
  "bytecode": "0x60806040523461001e576040516108a46100248239308150506108a490f35b600080fdfe6080604052600436101561001257600080fd5b60003560e01c806313357914146100d257806325aa322c146100cd5780632e4c697f146100c8578063771602f7146100c357806377d2f203146100be5780637a142f2e146100b95780637b292909146100b4578063901717d1146100af57806397fa2522146100aa578063b67d77c5146100a5578063bc1b392d146100a05763c8a4ac9c036100d757610370565b61035a565b610343565b61032d565b61022d565b610217565b610201565b6101eb565b6101d4565b6101bd565b610174565b610124565b600080fd5b905035905b565b906020828203126100d7576100f7916100dc565b90565b6100f76100f76100f79290565b610110906100fa565b9052565b6020810192916100e19190610107565b61014661013a6101353660046100e3565b6103cb565b60405191829182610114565b0390f35b60009103126100d757565b6100f760008051602061084f8339815191526100fa565b6100f7610155565b61017f36600461014a565b61014661018a61016c565b6040519182918290815260200190565b91906040838203126100d7576100f7906101b481856100dc565b936020016100dc565b61014661013a6101ce36600461019a565b906107c8565b61014661013a6101e536600461019a565b9061056a565b61014661013a6101fc3660046100e3565b610771565b61014661013a6102123660046100e3565b61068f565b61014661013a6102283660046100e3565b610594565b61023836600461014a565b61014661013a610391565b634e487b7160e01b600052604160045260246000fd5b90601f01601f1916810190811067ffffffffffffffff82111761027b57604052565b610243565b906100e161028d60405190565b9283610259565b67ffffffffffffffff811161027b57602090601f01601f19160190565b90826000939282370152565b909291926102d26102cd82610294565b610280565b938185526020850190828401116100d7576100e1926102b1565b9080601f830112156100d7578160206100f7933591016102bd565b906020828203126100d757813567ffffffffffffffff81116100d7576100f792016102ec565b61014661013a61033e366004610307565b6104af565b61014661013a61035436600461019a565b90610798565b61036536600461014a565b61014661013a610387565b61014661013a61038136600461019a565b9061057f565b6100f760006100fa565b6100f760016100fa565b634e487b7160e01b600052601260045260246000fd5b906103bb565b9190565b9081156103c6570690565b61039b565b6103e96100f7916103da600090565b506103e3610155565b906103b1565b6100fa565b634e487b7160e01b600052601160045260246000fd5b60001981146104135760010190565b6103ee565b6104256100f76100f79290565b60ff1690565b6100f79061043f6103b76100f79460ff1690565b901b90565b634e487b7160e01b600052603260045260246000fd5b90610463825190565b811015610471570160200190565b610444565b6104256100f76100f79260ff1690565b6100f79060f81c610476565b6100f76100f76100f79260ff1690565b9190820180921161041357565b906000906104bc826100fa565b906104c5845190565b6020906104d46103b7836100fa565b1161055b57508351925b50815b835b8310156105465761053e6105386105076104e3936105016008610418565b9061042b565b61053261052d61052861051a898c61045a565b516001600160f81b03191690565b610486565b610492565b906104a2565b93610404565b9290506104e1565b9093506100f792506103e991506103e3610155565b610564906100fa565b926104de565b60008051602061084f83398151915291900890565b60008051602061084f83398151915291900990565b60008051602061084f83398151915290800990565b60208082526019908201527f747269656420746f2067657420696e7665727365206f66203000000000000000604082015260600190565b156105e757565b60405162461bcd60e51b815280610600600482016105a9565b0390fd5b90505190565b91906040838203126100d7576100f7906106248185610604565b93602001610604565b9081526040810192916100e19160200152565b6040513d6000823e3d90fd5b602080825260099082015268676364206e6f74203160b81b604082015260600190565b1561067657565b60405162461bcd60e51b8152806106006004820161064c565b604061069a826100fa565b6106af6106a760006100fa565b8214156105e0565b73__$cf6e7cc5f7c7059c3f412db73ee0208ebf$__63d91bbae593506106f06106d6610155565b946106fb6106e360405190565b9687958694859460e01b90565b84526004840161062d565b03915af490811561075f576100f791600091829161072c575b506103e9906107266103b760016100fa565b1461066f565b6103e99250610752915060403d8111610758575b61074a8183610259565b81019061060a565b91610714565b503d610740565b610640565b9190820391821161041357565b6103e96100f791610780600090565b5061079261078c610155565b916100fa565b90610764565b60008051602061084f833981519152918203900890565b6100f7906107c36103b76100f79460ff1690565b901c90565b91600180926107d6826100fa565b80945b6107e6575b505050909150565b6107f060006100fa565b821461084957808281161461082b575b6108226108128785969798508061057f565b9261081c85610418565b906107af565b919594936107d9565b61082261081261083f88888798995061057f565b9695505050610800565b6107de56fe30644e72e131a029b85045b68181585d97816a916871ca8d3c208c16d87cfd47a26469706673582212200d5890b772169e6b59c786fcaff152478babb0df7ccc4790539f573851c55c0564736f6c63430008150033",
  "linkReferences": {
    "lib/bn254/Fields.sol": {
      "Aux": [
        {
          "length": 20,
          "start": 1749
        }
      ]
    }
  },
  "deployedLinkReferences": {
    "lib/bn254/Fields.sol": {
      "Aux": [
        {
          "length": 20,
          "start": 1713
        }
      ]
    }
  }
}