{
  "_format": "hh-sol-artifact-1",
  "contractName": "Scalar",
  "sourceName": "lib/bn254/Fields.sol",
  "abi": [
    {
      "inputs": [],
      "name": "RootOfUnityError",
      "type": "error"
    },
    {
      "inputs": [],
      "name": "MODULUS",
      "outputs": [
        {
          "internalType": "uint256",
          "name": "",
          "type": "uint256"
        }
      ],
      "stateMutability": "view",
      "type": "function"
    },
    {
      "inputs": [],
      "name": "TWO_ADICITY",
      "outputs": [
        {
          "internalType": "uint256",
          "name": "",
          "type": "uint256"
        }
      ],
      "stateMutability": "view",
      "type": "function"
    },
    {
      "inputs": [],
      "name": "TWO_ADIC_PRIMITIVE_ROOT_OF_UNITY",
      "outputs": [
        {
          "internalType": "uint256",
          "name": "",
          "type": "uint256"
        }
      ],
      "stateMutability": "view",
      "type": "function"
    },
    {
      "inputs": [
        {
          "internalType": "Scalar.FE",
          "name": "self",
          "type": "uint256"
        },
        {
          "internalType": "Scalar.FE",
          "name": "other",
          "type": "uint256"
        }
      ],
      "name": "add",
      "outputs": [
        {
          "internalType": "Scalar.FE",
          "name": "res",
          "type": "uint256"
        }
      ],
      "stateMutability": "pure",
      "type": "function"
    },
    {
      "inputs": [
        {
          "internalType": "Scalar.FE",
          "name": "self",
          "type": "uint256"
        }
      ],
      "name": "double",
      "outputs": [
        {
          "internalType": "Scalar.FE",
          "name": "res",
          "type": "uint256"
        }
      ],
      "stateMutability": "pure",
      "type": "function"
    },
    {
      "inputs": [
        {
          "internalType": "uint256",
          "name": "n",
          "type": "uint256"
        }
      ],
      "name": "from",
      "outputs": [
        {
          "internalType": "Scalar.FE",
          "name": "",
          "type": "uint256"
        }
      ],
      "stateMutability": "pure",
      "type": "function"
    },
    {
      "inputs": [
        {
          "internalType": "bytes",
          "name": "b",
          "type": "bytes"
        }
      ],
      "name": "from_bytes_be",
      "outputs": [
        {
          "internalType": "Scalar.FE",
          "name": "",
          "type": "uint256"
        }
      ],
      "stateMutability": "pure",
      "type": "function"
    },
    {
      "inputs": [
        {
          "internalType": "uint256",
          "name": "order",
          "type": "uint256"
        }
      ],
      "name": "get_primitive_root_of_unity",
      "outputs": [
        {
          "internalType": "Scalar.FE",
          "name": "root",
          "type": "uint256"
        }
      ],
      "stateMutability": "view",
      "type": "function"
    },
    {
      "inputs": [
        {
          "internalType": "Scalar.FE",
          "name": "self",
          "type": "uint256"
        }
      ],
      "name": "inv",
      "outputs": [
        {
          "internalType": "Scalar.FE",
          "name": "inverse",
          "type": "uint256"
        }
      ],
      "stateMutability": "view",
      "type": "function"
    },
    {
      "inputs": [
        {
          "internalType": "Scalar.FE",
          "name": "self",
          "type": "uint256"
        },
        {
          "internalType": "Scalar.FE",
          "name": "other",
          "type": "uint256"
        }
      ],
      "name": "mul",
      "outputs": [
        {
          "internalType": "Scalar.FE",
          "name": "res",
          "type": "uint256"
        }
      ],
      "stateMutability": "pure",
      "type": "function"
    },
    {
      "inputs": [
        {
          "internalType": "Scalar.FE",
          "name": "self",
          "type": "uint256"
        }
      ],
      "name": "neg",
      "outputs": [
        {
          "internalType": "Scalar.FE",
          "name": "",
          "type": "uint256"
        }
      ],
      "stateMutability": "pure",
      "type": "function"
    },
    {
      "inputs": [],
      "name": "one",
      "outputs": [
        {
          "internalType": "Scalar.FE",
          "name": "",
          "type": "uint256"
        }
      ],
      "stateMutability": "pure",
      "type": "function"
    },
    {
      "inputs": [
        {
          "internalType": "Scalar.FE",
          "name": "self",
          "type": "uint256"
        },
        {
          "internalType": "uint256",
          "name": "exponent",
          "type": "uint256"
        }
      ],
      "name": "pow",
      "outputs": [
        {
          "internalType": "Scalar.FE",
          "name": "result",
          "type": "uint256"
        }
      ],
      "stateMutability": "view",
      "type": "function"
    },
    {
      "inputs": [
        {
          "internalType": "Scalar.FE",
          "name": "self",
          "type": "uint256"
        }
      ],
      "name": "square",
      "outputs": [
        {
          "internalType": "Scalar.FE",
          "name": "res",
          "type": "uint256"
        }
      ],
      "stateMutability": "pure",
      "type": "function"
    },
    {
      "inputs": [
        {
          "internalType": "Scalar.FE",
          "name": "self",
          "type": "uint256"
        },
        {
          "internalType": "Scalar.FE",
          "name": "other",
          "type": "uint256"
        }
      ],
      "name": "sub",
      "outputs": [
        {
          "internalType": "Scalar.FE",
          "name": "res",
          "type": "uint256"
        }
      ],
      "stateMutability": "pure",
      "type": "function"
    },
    {
      "inputs": [],
      "name": "zero",
      "outputs": [
        {
          "internalType": "Scalar.FE",
          "name": "",
          "type": "uint256"
        }
      ],
      "stateMutability": "pure",
      "type": "function"
    }
  ],
  "bytecode": "0x60806040523461001e5760405161096961002482393081505061096990f35b600080fdfe6080604052600436101561001257600080fd5b60003560e01c8063133579141461011257806325aa322c1461010d5780632e4c697f146101085780633a78938214610103578063771602f7146100fe57806377d2f203146100f95780637a142f2e146100f45780637b292909146100ef578063901717d1146100ea57806397fa2522146100e557806398cb6acb146100e0578063b67d77c5146100db578063ba65cc24146100d6578063bc1b392d146100d1578063c8a4ac9c146100cc5763eee97206036101175761044c565b610435565b61041f565b610409565b6103c1565b6103ab565b610383565b610283565b61026d565b610257565b610241565b61022a565b610214565b6101fd565b6101b4565b610164565b600080fd5b905035905b565b90602082820312610117576101379161011c565b90565b6101376101376101379290565b6101509061013a565b9052565b6020810192916101219190610147565b61018661017a610175366004610123565b6104a6565b60405191829182610154565b0390f35b600091031261011757565b61013760008051602061091483398151915261013a565b610137610195565b6101bf36600461018a565b6101866101ca6101ac565b6040519182918290815260200190565b919060408382031261011757610137906101f4818561011c565b9360200161011c565b61018661017a61020e3660046101da565b90610798565b61018661017a610225366004610123565b610852565b61018661017a61023b3660046101da565b90610645565b61018661017a610252366004610123565b61075a565b61018661017a610268366004610123565b610687565b61018661017a61027e366004610123565b61067d565b61028e36600461018a565b61018661017a61046c565b634e487b7160e01b600052604160045260246000fd5b90601f01601f1916810190811067ffffffffffffffff8211176102d157604052565b610299565b906101216102e360405190565b92836102af565b67ffffffffffffffff81116102d157602090601f01601f19160190565b90826000939282370152565b90929192610328610323826102ea565b6102d6565b938185526020850190828401116101175761012192610307565b9080601f830112156101175781602061013793359101610313565b9060208282031261011757813567ffffffffffffffff8111610117576101379201610342565b61018661017a61039436600461035d565b61058a565b610137601c61013a565b610137610399565b6103b636600461018a565b6101866101ca6103a3565b61018661017a6103d23660046101da565b90610781565b6101377f2a3c09f0a58a7e8500e0a7eb8ef62abc402d111e41112ed49bd61b6e725b19f061013a565b6101376103d8565b61041436600461018a565b6101866101ca610401565b61042a36600461018a565b61018661017a610462565b61018661017a6104463660046101da565b9061065a565b61018661017a61045d366004610123565b61066f565b610137600061013a565b610137600161013a565b634e487b7160e01b600052601260045260246000fd5b90610496565b9190565b9081156104a1570690565b610476565b6104c4610137916104b5600090565b506104be610195565b9061048c565b61013a565b634e487b7160e01b600052601160045260246000fd5b60001981146104ee5760010190565b6104c9565b6105006101376101379290565b60ff1690565b6101379061051a6104926101379460ff1690565b901b90565b634e487b7160e01b600052603260045260246000fd5b9061053e825190565b81101561054c570160200190565b61051f565b6105006101376101379260ff1690565b6101379060f81c610551565b6101376101376101379260ff1690565b919082018092116104ee57565b906000906105978261013a565b906105a0845190565b6020906105af6104928361013a565b1161063657508351925b50815b835b831015610621576106196106136105e26105be936105dc60086104f3565b90610506565b61060d6106086106036105f5898c610535565b516001600160f81b03191690565b610561565b61056d565b9061057d565b936104df565b9290506105bc565b90935061013792506104c491506104be610195565b61063f9061013a565b926105b9565b60008051602061091483398151915291900890565b60008051602061091483398151915291900990565b61013790610446600261013a565b610137908061065a565b6104c461069f61013792610699600090565b5061013a565b6106ff565b6020808252601d908201527f426e3235343a20706f7720707265636f6d70696c65206661696c656421000000604082015260600190565b156106e257565b60405162461bcd60e51b8152806106fb600482016106a4565b0390fd5b600060c060209261070e600090565b50610717610195565b604051918583528580840152856040840152606083015260028103608083015260a082015260055afa90610121600051926106db565b919082039182116104ee57565b6104c461013791610769600090565b5061077b610775610195565b9161013a565b9061074d565b600080516020610914833981519152918203900890565b6107a3906000610699565b906040519160208352602080840152602060408401526060830152608082015260008051602061091483398151915260a082015260208160c08160056107d05a03fa1561011757610137905161013a565b6101379061051a6104926101379490565b6020808252601390820152726e6f74206120726f6f74206f6620756e69747960681b604082015260600190565b1561083957565b60405162461bcd60e51b8152806106fb60048201610805565b60009161085e8361013a565b82146109065761086c610399565b8083116108f45761087e90839061074d565b9161089361088d6101756103d8565b9461013a565b935b835b8510156108bd576108b56108af82610897935061067d565b956104df565b949050610895565b93506101219192506108ee60016108e96104c46108e36108dc8461013a565b95866107f4565b88610798565b905090565b14610832565b60405163cb1cf3f760e01b8152600490fd5b915050610137600161013a56fe30644e72e131a029b85045b68181585d2833e84879b9709143e1f593f0000001a26469706673582212206d68effdfd9dd7764f5c83a545f0ba1fe4c07cf7ee6b19141832dee617d01afa64736f6c63430008150033",
  "linkReferences": {},
  "deployedLinkReferences": {}
}