{
  "_format": "hh-sol-artifact-1",
  "contractName": "Proof",
  "sourceName": "lib/Proof.sol",
  "abi": [
    {
      "inputs": [],
      "name": "MSMInvalidLengths",
      "type": "error"
    },
    {
      "inputs": [
        {
          "internalType": "enum ColumnVariant",
          "name": "variant",
          "type": "uint8"
        }
      ],
      "name": "MissingColumnEvaluation",
      "type": "error"
    },
    {
      "inputs": [
        {
          "internalType": "enum GateType",
          "name": "gate",
          "type": "uint8"
        }
      ],
      "name": "MissingIndexColumnEvaluation",
      "type": "error"
    },
    {
      "inputs": [
        {
          "internalType": "string",
          "name": "col",
          "type": "string"
        }
      ],
      "name": "MissingIndexEvaluation",
      "type": "error"
    },
    {
      "inputs": [
        {
          "internalType": "enum LookupPattern",
          "name": "pattern",
          "type": "uint8"
        }
      ],
      "name": "MissingLookupColumnEvaluation",
      "type": "error"
    },
    {
      "inputs": [
        {
          "components": [
            {
              "components": [
                {
                  "internalType": "uint256",
                  "name": "x",
                  "type": "uint256"
                },
                {
                  "internalType": "uint256",
                  "name": "y",
                  "type": "uint256"
                }
              ],
              "internalType": "struct BN254.G1Point[]",
              "name": "unshifted",
              "type": "tuple[]"
            },
            {
              "components": [
                {
                  "internalType": "uint256",
                  "name": "x",
                  "type": "uint256"
                },
                {
                  "internalType": "uint256",
                  "name": "y",
                  "type": "uint256"
                }
              ],
              "internalType": "struct BN254.G1Point",
              "name": "shifted",
              "type": "tuple"
            }
          ],
          "internalType": "struct PolyComm[]",
          "name": "columns",
          "type": "tuple[]"
        },
        {
          "internalType": "Scalar.FE",
          "name": "column_combiner",
          "type": "uint256"
        },
        {
          "internalType": "Scalar.FE",
          "name": "table_id_combiner",
          "type": "uint256"
        },
        {
          "internalType": "bool",
          "name": "is_table_id_vector_set",
          "type": "bool"
        },
        {
          "components": [
            {
              "components": [
                {
                  "internalType": "uint256",
                  "name": "x",
                  "type": "uint256"
                },
                {
                  "internalType": "uint256",
                  "name": "y",
                  "type": "uint256"
                }
              ],
              "internalType": "struct BN254.G1Point[]",
              "name": "unshifted",
              "type": "tuple[]"
            },
            {
              "components": [
                {
                  "internalType": "uint256",
                  "name": "x",
                  "type": "uint256"
                },
                {
                  "internalType": "uint256",
                  "name": "y",
                  "type": "uint256"
                }
              ],
              "internalType": "struct BN254.G1Point",
              "name": "shifted",
              "type": "tuple"
            }
          ],
          "internalType": "struct PolyComm",
          "name": "table_id_vector",
          "type": "tuple"
        },
        {
          "internalType": "bool",
          "name": "is_runtime_vector_set",
          "type": "bool"
        },
        {
          "components": [
            {
              "internalType": "uint256",
              "name": "x",
              "type": "uint256"
            },
            {
              "internalType": "uint256",
              "name": "y",
              "type": "uint256"
            }
          ],
          "internalType": "struct BN254.G1Point",
          "name": "runtime_vector",
          "type": "tuple"
        }
      ],
      "name": "combine_table",
      "outputs": [
        {
          "components": [
            {
              "components": [
                {
                  "internalType": "uint256",
                  "name": "x",
                  "type": "uint256"
                },
                {
                  "internalType": "uint256",
                  "name": "y",
                  "type": "uint256"
                }
              ],
              "internalType": "struct BN254.G1Point[]",
              "name": "unshifted",
              "type": "tuple[]"
            },
            {
              "components": [
                {
                  "internalType": "uint256",
                  "name": "x",
                  "type": "uint256"
                },
                {
                  "internalType": "uint256",
                  "name": "y",
                  "type": "uint256"
                }
              ],
              "internalType": "struct BN254.G1Point",
              "name": "shifted",
              "type": "tuple"
            }
          ],
          "internalType": "struct PolyComm",
          "name": "",
          "type": "tuple"
        }
      ],
      "stateMutability": "view",
      "type": "function"
    },
    {
      "inputs": [
        {
          "components": [
            {
              "internalType": "uint256",
              "name": "optional_field_flags",
              "type": "uint256"
            },
            {
              "components": [
                {
                  "internalType": "Scalar.FE",
                  "name": "zeta",
                  "type": "uint256"
                },
                {
                  "internalType": "Scalar.FE",
                  "name": "zeta_omega",
                  "type": "uint256"
                }
              ],
              "internalType": "struct PointEvaluations[15]",
              "name": "w",
              "type": "tuple[15]"
            },
            {
              "components": [
                {
                  "internalType": "Scalar.FE",
                  "name": "zeta",
                  "type": "uint256"
                },
                {
                  "internalType": "Scalar.FE",
                  "name": "zeta_omega",
                  "type": "uint256"
                }
              ],
              "internalType": "struct PointEvaluations",
              "name": "z",
              "type": "tuple"
            },
            {
              "components": [
                {
                  "internalType": "Scalar.FE",
                  "name": "zeta",
                  "type": "uint256"
                },
                {
                  "internalType": "Scalar.FE",
                  "name": "zeta_omega",
                  "type": "uint256"
                }
              ],
              "internalType": "struct PointEvaluations[6]",
              "name": "s",
              "type": "tuple[6]"
            },
            {
              "components": [
                {
                  "internalType": "Scalar.FE",
                  "name": "zeta",
                  "type": "uint256"
                },
                {
                  "internalType": "Scalar.FE",
                  "name": "zeta_omega",
                  "type": "uint256"
                }
              ],
              "internalType": "struct PointEvaluations[15]",
              "name": "coefficients",
              "type": "tuple[15]"
            },
            {
              "components": [
                {
                  "internalType": "Scalar.FE",
                  "name": "zeta",
                  "type": "uint256"
                },
                {
                  "internalType": "Scalar.FE",
                  "name": "zeta_omega",
                  "type": "uint256"
                }
              ],
              "internalType": "struct PointEvaluations",
              "name": "generic_selector",
              "type": "tuple"
            },
            {
              "components": [
                {
                  "internalType": "Scalar.FE",
                  "name": "zeta",
                  "type": "uint256"
                },
                {
                  "internalType": "Scalar.FE",
                  "name": "zeta_omega",
                  "type": "uint256"
                }
              ],
              "internalType": "struct PointEvaluations",
              "name": "poseidon_selector",
              "type": "tuple"
            },
            {
              "components": [
                {
                  "internalType": "Scalar.FE",
                  "name": "zeta",
                  "type": "uint256"
                },
                {
                  "internalType": "Scalar.FE",
                  "name": "zeta_omega",
                  "type": "uint256"
                }
              ],
              "internalType": "struct PointEvaluations",
              "name": "complete_add_selector",
              "type": "tuple"
            },
            {
              "components": [
                {
                  "internalType": "Scalar.FE",
                  "name": "zeta",
                  "type": "uint256"
                },
                {
                  "internalType": "Scalar.FE",
                  "name": "zeta_omega",
                  "type": "uint256"
                }
              ],
              "internalType": "struct PointEvaluations",
              "name": "mul_selector",
              "type": "tuple"
            },
            {
              "components": [
                {
                  "internalType": "Scalar.FE",
                  "name": "zeta",
                  "type": "uint256"
                },
                {
                  "internalType": "Scalar.FE",
                  "name": "zeta_omega",
                  "type": "uint256"
                }
              ],
              "internalType": "struct PointEvaluations",
              "name": "emul_selector",
              "type": "tuple"
            },
            {
              "components": [
                {
                  "internalType": "Scalar.FE",
                  "name": "zeta",
                  "type": "uint256"
                },
                {
                  "internalType": "Scalar.FE",
                  "name": "zeta_omega",
                  "type": "uint256"
                }
              ],
              "internalType": "struct PointEvaluations",
              "name": "endomul_scalar_selector",
              "type": "tuple"
            },
            {
              "components": [
                {
                  "internalType": "Scalar.FE",
                  "name": "zeta",
                  "type": "uint256"
                },
                {
                  "internalType": "Scalar.FE",
                  "name": "zeta_omega",
                  "type": "uint256"
                }
              ],
              "internalType": "struct PointEvaluations",
              "name": "public_evals",
              "type": "tuple"
            },
            {
              "components": [
                {
                  "internalType": "Scalar.FE",
                  "name": "zeta",
                  "type": "uint256"
                },
                {
                  "internalType": "Scalar.FE",
                  "name": "zeta_omega",
                  "type": "uint256"
                }
              ],
              "internalType": "struct PointEvaluations",
              "name": "range_check0_selector",
              "type": "tuple"
            },
            {
              "components": [
                {
                  "internalType": "Scalar.FE",
                  "name": "zeta",
                  "type": "uint256"
                },
                {
                  "internalType": "Scalar.FE",
                  "name": "zeta_omega",
                  "type": "uint256"
                }
              ],
              "internalType": "struct PointEvaluations",
              "name": "range_check1_selector",
              "type": "tuple"
            },
            {
              "components": [
                {
                  "internalType": "Scalar.FE",
                  "name": "zeta",
                  "type": "uint256"
                },
                {
                  "internalType": "Scalar.FE",
                  "name": "zeta_omega",
                  "type": "uint256"
                }
              ],
              "internalType": "struct PointEvaluations",
              "name": "foreign_field_add_selector",
              "type": "tuple"
            },
            {
              "components": [
                {
                  "internalType": "Scalar.FE",
                  "name": "zeta",
                  "type": "uint256"
                },
                {
                  "internalType": "Scalar.FE",
                  "name": "zeta_omega",
                  "type": "uint256"
                }
              ],
              "internalType": "struct PointEvaluations",
              "name": "foreign_field_mul_selector",
              "type": "tuple"
            },
            {
              "components": [
                {
                  "internalType": "Scalar.FE",
                  "name": "zeta",
                  "type": "uint256"
                },
                {
                  "internalType": "Scalar.FE",
                  "name": "zeta_omega",
                  "type": "uint256"
                }
              ],
              "internalType": "struct PointEvaluations",
              "name": "xor_selector",
              "type": "tuple"
            },
            {
              "components": [
                {
                  "internalType": "Scalar.FE",
                  "name": "zeta",
                  "type": "uint256"
                },
                {
                  "internalType": "Scalar.FE",
                  "name": "zeta_omega",
                  "type": "uint256"
                }
              ],
              "internalType": "struct PointEvaluations",
              "name": "rot_selector",
              "type": "tuple"
            },
            {
              "components": [
                {
                  "internalType": "Scalar.FE",
                  "name": "zeta",
                  "type": "uint256"
                },
                {
                  "internalType": "Scalar.FE",
                  "name": "zeta_omega",
                  "type": "uint256"
                }
              ],
              "internalType": "struct PointEvaluations",
              "name": "lookup_aggregation",
              "type": "tuple"
            },
            {
              "components": [
                {
                  "internalType": "Scalar.FE",
                  "name": "zeta",
                  "type": "uint256"
                },
                {
                  "internalType": "Scalar.FE",
                  "name": "zeta_omega",
                  "type": "uint256"
                }
              ],
              "internalType": "struct PointEvaluations",
              "name": "lookup_table",
              "type": "tuple"
            },
            {
              "components": [
                {
                  "internalType": "Scalar.FE",
                  "name": "zeta",
                  "type": "uint256"
                },
                {
                  "internalType": "Scalar.FE",
                  "name": "zeta_omega",
                  "type": "uint256"
                }
              ],
              "internalType": "struct PointEvaluations[5]",
              "name": "lookup_sorted",
              "type": "tuple[5]"
            },
            {
              "components": [
                {
                  "internalType": "Scalar.FE",
                  "name": "zeta",
                  "type": "uint256"
                },
                {
                  "internalType": "Scalar.FE",
                  "name": "zeta_omega",
                  "type": "uint256"
                }
              ],
              "internalType": "struct PointEvaluations",
              "name": "runtime_lookup_table",
              "type": "tuple"
            },
            {
              "components": [
                {
                  "internalType": "Scalar.FE",
                  "name": "zeta",
                  "type": "uint256"
                },
                {
                  "internalType": "Scalar.FE",
                  "name": "zeta_omega",
                  "type": "uint256"
                }
              ],
              "internalType": "struct PointEvaluations",
              "name": "runtime_lookup_table_selector",
              "type": "tuple"
            },
            {
              "components": [
                {
                  "internalType": "Scalar.FE",
                  "name": "zeta",
                  "type": "uint256"
                },
                {
                  "internalType": "Scalar.FE",
                  "name": "zeta_omega",
                  "type": "uint256"
                }
              ],
              "internalType": "struct PointEvaluations",
              "name": "xor_lookup_selector",
              "type": "tuple"
            },
            {
              "components": [
                {
                  "internalType": "Scalar.FE",
                  "name": "zeta",
                  "type": "uint256"
                },
                {
                  "internalType": "Scalar.FE",
                  "name": "zeta_omega",
                  "type": "uint256"
                }
              ],
              "internalType": "struct PointEvaluations",
              "name": "lookup_gate_lookup_selector",
              "type": "tuple"
            },
            {
              "components": [
                {
                  "internalType": "Scalar.FE",
                  "name": "zeta",
                  "type": "uint256"
                },
                {
                  "internalType": "Scalar.FE",
                  "name": "zeta_omega",
                  "type": "uint256"
                }
              ],
              "internalType": "struct PointEvaluations",
              "name": "range_check_lookup_selector",
              "type": "tuple"
            },
            {
              "components": [
                {
                  "internalType": "Scalar.FE",
                  "name": "zeta",
                  "type": "uint256"
                },
                {
                  "internalType": "Scalar.FE",
                  "name": "zeta_omega",
                  "type": "uint256"
                }
              ],
              "internalType": "struct PointEvaluations",
              "name": "foreign_field_mul_lookup_selector",
              "type": "tuple"
            }
          ],
          "internalType": "struct Proof.ProofEvaluations",
          "name": "self",
          "type": "tuple"
        },
        {
          "components": [
            {
              "internalType": "enum ColumnVariant",
              "name": "variant",
              "type": "ColumnVariant"
            },
            {
              "internalType": "bytes",
              "name": "data",
              "type": "bytes"
            }
          ],
          "internalType": "struct Column",
          "name": "col",
          "type": "tuple"
        }
      ],
      "name": "evaluate_column",
      "outputs": [
        {
          "components": [
            {
              "internalType": "Scalar.FE",
              "name": "zeta",
              "type": "uint256"
            },
            {
              "internalType": "Scalar.FE",
              "name": "zeta_omega",
              "type": "uint256"
            }
          ],
          "internalType": "struct PointEvaluations",
          "name": "",
          "type": "tuple"
        }
      ],
      "stateMutability": "view",
      "type": "function"
    },
    {
      "inputs": [
        {
          "components": [
            {
              "components": [
                {
                  "internalType": "enum ColumnVariant",
                  "name": "variant",
                  "type": "ColumnVariant"
                },
                {
                  "internalType": "bytes",
                  "name": "data",
                  "type": "bytes"
                }
              ],
              "internalType": "struct Column",
              "name": "col",
              "type": "tuple"
            },
            {
              "internalType": "enum CurrOrNext",
              "name": "row",
              "type": "CurrOrNext"
            }
          ],
          "internalType": "struct Variable",
          "name": "self",
          "type": "tuple"
        },
        {
          "components": [
            {
              "internalType": "uint256",
              "name": "optional_field_flags",
              "type": "uint256"
            },
            {
              "components": [
                {
                  "internalType": "Scalar.FE",
                  "name": "zeta",
                  "type": "uint256"
                },
                {
                  "internalType": "Scalar.FE",
                  "name": "zeta_omega",
                  "type": "uint256"
                }
              ],
              "internalType": "struct PointEvaluations[15]",
              "name": "w",
              "type": "tuple[15]"
            },
            {
              "components": [
                {
                  "internalType": "Scalar.FE",
                  "name": "zeta",
                  "type": "uint256"
                },
                {
                  "internalType": "Scalar.FE",
                  "name": "zeta_omega",
                  "type": "uint256"
                }
              ],
              "internalType": "struct PointEvaluations",
              "name": "z",
              "type": "tuple"
            },
            {
              "components": [
                {
                  "internalType": "Scalar.FE",
                  "name": "zeta",
                  "type": "uint256"
                },
                {
                  "internalType": "Scalar.FE",
                  "name": "zeta_omega",
                  "type": "uint256"
                }
              ],
              "internalType": "struct PointEvaluations[6]",
              "name": "s",
              "type": "tuple[6]"
            },
            {
              "components": [
                {
                  "internalType": "Scalar.FE",
                  "name": "zeta",
                  "type": "uint256"
                },
                {
                  "internalType": "Scalar.FE",
                  "name": "zeta_omega",
                  "type": "uint256"
                }
              ],
              "internalType": "struct PointEvaluations[15]",
              "name": "coefficients",
              "type": "tuple[15]"
            },
            {
              "components": [
                {
                  "internalType": "Scalar.FE",
                  "name": "zeta",
                  "type": "uint256"
                },
                {
                  "internalType": "Scalar.FE",
                  "name": "zeta_omega",
                  "type": "uint256"
                }
              ],
              "internalType": "struct PointEvaluations",
              "name": "generic_selector",
              "type": "tuple"
            },
            {
              "components": [
                {
                  "internalType": "Scalar.FE",
                  "name": "zeta",
                  "type": "uint256"
                },
                {
                  "internalType": "Scalar.FE",
                  "name": "zeta_omega",
                  "type": "uint256"
                }
              ],
              "internalType": "struct PointEvaluations",
              "name": "poseidon_selector",
              "type": "tuple"
            },
            {
              "components": [
                {
                  "internalType": "Scalar.FE",
                  "name": "zeta",
                  "type": "uint256"
                },
                {
                  "internalType": "Scalar.FE",
                  "name": "zeta_omega",
                  "type": "uint256"
                }
              ],
              "internalType": "struct PointEvaluations",
              "name": "complete_add_selector",
              "type": "tuple"
            },
            {
              "components": [
                {
                  "internalType": "Scalar.FE",
                  "name": "zeta",
                  "type": "uint256"
                },
                {
                  "internalType": "Scalar.FE",
                  "name": "zeta_omega",
                  "type": "uint256"
                }
              ],
              "internalType": "struct PointEvaluations",
              "name": "mul_selector",
              "type": "tuple"
            },
            {
              "components": [
                {
                  "internalType": "Scalar.FE",
                  "name": "zeta",
                  "type": "uint256"
                },
                {
                  "internalType": "Scalar.FE",
                  "name": "zeta_omega",
                  "type": "uint256"
                }
              ],
              "internalType": "struct PointEvaluations",
              "name": "emul_selector",
              "type": "tuple"
            },
            {
              "components": [
                {
                  "internalType": "Scalar.FE",
                  "name": "zeta",
                  "type": "uint256"
                },
                {
                  "internalType": "Scalar.FE",
                  "name": "zeta_omega",
                  "type": "uint256"
                }
              ],
              "internalType": "struct PointEvaluations",
              "name": "endomul_scalar_selector",
              "type": "tuple"
            },
            {
              "components": [
                {
                  "internalType": "Scalar.FE",
                  "name": "zeta",
                  "type": "uint256"
                },
                {
                  "internalType": "Scalar.FE",
                  "name": "zeta_omega",
                  "type": "uint256"
                }
              ],
              "internalType": "struct PointEvaluations",
              "name": "public_evals",
              "type": "tuple"
            },
            {
              "components": [
                {
                  "internalType": "Scalar.FE",
                  "name": "zeta",
                  "type": "uint256"
                },
                {
                  "internalType": "Scalar.FE",
                  "name": "zeta_omega",
                  "type": "uint256"
                }
              ],
              "internalType": "struct PointEvaluations",
              "name": "range_check0_selector",
              "type": "tuple"
            },
            {
              "components": [
                {
                  "internalType": "Scalar.FE",
                  "name": "zeta",
                  "type": "uint256"
                },
                {
                  "internalType": "Scalar.FE",
                  "name": "zeta_omega",
                  "type": "uint256"
                }
              ],
              "internalType": "struct PointEvaluations",
              "name": "range_check1_selector",
              "type": "tuple"
            },
            {
              "components": [
                {
                  "internalType": "Scalar.FE",
                  "name": "zeta",
                  "type": "uint256"
                },
                {
                  "internalType": "Scalar.FE",
                  "name": "zeta_omega",
                  "type": "uint256"
                }
              ],
              "internalType": "struct PointEvaluations",
              "name": "foreign_field_add_selector",
              "type": "tuple"
            },
            {
              "components": [
                {
                  "internalType": "Scalar.FE",
                  "name": "zeta",
                  "type": "uint256"
                },
                {
                  "internalType": "Scalar.FE",
                  "name": "zeta_omega",
                  "type": "uint256"
                }
              ],
              "internalType": "struct PointEvaluations",
              "name": "foreign_field_mul_selector",
              "type": "tuple"
            },
            {
              "components": [
                {
                  "internalType": "Scalar.FE",
                  "name": "zeta",
                  "type": "uint256"
                },
                {
                  "internalType": "Scalar.FE",
                  "name": "zeta_omega",
                  "type": "uint256"
                }
              ],
              "internalType": "struct PointEvaluations",
              "name": "xor_selector",
              "type": "tuple"
            },
            {
              "components": [
                {
                  "internalType": "Scalar.FE",
                  "name": "zeta",
                  "type": "uint256"
                },
                {
                  "internalType": "Scalar.FE",
                  "name": "zeta_omega",
                  "type": "uint256"
                }
              ],
              "internalType": "struct PointEvaluations",
              "name": "rot_selector",
              "type": "tuple"
            },
            {
              "components": [
                {
                  "internalType": "Scalar.FE",
                  "name": "zeta",
                  "type": "uint256"
                },
                {
                  "internalType": "Scalar.FE",
                  "name": "zeta_omega",
                  "type": "uint256"
                }
              ],
              "internalType": "struct PointEvaluations",
              "name": "lookup_aggregation",
              "type": "tuple"
            },
            {
              "components": [
                {
                  "internalType": "Scalar.FE",
                  "name": "zeta",
                  "type": "uint256"
                },
                {
                  "internalType": "Scalar.FE",
                  "name": "zeta_omega",
                  "type": "uint256"
                }
              ],
              "internalType": "struct PointEvaluations",
              "name": "lookup_table",
              "type": "tuple"
            },
            {
              "components": [
                {
                  "internalType": "Scalar.FE",
                  "name": "zeta",
                  "type": "uint256"
                },
                {
                  "internalType": "Scalar.FE",
                  "name": "zeta_omega",
                  "type": "uint256"
                }
              ],
              "internalType": "struct PointEvaluations[5]",
              "name": "lookup_sorted",
              "type": "tuple[5]"
            },
            {
              "components": [
                {
                  "internalType": "Scalar.FE",
                  "name": "zeta",
                  "type": "uint256"
                },
                {
                  "internalType": "Scalar.FE",
                  "name": "zeta_omega",
                  "type": "uint256"
                }
              ],
              "internalType": "struct PointEvaluations",
              "name": "runtime_lookup_table",
              "type": "tuple"
            },
            {
              "components": [
                {
                  "internalType": "Scalar.FE",
                  "name": "zeta",
                  "type": "uint256"
                },
                {
                  "internalType": "Scalar.FE",
                  "name": "zeta_omega",
                  "type": "uint256"
                }
              ],
              "internalType": "struct PointEvaluations",
              "name": "runtime_lookup_table_selector",
              "type": "tuple"
            },
            {
              "components": [
                {
                  "internalType": "Scalar.FE",
                  "name": "zeta",
                  "type": "uint256"
                },
                {
                  "internalType": "Scalar.FE",
                  "name": "zeta_omega",
                  "type": "uint256"
                }
              ],
              "internalType": "struct PointEvaluations",
              "name": "xor_lookup_selector",
              "type": "tuple"
            },
            {
              "components": [
                {
                  "internalType": "Scalar.FE",
                  "name": "zeta",
                  "type": "uint256"
                },
                {
                  "internalType": "Scalar.FE",
                  "name": "zeta_omega",
                  "type": "uint256"
                }
              ],
              "internalType": "struct PointEvaluations",
              "name": "lookup_gate_lookup_selector",
              "type": "tuple"
            },
            {
              "components": [
                {
                  "internalType": "Scalar.FE",
                  "name": "zeta",
                  "type": "uint256"
                },
                {
                  "internalType": "Scalar.FE",
                  "name": "zeta_omega",
                  "type": "uint256"
                }
              ],
              "internalType": "struct PointEvaluations",
              "name": "range_check_lookup_selector",
              "type": "tuple"
            },
            {
              "components": [
                {
                  "internalType": "Scalar.FE",
                  "name": "zeta",
                  "type": "uint256"
                },
                {
                  "internalType": "Scalar.FE",
                  "name": "zeta_omega",
                  "type": "uint256"
                }
              ],
              "internalType": "struct PointEvaluations",
              "name": "foreign_field_mul_lookup_selector",
              "type": "tuple"
            }
          ],
          "internalType": "struct Proof.ProofEvaluations",
          "name": "evals",
          "type": "tuple"
        }
      ],
      "name": "evaluate_variable",
      "outputs": [
        {
          "internalType": "Scalar.FE",
          "name": "",
          "type": "uint256"
        }
      ],
      "stateMutability": "view",
      "type": "function"
    },
    {
      "inputs": [
        {
          "components": [
            {
              "internalType": "uint256",
              "name": "optional_field_flags",
              "type": "uint256"
            },
            {
              "components": [
                {
                  "internalType": "Scalar.FE",
                  "name": "zeta",
                  "type": "uint256"
                },
                {
                  "internalType": "Scalar.FE",
                  "name": "zeta_omega",
                  "type": "uint256"
                }
              ],
              "internalType": "struct PointEvaluations[15]",
              "name": "w",
              "type": "tuple[15]"
            },
            {
              "components": [
                {
                  "internalType": "Scalar.FE",
                  "name": "zeta",
                  "type": "uint256"
                },
                {
                  "internalType": "Scalar.FE",
                  "name": "zeta_omega",
                  "type": "uint256"
                }
              ],
              "internalType": "struct PointEvaluations",
              "name": "z",
              "type": "tuple"
            },
            {
              "components": [
                {
                  "internalType": "Scalar.FE",
                  "name": "zeta",
                  "type": "uint256"
                },
                {
                  "internalType": "Scalar.FE",
                  "name": "zeta_omega",
                  "type": "uint256"
                }
              ],
              "internalType": "struct PointEvaluations[6]",
              "name": "s",
              "type": "tuple[6]"
            },
            {
              "components": [
                {
                  "internalType": "Scalar.FE",
                  "name": "zeta",
                  "type": "uint256"
                },
                {
                  "internalType": "Scalar.FE",
                  "name": "zeta_omega",
                  "type": "uint256"
                }
              ],
              "internalType": "struct PointEvaluations[15]",
              "name": "coefficients",
              "type": "tuple[15]"
            },
            {
              "components": [
                {
                  "internalType": "Scalar.FE",
                  "name": "zeta",
                  "type": "uint256"
                },
                {
                  "internalType": "Scalar.FE",
                  "name": "zeta_omega",
                  "type": "uint256"
                }
              ],
              "internalType": "struct PointEvaluations",
              "name": "generic_selector",
              "type": "tuple"
            },
            {
              "components": [
                {
                  "internalType": "Scalar.FE",
                  "name": "zeta",
                  "type": "uint256"
                },
                {
                  "internalType": "Scalar.FE",
                  "name": "zeta_omega",
                  "type": "uint256"
                }
              ],
              "internalType": "struct PointEvaluations",
              "name": "poseidon_selector",
              "type": "tuple"
            },
            {
              "components": [
                {
                  "internalType": "Scalar.FE",
                  "name": "zeta",
                  "type": "uint256"
                },
                {
                  "internalType": "Scalar.FE",
                  "name": "zeta_omega",
                  "type": "uint256"
                }
              ],
              "internalType": "struct PointEvaluations",
              "name": "complete_add_selector",
              "type": "tuple"
            },
            {
              "components": [
                {
                  "internalType": "Scalar.FE",
                  "name": "zeta",
                  "type": "uint256"
                },
                {
                  "internalType": "Scalar.FE",
                  "name": "zeta_omega",
                  "type": "uint256"
                }
              ],
              "internalType": "struct PointEvaluations",
              "name": "mul_selector",
              "type": "tuple"
            },
            {
              "components": [
                {
                  "internalType": "Scalar.FE",
                  "name": "zeta",
                  "type": "uint256"
                },
                {
                  "internalType": "Scalar.FE",
                  "name": "zeta_omega",
                  "type": "uint256"
                }
              ],
              "internalType": "struct PointEvaluations",
              "name": "emul_selector",
              "type": "tuple"
            },
            {
              "components": [
                {
                  "internalType": "Scalar.FE",
                  "name": "zeta",
                  "type": "uint256"
                },
                {
                  "internalType": "Scalar.FE",
                  "name": "zeta_omega",
                  "type": "uint256"
                }
              ],
              "internalType": "struct PointEvaluations",
              "name": "endomul_scalar_selector",
              "type": "tuple"
            },
            {
              "components": [
                {
                  "internalType": "Scalar.FE",
                  "name": "zeta",
                  "type": "uint256"
                },
                {
                  "internalType": "Scalar.FE",
                  "name": "zeta_omega",
                  "type": "uint256"
                }
              ],
              "internalType": "struct PointEvaluations",
              "name": "public_evals",
              "type": "tuple"
            },
            {
              "components": [
                {
                  "internalType": "Scalar.FE",
                  "name": "zeta",
                  "type": "uint256"
                },
                {
                  "internalType": "Scalar.FE",
                  "name": "zeta_omega",
                  "type": "uint256"
                }
              ],
              "internalType": "struct PointEvaluations",
              "name": "range_check0_selector",
              "type": "tuple"
            },
            {
              "components": [
                {
                  "internalType": "Scalar.FE",
                  "name": "zeta",
                  "type": "uint256"
                },
                {
                  "internalType": "Scalar.FE",
                  "name": "zeta_omega",
                  "type": "uint256"
                }
              ],
              "internalType": "struct PointEvaluations",
              "name": "range_check1_selector",
              "type": "tuple"
            },
            {
              "components": [
                {
                  "internalType": "Scalar.FE",
                  "name": "zeta",
                  "type": "uint256"
                },
                {
                  "internalType": "Scalar.FE",
                  "name": "zeta_omega",
                  "type": "uint256"
                }
              ],
              "internalType": "struct PointEvaluations",
              "name": "foreign_field_add_selector",
              "type": "tuple"
            },
            {
              "components": [
                {
                  "internalType": "Scalar.FE",
                  "name": "zeta",
                  "type": "uint256"
                },
                {
                  "internalType": "Scalar.FE",
                  "name": "zeta_omega",
                  "type": "uint256"
                }
              ],
              "internalType": "struct PointEvaluations",
              "name": "foreign_field_mul_selector",
              "type": "tuple"
            },
            {
              "components": [
                {
                  "internalType": "Scalar.FE",
                  "name": "zeta",
                  "type": "uint256"
                },
                {
                  "internalType": "Scalar.FE",
                  "name": "zeta_omega",
                  "type": "uint256"
                }
              ],
              "internalType": "struct PointEvaluations",
              "name": "xor_selector",
              "type": "tuple"
            },
            {
              "components": [
                {
                  "internalType": "Scalar.FE",
                  "name": "zeta",
                  "type": "uint256"
                },
                {
                  "internalType": "Scalar.FE",
                  "name": "zeta_omega",
                  "type": "uint256"
                }
              ],
              "internalType": "struct PointEvaluations",
              "name": "rot_selector",
              "type": "tuple"
            },
            {
              "components": [
                {
                  "internalType": "Scalar.FE",
                  "name": "zeta",
                  "type": "uint256"
                },
                {
                  "internalType": "Scalar.FE",
                  "name": "zeta_omega",
                  "type": "uint256"
                }
              ],
              "internalType": "struct PointEvaluations",
              "name": "lookup_aggregation",
              "type": "tuple"
            },
            {
              "components": [
                {
                  "internalType": "Scalar.FE",
                  "name": "zeta",
                  "type": "uint256"
                },
                {
                  "internalType": "Scalar.FE",
                  "name": "zeta_omega",
                  "type": "uint256"
                }
              ],
              "internalType": "struct PointEvaluations",
              "name": "lookup_table",
              "type": "tuple"
            },
            {
              "components": [
                {
                  "internalType": "Scalar.FE",
                  "name": "zeta",
                  "type": "uint256"
                },
                {
                  "internalType": "Scalar.FE",
                  "name": "zeta_omega",
                  "type": "uint256"
                }
              ],
              "internalType": "struct PointEvaluations[5]",
              "name": "lookup_sorted",
              "type": "tuple[5]"
            },
            {
              "components": [
                {
                  "internalType": "Scalar.FE",
                  "name": "zeta",
                  "type": "uint256"
                },
                {
                  "internalType": "Scalar.FE",
                  "name": "zeta_omega",
                  "type": "uint256"
                }
              ],
              "internalType": "struct PointEvaluations",
              "name": "runtime_lookup_table",
              "type": "tuple"
            },
            {
              "components": [
                {
                  "internalType": "Scalar.FE",
                  "name": "zeta",
                  "type": "uint256"
                },
                {
                  "internalType": "Scalar.FE",
                  "name": "zeta_omega",
                  "type": "uint256"
                }
              ],
              "internalType": "struct PointEvaluations",
              "name": "runtime_lookup_table_selector",
              "type": "tuple"
            },
            {
              "components": [
                {
                  "internalType": "Scalar.FE",
                  "name": "zeta",
                  "type": "uint256"
                },
                {
                  "internalType": "Scalar.FE",
                  "name": "zeta_omega",
                  "type": "uint256"
                }
              ],
              "internalType": "struct PointEvaluations",
              "name": "xor_lookup_selector",
              "type": "tuple"
            },
            {
              "components": [
                {
                  "internalType": "Scalar.FE",
                  "name": "zeta",
                  "type": "uint256"
                },
                {
                  "internalType": "Scalar.FE",
                  "name": "zeta_omega",
                  "type": "uint256"
                }
              ],
              "internalType": "struct PointEvaluations",
              "name": "lookup_gate_lookup_selector",
              "type": "tuple"
            },
            {
              "components": [
                {
                  "internalType": "Scalar.FE",
                  "name": "zeta",
                  "type": "uint256"
                },
                {
                  "internalType": "Scalar.FE",
                  "name": "zeta_omega",
                  "type": "uint256"
                }
              ],
              "internalType": "struct PointEvaluations",
              "name": "range_check_lookup_selector",
              "type": "tuple"
            },
            {
              "components": [
                {
                  "internalType": "Scalar.FE",
                  "name": "zeta",
                  "type": "uint256"
                },
                {
                  "internalType": "Scalar.FE",
                  "name": "zeta_omega",
                  "type": "uint256"
                }
              ],
              "internalType": "struct PointEvaluations",
              "name": "foreign_field_mul_lookup_selector",
              "type": "tuple"
            }
          ],
          "internalType": "struct Proof.ProofEvaluations",
          "name": "evals",
          "type": "tuple"
        },
        {
          "components": [
            {
              "internalType": "enum ColumnVariant",
              "name": "variant",
              "type": "ColumnVariant"
            },
            {
              "internalType": "bytes",
              "name": "data",
              "type": "bytes"
            }
          ],
          "internalType": "struct Column",
          "name": "col",
          "type": "tuple"
        }
      ],
      "name": "get_column_eval",
      "outputs": [
        {
          "components": [
            {
              "internalType": "Scalar.FE",
              "name": "zeta",
              "type": "uint256"
            },
            {
              "internalType": "Scalar.FE",
              "name": "zeta_omega",
              "type": "uint256"
            }
          ],
          "internalType": "struct PointEvaluations",
          "name": "",
          "type": "tuple"
        }
      ],
      "stateMutability": "pure",
      "type": "function"
    },
    {
      "inputs": [
        {
          "components": [
            {
              "internalType": "uint256",
              "name": "optional_field_flags",
              "type": "uint256"
            },
            {
              "components": [
                {
                  "internalType": "uint256",
                  "name": "x",
                  "type": "uint256"
                },
                {
                  "internalType": "uint256",
                  "name": "y",
                  "type": "uint256"
                }
              ],
              "internalType": "struct BN254.G1Point[15]",
              "name": "w_comm",
              "type": "tuple[15]"
            },
            {
              "components": [
                {
                  "internalType": "uint256",
                  "name": "x",
                  "type": "uint256"
                },
                {
                  "internalType": "uint256",
                  "name": "y",
                  "type": "uint256"
                }
              ],
              "internalType": "struct BN254.G1Point",
              "name": "z_comm",
              "type": "tuple"
            },
            {
              "components": [
                {
                  "internalType": "uint256",
                  "name": "x",
                  "type": "uint256"
                },
                {
                  "internalType": "uint256",
                  "name": "y",
                  "type": "uint256"
                }
              ],
              "internalType": "struct BN254.G1Point[7]",
              "name": "t_comm",
              "type": "tuple[7]"
            },
            {
              "components": [
                {
                  "internalType": "uint256",
                  "name": "x",
                  "type": "uint256"
                },
                {
                  "internalType": "uint256",
                  "name": "y",
                  "type": "uint256"
                }
              ],
              "internalType": "struct BN254.G1Point[]",
              "name": "lookup_sorted",
              "type": "tuple[]"
            },
            {
              "components": [
                {
                  "internalType": "uint256",
                  "name": "x",
                  "type": "uint256"
                },
                {
                  "internalType": "uint256",
                  "name": "y",
                  "type": "uint256"
                }
              ],
              "internalType": "struct BN254.G1Point",
              "name": "lookup_aggreg",
              "type": "tuple"
            },
            {
              "components": [
                {
                  "internalType": "uint256",
                  "name": "x",
                  "type": "uint256"
                },
                {
                  "internalType": "uint256",
                  "name": "y",
                  "type": "uint256"
                }
              ],
              "internalType": "struct BN254.G1Point",
              "name": "lookup_runtime",
              "type": "tuple"
            }
          ],
          "internalType": "struct Proof.ProverCommitments",
          "name": "self",
          "type": "tuple"
        },
        {
          "internalType": "uint256",
          "name": "flag_pos",
          "type": "uint256"
        }
      ],
      "name": "is_field_set",
      "outputs": [
        {
          "internalType": "bool",
          "name": "",
          "type": "bool"
        }
      ],
      "stateMutability": "pure",
      "type": "function"
    },
    {
      "inputs": [
        {
          "components": [
            {
              "internalType": "uint256",
              "name": "optional_field_flags",
              "type": "uint256"
            },
            {
              "components": [
                {
                  "internalType": "Scalar.FE",
                  "name": "zeta",
                  "type": "uint256"
                },
                {
                  "internalType": "Scalar.FE",
                  "name": "zeta_omega",
                  "type": "uint256"
                }
              ],
              "internalType": "struct PointEvaluations[15]",
              "name": "w",
              "type": "tuple[15]"
            },
            {
              "components": [
                {
                  "internalType": "Scalar.FE",
                  "name": "zeta",
                  "type": "uint256"
                },
                {
                  "internalType": "Scalar.FE",
                  "name": "zeta_omega",
                  "type": "uint256"
                }
              ],
              "internalType": "struct PointEvaluations",
              "name": "z",
              "type": "tuple"
            },
            {
              "components": [
                {
                  "internalType": "Scalar.FE",
                  "name": "zeta",
                  "type": "uint256"
                },
                {
                  "internalType": "Scalar.FE",
                  "name": "zeta_omega",
                  "type": "uint256"
                }
              ],
              "internalType": "struct PointEvaluations[6]",
              "name": "s",
              "type": "tuple[6]"
            },
            {
              "components": [
                {
                  "internalType": "Scalar.FE",
                  "name": "zeta",
                  "type": "uint256"
                },
                {
                  "internalType": "Scalar.FE",
                  "name": "zeta_omega",
                  "type": "uint256"
                }
              ],
              "internalType": "struct PointEvaluations[15]",
              "name": "coefficients",
              "type": "tuple[15]"
            },
            {
              "components": [
                {
                  "internalType": "Scalar.FE",
                  "name": "zeta",
                  "type": "uint256"
                },
                {
                  "internalType": "Scalar.FE",
                  "name": "zeta_omega",
                  "type": "uint256"
                }
              ],
              "internalType": "struct PointEvaluations",
              "name": "generic_selector",
              "type": "tuple"
            },
            {
              "components": [
                {
                  "internalType": "Scalar.FE",
                  "name": "zeta",
                  "type": "uint256"
                },
                {
                  "internalType": "Scalar.FE",
                  "name": "zeta_omega",
                  "type": "uint256"
                }
              ],
              "internalType": "struct PointEvaluations",
              "name": "poseidon_selector",
              "type": "tuple"
            },
            {
              "components": [
                {
                  "internalType": "Scalar.FE",
                  "name": "zeta",
                  "type": "uint256"
                },
                {
                  "internalType": "Scalar.FE",
                  "name": "zeta_omega",
                  "type": "uint256"
                }
              ],
              "internalType": "struct PointEvaluations",
              "name": "complete_add_selector",
              "type": "tuple"
            },
            {
              "components": [
                {
                  "internalType": "Scalar.FE",
                  "name": "zeta",
                  "type": "uint256"
                },
                {
                  "internalType": "Scalar.FE",
                  "name": "zeta_omega",
                  "type": "uint256"
                }
              ],
              "internalType": "struct PointEvaluations",
              "name": "mul_selector",
              "type": "tuple"
            },
            {
              "components": [
                {
                  "internalType": "Scalar.FE",
                  "name": "zeta",
                  "type": "uint256"
                },
                {
                  "internalType": "Scalar.FE",
                  "name": "zeta_omega",
                  "type": "uint256"
                }
              ],
              "internalType": "struct PointEvaluations",
              "name": "emul_selector",
              "type": "tuple"
            },
            {
              "components": [
                {
                  "internalType": "Scalar.FE",
                  "name": "zeta",
                  "type": "uint256"
                },
                {
                  "internalType": "Scalar.FE",
                  "name": "zeta_omega",
                  "type": "uint256"
                }
              ],
              "internalType": "struct PointEvaluations",
              "name": "endomul_scalar_selector",
              "type": "tuple"
            },
            {
              "components": [
                {
                  "internalType": "Scalar.FE",
                  "name": "zeta",
                  "type": "uint256"
                },
                {
                  "internalType": "Scalar.FE",
                  "name": "zeta_omega",
                  "type": "uint256"
                }
              ],
              "internalType": "struct PointEvaluations",
              "name": "public_evals",
              "type": "tuple"
            },
            {
              "components": [
                {
                  "internalType": "Scalar.FE",
                  "name": "zeta",
                  "type": "uint256"
                },
                {
                  "internalType": "Scalar.FE",
                  "name": "zeta_omega",
                  "type": "uint256"
                }
              ],
              "internalType": "struct PointEvaluations",
              "name": "range_check0_selector",
              "type": "tuple"
            },
            {
              "components": [
                {
                  "internalType": "Scalar.FE",
                  "name": "zeta",
                  "type": "uint256"
                },
                {
                  "internalType": "Scalar.FE",
                  "name": "zeta_omega",
                  "type": "uint256"
                }
              ],
              "internalType": "struct PointEvaluations",
              "name": "range_check1_selector",
              "type": "tuple"
            },
            {
              "components": [
                {
                  "internalType": "Scalar.FE",
                  "name": "zeta",
                  "type": "uint256"
                },
                {
                  "internalType": "Scalar.FE",
                  "name": "zeta_omega",
                  "type": "uint256"
                }
              ],
              "internalType": "struct PointEvaluations",
              "name": "foreign_field_add_selector",
              "type": "tuple"
            },
            {
              "components": [
                {
                  "internalType": "Scalar.FE",
                  "name": "zeta",
                  "type": "uint256"
                },
                {
                  "internalType": "Scalar.FE",
                  "name": "zeta_omega",
                  "type": "uint256"
                }
              ],
              "internalType": "struct PointEvaluations",
              "name": "foreign_field_mul_selector",
              "type": "tuple"
            },
            {
              "components": [
                {
                  "internalType": "Scalar.FE",
                  "name": "zeta",
                  "type": "uint256"
                },
                {
                  "internalType": "Scalar.FE",
                  "name": "zeta_omega",
                  "type": "uint256"
                }
              ],
              "internalType": "struct PointEvaluations",
              "name": "xor_selector",
              "type": "tuple"
            },
            {
              "components": [
                {
                  "internalType": "Scalar.FE",
                  "name": "zeta",
                  "type": "uint256"
                },
                {
                  "internalType": "Scalar.FE",
                  "name": "zeta_omega",
                  "type": "uint256"
                }
              ],
              "internalType": "struct PointEvaluations",
              "name": "rot_selector",
              "type": "tuple"
            },
            {
              "components": [
                {
                  "internalType": "Scalar.FE",
                  "name": "zeta",
                  "type": "uint256"
                },
                {
                  "internalType": "Scalar.FE",
                  "name": "zeta_omega",
                  "type": "uint256"
                }
              ],
              "internalType": "struct PointEvaluations",
              "name": "lookup_aggregation",
              "type": "tuple"
            },
            {
              "components": [
                {
                  "internalType": "Scalar.FE",
                  "name": "zeta",
                  "type": "uint256"
                },
                {
                  "internalType": "Scalar.FE",
                  "name": "zeta_omega",
                  "type": "uint256"
                }
              ],
              "internalType": "struct PointEvaluations",
              "name": "lookup_table",
              "type": "tuple"
            },
            {
              "components": [
                {
                  "internalType": "Scalar.FE",
                  "name": "zeta",
                  "type": "uint256"
                },
                {
                  "internalType": "Scalar.FE",
                  "name": "zeta_omega",
                  "type": "uint256"
                }
              ],
              "internalType": "struct PointEvaluations[5]",
              "name": "lookup_sorted",
              "type": "tuple[5]"
            },
            {
              "components": [
                {
                  "internalType": "Scalar.FE",
                  "name": "zeta",
                  "type": "uint256"
                },
                {
                  "internalType": "Scalar.FE",
                  "name": "zeta_omega",
                  "type": "uint256"
                }
              ],
              "internalType": "struct PointEvaluations",
              "name": "runtime_lookup_table",
              "type": "tuple"
            },
            {
              "components": [
                {
                  "internalType": "Scalar.FE",
                  "name": "zeta",
                  "type": "uint256"
                },
                {
                  "internalType": "Scalar.FE",
                  "name": "zeta_omega",
                  "type": "uint256"
                }
              ],
              "internalType": "struct PointEvaluations",
              "name": "runtime_lookup_table_selector",
              "type": "tuple"
            },
            {
              "components": [
                {
                  "internalType": "Scalar.FE",
                  "name": "zeta",
                  "type": "uint256"
                },
                {
                  "internalType": "Scalar.FE",
                  "name": "zeta_omega",
                  "type": "uint256"
                }
              ],
              "internalType": "struct PointEvaluations",
              "name": "xor_lookup_selector",
              "type": "tuple"
            },
            {
              "components": [
                {
                  "internalType": "Scalar.FE",
                  "name": "zeta",
                  "type": "uint256"
                },
                {
                  "internalType": "Scalar.FE",
                  "name": "zeta_omega",
                  "type": "uint256"
                }
              ],
              "internalType": "struct PointEvaluations",
              "name": "lookup_gate_lookup_selector",
              "type": "tuple"
            },
            {
              "components": [
                {
                  "internalType": "Scalar.FE",
                  "name": "zeta",
                  "type": "uint256"
                },
                {
                  "internalType": "Scalar.FE",
                  "name": "zeta_omega",
                  "type": "uint256"
                }
              ],
              "internalType": "struct PointEvaluations",
              "name": "range_check_lookup_selector",
              "type": "tuple"
            },
            {
              "components": [
                {
                  "internalType": "Scalar.FE",
                  "name": "zeta",
                  "type": "uint256"
                },
                {
                  "internalType": "Scalar.FE",
                  "name": "zeta_omega",
                  "type": "uint256"
                }
              ],
              "internalType": "struct PointEvaluations",
              "name": "foreign_field_mul_lookup_selector",
              "type": "tuple"
            }
          ],
          "internalType": "struct Proof.ProofEvaluations",
          "name": "self",
          "type": "tuple"
        },
        {
          "internalType": "uint256",
          "name": "flag_pos",
          "type": "uint256"
        }
      ],
      "name": "is_field_set",
      "outputs": [
        {
          "internalType": "bool",
          "name": "",
          "type": "bool"
        }
      ],
      "stateMutability": "pure",
      "type": "function"
    }
  ],
  "bytecode": "0x60806040523461001e5760405161293861002482393081505061293890f35b600080fdfe6080604052600436101561001257600080fd5b60003560e01c806352caf59e1461007257806377d3d1ca1461006d5780638b316c2e14610068578063c26eae9f14610063578063c53a5dbb1461005e5763ed802845036100d257610b83565b610b35565b610916565b6108ed565b6106a5565b6105dd565b634e487b7160e01b600052604160045260246000fd5b90601f01601f191681019081106001600160401b038211176100ae57604052565b610077565b906100c76100c060405190565b928361008d565b565b805b036100d257565b600080fd5b905035906100c7826100c9565b6001600160401b0381116100ae5760200290565b9190916040818403126100d25761012d61011260406100b3565b93600061011f82856100d7565b9086015260208093016100d7565b90830152565b90929192610148610143826100e4565b6100b3565b9360408592028301928184116100d257915b8383106101675750505050565b602060409161017684866100f8565b81520192019161015a565b9080601f830112156100d25761019991600f90610133565b90565b909291926101ac610143826100e4565b9360408592028301928184116100d257915b8383106101cb5750505050565b60206040916101da84866100f8565b8152019201916101be565b9080601f830112156100d2576101999160069061019c565b9092919261020d610143826100e4565b9360408592028301928184116100d257915b83831061022c5750505050565b602060409161023b84866100f8565b81520192019161021f565b9080601f830112156100d257610199916005906101fd565b9190610fe0838203126100d2576104809061027a6103606100b3565b93600061028783836100d7565b90860152602061029983828401610181565b908601526102ab826103e083016100f8565b60408601526102be8261042083016101e5565b60608601526102d1826105a08301610181565b60808601526102e48261096083016100f8565b60a08601526102f7826109a083016100f8565b60c086015261030a826109e083016100f8565b60e086015261031d82610a2083016100f8565b61010086015261033182610a6083016100f8565b61012086015261034582610aa083016100f8565b61014086015261035982610ae083016100f8565b61016086015261036d82610b2083016100f8565b61018086015261038182610b6083016100f8565b6101a086015261039582610ba083016100f8565b6101c08601526103a982610be083016100f8565b6101e08601526103bd82610c2083016100f8565b6102008601526103d182610c6083016100f8565b6102208601526103e582610ca083016100f8565b6102408601526103f982610ce083016100f8565b61026086015261040d82610d208301610246565b61028086015261042182610e6083016100f8565b6102a086015261043582610ea083016100f8565b6102c086015261044982610ee083016100f8565b6102e086015261045d82610f2083016100f8565b61030086015261047182610f6083016100f8565b610320860152610fa0016100f8565b610340830152565b600b11156100d257565b905035906100c782610488565b6001600160401b0381116100ae57602090601f01601f19160190565b90826000939282370152565b909291926104d76101438261049f565b938185526020850190828401116100d2576100c7926104bb565b9080601f830112156100d257816020610199933591016104c7565b9190916040818403126100d25761052360406100b3565b9260006105308284610492565b9085015260208201356001600160401b0381116100d25761055192016104f1565b6020830152565b919091611000818403126100d257610570838261025e565b92610fe08201356001600160401b0381116100d257610199920161050c565b6101996101996101999290565b6105a59061058f565b9052565b906020806100c7936105c36000820151600086019061059c565b015191019061059c565b6040810192916100c791906105a9565b6106006105f46105ee366004610558565b90610d94565b604051918291826105cd565b0390f35b600211156100d257565b905035906100c782610604565b9190916040818403126100d25761063260406100b3565b928135906001600160401b0382116100d2576106538161012d93850161050c565b8552602092830161060e565b9190611000838203126100d2578235906001600160401b0382116100d25761068c8161019993860161061b565b9360200161025e565b6020810192916100c7919061059c565b6106006106bc6106b636600461065f565b9061187b565b60405191829182610695565b909291926106d8610143826100e4565b9360408592028301928184116100d257915b8383106106f75750505050565b602060409161070684866100f8565b8152019201916106ea565b9080601f830112156100d25761019991600f906106c8565b90929192610739610143826100e4565b9360408592028301928184116100d257915b8383106107585750505050565b602060409161076784866100f8565b81520192019161074b565b9080601f830112156100d25761019991600790610729565b6001600160401b0381116100ae5760208091020190565b909291926107b16101438261078a565b9381855260406020860192028301928184116100d257915b8383106107d65750505050565b60206040916107e584866100f8565b8152019201916107c9565b9080601f830112156100d257816020610199933591016107a1565b919091610680818403126100d25761082360e06100b3565b92600061083082846100d7565b90850152602061084282828501610711565b90850152610854816103e084016100f8565b6040850152610867816104208401610772565b60608501526105e0820135916001600160401b0383116100d257610890826108b19483016107f0565b60808601526108a38261060083016100f8565b60a0860152610640016100f8565b60c0830152565b91906040838203126100d2578235906001600160401b0382116100d2576108e48161019993860161080b565b936020016100d7565b6106006109046108fe3660046108b8565b90612571565b60405191829182901515815260200190565b6106006105f4610927366004610558565b9061192a565b9190916060818403126100d25761094460406100b3565b928135906001600160401b0382116100d2576109658161012d9385016107f0565b855260209283016100f8565b9291906109806101438261078a565b93818552602080860192028101918383116100d25781905b8382106109a6575050505050565b81356001600160401b0381116100d2576020916109c6878493870161092d565b815201910190610998565b9080601f830112156100d25781602061019993359101610971565b8015156100cb565b905035906100c7826109ec565b610100818303126100d25780356001600160401b0381116100d25782610a289183016109d1565b92610a3683602084016100d7565b92610a4481604085016100d7565b92610a5282606083016109f4565b9260808201356001600160401b0381116100d257610a758461019992850161092d565b93610a838160a086016109f4565b9360c0016100f8565b90610aac610aa5610a9b845190565b8084529260200190565b9260200190565b9060005b818110610abd5750505090565b909192610ae6610adf6001928651805182526020908101519082015260400190565b9460200190565b929101610ab0565b9061019990602080610b0f6060840160008701518582036000870152610a8c565b94015191019080518252602090810151910152565b602080825261019992910190610aee565b610600610b52610b46366004610a01565b95949094939193611f5c565b60405191829182610b24565b9190611000838203126100d25761019990610b79818561025e565b93610fe0016100d7565b6106006109046108fe366004610b5e565b61019960406100b3565b610ba6610b94565b906000825260006020830152565b905250565b610199610b9e565b634e487b7160e01b600052602160045260246000fd5b600b1115610be157565b610bc1565b906100c782610bd7565b6101999051610be6565b905051906100c7826100c9565b906020828203126100d25761019991610bfa565b634e487b7160e01b600052603260045260246000fd5b90600f5b811015610c43576020020190565b610c1b565b610199600961058f565b634e487b7160e01b600052601160045260246000fd5b91908201809211610c7557565b610c52565b906005610c35565b610199600761058f565b610199600861058f565b610199600e61058f565b601211156100d257565b905051906100c782610ca0565b906020828203126100d25761019991610caa565b60121115610be157565b906100c782610ccb565b610199600161058f565b610199600261058f565b610199600361058f565b610199600461058f565b610199600561058f565b610199600661058f565b906006610c35565b600411156100d257565b905051906100c782610d23565b906020828203126100d25761019991610d2d565b60041115610be157565b906100c782610d4e565b610199601061058f565b610199601161058f565b610199601261058f565b610199601361058f565b610199600f61058f565b610d9c610bb9565b50610da682610bf0565b91600092610dbc610db685610be6565b91610be6565b146118445782810190610dce82610bf0565b93600194610dde610db687610be6565b1461183857610dec83610bf0565b600290610dfb610db683610be6565b146117bf57610e0984610bf0565b90600391610e19610db684610be6565b1461175b57610e2785610bf0565b96600497610e37610db68a610be6565b146116f757610e4586610bf0565b610e52610db66007610be6565b1461168b57610e6086610bf0565b610e6d610db66008610be6565b1461125e575b610e7c86610bf0565b610e89610db6600a610be6565b1461123757610e9786610bf0565b610ea4610db66009610be6565b1461120557610eb286610bf0565b610ebf610db66005610be6565b14610fb6575b50610ed5949350610bf092505050565b610ee2610db66006610be6565b14610f3d57610f3982610ef460405190565b62461bcd60e51b8152918291820160208082526018908201527f756e68616e646c656420636f6c756d6e2076617269616e740000000000000000604082015260600190565b0390fd5b90610f56610f52610f4c610d8a565b84612571565b1590565b610f6357506102c0015190565b610f3990610f7060405190565b631ea49e6560e01b815291829182016020808252601d908201527f72756e74696d655f6c6f6f6b75705f7461626c655f73656c6563746f72000000604082015260600190565b610fdc610fd660208701516020610fcb825190565b818301019101610d3a565b94610d58565b610fe585610d58565b1461119a57610ff390610d58565b610ffc84610d58565b146111265761100a90610d58565b61101383610d58565b146110b35761102461102a91610d58565b91610d58565b146110385738808080610ec5565b505090611049610f52610f4c610d80565b6110565750610340015190565b610f399061106360405190565b631ea49e6560e01b8152918291820160208082526021908201527f666f726569676e5f6669656c645f6d756c5f6c6f6f6b75705f73656c6563746f6040820152603960f91b606082015260800190565b50505050906110c6610f52610f4c610d76565b6110d35750610320015190565b610f39906110e060405190565b631ea49e6560e01b815291829182016020808252601b908201527f72616e67655f636865636b5f6c6f6f6b75705f73656c6563746f720000000000604082015260600190565b50505050509061113a610f52610f4c610d6c565b6111475750610300015190565b610f399061115460405190565b631ea49e6560e01b815291829182016020808252601b908201527f6c6f6f6b75705f676174655f6c6f6f6b75705f73656c6563746f720000000000604082015260600190565b505050505050906111af610f52610f4c610d62565b6111bc57506102e0015190565b610f39906111c960405190565b631ea49e6560e01b815291829182016020808252601390820152723c37b92fb637b7b5bab82fb9b2b632b1ba37b960691b604082015260600190565b50505050602090810151805161123395506080935061122b92905b818301019101610c07565b910151610c31565b5190565b5050505060209081015180516112339550606093506112569290611220565b910151610d1b565b61127b60208601516020611270825190565b818301019101610cb7565b61128483610cd5565b61128d82610cd5565b1461167b5761129b82610cd5565b6112a482610cd5565b1461166b576112b284610cd5565b6112bb82610cd5565b1461165b576112c989610cd5565b6112d282610cd5565b1461164a576112e16005610cd5565b6112ea82610cd5565b14611639576112f96006610cd5565b61130282610cd5565b1461162857611311600c610cd5565b61131a82610cd5565b146115ba57611329600d610cd5565b61133282610cd5565b1461154c57611341600e610cd5565b61134a82610cd5565b146114d657611359600f610cd5565b61136282610cd5565b14611460576113716010610cd5565b61137a82610cd5565b146113fb5761139261138c6011610cd5565b91610cd5565b03610e7357505050505050906113ac610f52610f4c610d11565b6113b95750610220015190565b610f39906113c660405190565b631ea49e6560e01b815291829182016020808252600c908201526b3937ba2fb9b2b632b1ba37b960a11b604082015260600190565b5050505050505090611411610f52610f4c610d07565b61141e5750610200015190565b610f399061142b60405190565b631ea49e6560e01b815291829182016020808252600c908201526b3c37b92fb9b2b632b1ba37b960a11b604082015260600190565b5050505050505090611476610f52610f4c610cfd565b61148357506101e0015190565b610f399061149060405190565b631ea49e6560e01b815291829182016020808252601a908201527f666f726569676e5f6669656c645f6d756c5f73656c6563746f72000000000000604082015260600190565b50505050505050906114ec610f52610f4c610cf3565b6114f957506101c0015190565b610f399061150660405190565b631ea49e6560e01b815291829182016020808252601a908201527f666f726569676e5f6669656c645f6164645f73656c6563746f72000000000000604082015260600190565b5050505050505090611562610f52610f4c610ce9565b61156f57506101a0015190565b610f399061157c60405190565b631ea49e6560e01b815291829182016020808252601590820152743930b733b2afb1b432b1b598afb9b2b632b1ba37b960591b604082015260600190565b50505050505050906115d0610f52610f4c610cdf565b6115dd5750610180015190565b610f39906115ea60405190565b631ea49e6560e01b815291829182016020808252601590820152743930b733b2afb1b432b1b5982fb9b2b632b1ba37b960591b604082015260600190565b505050505050506101409150015190565b505050505050506101209150015190565b505050505050506101009150015190565b5050505050505060e09150015190565b5050505050505060a09150015190565b5050505050505060c09150015190565b505050505050906116a0610f52610f4c610c96565b6116ad57506102a0015190565b610f39906116ba60405190565b631ea49e6560e01b8152918291820160208082526014908201527372756e74696d655f6c6f6f6b75705f7461626c6560601b604082015260600190565b5050505050509061170c610f52610f4c610c8c565b6117195750610260015190565b610f399061172660405190565b631ea49e6560e01b815291829182016020808252600c908201526b6c6f6f6b75705f7461626c6560a01b604082015260600190565b505050505080915050611778610f52611772610c82565b83612571565b61178457610240015190565b604051631ea49e6560e01b81526020600482015260126024820152713637b7b5bab82fb0b3b3b932b3b0ba34b7b760711b6044820152606490fd5b50506117d79293506020915001516020611220825190565b6117ee610f52610f4c836117e9610c48565b610c68565b611802576102808261123393500151610c7a565b604051631ea49e6560e01b815260206004820152600d60248201526c1b1bdbdadd5c17dcdbdc9d1959609a1b6044820152606490fd5b50505060409150015190565b611233925061122b602082819350015182611220825190565b60021115610be157565b906100c78261185d565b6101999051611867565b90602061189661189d9261188d600090565b50845190610d94565b9201611871565b6000906118b26118ac83611867565b91611867565b146118bf57506020015190565b015190565b61019990610be6565b6105a5906118c4565b6020810192916100c791906118cd565b61019990610cd5565b6105a5906118e6565b6020810192916100c791906118ef565b61019990610d58565b6105a590611908565b6020810192916100c79190611911565b90611933610bb9565b50602061193f82610bf0565b9101519060009061194f82610be6565b61195882610be6565b0361197457505090602061122b83611233945082611220825190565b600161197f81610be6565b61198883610be6565b0361199b57505050508060409150015190565b6002906119a782610be6565b6119b084610be6565b036119d85750505050906102806119d08361123394506020611220825190565b910151610c7a565b929391926003926119e884610be6565b6119f186610be6565b03611a0757505050505050806102409150015190565b600494611a1386610be6565b611a1c82610be6565b03611a335750505050505050806102609150015190565b6005611a3e81610be6565b611a4783610be6565b03611b0d5750508051611a6691611a6091602090610fcb565b95610d58565b611a6f86610d58565b03611a84575050505050806102e09150015190565b611a8d90610d58565b611a9685610d58565b03611aaa5750505050806103009150015190565b611ab390610d58565b611abc84610d58565b03611acc57505050610320015190565b611ad590610d58565b611ade83610d58565b03611aed575050610340015190565b610f39611af960405190565b63e96f2d4f60e01b8152928392830161191a565b92965060069492939190611b2086610be6565b611b2982610be6565b03611b41575050505050505050806102c09150015190565b611b4b6008610be6565b611b5482610be6565b03611d3057508051611b7291611b6c91602090611270565b96610cd5565b611b7b87610cd5565b03611b90575050505050508060a09150015190565b611b9990610cd5565b611ba286610cd5565b03611bb65750505050508060c09150015190565b611bbf90610cd5565b611bc885610cd5565b03611bdb57505050508060e09150015190565b611be483610cd5565b611bed85610cd5565b03611c015750505050806101009150015190565b611c0a90610cd5565b611c1384610cd5565b03611c2357505050610120015190565b611c2c90610cd5565b611c3583610cd5565b03611c44575050610140015190565b611c4e600c610cd5565b611c5783610cd5565b03611c66575050610180015190565b611c70600d610cd5565b611c7983610cd5565b03611c885750506101a0015190565b611c92600e610cd5565b611c9b83610cd5565b03611caa5750506101c0015190565b611cb4600f610cd5565b611cbd83610cd5565b03611ccc5750506101e0015190565b611cd66010610cd5565b611cdf83610cd5565b03611cee575050610200015190565b611cf86011610cd5565b611d0183610cd5565b03611d10575050610220015190565b610f39611d1c60405190565b632ea16beb60e11b815292839283016118f8565b9594509550505050611d426009610be6565b611d4b83610be6565b03611d6857505090608061122b8361123394506020611220825190565b611d72600a610be6565b611d7b83610be6565b03611d985750509060606112568361123394506020611220825190565b610f39611da460405190565b630d69ed1560e21b815292839283016118d6565b611dc0610b94565b90606082526020808301610bb4610bb9565b610199611db8565b15611de157565b60405162461bcd60e51b815260206004820152601c60248201527f636f6c756d6e20636f6d6d69746d656e74732061726520656d707479000000006044820152606490fd5b611e336101996101999290565b60ff1690565b6101996101996101999260ff1690565b6040513d6000823e3d90fd5b90611e626101438361078a565b918252565b369037565b906100c7611e82611e7c84611e55565b9361078a565b601f190160208401611e67565b60005b828110611e9e57505050565b602090611ea9611dd2565b8184015201611e92565b906100c7611ec3611e7c84611e55565b601f190160208401611e8f565b90611ed9825190565b811015610c43576020809102010190565b6000198114610c755760010190565b9160206100c7929493611f146040820196600083019061059c565b019061059c565b60005b828110611f2a57505050565b602090611f35610bb9565b8184015201611f1e565b906100c7611f4f611e7c84611e55565b601f190160208401611f1b565b6120079592919796939497611f6f611dd2565b50815190611f90600092611f89611f858561058f565b9190565b1415611dda565b611fd5611fbf611f9e855190565b60008a156122715750611fb9611fb46001611e26565b611e39565b90610c68565b600087156122715750611fb9611fb46001611e26565b9473__$0f2ef74df25658b59f87c747afcc439be9$__9460208663901717d190611ffe60405190565b9c8d9260e01b90565b825260049082905af4988915612244576120399a60009a612251575b50896120506120318a611e6c565b9c8d9a611eb3565b9b61204d6120468961058f565b809c611ed0565b52565b61205a8988611ed0565b516120658a8d611ed0565b52612070898c611ed0565b50600196879161208a6120828461058f565b9b8c90610c68565b998b935b61217d575b505050509b87918b8e6101999e9f50612142575b505050506120bb575b50505050505061227e565b6121389561211b916120d19061204d878c611ed0565b6120da86611f3f565b906120ed6120e78561058f565b83611ed0565b526121006120fa8461058f565b82611ed0565b5061055161210c6125ab565b91612115610b94565b94850152565b6121258387611ed0565b526121308286611ed0565b515050610c68565b38808080806120b0565b8161204d8a61215893612173989c969550611ed0565b612162828c611ed0565b5261216d818b611ed0565b50610c68565b938538808b6120a7565b8251939a938b10156122495760206121ab63c8a4ac9c6121b68b6121a060405190565b968794859460e01b90565b845260048401611ef9565b0381845af4938415612244578f928f828f918f948f99916121f9612210976121f361216d9561220a99600091612216575b5061204d86829e611ed0565b8b611ed0565b516122048383611ed0565b52611ed0565b9b611eea565b9361208e565b612237915060203d811161223d575b61222f818361008d565b810190610c07565b386121e7565b503d612225565b611e49565b839a50612093565b61226a919a5060203d811161223d5761222f818361008d565b9838612023565b611fb990611fb490611e26565b9190612288611dd2565b50825160009061229a611f858361058f565b1480156124c3575b6124965783516122b6611f85610199855190565b03612484578351916122c78261058f565b92835b6122d5610199885190565b811015612312576122f1846122ea838a611ed0565b5101515190565b808610612308575b5061230390611eea565b6122ca565b94506123036122f9565b509391909361232084611f3f565b9061232a8361058f565b935b855b85101561246d5761233e8461058f565b95865b8381101561238257612357866122ea838d611ed0565b871061236c575b61236790611eea565b612341565b966123679061237a90611eea565b97905061235e565b5097909493929695919661239e61239884611f3f565b93611e6c565b956123a88561058f565b998a5b8a81101561242c576123c1876122ea8388611ed0565b88106123d6575b6123d190611eea565b6123ab565b9a6124248161241f8b8f838f6112338f938f928f8f9b612413916121f961204d996123d19f9861240b888b6124199c50611ed0565b510151611ed0565b50611ed0565b92611ed0565b611eea565b9b90506123c8565b509661232e939a506124489061246393969792959a999a6124e5565b6124528287611ed0565b5261245d8186611ed0565b50611eea565b949591905061232c565b96505091509250610199915061055161210c6125ab565b60405163d4771fbb60e01b8152600490fd5b919250506101996124af6124aa600161058f565b611f3f565b6124b76125ab565b6120ed6120e78561058f565b5081516124d2611f858361058f565b146122a2565b8015610c75576000190190565b9190916124f0610bb9565b506125016124fc825190565b611e6c565b9161250a825190565b612514600061058f565b81111561254e57612524906124d8565b916125488361204d61254161253c611233848b611ed0565b61058f565b9187611ed0565b9161250a565b5092509061019991612625565b6101999061256c611f856101999490565b901c90565b90612589600061258e93612583600090565b50015190565b61255b565b6125a7611f856001926125a08461058f565b169261058f565b1490565b6125b3610bb9565b5060006101996125c1610b94565b916105516125ce8261058f565b8092850152565b156125dc57565b60405162461bcd60e51b815280610f39600482016020808252818101527f4d534d206572726f723a206c656e67746820646f6573206e6f74206d61746368604082015260600190565b919061262f610bb9565b5061264f61263b825190565b612649611f85610199875190565b146125d5565b612682600061267c61123361267661266f6126698561058f565b89611ed0565b519361058f565b85611ed0565b9061287b565b9260019182916126918361058f565b935b61269e575b50505050565b909192946126ad610199845190565b8610156126ec576126e3906126dd906126d76126c98986611ed0565b5161267c6112338b89611ed0565b90612778565b95611eea565b92919082612693565b94612698565b610143610199916100e4565b906100c761271461270e846126f2565b936100e4565b83611e67565b61019960046126fe565b906004610c35565b1561273357565b60405162461bcd60e51b815260206004820152601d60248201527f426e3235343a2067726f7570206164646974696f6e206661696c6564210000006044820152606490fd5b919091612783610bb9565b928361278d61271a565b91612796845190565b936000946127a38661058f565b6127ad9086612724565b52602001516127bc600161058f565b6127c69085612724565b52838101516127d5600261058f565b6127df9085612724565b52602001516127ee600361058f565b6127f89084612724565b525a6107d09003606092600660c092fa9081811461281a57506100c79061272c565b80fd5b61019960036126fe565b906003610c35565b1561283657565b60405162461bcd60e51b815260206004820152601960248201527f426e3235343a207363616c6172206d756c206661696c656421000000000000006044820152606490fd5b60606128bc91939293608061288e610bb9565b916128e883976128d56128c260206128a461281d565b956118bf6128b0825190565b61204d60009d8e61058f565b8a612827565b61204d6128cf600161058f565b86612827565b61204d6128e2600261058f565b84612827565b60076107d05a03fa9081811461281a57506100c79061282f56fea26469706673582212209b91205fc8b84db8f941b550b9a1dea39809d326c0d06b41fd16e234ce7ad1ce64736f6c63430008150033",
  "linkReferences": {
    "lib/bn254/Fields.sol": {
      "Scalar": [
        {
          "length": 20,
          "start": 8188
        }
      ]
    }
  },
  "deployedLinkReferences": {
    "lib/bn254/Fields.sol": {
      "Scalar": [
        {
          "length": 20,
          "start": 8152
        }
      ]
    }
  }
}