{
  "abi": [
    {
      "inputs": [],
      "name": "NonImplementedType",
      "type": "error"
    },
    {
      "inputs": [
        {
          "components": [
            {
              "internalType": "bytes",
              "name": "data",
              "type": "bytes"
            },
            {
              "internalType": "uint256",
              "name": "curr_index",
              "type": "uint256"
            }
          ],
          "internalType": "struct MsgPk.Stream",
          "name": "self",
          "type": "tuple"
        }
      ],
      "name": "curr",
      "outputs": [
        {
          "internalType": "bytes1",
          "name": "",
          "type": "bytes1"
        }
      ],
      "stateMutability": "pure",
      "type": "function"
    },
    {
      "inputs": [
        {
          "components": [
            {
              "internalType": "bytes",
              "name": "data",
              "type": "bytes"
            },
            {
              "internalType": "uint256",
              "name": "curr_index",
              "type": "uint256"
            }
          ],
          "internalType": "struct MsgPk.Stream",
          "name": "self",
          "type": "tuple"
        }
      ],
      "name": "deser_bin8",
      "outputs": [
        {
          "internalType": "bytes",
          "name": "",
          "type": "bytes"
        }
      ],
      "stateMutability": "pure",
      "type": "function"
    },
    {
      "inputs": [
        {
          "components": [
            {
              "internalType": "bytes",
              "name": "data",
              "type": "bytes"
            },
            {
              "internalType": "uint256",
              "name": "curr_index",
              "type": "uint256"
            }
          ],
          "internalType": "struct MsgPk.Stream",
          "name": "self",
          "type": "tuple"
        }
      ],
      "name": "deser_fixarr",
      "outputs": [
        {
          "components": [
            {
              "internalType": "bytes[]",
              "name": "values",
              "type": "bytes[]"
            }
          ],
          "internalType": "struct MsgPk.EncodedArray",
          "name": "arr",
          "type": "tuple"
        }
      ],
      "stateMutability": "pure",
      "type": "function"
    },
    {
      "inputs": [
        {
          "components": [
            {
              "internalType": "bytes",
              "name": "data",
              "type": "bytes"
            },
            {
              "internalType": "uint256",
              "name": "curr_index",
              "type": "uint256"
            }
          ],
          "internalType": "struct MsgPk.Stream",
          "name": "self",
          "type": "tuple"
        }
      ],
      "name": "deser_fixmap",
      "outputs": [
        {
          "components": [
            {
              "internalType": "string[]",
              "name": "keys",
              "type": "string[]"
            },
            {
              "internalType": "bytes[]",
              "name": "values",
              "type": "bytes[]"
            }
          ],
          "internalType": "struct MsgPk.EncodedMap",
          "name": "map",
          "type": "tuple"
        }
      ],
      "stateMutability": "pure",
      "type": "function"
    },
    {
      "inputs": [
        {
          "components": [
            {
              "internalType": "bytes",
              "name": "data",
              "type": "bytes"
            },
            {
              "internalType": "uint256",
              "name": "curr_index",
              "type": "uint256"
            }
          ],
          "internalType": "struct MsgPk.Stream",
          "name": "self",
          "type": "tuple"
        }
      ],
      "name": "deser_fixstr",
      "outputs": [
        {
          "internalType": "string",
          "name": "",
          "type": "string"
        }
      ],
      "stateMutability": "pure",
      "type": "function"
    },
    {
      "inputs": [
        {
          "internalType": "bytes",
          "name": "data",
          "type": "bytes"
        }
      ],
      "name": "deserializeFinalCommitments",
      "outputs": [
        {
          "components": [
            {
              "internalType": "uint256",
              "name": "x",
              "type": "uint256"
            },
            {
              "internalType": "uint256",
              "name": "y",
              "type": "uint256"
            }
          ],
          "internalType": "struct BN254.G1Point",
          "name": "numerator",
          "type": "tuple"
        },
        {
          "components": [
            {
              "internalType": "uint256",
              "name": "x",
              "type": "uint256"
            },
            {
              "internalType": "uint256",
              "name": "y",
              "type": "uint256"
            }
          ],
          "internalType": "struct BN254.G1Point",
          "name": "quotient",
          "type": "tuple"
        },
        {
          "components": [
            {
              "internalType": "uint256",
              "name": "x0",
              "type": "uint256"
            },
            {
              "internalType": "uint256",
              "name": "x1",
              "type": "uint256"
            },
            {
              "internalType": "uint256",
              "name": "y0",
              "type": "uint256"
            },
            {
              "internalType": "uint256",
              "name": "y1",
              "type": "uint256"
            }
          ],
          "internalType": "struct BN254.G2Point",
          "name": "divisor",
          "type": "tuple"
        }
      ],
      "stateMutability": "view",
      "type": "function"
    },
    {
      "inputs": [
        {
          "internalType": "bytes",
          "name": "data",
          "type": "bytes"
        },
        {
          "internalType": "uint256",
          "name": "i",
          "type": "uint256"
        }
      ],
      "name": "deserializeG1Point",
      "outputs": [
        {
          "components": [
            {
              "internalType": "uint256",
              "name": "x",
              "type": "uint256"
            },
            {
              "internalType": "uint256",
              "name": "y",
              "type": "uint256"
            }
          ],
          "internalType": "struct BN254.G1Point",
          "name": "p",
          "type": "tuple"
        },
        {
          "internalType": "uint256",
          "name": "final_i",
          "type": "uint256"
        }
      ],
      "stateMutability": "view",
      "type": "function"
    },
    {
      "inputs": [
        {
          "internalType": "bytes",
          "name": "serialized_proof",
          "type": "bytes"
        }
      ],
      "name": "deserializeOpeningProof",
      "outputs": [
        {
          "components": [
            {
              "components": [
                {
                  "internalType": "uint256",
                  "name": "x",
                  "type": "uint256"
                },
                {
                  "internalType": "uint256",
                  "name": "y",
                  "type": "uint256"
                }
              ],
              "internalType": "struct BN254.G1Point",
              "name": "opening_proof_quotient",
              "type": "tuple"
            },
            {
              "internalType": "uint256",
              "name": "opening_proof_blinding",
              "type": "uint256"
            }
          ],
          "internalType": "struct Kimchi.ProverProof",
          "name": "proof",
          "type": "tuple"
        }
      ],
      "stateMutability": "view",
      "type": "function"
    },
    {
      "inputs": [
        {
          "internalType": "bytes",
          "name": "data",
          "type": "bytes"
        },
        {
          "internalType": "uint256",
          "name": "i",
          "type": "uint256"
        }
      ],
      "name": "deserializePointEvals",
      "outputs": [
        {
          "components": [
            {
              "internalType": "Scalar.FE",
              "name": "zeta",
              "type": "uint256"
            },
            {
              "internalType": "Scalar.FE",
              "name": "zeta_omega",
              "type": "uint256"
            }
          ],
          "internalType": "struct PointEvaluations",
          "name": "eval",
          "type": "tuple"
        },
        {
          "internalType": "uint256",
          "name": "final_i",
          "type": "uint256"
        }
      ],
      "stateMutability": "pure",
      "type": "function"
    },
    {
      "inputs": [
        {
          "internalType": "bytes",
          "name": "data",
          "type": "bytes"
        },
        {
          "internalType": "uint256",
          "name": "i",
          "type": "uint256"
        }
      ],
      "name": "deserializeProofEvaluations",
      "outputs": [
        {
          "components": [
            {
              "components": [
                {
                  "internalType": "Scalar.FE[]",
                  "name": "zeta",
                  "type": "uint256[]"
                },
                {
                  "internalType": "Scalar.FE[]",
                  "name": "zeta_omega",
                  "type": "uint256[]"
                }
              ],
              "internalType": "struct PointEvaluationsArray[]",
              "name": "public_evals",
              "type": "tuple[]"
            }
          ],
          "internalType": "struct ProofEvaluations",
          "name": "evals",
          "type": "tuple"
        },
        {
          "internalType": "uint256",
          "name": "final_i",
          "type": "uint256"
        }
      ],
      "stateMutability": "pure",
      "type": "function"
    },
    {
      "inputs": [
        {
          "internalType": "bytes",
          "name": "data",
          "type": "bytes"
        },
        {
          "internalType": "uint256",
          "name": "i",
          "type": "uint256"
        }
      ],
      "name": "deserializeScalar",
      "outputs": [
        {
          "internalType": "Scalar.FE",
          "name": "scalar",
          "type": "uint256"
        },
        {
          "internalType": "uint256",
          "name": "final_i",
          "type": "uint256"
        }
      ],
      "stateMutability": "pure",
      "type": "function"
    },
    {
      "inputs": [
        {
          "internalType": "bytes",
          "name": "data",
          "type": "bytes"
        },
        {
          "internalType": "uint256",
          "name": "i",
          "type": "uint256"
        }
      ],
      "name": "deserializeState",
      "outputs": [
        {
          "components": [
            {
              "internalType": "string",
              "name": "creator",
              "type": "string"
            },
            {
              "internalType": "uint256",
              "name": "hash",
              "type": "uint256"
            },
            {
              "internalType": "uint256",
              "name": "block_height",
              "type": "uint256"
            }
          ],
          "internalType": "struct State",
          "name": "",
          "type": "tuple"
        }
      ],
      "stateMutability": "view",
      "type": "function"
    },
    {
      "inputs": [
        {
          "internalType": "bytes",
          "name": "data",
          "type": "bytes"
        }
      ],
      "name": "deserializeURS",
      "outputs": [
        {
          "components": [
            {
              "internalType": "uint256",
              "name": "x",
              "type": "uint256"
            },
            {
              "internalType": "uint256",
              "name": "y",
              "type": "uint256"
            }
          ],
          "internalType": "struct BN254.G1Point[]",
          "name": "",
          "type": "tuple[]"
        },
        {
          "components": [
            {
              "internalType": "uint256",
              "name": "x",
              "type": "uint256"
            },
            {
              "internalType": "uint256",
              "name": "y",
              "type": "uint256"
            }
          ],
          "internalType": "struct BN254.G1Point",
          "name": "",
          "type": "tuple"
        },
        {
          "internalType": "uint256",
          "name": "",
          "type": "uint256"
        }
      ],
      "stateMutability": "view",
      "type": "function"
    },
    {
      "inputs": [
        {
          "internalType": "bytes",
          "name": "data",
          "type": "bytes"
        }
      ],
      "name": "from_data",
      "outputs": [
        {
          "components": [
            {
              "internalType": "bytes",
              "name": "data",
              "type": "bytes"
            },
            {
              "internalType": "uint256",
              "name": "curr_index",
              "type": "uint256"
            }
          ],
          "internalType": "struct MsgPk.Stream",
          "name": "",
          "type": "tuple"
        }
      ],
      "stateMutability": "pure",
      "type": "function"
    },
    {
      "inputs": [
        {
          "components": [
            {
              "internalType": "bytes",
              "name": "data",
              "type": "bytes"
            },
            {
              "internalType": "uint256",
              "name": "curr_index",
              "type": "uint256"
            }
          ],
          "internalType": "struct MsgPk.Stream",
          "name": "self",
          "type": "tuple"
        }
      ],
      "name": "next",
      "outputs": [
        {
          "internalType": "bytes1",
          "name": "b",
          "type": "bytes1"
        }
      ],
      "stateMutability": "pure",
      "type": "function"
    },
    {
      "inputs": [
        {
          "components": [
            {
              "internalType": "bytes",
              "name": "data",
              "type": "bytes"
            },
            {
              "internalType": "uint256",
              "name": "curr_index",
              "type": "uint256"
            }
          ],
          "internalType": "struct MsgPk.Stream",
          "name": "self",
          "type": "tuple"
        },
        {
          "internalType": "uint256",
          "name": "n",
          "type": "uint256"
        }
      ],
      "name": "next_n",
      "outputs": [
        {
          "internalType": "bytes",
          "name": "consumed",
          "type": "bytes"
        }
      ],
      "stateMutability": "pure",
      "type": "function"
    },
    {
      "inputs": [
        {
          "components": [
            {
              "internalType": "bytes",
              "name": "data",
              "type": "bytes"
            },
            {
              "internalType": "uint256",
              "name": "curr_index",
              "type": "uint256"
            }
          ],
          "internalType": "struct MsgPk.Stream",
          "name": "self",
          "type": "tuple"
        }
      ],
      "name": "trim_encode",
      "outputs": [
        {
          "internalType": "bytes",
          "name": "",
          "type": "bytes"
        }
      ],
      "stateMutability": "pure",
      "type": "function"
    }
  ],
  "bytecode": {
    "object": "0x6080806040523461001a57611ecb9081610020823930815050f35b600080fdfe6080604052600436101561001257600080fd5b60003560e01c806301be71b51461012757806311254bc9146101225780631942f64c1461011d5780631fe01405146101185780632d7956e6146101135780634d719b011461010e5780634dcbbc5314610109578063509312f6146101045780635d371232146100ff578063621bcd21146100fa578063a8efa400146100f5578063abbb76b6146100f0578063c15bed62146100eb578063ced1ae1d146100e6578063d59a48ba146100e1578063e34f49cb146100dc5763e6cc050e146100d757600080fd5b610fa7565b610e5a565b610dae565b610d9b565b610d03565b610a2a565b6109cf565b61099d565b6108d7565b610855565b610791565b6106ae565b61054a565b610524565b6104b8565b6103ff565b61031f565b634e487b7160e01b600052604160045260246000fd5b604081019081106001600160401b0382111761015d57604052565b61012c565b608081019081106001600160401b0382111761015d57604052565b606081019081106001600160401b0382111761015d57604052565b90601f801991011681019081106001600160401b0382111761015d57604052565b604051906101c682610142565b565b60405190602082018281106001600160401b0382111761015d57604052565b604051906101c68261017d565b6001600160401b03811161015d57601f01601f191660200190565b92919261021b826101f4565b916102296040519384610198565b829481845281830111610246578281602093846000960137010152565b600080fd5b919091604081840312610246576040519061026582610142565b819381356001600160401b0381116102465782019181601f8401121561024657610298602093928385809535910161020f565b84520135910152565b602060031982011261024657600435906001600160401b038211610246576102cb9160040161024b565b90565b919082519283825260005b8481106102fa575050826000602080949584010152601f8019910116010190565b6020818301810151848301820152016102d9565b9060206102cb9281815201906102ce565b61034761033361032e366102a1565b6111eb565b6040519182916020835260208301906102ce565b0390f35b9181601f84011215610246578235916001600160401b038311610246576020838186019501011161024657565b602060031982011261024657600435906001600160401b038211610246576103a29160040161034b565b9091565b9160e09194936103dd6060926103cb8661010081019960208091805184520151910152565b80516040870152602001516060860152565b80516080850152602081015160a0850152604081015160c08501520151910152565b606061040a36610378565b9190610414611526565b5061041d611526565b506040805161042b81610162565b6000938185809352826020820152828482015201528381116104b457808201916104558382611585565b93856080116104b15761046c608083018095611585565b95610100116104b157509060e0610347939282519361048a85610162565b35845260a0810135602085015260c0810135838501520135606083015251938493846103a6565b80fd5b8280fd5b6105196104f36104c736610378565b9190600060206040516104d981610142565b606081520152604051926104ec84610142565b369161020f565b8152602081016000815260405192839260208452516040602085015260608401906102ce565b905160408301520390f35b6020610537610532366102a1565b611034565b6040516001600160f81b03199091168152f35b6103476105ed61065161055c36610378565b9290610566611b09565b936106416001600160f81b031961059e604960f91b8261059761058987896115ad565b356001600160f81b03191690565b1614611b29565b61061f603160fa1b6105bf81846105b8610589898b6115b6565b1614611b6e565b6105dd600160fd1b80946105d6610589898b6115c5565b16146115ef565b6105fa6105f56105ed878961155c565b81019061163b565b61175e565b895261061961060c61058987896115d4565b6001600160f81b03191690565b14611b6e565b61063c60249161063661060c61058985888a6115e3565b146115ef565b610ffd565b9061064b8261100b565b9261156d565b6020820152604051918291828151805182526020908101518183015290910151604082015260600190565b604060031982011261024657600435906001600160401b038211610246576106a69160040161034b565b909160243590565b60406106c26106bc3661067c565b91611bd5565b82519182526020820152f35b90815180825260208080930193019160005b8281106106ee575050505090565b8351855293810193928101926001016106e0565b9291906040808552606085019151906020928382880152825180915260808701918460808360051b8a01019401926000915b8684841061074757505050505050930152565b8061078260019394959697988d607f19908203018752895190836107728351898452898401906106ce565b92015190848184039101526106ce565b97019301930191939290610734565b6107ac61079d3661067c565b916107a661138f565b50611ce5565b906107b5611d80565b6107bd611d80565b82518251156108505760209384918285015201518151156108505783820152604051916107e983610142565b825282820152604051916107fc83610142565b6001835260005b81811061083a57505061081582611413565b5261081f81611413565b506108286101c8565b90815261034760405192839283610702565b8190610844611434565b82828701015201610803565b610fbb565b610347610333610864366102a1565b6112da565b90815180825260208092019182818360051b82019501936000915b8483106108945750505050505090565b90919293949584806108ae83856001950387528a516102ce565b9801930193019194939290610884565b60406102cb926020835251916020808201520190610869565b6108e0366102a1565b6108e861138f565b506108f281611034565b60f760f81b600482901c600f60f81b16016109695760f81c600f16610916816113c9565b9161091f6101c8565b92835260005b82811061093a576040518061034786826108be565b8061095e6109649261094b856111eb565b8751906109588383611420565b52611420565b5061107b565b610925565b60405162461bcd60e51b815260206004820152600c60248201526b3737ba1030903334bc30b93960a11b6044820152606490fd5b60606109b16109ab3661067c565b9161164a565b6109c8604051809360208091805184520151910152565b6040820152f35b60606109e36109dd3661067c565b91611ce5565b60206040519280518452015160208301526040820152f35b6020815260606040610a18845183602086015260808501906102ce565b93602081015182850152015191015290565b610a333661067c565b90610a3c611d9a565b506001600160f81b031991609360f81b83610a588385886115e3565b356001600160f81b0319161614610a6e90611dca565b610a7790610ffd565b60d960f81b92908382610a8b8386896115e3565b356001600160f81b0319161614610aa190611e20565b610aaa90610ffd565b92610ab68484876115e3565b3560f81c93610ac490610ffd565b9360ff1693610ad285611e5a565b610adc8582611027565b610ae89082868961156d565b3690610af39261020f565b94610afd91611027565b90610b098285886115e3565b356001600160f81b0319166001600160f81b03191614610b2890611e20565b610b3190610ffd565b93610b3d8584836115e3565b3560f81c94610b4b90610ffd565b9460ff1690610b5a8287611027565b610b669087868461156d565b3690610b719261020f565b73__$c6c5f4599f88e7253ab6b4c9dc3636c36f$__6040519485946303afd8c560e61b938487528660209788926004820190610bac9161030e565b0381865af4968715610cc357600097610cc8575b506104ec85610c2b600f610c24610c1e610c4c9f8c9a99988f610c18610bec610c379b61058995611027565b9e8f93610c11610c056105898787600560f91b966115e3565b60041c600f60f81b1690565b161461129f565b876115e3565b60f81c90565b1697610ffd565b809a61064b8983611027565b91604051809a8194829383526004830161030e565b03915af4938415610cc35761034796600095610c8e575b5090610c6e91611027565b50610c776101e7565b9384528301526040820152604051918291826109fb565b610c6e92919550610cb490843d8611610cbc575b610cac8183610198565b810190611bba565b949091610c63565b503d610ca2565b611bc9565b86949392919750858991863d8811610cfc575b610ce58183610198565b8101610cf091611bba565b98929394955050610bc0565b503d610cdb565b610d14610d0f366102a1565b61144d565b60405190816020918282526060820192815191604082850152825180955260808401948260808260051b8701019401956000905b828210610d6b575050506103479394500151601f19848303016040850152610869565b919380809750610d896001939597607f198c82030186528a516102ce565b98019201920187959391969492610d48565b6020610537610da9366102a1565b611061565b6040366003190112610246576004356001600160401b03811161024657610333610ddf61034792369060040161024b565b6024359061108a565b909392916080820160808352855180915260a083019060208097019060005b88828210610e32575050505060609291610e2e919683019060208091805184520151910152565b0152565b604085610e4f869760019596975160208091805184520151910152565b019401929101610e07565b610e6336610378565b610e6b611526565b5060006001600160f81b0319610e94604960f91b82610e8d61058987896115ad565b16146119ee565b603760fa1b90610ebd908281610ead610589888a6115b6565b1614908115610f8b575b50611a3a565b610ecd61060c61058985876115b6565b14159050610f825760ff60025b1690610ef8610ef2610eeb84611019565b838661153f565b90611a86565b610f09610f0484611722565b611aa3565b1c92610f1d610f1785611ab9565b93611019565b936000905b808210610f4f57610f4385610347610f3b89888861164a565b939093610ffd565b60405193849384610de8565b9094610f5f610f7c91858561164a565b90610f6a8888611420565b52610f758787611420565b509561107b565b90610f22565b60ff6004610eda565b60dd60f81b9150610f9f61058987896115b6565b161438610eb7565b610347610333610fb6366102a1565b611358565b634e487b7160e01b600052603260045260246000fd5b908151811015610850570160200190565b634e487b7160e01b600052601160045260246000fd5b610fe2565b9060018201809211610ff857565b9060208201809211610ff857565b6002019081600211610ff857565b91908201809211610ff857565b906020825192019161104d60ff60f81b91845190610fd1565b51169180519060018201809211610ff85752565b6110768151602060ff60f81b93015190610fd1565b511690565b6000198114610ff85760010190565b9190611095816101f4565b926110a36040519485610198565b8184526110af826101f4565b60209190601f190136868401378460015b848111156110da575050018051918201809211610ff85752565b8251908484015191818301809311610ff8576110fe6111139360ff60f81b92610fd1565b511660001a61110d8285610fd1565b5361107b565b6110c0565b6020918282526060820190805191604085850152825180915260808401908560808260051b8701019401916000905b8282106111bc575050505083015192601f19926040848285030191015283519182815281810182808560051b8401019601946000925b85841061118e575050505050505090565b9091929394959685806111ab838686600196030188528b516102ce565b99019401940192959493919061117d565b90919295969485806111da600193607f198c82030186528a516102ce565b979998019493919091019101611147565b6111f481611061565b600581901c600760f81b16600560f81b0361123657506102cb611219611228926112da565b6040519283916020830161030e565b03601f198101835282610198565b6001600160f81b03198116603160fa1b0361125b57506102cb61121961122892611358565b60041c600f60f81b16600160fb1b0361128d576112779061144d565b6102cb6112289160405192839160208301611118565b6040516317fa650360e11b8152600490fd5b156112a657565b60405162461bcd60e51b815260206004820152600c60248201526b3737ba1030903334bc39ba3960a11b6044820152606490fd5b6102cb90601f6112e982611034565b611302600582901c600760f81b16600560f81b1461129f565b60f81c169061108a565b1561131357565b60405162461bcd60e51b815260206004820152601c60248201527f6e6f7420612073747265616d206f662062696e382028627974657329000000006044820152606490fd5b6102cb9061137d603160fa1b6001600160f81b031961137684611034565b161461130c565b61138681611034565b60f81c9061108a565b60405190602082018281106001600160401b0382111761015d5760405260608252565b6001600160401b03811161015d5760051b60200190565b906113d3826113b2565b6113e06040519182610198565b82815280926113f1601f19916113b2565b019060005b82811061140257505050565b8060606020809385010152016113f6565b8051156108505760200190565b80518210156108505760209160051b010190565b6040519061144182610142565b60606020838281520152565b90611456611434565b5061146082611034565b601f60fb1b600482901c600f60f81b16016114f25760f81c600f16611484816113c9565b9261148e826113c9565b906114976101b9565b948552602085019182528460005b8481106114b3575050505050565b6114cd816114c0856112da565b8451906109588383611420565b50806114d8846111eb565b6114ed9261095e918751906109588383611420565b6114a5565b60405162461bcd60e51b815260206004820152600c60248201526b06e6f742061206669786d61760a41b6044820152606490fd5b6040519061153382610142565b60006020838281520152565b909291928360021161024657831161024657600201916001190190565b906023116102465760030190602090565b90939293848311610246578411610246578101920390565b908160409103126102465760206040519161159f83610142565b803583520135602082015290565b90156108505790565b90600110156108505760010190565b90600210156108505760020190565b90602310156108505760230190565b90821015610850570190565b156115f657565b60405162461bcd60e51b815260206004820152601f60248201527f73697a65206f6620656c656d656e74206973206e6f74203332206279746573006044820152606490fd5b90816020910312610246573590565b929192611655611526565b506001600160f81b03199361167c603160fa1b866116748487876115e3565b35161461130c565b6001810194858211610ff8576116a590600160fd1b9061169d8887876115e3565b3516146115ef565b60028101809511610ff85760220190818511610ff8576105ed6116d092866102cb956105f59461156d565b9261100b565b156116dd57565b60405162461bcd60e51b815260206004820152601860248201527f6465736572206661696c3a206e6f74206f6e20637572766500000000000000006044820152606490fd5b6020039060208211610ff857565b907f30644e72e131a029b85045b68181585d97816a916871ca8d3c208c16d87cfd47918203918211610ff857565b611766611526565b508060081c9060081b907eff000000ff000000ff000000ff000000ff000000ff000000ff000000ff00007fff000000ff000000ff000000ff000000ff000000ff000000ff000000ff0000007dff000000ff000000ff000000ff000000ff000000ff000000ff000000ff0084167cff000000ff000000ff000000ff000000ff000000ff000000ff000000ff84161760101b931691161760101c177bffffffff00000000ffffffff00000000ffffffff00000000ffffffff7fffffffff00000000ffffffff00000000ffffffff00000000ffffffff000000008260201b169160201c161777ffffffffffffffff0000000000000000ffffffffffffffff80198260401b169160401c16178060801b9060801c1780600160fe1b811615156000146118a15750506000805b6118966101b9565b918252602082015290565b6001600160fe1b0316906118de7f30644e72e131a029b85045b68181585d97816a916871ca8d3c208c16d87cfd476003818581818009090861190b565b90916118ea82936116d6565b600160ff1b166118fb575b5061188e565b6119059150611730565b386118f5565b6040519060209182815282808201528260408201528160608201527f0c19139cb84c680a6e14116da060561765e05aa45a1c72a34f082305b61f3f52608082015282600060c07f30644e72e131a029b85045b68181585d97816a916871ca8d3c208c16d87cfd47938460a082015260055afa9260005193156119aa5750808360011b1161199a575b8280091491565b916119a490611730565b91611993565b6064906040519062461bcd60e51b82526004820152601b60248201527f706f7720707265636f6d70696c652063616c6c206661696c65642100000000006044820152fd5b156119f557565b60405162461bcd60e51b815260206004820152601f60248201527f6e6f74206120666978206172726179206f662074776f20656c656d656e7473006044820152606490fd5b15611a4157565b60405162461bcd60e51b815260206004820152601960248201527f6e6f7420616e2061727261793136206f722061727261793332000000000000006044820152606490fd5b359060208110611a94575090565b6000199060200360031b1b1690565b908160031b9180830460081490151715610ff857565b90611ac3826113b2565b611ad06040519182610198565b8281528092611ae1601f19916113b2565b019060005b828110611af257505050565b602090611afd611526565b82828501015201611ae6565b60405190611b1682610142565b6000602083611b23611526565b81520152565b15611b3057565b60405162461bcd60e51b81526020600482015260166024820152753334b939ba10313cba329034b9903737ba10183c1c9960511b6044820152606490fd5b15611b7557565b60405162461bcd60e51b815260206004820152601760248201527f7365636f6e642062797465206973206e6f7420307843340000000000000000006044820152606490fd5b90816020910312610246575190565b6040513d6000823e3d90fd5b611c2a6105ed602092611c1f611c4995979661063c89611c0b60ff60f81b9361063c603160fa1b8661137661058985888d6115e3565b926105d661058985600160fd1b94896115e3565b809761064b8261100b565b604051809381926304cd5e4560e21b8352600483019190602083019252565b038173__$2412af110404eb2b232af38199405c3460$__5af48015610cc3576102cb91600091611c7b575b509261100b565b611c93915060203d8111610cbc57610cac8183610198565b38611c74565b15611ca057565b60405162461bcd60e51b815260206004820152601e60248201527f6e6f74206120666978206172726179206f66206f6e6520656c656d656e7400006044820152606490fd5b92919092611cf1611526565b506001600160f81b031993611d18604960f91b86611d108685876115e3565b3516146119ee565b60018301809311610ff8576106bc611d669361063c611d58611d51609160f81b9361063c858c611d49848b8d6115e3565b351614611c99565b8587611bd5565b929098611d498487896115e3565b929060405191611d7583610142565b825260208201529190565b60405190611d8d82610142565b6001825260203681840137565b60405190606082018281106001600160401b0382111761015d576040526000604083606081528260208201520152565b15611dd157565b60405162461bcd60e51b815260206004820152602160248201527f6e6f74206120666978206172726179206f6620746872656520656c656d656e746044820152607360f81b6064820152608490fd5b15611e2757565b60405162461bcd60e51b815260206004820152600b60248201526a0dcdee840c240e6e8e440760ab1b6044820152606490fd5b60008091604051602081019163f5b1bba960e01b8352602482015260248152611e828161017d565b51906a636f6e736f6c652e6c6f675afa5056fea2646970667358221220b1761eea8ef783869e8f5ccccbc4d194a62ba3d23092344568da9df453a73b5c64736f6c63430008150033",
    "linkReferences": {
      "lib/Fields.sol": {
        "Scalar": [
          {
            "start": 7277,
            "length": 20
          }
        ]
      },
      "lib/Utils.sol": {
        "Utils": [
          {
            "start": 2963,
            "length": 20
          }
        ]
      }
    }
  },
  "methodIdentifiers": {
    "curr(MsgPk.Stream)": "ced1ae1d",
    "deser_bin8(MsgPk.Stream)": "e6cc050e",
    "deser_fixarr(MsgPk.Stream)": "5d371232",
    "deser_fixmap(MsgPk.Stream)": "c15bed62",
    "deser_fixstr(MsgPk.Stream)": "509312f6",
    "deserializeFinalCommitments(bytes)": "11254bc9",
    "deserializeG1Point(bytes,uint256)": "621bcd21",
    "deserializeOpeningProof(bytes)": "2d7956e6",
    "deserializePointEvals(bytes,uint256)": "a8efa400",
    "deserializeProofEvaluations(bytes,uint256)": "4dcbbc53",
    "deserializeScalar(bytes,uint256)": "4d719b01",
    "deserializeState(bytes,uint256)": "abbb76b6",
    "deserializeURS(bytes)": "e34f49cb",
    "from_data(bytes)": "1942f64c",
    "next(MsgPk.Stream)": "1fe01405",
    "next_n(MsgPk.Stream,uint256)": "d59a48ba",
    "trim_encode(MsgPk.Stream)": "01be71b5"
  },
  "id": 30
}