{
  "_format": "hh-sol-artifact-1",
  "contractName": "PolishTokenEvaluation",
  "sourceName": "lib/expr/PolishToken.sol",
  "abi": [
    {
      "inputs": [
        {
          "components": [
            {
              "internalType": "enum PolishTokenEvaluation.PolishTokenVariant",
              "name": "variant",
              "type": "PolishTokenEvaluation.PolishTokenVariant"
            },
            {
              "internalType": "bytes",
              "name": "data",
              "type": "bytes"
            }
          ],
          "internalType": "struct PolishTokenEvaluation.PolishToken[]",
          "name": "toks",
          "type": "tuple[]"
        },
        {
          "internalType": "Scalar.FE",
          "name": "domain_gen",
          "type": "uint256"
        },
        {
          "internalType": "uint256",
          "name": "domain_size",
          "type": "uint256"
        },
        {
          "internalType": "Scalar.FE",
          "name": "pt",
          "type": "uint256"
        },
        {
          "internalType": "Scalar.FE",
          "name": "vanishing_eval",
          "type": "uint256"
        },
        {
          "components": [
            {
              "internalType": "uint256",
              "name": "optional_field_flags",
              "type": "uint256"
            },
            {
              "components": [
                {
                  "internalType": "Scalar.FE",
                  "name": "zeta",
                  "type": "uint256"
                },
                {
                  "internalType": "Scalar.FE",
                  "name": "zeta_omega",
                  "type": "uint256"
                }
              ],
              "internalType": "struct PointEvaluations[15]",
              "name": "w",
              "type": "tuple[15]"
            },
            {
              "components": [
                {
                  "internalType": "Scalar.FE",
                  "name": "zeta",
                  "type": "uint256"
                },
                {
                  "internalType": "Scalar.FE",
                  "name": "zeta_omega",
                  "type": "uint256"
                }
              ],
              "internalType": "struct PointEvaluations",
              "name": "z",
              "type": "tuple"
            },
            {
              "components": [
                {
                  "internalType": "Scalar.FE",
                  "name": "zeta",
                  "type": "uint256"
                },
                {
                  "internalType": "Scalar.FE",
                  "name": "zeta_omega",
                  "type": "uint256"
                }
              ],
              "internalType": "struct PointEvaluations[6]",
              "name": "s",
              "type": "tuple[6]"
            },
            {
              "components": [
                {
                  "internalType": "Scalar.FE",
                  "name": "zeta",
                  "type": "uint256"
                },
                {
                  "internalType": "Scalar.FE",
                  "name": "zeta_omega",
                  "type": "uint256"
                }
              ],
              "internalType": "struct PointEvaluations[15]",
              "name": "coefficients",
              "type": "tuple[15]"
            },
            {
              "components": [
                {
                  "internalType": "Scalar.FE",
                  "name": "zeta",
                  "type": "uint256"
                },
                {
                  "internalType": "Scalar.FE",
                  "name": "zeta_omega",
                  "type": "uint256"
                }
              ],
              "internalType": "struct PointEvaluations",
              "name": "generic_selector",
              "type": "tuple"
            },
            {
              "components": [
                {
                  "internalType": "Scalar.FE",
                  "name": "zeta",
                  "type": "uint256"
                },
                {
                  "internalType": "Scalar.FE",
                  "name": "zeta_omega",
                  "type": "uint256"
                }
              ],
              "internalType": "struct PointEvaluations",
              "name": "poseidon_selector",
              "type": "tuple"
            },
            {
              "components": [
                {
                  "internalType": "Scalar.FE",
                  "name": "zeta",
                  "type": "uint256"
                },
                {
                  "internalType": "Scalar.FE",
                  "name": "zeta_omega",
                  "type": "uint256"
                }
              ],
              "internalType": "struct PointEvaluations",
              "name": "complete_add_selector",
              "type": "tuple"
            },
            {
              "components": [
                {
                  "internalType": "Scalar.FE",
                  "name": "zeta",
                  "type": "uint256"
                },
                {
                  "internalType": "Scalar.FE",
                  "name": "zeta_omega",
                  "type": "uint256"
                }
              ],
              "internalType": "struct PointEvaluations",
              "name": "mul_selector",
              "type": "tuple"
            },
            {
              "components": [
                {
                  "internalType": "Scalar.FE",
                  "name": "zeta",
                  "type": "uint256"
                },
                {
                  "internalType": "Scalar.FE",
                  "name": "zeta_omega",
                  "type": "uint256"
                }
              ],
              "internalType": "struct PointEvaluations",
              "name": "emul_selector",
              "type": "tuple"
            },
            {
              "components": [
                {
                  "internalType": "Scalar.FE",
                  "name": "zeta",
                  "type": "uint256"
                },
                {
                  "internalType": "Scalar.FE",
                  "name": "zeta_omega",
                  "type": "uint256"
                }
              ],
              "internalType": "struct PointEvaluations",
              "name": "endomul_scalar_selector",
              "type": "tuple"
            },
            {
              "components": [
                {
                  "internalType": "Scalar.FE",
                  "name": "zeta",
                  "type": "uint256"
                },
                {
                  "internalType": "Scalar.FE",
                  "name": "zeta_omega",
                  "type": "uint256"
                }
              ],
              "internalType": "struct PointEvaluations",
              "name": "public_evals",
              "type": "tuple"
            },
            {
              "components": [
                {
                  "internalType": "Scalar.FE",
                  "name": "zeta",
                  "type": "uint256"
                },
                {
                  "internalType": "Scalar.FE",
                  "name": "zeta_omega",
                  "type": "uint256"
                }
              ],
              "internalType": "struct PointEvaluations",
              "name": "range_check0_selector",
              "type": "tuple"
            },
            {
              "components": [
                {
                  "internalType": "Scalar.FE",
                  "name": "zeta",
                  "type": "uint256"
                },
                {
                  "internalType": "Scalar.FE",
                  "name": "zeta_omega",
                  "type": "uint256"
                }
              ],
              "internalType": "struct PointEvaluations",
              "name": "range_check1_selector",
              "type": "tuple"
            },
            {
              "components": [
                {
                  "internalType": "Scalar.FE",
                  "name": "zeta",
                  "type": "uint256"
                },
                {
                  "internalType": "Scalar.FE",
                  "name": "zeta_omega",
                  "type": "uint256"
                }
              ],
              "internalType": "struct PointEvaluations",
              "name": "foreign_field_add_selector",
              "type": "tuple"
            },
            {
              "components": [
                {
                  "internalType": "Scalar.FE",
                  "name": "zeta",
                  "type": "uint256"
                },
                {
                  "internalType": "Scalar.FE",
                  "name": "zeta_omega",
                  "type": "uint256"
                }
              ],
              "internalType": "struct PointEvaluations",
              "name": "foreign_field_mul_selector",
              "type": "tuple"
            },
            {
              "components": [
                {
                  "internalType": "Scalar.FE",
                  "name": "zeta",
                  "type": "uint256"
                },
                {
                  "internalType": "Scalar.FE",
                  "name": "zeta_omega",
                  "type": "uint256"
                }
              ],
              "internalType": "struct PointEvaluations",
              "name": "xor_selector",
              "type": "tuple"
            },
            {
              "components": [
                {
                  "internalType": "Scalar.FE",
                  "name": "zeta",
                  "type": "uint256"
                },
                {
                  "internalType": "Scalar.FE",
                  "name": "zeta_omega",
                  "type": "uint256"
                }
              ],
              "internalType": "struct PointEvaluations",
              "name": "rot_selector",
              "type": "tuple"
            },
            {
              "components": [
                {
                  "internalType": "Scalar.FE",
                  "name": "zeta",
                  "type": "uint256"
                },
                {
                  "internalType": "Scalar.FE",
                  "name": "zeta_omega",
                  "type": "uint256"
                }
              ],
              "internalType": "struct PointEvaluations",
              "name": "lookup_aggregation",
              "type": "tuple"
            },
            {
              "components": [
                {
                  "internalType": "Scalar.FE",
                  "name": "zeta",
                  "type": "uint256"
                },
                {
                  "internalType": "Scalar.FE",
                  "name": "zeta_omega",
                  "type": "uint256"
                }
              ],
              "internalType": "struct PointEvaluations",
              "name": "lookup_table",
              "type": "tuple"
            },
            {
              "components": [
                {
                  "internalType": "Scalar.FE",
                  "name": "zeta",
                  "type": "uint256"
                },
                {
                  "internalType": "Scalar.FE",
                  "name": "zeta_omega",
                  "type": "uint256"
                }
              ],
              "internalType": "struct PointEvaluations[5]",
              "name": "lookup_sorted",
              "type": "tuple[5]"
            },
            {
              "components": [
                {
                  "internalType": "Scalar.FE",
                  "name": "zeta",
                  "type": "uint256"
                },
                {
                  "internalType": "Scalar.FE",
                  "name": "zeta_omega",
                  "type": "uint256"
                }
              ],
              "internalType": "struct PointEvaluations",
              "name": "runtime_lookup_table",
              "type": "tuple"
            },
            {
              "components": [
                {
                  "internalType": "Scalar.FE",
                  "name": "zeta",
                  "type": "uint256"
                },
                {
                  "internalType": "Scalar.FE",
                  "name": "zeta_omega",
                  "type": "uint256"
                }
              ],
              "internalType": "struct PointEvaluations",
              "name": "runtime_lookup_table_selector",
              "type": "tuple"
            },
            {
              "components": [
                {
                  "internalType": "Scalar.FE",
                  "name": "zeta",
                  "type": "uint256"
                },
                {
                  "internalType": "Scalar.FE",
                  "name": "zeta_omega",
                  "type": "uint256"
                }
              ],
              "internalType": "struct PointEvaluations",
              "name": "xor_lookup_selector",
              "type": "tuple"
            },
            {
              "components": [
                {
                  "internalType": "Scalar.FE",
                  "name": "zeta",
                  "type": "uint256"
                },
                {
                  "internalType": "Scalar.FE",
                  "name": "zeta_omega",
                  "type": "uint256"
                }
              ],
              "internalType": "struct PointEvaluations",
              "name": "lookup_gate_lookup_selector",
              "type": "tuple"
            },
            {
              "components": [
                {
                  "internalType": "Scalar.FE",
                  "name": "zeta",
                  "type": "uint256"
                },
                {
                  "internalType": "Scalar.FE",
                  "name": "zeta_omega",
                  "type": "uint256"
                }
              ],
              "internalType": "struct PointEvaluations",
              "name": "range_check_lookup_selector",
              "type": "tuple"
            },
            {
              "components": [
                {
                  "internalType": "Scalar.FE",
                  "name": "zeta",
                  "type": "uint256"
                },
                {
                  "internalType": "Scalar.FE",
                  "name": "zeta_omega",
                  "type": "uint256"
                }
              ],
              "internalType": "struct PointEvaluations",
              "name": "foreign_field_mul_lookup_selector",
              "type": "tuple"
            }
          ],
          "internalType": "struct Proof.ProofEvaluations",
          "name": "evals",
          "type": "tuple"
        },
        {
          "components": [
            {
              "internalType": "Scalar.FE",
              "name": "alpha",
              "type": "uint256"
            },
            {
              "internalType": "Scalar.FE",
              "name": "beta",
              "type": "uint256"
            },
            {
              "internalType": "Scalar.FE",
              "name": "gamma",
              "type": "uint256"
            },
            {
              "internalType": "Scalar.FE",
              "name": "joint_combiner",
              "type": "uint256"
            },
            {
              "internalType": "Scalar.FE",
              "name": "endo_coefficient",
              "type": "uint256"
            },
            {
              "internalType": "uint64",
              "name": "zk_rows",
              "type": "uint64"
            }
          ],
          "internalType": "struct ExprConstants",
          "name": "c",
          "type": "tuple"
        }
      ],
      "name": "evaluate",
      "outputs": [
        {
          "internalType": "Scalar.FE",
          "name": "",
          "type": "uint256"
        }
      ],
      "stateMutability": "view",
      "type": "function"
    },
    {
      "inputs": [
        {
          "internalType": "Scalar.FE",
          "name": "domain_gen",
          "type": "uint256"
        },
        {
          "internalType": "uint256",
          "name": "domain_size",
          "type": "uint256"
        },
        {
          "internalType": "Scalar.FE",
          "name": "tau",
          "type": "uint256"
        }
      ],
      "name": "evaluate_vanishing_polynomial",
      "outputs": [
        {
          "internalType": "Scalar.FE",
          "name": "",
          "type": "uint256"
        }
      ],
      "stateMutability": "view",
      "type": "function"
    }
  ],
  "bytecode": "0x60806040523461001e57604051611b7d610024823930815050611b7d90f35b600080fdfe60a0604052600436101561001257600080fd5b60003560e01c8063d1ad4b73146100325763ff0e08ef036100aa57610748565b6106eb565b634e487b7160e01b600052604160045260246000fd5b90601f01601f191681019081106001600160401b0382111761006e57604052565b610037565b9061008761008060405190565b928361004d565b565b6001600160401b03811161006e5760208091020190565b601311156100aa57565b600080fd5b90503590610087826100a0565b6001600160401b03811161006e57602090601f01601f19160190565b0190565b90826000939282370152565b909291926100fd6100f8826100bc565b610073565b938185526020850190828401116100aa57610087926100dc565b9080601f830112156100aa57816020610132933591016100e8565b90565b9190916040818403126100aa5761014c6040610073565b92600061015982846100af565b9085015260208201356001600160401b0381116100aa5761017a9201610117565b6020830152565b9291906101906100f882610089565b93818552602080860192028101918383116100aa5781905b8382106101b6575050505050565b81356001600160401b0381116100aa576020916101d68784938701610135565b8152019101906101a8565b9080601f830112156100aa5781602061013293359101610181565b805b036100aa57565b90503590610087826101fc565b6001600160401b03811161006e5760200290565b9190916040818403126100aa5761025b6102406040610073565b93600061024d8285610205565b908601526020809301610205565b90830152565b909291926102716100f882610212565b9360408592028301928184116100aa57915b8383106102905750505050565b602060409161029f8486610226565b815201920191610283565b9080601f830112156100aa5761013291600f90610261565b909291926102d26100f882610212565b9360408592028301928184116100aa57915b8383106102f15750505050565b60206040916103008486610226565b8152019201916102e4565b9080601f830112156100aa57610132916006906102c2565b909291926103336100f882610212565b9360408592028301928184116100aa57915b8383106103525750505050565b60206040916103618486610226565b815201920191610345565b9080601f830112156100aa5761013291600590610323565b9190610fe0838203126100aa576105a6906103a0610360610073565b9360006103ad8383610205565b9086015260206103bf838284016102aa565b908601526103d1826103e08301610226565b60408601526103e482610420830161030b565b60608601526103f7826105a083016102aa565b608086015261040a826109608301610226565b60a086015261041d826109a08301610226565b60c0860152610430826109e08301610226565b60e086015261044382610a208301610226565b61010086015261045782610a608301610226565b61012086015261046b82610aa08301610226565b61014086015261047f82610ae08301610226565b61016086015261049382610b208301610226565b6101808601526104a782610b608301610226565b6101a08601526104bb82610ba08301610226565b6101c08601526104cf82610be08301610226565b6101e08601526104e382610c208301610226565b6102008601526104f782610c608301610226565b61022086015261050b82610ca08301610226565b61024086015261051f82610ce08301610226565b61026086015261053382610d20830161036c565b61028086015261054782610e608301610226565b6102a086015261055b82610ea08301610226565b6102c086015261056f82610ee08301610226565b6102e086015261058382610f208301610226565b61030086015261059782610f608301610226565b610320860152610fa001610226565b610340830152565b6001600160401b0381166101fe565b90503590610087826105ae565b91909160c0818403126100aa5761025b6105e460c0610073565b9360006105f18285610205565b90860152602061060382828601610205565b90860152604061061582828601610205565b90860152606061062782828601610205565b90860152608061063982828601610205565b9086015260a08093016105bd565b611140818303126100aa5780356001600160401b0381116100aa578261066e9183016101e1565b9261067c8360208401610205565b9261068a8160408501610205565b926106988260608301610205565b926101326106a98460808501610205565b936106b78160a08601610384565b93611080016105ca565b6101326101326101329290565b6106d7906106c1565b9052565b60208101929161008791906106ce565b6107146107086106fc366004610647565b95949094939193610fa1565b604051918291826106db565b0390f35b90916060828403126100aa576101326107318484610205565b9361073f8160208601610205565b93604001610205565b610714610708610759366004610718565b91611a9f565b9061076c6100f883610089565b918252565b369037565b9061008761078c6107868461075f565b93610089565b601f190160208401610771565b634e487b7160e01b600052601160045260246000fd5b60001981146107be5760010190565b610799565b919082039182116107be57565b634e487b7160e01b600052603260045260246000fd5b906107ef825190565b811015610800576020809102010190565b6107d0565b634e487b7160e01b600052602160045260246000fd5b6013111561082557565b610805565b906100878261081b565b610132905161082a565b919082018092116107be57565b90505190610087826101fc565b9190916040818403126100aa5761025b6108726040610073565b93600061087f828561084b565b90860152602080930161084b565b906040828203126100aa5761013291610858565b909291926108b16100f882610212565b9360208592028301928184116100aa57915b8383106108d05750505050565b602080916108de848661084b565b8152019201916108c3565b9080601f830112156100aa57610132916003906108a1565b909291926109116100f882610212565b9360608592028301928184116100aa57915b8383106109305750505050565b602060609161093f84866108e9565b815201920191610923565b9080601f830112156100aa5761013291600390610901565b90610120828203126100aa576101329161094a565b6040513d6000823e3d90fd5b906003811015610800576020020190565b6109a16101326101329290565b6001600160401b031690565b6001600160401b03908116911601906001600160401b0382116107be57565b906020828203126100aa576101329161084b565b610132610132610132926001600160401b031690565b6106d7906109e0565b610a3261008794610a28606094989795610a21608086019a60008701906106ce565b6020850152565b60408301906109f6565b01906106ce565b600b11156100aa57565b9050519061008782610a39565b60005b838110610a635750506000910152565b8181015183820152602001610a53565b90929192610a836100f8826100bc565b938185526020850190828401116100aa5761008792610a50565b9080601f830112156100aa57815161013292602001610a73565b9190916040818403126100aa57610ace6040610073565b926000610adb8284610a43565b9085015260208201516001600160401b0381116100aa5761017a9201610a9d565b600211156100aa57565b9050519061008782610afc565b9190916040818403126100aa57610b2a6040610073565b815190936001600160401b0382116100aa57610b4b8161025b938501610ab7565b85526020928301610b06565b906020828203126100aa5781516001600160401b0381116100aa576101329201610b13565b600b111561082557565b9061008782610b7c565b61013290610b86565b6106d790610b90565b610bc3610bcc6020936100d893610bb7815190565b80835293849260200190565b95869101610a50565b601f01601f191690565b6101329160206040820192610bf360008201516000850190610b99565b0151906020818403910152610ba2565b6002111561082557565b9061008782610c03565b61013290610c0d565b6106d790610c17565b9061013290602080610c4a6040840160008701518582036000870152610bd6565b940151910190610c20565b9060208061008793610c6f600082015160008601906106ce565b01519101906106ce565b906100d881604093610c55565b610c96610c92600f9390565b9190565b6000915b838310610ca75750505050565b610cbe610cb76001928451610c79565b9260200190565b92019190610c9a565b610cd3610c9260069390565b6000915b838310610ce45750505050565b610cf4610cb76001928451610c79565b92019190610cd7565b610d09610c9260059390565b6000915b838310610d1a5750505050565b610d2a610cb76001928451610c79565b92019190610d0d565b805182526100879190610fa09061034090610d5660208201516020860190610c86565b610d6960408201516103e0860190610c55565b610d7c6060820151610420860190610cc7565b610d8f60808201516105a0860190610c86565b610da260a0820151610960860190610c55565b610db560c08201516109a0860190610c55565b610dc860e08201516109e0860190610c55565b610ddc610100820151610a20860190610c55565b610df0610120820151610a60860190610c55565b610e04610140820151610aa0860190610c55565b610e18610160820151610ae0860190610c55565b610e2c610180820151610b20860190610c55565b610e406101a0820151610b60860190610c55565b610e546101c0820151610ba0860190610c55565b610e686101e0820151610be0860190610c55565b610e7c610200820151610c20860190610c55565b610e90610220820151610c60860190610c55565b610ea4610240820151610ca0860190610c55565b610eb8610260820151610ce0860190610c55565b610ecc610280820151610d20860190610cfd565b610ee06102a0820151610e60860190610c55565b610ef46102c0820151610ea0860190610c55565b610f086102e0820151610ee0860190610c55565b610f1c610300820151610f20860190610c55565b610f30610320820151610f60860190610c55565b0151910190610c55565b92916020610f58610087936110008701908782036000890152610c29565b940190610d33565b916020610087929493610f7b604082019660008301906106ce565b0152565b916020610087929493610a32604082019660008301906106ce565b156100aa57565b9596959294909350610fb4858386611a9f565b94610fc5610fc0855190565b610776565b608052610fd260006106c1565b94610fde610fc0865190565b96869487885b610fef6101328a5190565b8a10156117e2578c61100160006106c1565b83116117c857898487602061102c8f611026600061101f83896107e6565b5101610834565b956107e6565b5101519361103a600061082a565b6110438561082a565b146117b057611052600161082a565b61105b8561082a565b146117955761106a600261082a565b6110738561082a565b1461177a57611082600361082a565b61108b8561082a565b1461175f5761109a600461082a565b6110a38561082a565b14611744576110b2600561082a565b6110bb8561082a565b14611680576110ca600d61082a565b6110d38561082a565b1461161357505050876110e6600e61082a565b6110ef8361082a565b146115ee57506110ff600661082a565b6111088261082a565b146115d557611117600861082a565b6111208261082a565b146115b05788611130600761082a565b6111398361082a565b146115345750611149600961082a565b6111528261082a565b1461147257611161600a61082a565b61116a8261082a565b1461140e57611179600b61082a565b6111828261082a565b146113aa57611191600c61082a565b61119a8261082a565b146112b8578c6111aa600f61082a565b6111b38361082a565b1461127557506111cc6111c6601061082a565b9161082a565b146112165760405162461bcd60e51b815260206004820152601e60248201527f756e68616e646c656420706f6c69736820746f6b656e2076617269616e7400006044820152606490fd5b61126f9161125961124a6112468f611240866020611235611269995190565b8183010191016109cc565b906107e6565b5190565b611256836080516107e6565b52565b61126360016106c1565b9061083e565b996107af565b98610fe4565b6112b292508a915061125990611256859e9c6112ac6112466112a461126f9961129e60016106c1565b906107c3565b6080516107e6565b926107e6565b976107af565b50506112d36112466112a46112cd60016106c1565b846107c3565b906112e86112e160016106c1565b80926107c3565b906020611305826112ff6112466112a483886107c3565b946107c3565b9273__$0f2ef74df25658b59f87c747afcc439be9$__61133c63b67d77c561134761132f60405190565b9889958694859460e01b90565b845260048401610f7f565b03915af49182156113a5576113726112699361126f95600091611377575b50611256836080516107e6565b61083e565b611398915060203d811161139e575b611390818361004d565b8101906109cc565b38611365565b503d611386565b610977565b50506113bf6112466112a46112cd60016106c1565b906113cd6112e160016106c1565b9060206113e4826112ff6112466112a483886107c3565b9273__$0f2ef74df25658b59f87c747afcc439be9$__61133c63c8a4ac9c61134761132f60405190565b50506114236112466112a46112cd60016106c1565b906114316112e160016106c1565b906020611448826112ff6112466112a483886107c3565b9273__$0f2ef74df25658b59f87c747afcc439be9$__61133c63771602f761134761132f60405190565b509960206114986112466112a461148d869f85611235825190565b9561129e60016106c1565b73__$0f2ef74df25658b59f87c747afcc439be9$__6114ce632e4c697f6114d96114c160405190565b9788958694859460e01b90565b845260048401610f60565b03915af49182156113a55761126f928c6115079260009261150c575b506112a46112569161129e60016106c1565b6107af565b61125691925061152c6112a49160203d811161139e57611390818361004d565b9291506114f5565b9291602091508082611547611552935190565b818301019101610b57565b73__$5266f7fddfb270b1d15c020a3f3b772855$__61157b6377d3d1ca6115866114c160405190565b845260048401610f3a565b03915af49081156113a5576112596112699261126f946000916113775750611256836080516107e6565b505061126961126f9161125961124a6112466112a46115cf60016106c1565b856107c3565b5061126f9161125961124a836020611235611269965190565b61126f93915061124a6112599161160c856020611235611269985190565b898b611827565b91949350602092509061167573__$7fce13414b3dc073b230e522131da1b406$__916115868c61166561165560a0637e8ba4089501516001600160401b031690565b61165f6001610994565b906109ad565b604051998a978896879660e01b90565b8652600486016109ff565b50505050906116a18260206116966116d2955190565b81830101910161088d565b9061012073__$f8a6f59275c0aa503a495dc30182cc6e10$__630a0976b1906116c960405190565b95869260e01b90565b825260049082905af49182156113a55761124a61124661125992611708602061170e6112699861126f9a600091611715575b5084515b90610983565b5192015190565b61173791506101203d811161173d575b61172f818361004d565b810190610962565b38611704565b503d611725565b6080015161126f95611269955093506112599250905061124a565b6060015161126f95611269955093506112599250905061124a565b6040015161126f95611269955093506112599250905061124a565b6020015161126f95611269955093506112599250905061124a565b5161126f95611269955093506112599250905061124a565b5098906117dc61126f9161129e60016106c1565b916107af565b9950505050505050505050611806919250611800610c9260016106c1565b14610f9a565b6101326112466112a460006106c1565b600160ff1b81146107be5760000390565b9092919061183560006106c1565b821215611a315760206114ce73__$0f2ef74df25658b59f87c747afcc439be9$__9361187f61187061186b632e4c697f93611816565b6106c1565b6040515b958694859460e01b90565b0381855af480156113a5576118c392602092600092611a12575b506118b8637a142f2e6118ab60405190565b9586948593849360e01b90565b8352600483016106db565b03915af49081156113a5576000916119f4575b50915b602061133c73__$0f2ef74df25658b59f87c747afcc439be9$__9461191163b67d77c59161190660405190565b968794859460e01b90565b0381865af49182156113a5576000926119d4575b5063c8a4ac9c9260206118b8637a142f2e61194d61194260405190565b968793849360e01b90565b0381845af49283156113a5576000936119b0575b5061133c6020939461198261197560405190565b9687958694859460e01b90565b03915af49081156113a557600091611998575090565b610132915060203d811161139e57611390818361004d565b602093506119cd61133c91853d811161139e57611390818361004d565b9350611961565b6119ed91925060203d811161139e57611390818361004d565b9038611925565b611a0c915060203d811161139e57611390818361004d565b386118d6565b611a2a919250833d811161139e57611390818361004d565b9038611899565b60209073__$0f2ef74df25658b59f87c747afcc439be9$__6114ce611a5a632e4c697f956106c1565b94611a6761197560405190565b03915af49081156113a557600091611a81575b50916118d9565b611a99915060203d811161139e57611390818361004d565b38611a7a565b509060206114ce73__$0f2ef74df25658b59f87c747afcc439be9$__93611ace632e4c697f9161187460405190565b0381855af480156113a557611afe91600091611b29575b5063b67d77c59260208163901717d1906116c960405190565b825260049082905af49283156113a5576000936119b0575061133c6020939461198261197560405190565b611b41915060203d811161139e57611390818361004d565b38611ae556fea26469706673582212205bd52fd088c8691ef87b9c166ba6e3b13c287c7107eb11c32d74f19f8caa8feb64736f6c63430008150033",
  "linkReferences": {
    "lib/Polynomial.sol": {
      "Polynomial": [
        {
          "length": 20,
          "start": 5701
        }
      ]
    },
    "lib/Proof.sol": {
      "Proof": [
        {
          "length": 20,
          "start": 5496
        }
      ]
    },
    "lib/bn254/Fields.sol": {
      "Scalar": [
        {
          "length": 20,
          "start": 4908
        },
        {
          "length": 20,
          "start": 5131
        },
        {
          "length": 20,
          "start": 5231
        },
        {
          "length": 20,
          "start": 5310
        },
        {
          "length": 20,
          "start": 6247
        },
        {
          "length": 20,
          "start": 6404
        },
        {
          "length": 20,
          "start": 6746
        },
        {
          "length": 20,
          "start": 6860
        }
      ]
    },
    "lib/sponge/Sponge.sol": {
      "KeccakSponge": [
        {
          "length": 20,
          "start": 5835
        }
      ]
    }
  },
  "deployedLinkReferences": {
    "lib/Polynomial.sol": {
      "Polynomial": [
        {
          "length": 20,
          "start": 5665
        }
      ]
    },
    "lib/Proof.sol": {
      "Proof": [
        {
          "length": 20,
          "start": 5460
        }
      ]
    },
    "lib/bn254/Fields.sol": {
      "Scalar": [
        {
          "length": 20,
          "start": 4872
        },
        {
          "length": 20,
          "start": 5095
        },
        {
          "length": 20,
          "start": 5195
        },
        {
          "length": 20,
          "start": 5274
        },
        {
          "length": 20,
          "start": 6211
        },
        {
          "length": 20,
          "start": 6368
        },
        {
          "length": 20,
          "start": 6710
        },
        {
          "length": 20,
          "start": 6824
        }
      ]
    },
    "lib/sponge/Sponge.sol": {
      "KeccakSponge": [
        {
          "length": 20,
          "start": 5799
        }
      ]
    }
  }
}