{
  "abi": [
    {
      "inputs": [],
      "name": "P_MOD",
      "outputs": [
        {
          "internalType": "uint256",
          "name": "",
          "type": "uint256"
        }
      ],
      "stateMutability": "view",
      "type": "function"
    },
    {
      "inputs": [],
      "name": "R_MOD",
      "outputs": [
        {
          "internalType": "uint256",
          "name": "",
          "type": "uint256"
        }
      ],
      "stateMutability": "view",
      "type": "function"
    }
  ],
  "bytecode": {
    "object": "0x608080604052346100195760d9908161001f823930815050f35b600080fdfe6080806040526004361015601257600080fd5b600090813560e01c9081631d712e2714606b575063df6e6cb414603457600080fd5b8060031936011260685760206040517f30644e72e131a029b85045b68181585d2833e84879b9709143e1f593f00000018152f35b80fd5b905081600319360112609f57807f30644e72e131a029b85045b68181585d97816a916871ca8d3c208c16d87cfd4760209252f35b5080fdfea2646970667358221220993565dcce05242acebb4a7f829703118a51f6afaa9e48b1e2510ea43f587c8b64736f6c63430008150033",
    "linkReferences": {}
  },
  "methodIdentifiers": {
    "P_MOD()": "1d712e27",
    "R_MOD()": "df6e6cb4"
  },
  "id": 1
}