{
  "abi": [
    {
      "inputs": [],
      "name": "P_MOD",
      "outputs": [
        {
          "internalType": "uint256",
          "name": "",
          "type": "uint256"
        }
      ],
      "stateMutability": "view",
      "type": "function"
    },
    {
      "inputs": [],
      "name": "R_MOD",
      "outputs": [
        {
          "internalType": "uint256",
          "name": "",
          "type": "uint256"
        }
      ],
      "stateMutability": "view",
      "type": "function"
    }
  ],
  "bytecode": {
    "object": "0x60d6610039600b82828239805160001a60731461002c57634e487b7160e01b600052600060045260246000fd5b30600052607381538281f3fe7300000000000000000000000000000000000000003014608060405260043610603d5760003560e01c80631d712e27146042578063df6e6cb414607a575b600080fd5b60687f30644e72e131a029b85045b68181585d97816a916871ca8d3c208c16d87cfd4781565b60405190815260200160405180910390f35b60687f30644e72e131a029b85045b68181585d2833e84879b9709143e1f593f00000018156fea26469706673582212203eb12188089bf0c684c205d909d4b4b750bc91625448547541decad30fe80daf64736f6c63430008150033",
    "linkReferences": {}
  },
  "methodIdentifiers": {
    "P_MOD()": "1d712e27",
    "R_MOD()": "df6e6cb4"
  },
  "id": 18
}