{
  "_format": "hh-sol-artifact-1",
  "contractName": "KimchiPartialVerifier",
  "sourceName": "src/KimchiPartialVerifier.sol",
  "abi": [
    {
      "inputs": [],
      "name": "IncorrectPublicInputLength",
      "type": "error"
    },
    {
      "inputs": [],
      "name": "NonInstantiatedPowersOfAlpha",
      "type": "error"
    },
    {
      "inputs": [
        {
          "internalType": "uint256",
          "name": "asked_for",
          "type": "uint256"
        },
        {
          "internalType": "uint256",
          "name": "available",
          "type": "uint256"
        }
      ],
      "name": "NotEnoughPowersOfAlpha",
      "type": "error"
    },
    {
      "inputs": [
        {
          "internalType": "uint256",
          "name": "chunk_size",
          "type": "uint256"
        }
      ],
      "name": "PolynomialsAreChunked",
      "type": "error"
    },
    {
      "inputs": [
        {
          "components": [
            {
              "internalType": "uint256",
              "name": "optional_field_flags",
              "type": "uint256"
            },
            {
              "components": [
                {
                  "internalType": "Scalar.FE",
                  "name": "zeta",
                  "type": "uint256"
                },
                {
                  "internalType": "Scalar.FE",
                  "name": "zeta_omega",
                  "type": "uint256"
                }
              ],
              "internalType": "struct PointEvaluations[15]",
              "name": "w",
              "type": "tuple[15]"
            },
            {
              "components": [
                {
                  "internalType": "Scalar.FE",
                  "name": "zeta",
                  "type": "uint256"
                },
                {
                  "internalType": "Scalar.FE",
                  "name": "zeta_omega",
                  "type": "uint256"
                }
              ],
              "internalType": "struct PointEvaluations",
              "name": "z",
              "type": "tuple"
            },
            {
              "components": [
                {
                  "internalType": "Scalar.FE",
                  "name": "zeta",
                  "type": "uint256"
                },
                {
                  "internalType": "Scalar.FE",
                  "name": "zeta_omega",
                  "type": "uint256"
                }
              ],
              "internalType": "struct PointEvaluations[6]",
              "name": "s",
              "type": "tuple[6]"
            },
            {
              "components": [
                {
                  "internalType": "Scalar.FE",
                  "name": "zeta",
                  "type": "uint256"
                },
                {
                  "internalType": "Scalar.FE",
                  "name": "zeta_omega",
                  "type": "uint256"
                }
              ],
              "internalType": "struct PointEvaluations[15]",
              "name": "coefficients",
              "type": "tuple[15]"
            },
            {
              "components": [
                {
                  "internalType": "Scalar.FE",
                  "name": "zeta",
                  "type": "uint256"
                },
                {
                  "internalType": "Scalar.FE",
                  "name": "zeta_omega",
                  "type": "uint256"
                }
              ],
              "internalType": "struct PointEvaluations",
              "name": "generic_selector",
              "type": "tuple"
            },
            {
              "components": [
                {
                  "internalType": "Scalar.FE",
                  "name": "zeta",
                  "type": "uint256"
                },
                {
                  "internalType": "Scalar.FE",
                  "name": "zeta_omega",
                  "type": "uint256"
                }
              ],
              "internalType": "struct PointEvaluations",
              "name": "poseidon_selector",
              "type": "tuple"
            },
            {
              "components": [
                {
                  "internalType": "Scalar.FE",
                  "name": "zeta",
                  "type": "uint256"
                },
                {
                  "internalType": "Scalar.FE",
                  "name": "zeta_omega",
                  "type": "uint256"
                }
              ],
              "internalType": "struct PointEvaluations",
              "name": "complete_add_selector",
              "type": "tuple"
            },
            {
              "components": [
                {
                  "internalType": "Scalar.FE",
                  "name": "zeta",
                  "type": "uint256"
                },
                {
                  "internalType": "Scalar.FE",
                  "name": "zeta_omega",
                  "type": "uint256"
                }
              ],
              "internalType": "struct PointEvaluations",
              "name": "mul_selector",
              "type": "tuple"
            },
            {
              "components": [
                {
                  "internalType": "Scalar.FE",
                  "name": "zeta",
                  "type": "uint256"
                },
                {
                  "internalType": "Scalar.FE",
                  "name": "zeta_omega",
                  "type": "uint256"
                }
              ],
              "internalType": "struct PointEvaluations",
              "name": "emul_selector",
              "type": "tuple"
            },
            {
              "components": [
                {
                  "internalType": "Scalar.FE",
                  "name": "zeta",
                  "type": "uint256"
                },
                {
                  "internalType": "Scalar.FE",
                  "name": "zeta_omega",
                  "type": "uint256"
                }
              ],
              "internalType": "struct PointEvaluations",
              "name": "endomul_scalar_selector",
              "type": "tuple"
            },
            {
              "components": [
                {
                  "internalType": "Scalar.FE",
                  "name": "zeta",
                  "type": "uint256"
                },
                {
                  "internalType": "Scalar.FE",
                  "name": "zeta_omega",
                  "type": "uint256"
                }
              ],
              "internalType": "struct PointEvaluations",
              "name": "public_evals",
              "type": "tuple"
            },
            {
              "components": [
                {
                  "internalType": "Scalar.FE",
                  "name": "zeta",
                  "type": "uint256"
                },
                {
                  "internalType": "Scalar.FE",
                  "name": "zeta_omega",
                  "type": "uint256"
                }
              ],
              "internalType": "struct PointEvaluations",
              "name": "range_check0_selector",
              "type": "tuple"
            },
            {
              "components": [
                {
                  "internalType": "Scalar.FE",
                  "name": "zeta",
                  "type": "uint256"
                },
                {
                  "internalType": "Scalar.FE",
                  "name": "zeta_omega",
                  "type": "uint256"
                }
              ],
              "internalType": "struct PointEvaluations",
              "name": "range_check1_selector",
              "type": "tuple"
            },
            {
              "components": [
                {
                  "internalType": "Scalar.FE",
                  "name": "zeta",
                  "type": "uint256"
                },
                {
                  "internalType": "Scalar.FE",
                  "name": "zeta_omega",
                  "type": "uint256"
                }
              ],
              "internalType": "struct PointEvaluations",
              "name": "foreign_field_add_selector",
              "type": "tuple"
            },
            {
              "components": [
                {
                  "internalType": "Scalar.FE",
                  "name": "zeta",
                  "type": "uint256"
                },
                {
                  "internalType": "Scalar.FE",
                  "name": "zeta_omega",
                  "type": "uint256"
                }
              ],
              "internalType": "struct PointEvaluations",
              "name": "foreign_field_mul_selector",
              "type": "tuple"
            },
            {
              "components": [
                {
                  "internalType": "Scalar.FE",
                  "name": "zeta",
                  "type": "uint256"
                },
                {
                  "internalType": "Scalar.FE",
                  "name": "zeta_omega",
                  "type": "uint256"
                }
              ],
              "internalType": "struct PointEvaluations",
              "name": "xor_selector",
              "type": "tuple"
            },
            {
              "components": [
                {
                  "internalType": "Scalar.FE",
                  "name": "zeta",
                  "type": "uint256"
                },
                {
                  "internalType": "Scalar.FE",
                  "name": "zeta_omega",
                  "type": "uint256"
                }
              ],
              "internalType": "struct PointEvaluations",
              "name": "rot_selector",
              "type": "tuple"
            },
            {
              "components": [
                {
                  "internalType": "Scalar.FE",
                  "name": "zeta",
                  "type": "uint256"
                },
                {
                  "internalType": "Scalar.FE",
                  "name": "zeta_omega",
                  "type": "uint256"
                }
              ],
              "internalType": "struct PointEvaluations",
              "name": "lookup_aggregation",
              "type": "tuple"
            },
            {
              "components": [
                {
                  "internalType": "Scalar.FE",
                  "name": "zeta",
                  "type": "uint256"
                },
                {
                  "internalType": "Scalar.FE",
                  "name": "zeta_omega",
                  "type": "uint256"
                }
              ],
              "internalType": "struct PointEvaluations",
              "name": "lookup_table",
              "type": "tuple"
            },
            {
              "components": [
                {
                  "internalType": "Scalar.FE",
                  "name": "zeta",
                  "type": "uint256"
                },
                {
                  "internalType": "Scalar.FE",
                  "name": "zeta_omega",
                  "type": "uint256"
                }
              ],
              "internalType": "struct PointEvaluations[5]",
              "name": "lookup_sorted",
              "type": "tuple[5]"
            },
            {
              "components": [
                {
                  "internalType": "Scalar.FE",
                  "name": "zeta",
                  "type": "uint256"
                },
                {
                  "internalType": "Scalar.FE",
                  "name": "zeta_omega",
                  "type": "uint256"
                }
              ],
              "internalType": "struct PointEvaluations",
              "name": "runtime_lookup_table",
              "type": "tuple"
            },
            {
              "components": [
                {
                  "internalType": "Scalar.FE",
                  "name": "zeta",
                  "type": "uint256"
                },
                {
                  "internalType": "Scalar.FE",
                  "name": "zeta_omega",
                  "type": "uint256"
                }
              ],
              "internalType": "struct PointEvaluations",
              "name": "runtime_lookup_table_selector",
              "type": "tuple"
            },
            {
              "components": [
                {
                  "internalType": "Scalar.FE",
                  "name": "zeta",
                  "type": "uint256"
                },
                {
                  "internalType": "Scalar.FE",
                  "name": "zeta_omega",
                  "type": "uint256"
                }
              ],
              "internalType": "struct PointEvaluations",
              "name": "xor_lookup_selector",
              "type": "tuple"
            },
            {
              "components": [
                {
                  "internalType": "Scalar.FE",
                  "name": "zeta",
                  "type": "uint256"
                },
                {
                  "internalType": "Scalar.FE",
                  "name": "zeta_omega",
                  "type": "uint256"
                }
              ],
              "internalType": "struct PointEvaluations",
              "name": "lookup_gate_lookup_selector",
              "type": "tuple"
            },
            {
              "components": [
                {
                  "internalType": "Scalar.FE",
                  "name": "zeta",
                  "type": "uint256"
                },
                {
                  "internalType": "Scalar.FE",
                  "name": "zeta_omega",
                  "type": "uint256"
                }
              ],
              "internalType": "struct PointEvaluations",
              "name": "range_check_lookup_selector",
              "type": "tuple"
            },
            {
              "components": [
                {
                  "internalType": "Scalar.FE",
                  "name": "zeta",
                  "type": "uint256"
                },
                {
                  "internalType": "Scalar.FE",
                  "name": "zeta_omega",
                  "type": "uint256"
                }
              ],
              "internalType": "struct PointEvaluations",
              "name": "foreign_field_mul_lookup_selector",
              "type": "tuple"
            }
          ],
          "internalType": "struct Proof.ProofEvaluations",
          "name": "e",
          "type": "tuple"
        },
        {
          "internalType": "Scalar.FE",
          "name": "beta",
          "type": "uint256"
        },
        {
          "internalType": "Scalar.FE",
          "name": "gamma",
          "type": "uint256"
        },
        {
          "components": [
            {
              "internalType": "Scalar.FE[]",
              "name": "powers",
              "type": "uint256[]"
            },
            {
              "internalType": "uint256",
              "name": "current_index",
              "type": "uint256"
            }
          ],
          "internalType": "struct AlphasIterator",
          "name": "alphas",
          "type": "tuple"
        },
        {
          "internalType": "Scalar.FE",
          "name": "zkp_zeta",
          "type": "uint256"
        }
      ],
      "name": "perm_scalars",
      "outputs": [
        {
          "internalType": "Scalar.FE",
          "name": "res",
          "type": "uint256"
        }
      ],
      "stateMutability": "view",
      "type": "function"
    }
  ],
  "bytecode": "0x60806040523461002057604051615100610026823930816007015261510090f35b600080fdfe60c0604052307f00000000000000000000000000000000000000000000000000000000000000001415600436101561003657600080fd5b60003560e01c9081638b0b69c0146100725781638c344ab614610068575063ce24888a1461006357600080fd5b610874565b6103f7575b600080fd5b6101d3565b805b0361006d57565b9050359061008d82610077565b565b634e487b7160e01b600052604160045260246000fd5b90601f01601f191681019081106001600160401b038211176100c657604052565b61008f565b9061008d6100d860405190565b92836100a5565b6001600160401b0381116100c65760208091020190565b9092919261010b610106826100df565b6100cb565b938185526020808601920283019281841161006d57915b83831061012f5750505050565b6020809161013d8486610080565b815201920191610122565b9080601f8301121561006d57816020610163933591016100f6565b90565b60808183031261006d5761017a8282610080565b926101888360208401610080565b926040830135906001600160401b03821161006d576101ac81610163938601610148565b93606001610080565b9052565b60408101929161008d919080518252602090810151910152565b6101f96101ed6101e4366004610166565b92919091614a2a565b604051918291826101b9565b0390f35b60e08183031261006d576102118282610080565b9261021f8360208401610080565b9261022d8160408501610080565b9260608101356001600160401b03811161006d578261024d918301610148565b9261016361025e8460808501610080565b9361026c8160a08601610080565b9360c001610080565b6101636101636101639290565b6101b590610275565b9061029881602093610282565b0190565b6102ac6102a860029390565b9190565b6000915b8383106102bd5750505050565b6102d46102cd600192845161028b565b9260200190565b920191906102b0565b8051805183526020908101519083015261008d919060809060409061030960208201518386019061029c565b01516001600160801b0316910152565b906102988160a0936102dd565b9061033f6102cd610335845190565b8084529260200190565b9060005b8181106103505750505090565b90919261036a6103636001928651610319565b9460200190565b929101610343565b8051805183526020908101518184015261008d9291604091905b0151910190610282565b9061016390608060606103b860e0840160008701518582036000870152610326565b946103cb6020820151602086019061029c565b6103dc604082015183860190610282565b0151910190610372565b602080825261016392910190610396565b6101f96104146104083660046101fd565b9594909493919361257e565b604051918291826103e6565b6001600160401b0381116100c65760200290565b91909160408184031261006d5761046961044e60406100cb565b93600061045b8285610080565b908601526020809301610080565b90830152565b9092919261047f61010682610420565b93604085920283019281841161006d57915b83831061049e5750505050565b60206040916104ad8486610434565b815201920191610491565b9080601f8301121561006d5761016391600f9061046f565b909291926104e061010682610420565b93604085920283019281841161006d57915b8383106104ff5750505050565b602060409161050e8486610434565b8152019201916104f2565b9080601f8301121561006d57610163916006906104d0565b9092919261054161010682610420565b93604085920283019281841161006d57915b8383106105605750505050565b602060409161056f8486610434565b815201920191610553565b9080601f8301121561006d5761016391600590610531565b9190610fe08382031261006d576107b4906105ae6103606100cb565b9360006105bb8383610080565b9086015260206105cd838284016104b8565b908601526105df826103e08301610434565b60408601526105f2826104208301610519565b6060860152610605826105a083016104b8565b6080860152610618826109608301610434565b60a086015261062b826109a08301610434565b60c086015261063e826109e08301610434565b60e086015261065182610a208301610434565b61010086015261066582610a608301610434565b61012086015261067982610aa08301610434565b61014086015261068d82610ae08301610434565b6101608601526106a182610b208301610434565b6101808601526106b582610b608301610434565b6101a08601526106c982610ba08301610434565b6101c08601526106dd82610be08301610434565b6101e08601526106f182610c208301610434565b61020086015261070582610c608301610434565b61022086015261071982610ca08301610434565b61024086015261072d82610ce08301610434565b61026086015261074182610d20830161057a565b61028086015261075582610e608301610434565b6102a086015261076982610ea08301610434565b6102c086015261077d82610ee08301610434565b6102e086015261079182610f208301610434565b6103008601526107a582610f608301610434565b610320860152610fa001610434565b610340830152565b91909160408184031261006d576107d360406100cb565b928135906001600160401b03821161006d576107f481610469938501610148565b85526020928301610080565b91906110608382031261006d576108178184610592565b9261082682610fe08301610080565b92610835836110008401610080565b92611020830135906001600160401b03821161006d5761085a816101639386016107bc565b9361104001610080565b60208101929161008d9190610282565b6101f961088e610885366004610800565b93929092614c43565b60405191829182610864565b61016360806100cb565b61010661016391610420565b369037565b9061008d6108cb6108c5846108a4565b93610420565b836108b0565b61016360026108b5565b61016360406100cb565b6108ed6108db565b9060005b825260006020830152565b905250565b6101636108e5565b6109116108db565b906108f1610901565b610163610909565b61092a61089a565b90606082526020808080850161093e6108d1565b81520160008152016108fc61091a565b610163610922565b9050519061008d82610077565b91909160208184031261006d5761046961097d60206100cb565b93600092610956565b9190916101a08184031261006d576104696109a26101a06100cb565b9360006109af8285610963565b9086015260206109c182828601610956565b9086015260406109d382828601610956565b9086015260606109e582828601610956565b9086015260806109f782828601610963565b9086015260a0610a0982828601610956565b9086015260c0610a1b82828601610956565b9086015260e0610a2d82828601610956565b90860152610100610a4082828601610956565b90860152610120610a5382828601610963565b90860152610140610a6682828601610963565b90860152610160610a7982828601610963565b90860152610180809301610956565b90929192610a9861010682610420565b93602085920283019281841161006d57915b838310610ab75750505050565b60208091610ac58486610956565b815201920191610aaa565b9080601f8301121561006d5761016391600290610a88565b91909160408184031261006d57610469610b0260406100cb565b936000610b0f8285610956565b908601526020809301610956565b91906102808382031261006d57610b9d90610b3860c06100cb565b936000610b458383610956565b908601526020610b5783828401610986565b90860152610b69826101c08301610ad0565b6040860152610b7c826102008301610ae8565b6060860152610b8f826102408301610956565b608086015261026001610956565b60a0830152565b906102808282031261006d5761016391610b1d565b6101639081565b906020610be7600161008d94610be0610bdc6000830154610bb9565b8652565b0154610bb9565b910152565b9061029881604093610bc0565b610c056102a8600f9390565b6000915b838310610c165750505050565b610c2c610c2560019284610bec565b9260020190565b92019190610c09565b610c416102a860079390565b6000915b838310610c525750505050565b610c61610c2560019284610bec565b92019190610c45565b90610c85610c79610335845490565b92600052602060002090565b9060005b818110610c965750505090565b909192610caf610ca860019286610bec565b9460020190565b929101610c89565b90610163906106406032610d1d6106808401610cd9610bdc6000890154610bb9565b610ce96020860160018901610bf9565b610cfa6103e08601601f8901610bc0565b610d0b610420860160218901610c35565b602f87018582036105e0870152610c6a565b94610d2f610600850160308301610bc0565b01910190610bc0565b61008d9190604090610d5190600290610be08582610bc0565b910190610282565b906020610d51600161008d94610be0610d756000830154610bb9565b8690610282565b9061029881604093610d59565b610d956102a8600f9390565b6000915b838310610da65750505050565b610db5610c2560019284610d7c565b92019190610d99565b610dca6102a860069390565b6000915b838310610ddb5750505050565b610dea610c2560019284610d7c565b92019190610dce565b610dff6102a860059390565b6000915b838310610e105750505050565b610e1f610c2560019284610d7c565b92019190610e03565b90610fa0607d61008d93610e46610e426000830154610bb9565b8552565b610e566020850160018301610d89565b610e676103e08501601f8301610d59565b610e78610420850160218301610dbe565b610e896105a08501602d8301610d89565b610e9a6109608501604b8301610d59565b610eab6109a08501604d8301610d59565b610ebc6109e08501604f8301610d59565b610ecd610a20850160518301610d59565b610ede610a60850160538301610d59565b610eef610aa0850160558301610d59565b610f00610ae0850160578301610d59565b610f11610b20850160598301610d59565b610f22610b608501605b8301610d59565b610f33610ba08501605d8301610d59565b610f44610be08501605f8301610d59565b610f55610c20850160618301610d59565b610f66610c60850160638301610d59565b610f77610ca0850160658301610d59565b610f88610ce0850160678301610d59565b610f99610d20850160698301610df3565b610faa610e60850160738301610d59565b610fbb610ea0850160758301610d59565b610fcc610ee0850160778301610d59565b610fdd610f20850160798301610d59565b610fee610f608501607b8301610d59565b01910190610d59565b61108080835290916101639161106090610d519060b69061101a90850187610cb7565b9561102b6020860160348301610d38565b610be06080860160378301610e28565b9061104a6102cd610335845190565b9060005b81811061105b5750505090565b90919261106e610363600192865161028b565b92910161104e565b926110d26110e39360e0966110c56110dc946110b36110ab9b9e9d9b61008d9d986101008c01908c6000818403910152610ff7565b9460208b0152565b805160408a0152602001516060890152565b868203608088015261103b565b98151560a0850152565b60c0830152565b0152565b6040513d6000823e3d90fd5b6101639054610bb9565b9061008d611125600161110e6108db565b9461111f61111b826110f3565b8752565b016110f3565b6020840152565b610163906110fd565b90600f611141816108a4565b92600090845b8383106111545750505050565b600260206001926111648561112c565b815201920192019190611147565b90600661117e816108a4565b92600090845b8383106111915750505050565b600260206001926111a18561112c565b815201920192019190611184565b9060056111bb816108a4565b92600090845b8383106111ce5750505050565b600260206001926111de8561112c565b8152019201920191906111c1565b6101636103606100cb565b9061008d611453607d6112086111ec565b9461121561111b826110f3565b61122b61122460018301611135565b6020880152565b61124161123a601f83016110fd565b6040880152565b61125761125060218301611172565b6060880152565b61126d611266602d8301611135565b6080880152565b61128361127c604b83016110fd565b60a0880152565b611299611292604d83016110fd565b60c0880152565b6112af6112a8604f83016110fd565b60e0880152565b6112c66112be605183016110fd565b610100880152565b6112dd6112d5605383016110fd565b610120880152565b6112f46112ec605583016110fd565b610140880152565b61130b611303605783016110fd565b610160880152565b61132261131a605983016110fd565b610180880152565b611339611331605b83016110fd565b6101a0880152565b611350611348605d83016110fd565b6101c0880152565b61136761135f605f83016110fd565b6101e0880152565b61137e611376606183016110fd565b610200880152565b61139561138d606383016110fd565b610220880152565b6113ac6113a4606583016110fd565b610240880152565b6113c36113bb606783016110fd565b610260880152565b6113da6113d2606983016111af565b610280880152565b6113f16113e9607383016110fd565b6102a0880152565b611408611400607583016110fd565b6102c0880152565b61141f611417607783016110fd565b6102e0880152565b61143661142e607983016110fd565b610300880152565b61144d611445607b83016110fd565b610320880152565b016110fd565b610340840152565b610163906111f7565b6101639060401c5b6001600160401b031690565b6101639054611464565b6101639061146c565b6101639054611482565b9060208282031261006d5761016391610956565b610163610163610163926001600160401b031690565b6101b5906114a9565b6114fe61008d946114f46060949897956114ea608086019a6000870190610282565b60208501906114bf565b60408301906114bf565b0190610282565b6101636003610275565b9061151c610106836100df565b918252565b634e487b7160e01b600052602160045260246000fd5b6013111561154157565b611521565b9061008d82611537565b906101b590611546565b634e487b7160e01b600052602260045260246000fd5b9060016002830492168015611590575b602083101461158b57565b61155a565b91607f1691611580565b805460009392916115b76115ad83611570565b8085529360200190565b916001811690811561160957506001146115d057505050565b6115e39192939450600052602060002090565b916000925b8184106115f55750500190565b8054848401526020909301926001016115e8565b92949550505060ff1916825215156020020190565b906101639161159a565b9061008d6116429261163960405190565b9384809261161e565b03836100a5565b9061008d611125600161165a6108db565b9461166f611669825460ff1690565b87611550565b01611628565b61016390611649565b90611687825490565b6116908161150f565b926116a46020850191600052602060002090565b6000915b8383106116b55750505050565b600260206001926116c585611675565b8152019201920191906116a8565b600b111561154157565b9061008d826116d3565b906101b5906116dd565b9061008d61112560016117026108db565b9461166f611711825460ff1690565b876116e7565b9061008d61112560026117286108db565b9461173561111b826116f1565b0161167e565b61016390611717565b9061174d825490565b6117568161150f565b9261176a6020850191600052602060002090565b6000915b83831061177b5750505050565b6003602060019261178b8561173b565b81520192019201919061176e565b9061008d61112560016117aa6108db565b946117b761111b8261167e565b01611744565b61016390611799565b634e487b7160e01b600052601160045260246000fd5b919082018092116117e957565b6117c6565b60005b8281106117fd57505050565b602090611808610901565b81840152016117f1565b9061008d6118286118228461150f565b936100df565b601f1901602084016117ee565b6101636007610275565b919082039182116117e957565b634e487b7160e01b600052603260045260246000fd5b6007821015611878576003905b91020190600090565b61184c565b80548210156118785761186f600291600052602060002090565b906118a0825190565b811015611878576020809102010190565b9061008d6118c16118228461150f565b601f1901602084016108b0565b61016360c06100cb565b61016390611546565b6101b5906118d8565b60005b8381106118fd5750506000910152565b81810151838201526020016118ed565b61192e61193760209361029893611922815190565b80835293849260200190565b958691016118ea565b601f01601f191690565b610163916020604082019261195e600082015160008501906118e1565b015190602081840391015261190d565b9061016391611941565b9061198e611984835190565b8083529160200190565b90816119a06020830284019460200190565b926000915b8383106119b457505050505090565b909192939460206119d76119d08385600195038752895161196e565b9760200190565b93019301919392906119a5565b9060208061008d9361038c60008201516000860190610282565b90610298816040936119e4565b611a176102a8600f9390565b6000915b838310611a285750505050565b611a386102cd60019284516119fe565b92019190611a1b565b611a4d6102a860069390565b6000915b838310611a5e5750505050565b611a6e6102cd60019284516119fe565b92019190611a51565b611a836102a860059390565b6000915b838310611a945750505050565b611aa46102cd60019284516119fe565b92019190611a87565b8051825261008d9190610fa09061034090611ad060208201516020860190611a0b565b611ae360408201516103e08601906119e4565b611af66060820151610420860190611a41565b611b0960808201516105a0860190611a0b565b611b1c60a08201516109608601906119e4565b611b2f60c08201516109a08601906119e4565b611b4260e08201516109e08601906119e4565b611b56610100820151610a208601906119e4565b611b6a610120820151610a608601906119e4565b611b7e610140820151610aa08601906119e4565b611b92610160820151610ae08601906119e4565b611ba6610180820151610b208601906119e4565b611bba6101a0820151610b608601906119e4565b611bce6101c0820151610ba08601906119e4565b611be26101e0820151610be08601906119e4565b611bf6610200820151610c208601906119e4565b611c0a610220820151610c608601906119e4565b611c1e610240820151610ca08601906119e4565b611c32610260820151610ce08601906119e4565b611c46610280820151610d20860190611a77565b611c5a6102a0820151610e608601906119e4565b611c6e6102c0820151610ea08601906119e4565b611c826102e0820151610ee08601906119e4565b611c96610300820151610f208601906119e4565b611caa610320820151610f608601906119e4565b01519101906119e4565b9060a08061008d93611cce60008201516000860190610282565b611ce060208201516020860190610282565b611cf260408201516040860190610282565b611d0460608201516060860190610282565b611d1660808201516080860190610282565b01516001600160401b0316910152565b92611d8e92989795611d7a61108096611d70611d8494611d66611d5b61008d9d986111408c01908c6000818403910152611978565b9e60208b0190610282565b60408901906114bf565b6060870190610282565b6080850190610282565b60a0830190611aad565b0190611cb4565b9060408282031261006d5761016391610ae8565b610163906116dd565b6101b590611da9565b610163916020604082019261195e60008201516000850190611db2565b611df7610163949293611df060608401956000850152565b6020830152565b6040818403910152611dbb565b60001981146117e95760010190565b91602061008d9294936110e360408201966000830190610282565b906007611e3a816108a4565b92600090845b838310611e4d5750505050565b60026020600192611e5d8561112c565b815201920192019190611e40565b61016390611e2e565b9060075b811015611878576020020190565b91602061008d9294936114fe60408201966000830190610282565b61016360606100cb565b611eb3611ea1565b90611ebc610901565b8252602080808401611ecc6108d1565b8152016000905250565b610163611eab565b60005b828110611eed57505050565b602090611ef8611ed6565b8184015201611ee1565b9061008d611f126118228461150f565b601f190160208401611ede565b611f2c6101636101639290565b6001600160801b031690565b611f406108db565b906000825260606020830152565b610163611f38565b60005b828110611f6557505050565b602090611f70611f4e565b8184015201611f59565b9061008d611f8a6118228461150f565b601f190160208401611f56565b6001600160401b0381116100c657602090601f01601f19160190565b9061151c61010683611f97565b9061008d6118c1611fd084611fb3565b93611f97565b6012111561154157565b9061008d82611fd6565b61016390611fe0565b6101b590611fea565b60208101929161008d9190611ff3565b610163600f610275565b9061201f825490565b6120288161150f565b9261203c6020850191600052602060002090565b6000915b83831061204d5750505050565b6002602060019261205d8561112c565b815201920192019190612040565b9061008d611125600161207c6108db565b9461144d61111b82612016565b6101639061206b565b9061209b825490565b6120a48161150f565b926120b86020850191600052602060002090565b6000915b8383106120c95750505050565b600360206001926120d985612089565b8152019201920191906120bc565b6101636101006100cb565b9061008d612193600f6121036120e7565b9461211061111b8261206b565b61212a612121600383015460ff1690565b15156020880152565b61213961123a6004830161206b565b61215361214a600783015460ff1690565b15156060880152565b6121626112666008830161206b565b61217c612173600b83015460ff1690565b151560a0880152565b61218b611292600c830161206b565b015460ff1690565b151560e0840152565b61016360e06100cb565b9061008d61221a601a6121b761219c565b946121c461111b82612092565b6121d3611224600183016120f2565b6121e261123a601183016110fd565b6121f16112506013830161206b565b61220b612202601683015460ff1690565b15156080880152565b61218b61127c6017830161206b565b151560c0840152565b610163906121a6565b91610163926122446110008201936000830190610e28565b610fe0818403910152611dbb565b6101636000610275565b801515610079565b9050519061008d8261225c565b9060208282031261006d5761016391612264565b929160206122a261008d9360408701908782036000890152610cb7565b940152565b6101636008610275565b91610fe061008d9294936110e36110008201966000830190610e28565b6101636002610275565b909291926122e8610106826100df565b93818552604060208601920283019281841161006d57915b83831061230d5750505050565b602060409161231c8486610ae8565b815201920191612300565b9080601f8301121561006d578151610163926020016122d8565b91909160608184031261006d5761235860406100cb565b815190936001600160401b03821161006d5761237981610469938501612327565b85526020928301610ae8565b9060208282031261006d5781516001600160401b03811161006d576101639201612341565b906123b96102cd610335845190565b9060005b8181106123ca5750505090565b9091926123ec6103636001928651805182526020908101519082015260400190565b9291016123bd565b906101639060208061241560608401600087015185820360008701526123aa565b94015191019080518252602090810151910152565b90610163916123f4565b90612440611984835190565b90816124526020830284019460200190565b926000915b83831061246657505050505090565b909192939460206124826119d08385600195038752895161242a565b9301930191939290612457565b929161008d969897956124e160c0966124d86124f8966124ce6124c36124ee986101008c01908c6000818403910152612434565b9660208b0190610282565b6040890190610282565b15156060870152565b84820360808601526123f4565b96151560a0830152565b0190610bc0565b610163600e610275565b91610163926122446110008201936000830190611aad565b6004111561154157565b9061008d82612521565b6101639061252b565b6101b590612535565b60208101929161008d919061253e565b9061008d61112560026125686108db565b9461111f61111b826110fd565b61016390612557565b836125a683999896610280966125eb9995966125dd9560805261259f61094e565b5087614a2a565b96879673__$ac24b2e4a6622aa3539a1a69d65062654d$__946001638363fb36946125d060405190565b9b8c998a98899860e01b90565b885260805160048901611076565b03915af49182156129b9576000926140d0575b5060208201519361261360376080510161145b565b637e8ba4089590602073__$7fce13414b3dc073b230e522131da1b406$__61263d600486016110f3565b9061267961264d60038801611478565b9a61268461265d60038a0161148b565b60c08901519061266c60405190565b9e8f978896879660e01b90565b8652600486016114c8565b03915af49687156129b9576000976140b0575b5060129660058401886126a8611505565b906126b2926141f3565b946126bf601086016117bd565b9660208801516126cd905190565b6126d76001610275565b6126e0916117dc565b6126e990611812565b9986016126f4611835565b906126ff6001610275565b612709908361183f565b61271291611862565b5061271f9060009061187d565b506127299061112c565b6127336000610275565b61273d908d611897565b526127486000610275565b612752908c611897565b506020890151516127636001610275565b61276c916117dc565b612775906118b1565b976040870194612783865190565b906060890192612791845190565b61279b938a614c43565b6127a56000610275565b6127af908b611897565b5260a08701519451905160208801516127ca609a8b016110f3565b916127d760038c0161148b565b936127e06118ce565b98895260208901526040880152606087015260808601526001600160401b031660a085015261280f6000610275565b61281e61016360208c01515190565b8110156129ec57808860208061284b848f9660006128408592838b0151611897565b510151970151611897565b510151896128ba8c6128c58c73__$913ad375194982fcdc423fdd3cab4d2832$__9463d1ad4b739361288b600361288460048d016110f3565b9b01611478565b906128a361018061289d60c084015190565b92015190565b916128ad60405190565b9b8c9a8b998a9960e01b90565b895260048901611d26565b03915af480156129b9576128fb916000916129be575b506128f86128f26128ec6001610275565b856117dc565b8d611897565b52565b60408973__$c45354188f89f475a744ce88fabdf9f12c$__61293463f6ca8ab461294361292760405190565b9788958694859460e01b90565b84526080519060048501611dd8565b03915af49182156129b957612984928e61297e92600092612989575b5061296d6128ec6001610275565b916129788383611897565b52611897565b50611e04565b61280f565b6129ab91925060403d81116129b2575b6129a381836100a5565b810190611d95565b903861295f565b503d612999565b6110e7565b6129df915060203d81116129e5575b6129d781836100a5565b810190611495565b386128db565b503d6129cd565b5095975097925097612a03915094612a3f95614596565b966020612a1160c085015190565b612a1d600289016110f3565b90612a2760405190565b9788928392632e4c697f60e01b845260048401611e13565b038173__$0f2ef74df25658b59f87c747afcc439be9$__5af49485156129b957600095614090575b50608051612a7790602101611e6b565b95612a80614607565b94612a8b6000610275565b955b60079081881015612ae257612adc91612acf612ac9612ab98b612ab38e612ad6976147f1565b9461183f565b612ac36001610275565b9061183f565b8c611e74565b519061468f565b96611e04565b95612a8d565b9499959a9398505094509450612af9608084015190565b612b3063b67d77c5602073__$0f2ef74df25658b59f87c747afcc439be9$__63901717d190612b2760405190565b94859260e01b90565b825260049082905af49081156129b957612b6d612b6292602094600091614073575b506040515b958694859460e01b90565b845260048401611e86565b038173__$0f2ef74df25658b59f87c747afcc439be9$__5af480156129b957612bab93612ba592600092614053575b509998996147f1565b90614734565b612c89612bc0612bbb6038610275565b611f02565b95612c5f612bce6000610275565b94612bee6040820151612be7612be2611ea1565b958652565b6020850152565b612c26612bfb6000611f1f565b6001600160801b038116604086015296612c1481611e04565b94612c1f828d611897565b528a611897565b50612c43612c3f60a0612c3960026108a4565b93015190565b8252565b612c54611df060b6608051016110f3565b612be7612be2611ea1565b6001600160801b0384166040840152612c7781611e04565b92612c828289611897565b5286611897565b50612c9c612c976034610275565b611f7a565b94612ca76000610275565b94612cb186611fc0565b612cc8612cbc6108db565b91611df06001846116e7565b612cd28789611897565b52612cdd8688611897565b50604051612d008160208101612cf4600182611ffc565b908103825203826100a5565b612d17612d0b6108db565b91611df06008846116e7565b612d2a612d246001610275565b89611897565b52612d3e612d386001610275565b88611897565b50604051612d558160208101612cf4600282611ffc565b612d60612d0b6108db565b612d6d612d246002610275565b52612d7b612d386002610275565b50604051612d928160208101612cf4600382611ffc565b612d9d612d0b6108db565b612daa612d246003610275565b52612db8612d386003610275565b50604051612dcf8160208101612cf4600482611ffc565b612dda612d0b6108db565b612de7612d246004610275565b52612df5612d386004610275565b50604051612e0c8160208101612cf4600582611ffc565b612e17612d0b6108db565b612e24612d246005610275565b52612e32612d386005610275565b50604051612e498160208101612cf4600682611ffc565b612e54612d0b6108db565b612e61612d246006610275565b52612e6f612d386006610275565b50612e7a6007610275565b98865b612e8861016361200c565b811015612f0057612ef89061297e612eeb8b9c9d612ef1612ea860405190565b91612ecb8360208101612ebf898290815260200190565b908103825203846100a5565b612ee2612ed66108db565b93612be76000866116e7565b80938491611e04565b9f611897565b528b611897565b999899612e7d565b5090919293949597885b612f1561016361200c565b811015612f6b57612f639061297e612eeb8b9c9d612ef1600991612ee2612f3b60405190565b612f518160208101612cf48b8290815260200190565b612be7612f5c6108db565b95866116e7565b999899612f0a565b509091929394959897805b612f8c610163612f866001610275565b8d61183f565b81101561300457600a99612f9f60405190565b60208181018490528152612fb46040826100a5565b612fbc6108db565b9b612fc7908d6116e7565b60208c0152612fd581611e04565b9a612fe0828c611897565b52612feb908a611897565b5150610163612ffc612f8c92611e04565b915050612f76565b50909192939495985061301b606985015460ff1690565b614036575b606d84015460ff16614019575b607184015460ff16613ffc575b607584015460ff16613fdf575b607984015460ff16613fc2575b607d84015460ff16613f88575b609984015460ff16613e9b575b8098979695985b875b81101561320d578697989960406130de986130a373__$5266f7fddfb270b1d15c020a3f3b772855$__90565b6130cd6130b58663c26eae9f94611897565b51926130c060405190565b9c8d948593849360e01b90565b83526037608051016004840161222c565b03915af480156129b957613145986000916131ef575b50604063f6ca8ab473__$c45354188f89f475a744ce88fabdf9f12c$__61313661311e878f611897565b519261312960405190565b9d8e948593849360e01b90565b83526080518e60048501611dd8565b03915af49889156129b9576000996131cf575b5061316360026108a4565b9061316c815190565b825260200151602082015261317f611ea1565b98895260208901526001600160801b038b16604089015261319f81611e04565b976131aa8289611897565b526131b59087611897565b51506131c361307791611e04565b90509897969598613075565b6131e891995060403d81116129b2576129a381836100a5565b9738613158565b613207915060403d81116129b2576129a381836100a5565b386130f4565b5091979295509350949194613226609986015460ff1690565b61330d575b50505061323860026108a4565b613246612c3f60c084015190565b6020612b6261325660c085015190565b9461327961326b600463c8a4ac9c93016110f3565b604051978894859460e01b90565b038173__$0f2ef74df25658b59f87c747afcc439be9$__5af49182156129b9576132c260e06132e3926132bd6132e896610163986000916132ef575b506020870152565b015190565b6132dc603460805101936112246132d761089a565b988952565b6040860152565b612575565b6060830152565b613307915060203d81116129e5576129d781836100a5565b386132b5565b613319607e8601612223565b9073__$5266f7fddfb270b1d15c020a3f3b772855$__61335c602061333c612252565b6040515b928391829190634598b61760e11b835260805160048401612285565b0381855af480156129b95761337791600091613d3757501590565b613e565760805161338a90609e0161112c565b506133bb60206133986122a7565b60405192839182919063ed80284560e01b5b8352603760805101600484016122b1565b0381855af480156129b9576133d691600091613d3757501590565b613e11576080516133e990609e0161112c565b602087015161341e6020613401816040890151015190565b604051928391829190632e4c697f60e01b83528660048401611e13565b038173__$0f2ef74df25658b59f87c747afcc439be9$__5af49081156129b957600091613df3575b508551916134576080880151151590565b916060880151916134666122ce565b9461347060405190565b90634598b61760e11b8252602082806134928a60006080510160048401612285565b03818c5af480156129b9576000956134d0938792613dd3575b50604051978896879663c53a5dbb60e01b885260328a6080510101956004890161248f565b0381875af49687156129b9576135316134fa8760008f9b613555968291613db2575b500151611897565b519461351a611df0602061350e60026108a4565b936132bd610bdc825190565b61352a613525611ea1565b968752565b6020860152565b6001600160801b038916604085015261354981611e04565b93612ef182869a611897565b5060c0850151613be3575b50505060c0820151613af4575b5060208181015101516139d0575b6020810151606001516138b7575b602081015160a00151613735575b6020015160e0015115155b6135ad575b8061322b565b6040516135c38160208101612cf4600382612547565b6135da6135ce6108db565b91611df06005846116e7565b6135e860376080510161145b565b92604061360b63c26eae9f6136168561360060405190565b988994859460e01b90565b845260048401612509565b038173__$5266f7fddfb270b1d15c020a3f3b772855$__5af49182156129b95761368894600093613713575b5060409073__$c45354188f89f475a744ce88fabdf9f12c$__61367963f6ca8ab461366c60405190565b9889948593849360e01b90565b83526080518d60048501611dd8565b03915af49081156129b9576136e5946000926136ed575b506136ba6136ca9293612c54611df0602061350e60026108a4565b6001600160801b03166040830152565b6136d382611e04565b506136de8287611897565b5284611897565b5038806135a7565b6136ca925061370c6136ba9160403d81116129b2576129a381836100a5565b925061369f565b604091935061372e90823d81116129b2576129a381836100a5565b9290613642565b6040519161374c8360208101612ebf600282612547565b6137636137576108db565b93612be76005866116e7565b61377160376080510161145b565b92604061360b63c26eae9f6137898461360060405190565b038173__$5266f7fddfb270b1d15c020a3f3b772855$__5af49081156129b9576137e094600092613895575b5060409073__$c45354188f89f475a744ce88fabdf9f12c$__5b61313663f6ca8ab461366c60405190565b03915af49384156129b95760009461385f575b506135a29261385460e09361383160209461381b6138158761350e60026108a4565b87830152565b61382b613826611ea1565b998a52565b85890152565b6001600160801b038816604088015261384981611e04565b96612c1f828d611897565b515092505050613597565b60209194509261385460e0936138316138886135a29760403d81116129b2576129a381836100a5565b97945050935050926137f3565b60409192506138b090823d81116129b2576129a381836100a5565b91906137b5565b604051916138ce8360208101612ebf600182612547565b6138d96137576108db565b6138e760376080510161145b565b92604061360b63c26eae9f6138ff8461360060405190565b038173__$5266f7fddfb270b1d15c020a3f3b772855$__5af49081156129b95761394894600092613895575060409073__$c45354188f89f475a744ce88fabdf9f12c$__6137cf565b03915af49384156129b9576000946139a6575b50906139766139a09261351a611df0602061350e60026108a4565b6001600160801b038516604085015261398e81611e04565b93613999828a611897565b5287611897565b50613589565b6139a0929194506139c76139769160403d81116129b2576129a381836100a5565b9491925061395b565b604051916139e78360208101612ebf600082612547565b6139f26137576108db565b613a0060376080510161145b565b92604061360b63c26eae9f613a188461360060405190565b038173__$5266f7fddfb270b1d15c020a3f3b772855$__5af49081156129b957613a7494600092613ad2575b5060409073__$c45354188f89f475a744ce88fabdf9f12c$__60405196879283918291633db2a2ad60e21b613136565b03915af49384156129b957600094613aa8575b5090613976613aa29261351a611df0602061350e60026108a4565b5061357b565b613aa292919450613ac96139769160403d81116129b2576129a381836100a5565b94919250613a87565b6040919250613aed90823d81116129b2576129a381836100a5565b9190613a44565b613afd90611fc0565b91613b15613b096108db565b93612be76006866116e7565b613b2360376080510161145b565b92604061360b63c26eae9f613b3b8461360060405190565b038173__$5266f7fddfb270b1d15c020a3f3b772855$__5af49081156129b957613b8494600092613895575060409073__$c45354188f89f475a744ce88fabdf9f12c$__6137cf565b03915af49384156129b957600094613bb9575b5090613976613bb29261351a611df0602061350e60026108a4565b503861356d565b613bb292919450613bda6139769160403d81116129b2576129a381836100a5565b94919250613b97565b613bf69192955060209061334060405190565b0381885af480156129b957613c1191600091613d3757501590565b613d6357613c526020613c2b60326000608051010161112c565b95613c346124ff565b90613c3e60405190565b9384928391829163ed80284560e01b6133aa565b03915af480156129b957613c6c91600091613d3757501590565b613ce457613cdb90613cb1613c8860736037608051010161112c565b613c9a611df0602061350e60026108a4565b613caa613ca5611ea1565b978852565b6020870152565b6001600160801b0386166040860152613cc981611e04565b94613cd4828b611897565b5288611897565b50388080613560565b60405162461bcd60e51b815260206004820152602160248201527f6d697373696e672072756e74696d65206c6f6f6b7570207461626c65206576616044820152601b60fa1b6064820152608490fd5b0390fd5b613d58915060203d8111613d5c575b613d5081836100a5565b810190612271565b1590565b503d613d46565b60405162461bcd60e51b815260206004820152602160248201527f6d697373696e67206c6f6f6b75702072756e74696d6520636f6d6d69746d656e6044820152601d60fa1b6064820152608490fd5b613dcd913d8091833e613dc581836100a5565b810190612385565b386134f2565b613dec91925060203d8111613d5c57613d5081836100a5565b90386134ab565b613e0b915060203d81116129e5576129d781836100a5565b38613446565b60405162461bcd60e51b815260206004820152601960248201527f6d697373696e67206c6f6f6b7570207461626c65206576616c000000000000006044820152606490fd5b60405162461bcd60e51b815260206004820152601a60248201527f6d697373696e67206c6f6f6b757020636f6d6d69746d656e74730000000000006044820152606490fd5b96979493929190613eae607e8401612223565b60a052875b60a0516040015151613ed490610163905b613ece6001610275565b906117dc565b811015613f3857613f309061297e60209a9b613f1c613ef260405190565b613f07818f8101612cf4888290815260200190565b613f0f6108db565b9d8e6110e36002826116e7565b613f2581611e04565b9b612c1f828d611897565b989798613eb3565b5090919293949796613f82600098613f6e613f5284611fc0565b613f676003613f5f6108db565b9d8e016116e7565b60208c0152565b613f7781611e04565b99613cd4828b611897565b5061306e565b613fbc600098613f6e6011613faf613f9f60405190565b8092612cf4602083019182611ffc565b613f676008613f5f6108db565b50613061565b613fd9600098613f6e6010613faf613f9f60405190565b50613054565b613ff6600098613f6e600f613faf613f9f60405190565b50613047565b614013600098613f6e600e613faf613f9f60405190565b5061303a565b614030600098613f6e600d613faf613f9f60405190565b5061302d565b61404d600098613f6e600c613faf613f9f60405190565b50613020565b61406c91925060203d81116129e5576129d781836100a5565b9038612b9c565b61408a9150853d81116129e5576129d781836100a5565b38612b52565b6140a991955060203d81116129e5576129d781836100a5565b9338612a67565b6140c991975060203d81116129e5576129d781836100a5565b9538612697565b6140f39192506102803d81116140fa575b6140eb81836100a5565b810190610ba4565b90386125fe565b503d6140e1565b6141096108db565b9060606108f1565b610163614101565b90614123906118d8565b600052602052604060002090565b61413d6102a860029390565b6000915b83831061414e5750505050565b61416f614168600192614160856110f3565b815260200190565b9260010190565b92019190614141565b9061029881604093614131565b9061008d6116429261419660405190565b93848092614178565b61016390614185565b906002611e78565b90815260408101929161008d9160200152565b80548210156118785761186f600191600052602060002090565b610163916008021c81565b9061016391546141dd565b6141fb614111565b5060009161420883611546565b61421182611546565b14801561456f575b8015614555575b801561453b575b8015614521575b8015614507575b80156144ed575b80156144d3575b80156144b9575b801561449f575b8015614485575b801561446b575b8015614451575b8015614437575b801561441d575b8015614403575b80156143e9575b80156143cf575b6143c8575b61429e6142a39160018401614119565b61419f565b6001916142c26101636142be6142b886610275565b856141a8565b5190565b851161438e57600201906142d4825490565b6142e06102a886610275565b1461437c576142ee856118b1565b94836142f986610275565b905b614323575b5050505050611df06101639161431e6143176108db565b9482860152565b610275565b81811015614377578061436c61436261435c614356614371956143516142be61434b8e610275565b8b6141a8565b6117dc565b886141c3565b906141e8565b6128f8838b611897565b611e04565b846142fb565b614300565b604051636aeb1d6f60e01b8152600490fd5b846143a56142be8461439f87610275565b906141a8565b90613d336143b260405190565b6320e58f8b60e01b8152928392600484016141b0565b508161428e565b506143da6011611546565b6143e382611546565b14614289565b506143f46010611546565b6143fd82611546565b14614282565b5061440e600f611546565b61441782611546565b1461427b565b50614428600e611546565b61443182611546565b14614274565b50614442600d611546565b61444b82611546565b1461426d565b5061445c600c611546565b61446582611546565b14614266565b50614476600b611546565b61447f82611546565b1461425f565b50614490600a611546565b61449982611546565b14614258565b506144aa6009611546565b6144b382611546565b14614251565b506144c46008611546565b6144cd82611546565b1461424a565b506144de6007611546565b6144e782611546565b14614243565b506144f86006611546565b61450182611546565b1461423c565b506145126005611546565b61451b82611546565b14614235565b5061452c6004611546565b61453582611546565b1461422e565b506145466003611546565b61454f82611546565b14614227565b506145606002611546565b61456982611546565b14614220565b5061457a6001611546565b61458382611546565b14614219565b80156117e9576000190190565b9190916145a1610901565b506145b26145ad825190565b6118b1565b916145bb825190565b6145c56000610275565b8111156145fa576145d590614589565b916145f4836128f86145ed61431e6142be848b611897565b9187611897565b916145bb565b5092509061016391614941565b61460f610901565b50600061016361461d6108db565b91611df061462a82610275565b8092850152565b61016360046108b5565b906004611e78565b1561464a57565b60405162461bcd60e51b815260206004820152601d60248201527f426e3235343a2067726f7570206164646974696f6e206661696c6564210000006044820152606490fd5b91909161469a610901565b92836146a4614631565b916146ad845190565b936000946146ba86610275565b6146c4908661463b565b52602001516146d36001610275565b6146dd908561463b565b52838101516146ec6002610275565b6146f6908561463b565b52602001516147056003610275565b61470f908461463b565b525a6107d09003606092600660c092fa90818114614731575061008d90614643565b80fd5b61474961016392614743610901565b5061479d565b9061468f565b6101637f30644e72e131a029b85045b68181585d97816a916871ca8d3c208c16d87cfd47610275565b634e487b7160e01b600052601260045260246000fd5b8115614798570690565b614778565b6147a5610901565b508051602082015115901516610163576101636147e16020612ac36147c8855190565b946147dc6147d461474f565b938492015190565b61478e565b611df06147ec6108db565b938452565b61480661016392614800610901565b50610275565b9061486a565b61016360036108b5565b906003611e78565b1561482557565b60405162461bcd60e51b815260206004820152601960248201527f426e3235343a207363616c6172206d756c206661696c656421000000000000006044820152606490fd5b60606148ab91939293608061487d610901565b916148d783976148c46148b1602061489361480c565b956132bd61489f825190565b6128f860009d8e610275565b8a614816565b6128f86148be6001610275565b86614816565b6128f86148d16002610275565b84614816565b60076107d05a03fa90818114614731575061008d9061481e565b156148f857565b60405162461bcd60e51b815280613d33600482016020808252818101527f4d534d206572726f723a206c656e67746820646f6573206e6f74206d61746368604082015260600190565b919061494b610901565b5061496b614957825190565b6149656102a8610163875190565b146148f1565b61499260006148066142be61498c614985612d2485610275565b5193610275565b85611897565b9260019182916149a183610275565b935b6149ae575b50505050565b909192946149bd610163845190565b8610156149f5576149e66149ec916147496149d88986611897565b516148066142be8b89611897565b95611e04565b929190826149a3565b946149a8565b8115614798570490565b818102929181159184041417156117e957565b6101bc8210156118785760019061186f565b9392919093614a37610901565b5060038101614a4581611478565b906002830191614a60614a5a610163856110f3565b916114a9565b10614b96575050614a816102a86101636001614a7a865190565b94016110f3565b03614b8157614a8e610901565b50805191600092614aa16102a885610275565b03614ab657505050906001610163910161112c565b614abe614607565b93614ac7610901565b50614ad184610275565b945b614ade610163855190565b861015614b5b576149e6614b559161474985614b42614b3061435c614b2a613ec48e614b19614b2461435c600299614b1e85614b198d610275565b614a05565b90614a18565b97610275565b8a614a18565b611df0614b3b6108db565b938c850152565b614b4f6142be8b8a611897565b906147f1565b94614ad3565b6101639550614b7591969450614b7c93506001925061479d565b920161112c565b61468f565b604051600162088c5b60e21b03198152600490fd5b613d3391614bb2614a5a614bac614bb794611478565b926110f3565b6149fb565b60405163ad0ea1a160e01b81529182916004830190815260200190565b15614bdb57565b60405162461bcd60e51b815260206004820152602a60248201527f6e6f7420656e6f75676820706f77657273206f6620616c70686120666f72207060448201526932b936baba30ba34b7b760b11b6064820152608490fd5b906006611e78565b90600f611e78565b835151602085015195969395929492614c7291614c5f91612ac3565b614c6c6102a86003610275565b14614bd4565b614c8e614c7e83615075565b92614c8881615075565b50615075565b506040810151602001519573__$0f2ef74df25658b59f87c747afcc439be9$__9263c8a4ac9c976020612b628a614cc88a612b5760405190565b0381885af49182156129b9578991600093614fee575b50602091614cf2612b6292612b5760405190565b0381875af49182156129b957614d2092602092600091614fd1575b506040519384928392612b628d60e01b90565b0381865af49081156129b957600091614fb3575b509273__$c6c5f4599f88e7253ab6b4c9dc3636c36f$__637ae2b5c7959092602080820192916060600f910195614d8060069a614d8b614d7360405190565b9c8d958694859460e01b90565b8452600484016141b0565b03915af49687156129b957600097614f93575b50600092614dab84610275565b965b885b881015614f2b578a886020614def614dd789614dd163771602f7958d51614c33565b51015190565b93614dfb614de460405190565b958693849360e01b90565b83528960048401611e86565b03818c5af49182156129b957614e3092602091600091614f0e575b508d614e2160405190565b9485928392612b628760e01b90565b03818c5af49182156129b9578a8891600094614ed8575b5091614e68614e60612b6293614dd16020968c51614c3b565b604051612b57565b03818b5af49081156129b9578c614e8f602093612b62936000916140735750604051612b57565b03818a5af49081156129b957614daf91614eb291600091614eba575b5098611e04565b979050614dad565b614ed2915060203d81116129e5576129d781836100a5565b38614eab565b602093919450614e60612b6293614dd1614f01614e6894883d81116129e5576129d781836100a5565b9794965050935050614e47565b614f259150823d81116129e5576129d781836100a5565b38614e16565b9650985050505050614f65935060209250614f5a6377d2f203614f4d60405190565b9586948593849360e01b90565b835260048301610864565b03915af49081156129b957600091614f7b575090565b610163915060203d81116129e5576129d781836100a5565b614fac91975060203d81116129e5576129d781836100a5565b9538614d9e565b614fcb915060203d81116129e5576129d781836100a5565b38614d34565b614fe89150833d81116129e5576129d781836100a5565b38614d0d565b612b6291935091614cf2615010602094853d81116129e5576129d781836100a5565b9492505091614cde565b1561502157565b60405162461bcd60e51b815260206004820152602660248201527f706f77657273206f6620616c706861206974657261746f72206f7574206f6620604482015265626f756e647360d01b6064820152608490fd5b6142be61016391615084600090565b5060208101906150af6000615097845190565b9201916150a96102a861016385515190565b1061501a565b516150c56150bb835190565b926101b584611e04565b61189756fea26469706673582212204472a18f9bb4a05b9731d20a5a31d5dc529a0fb888cf09a4b68d73faa51dc1a664736f6c63430008150033",
  "linkReferences": {
    "lib/Oracles.sol": {
      "Oracles": [
        {
          "length": 20,
          "start": 9681
        }
      ]
    },
    "lib/Polynomial.sol": {
      "Polynomial": [
        {
          "length": 20,
          "start": 9796
        }
      ]
    },
    "lib/Proof.sol": {
      "Proof": [
        {
          "length": 20,
          "start": 12467
        },
        {
          "length": 20,
          "start": 13122
        },
        {
          "length": 20,
          "start": 13888
        },
        {
          "length": 20,
          "start": 14259
        },
        {
          "length": 20,
          "start": 14633
        },
        {
          "length": 20,
          "start": 14914
        },
        {
          "length": 20,
          "start": 15205
        }
      ]
    },
    "lib/Utils.sol": {
      "Utils": [
        {
          "length": 20,
          "start": 19806
        }
      ]
    },
    "lib/VerifierIndex.sol": {
      "VerifierIndexLib": [
        {
          "length": 20,
          "start": 10534
        },
        {
          "length": 20,
          "start": 12580
        },
        {
          "length": 20,
          "start": 13934
        },
        {
          "length": 20,
          "start": 14305
        },
        {
          "length": 20,
          "start": 14678
        },
        {
          "length": 20,
          "start": 14960
        },
        {
          "length": 20,
          "start": 15250
        }
      ]
    },
    "lib/bn254/Fields.sol": {
      "Scalar": [
        {
          "length": 20,
          "start": 10857
        },
        {
          "length": 20,
          "start": 11051
        },
        {
          "length": 20,
          "start": 11159
        },
        {
          "length": 20,
          "start": 12963
        },
        {
          "length": 20,
          "start": 13384
        },
        {
          "length": 20,
          "start": 19649
        }
      ]
    },
    "lib/expr/PolishToken.sol": {
      "PolishTokenEvaluation": [
        {
          "length": 20,
          "start": 10367
        }
      ]
    }
  },
  "deployedLinkReferences": {
    "lib/Oracles.sol": {
      "Oracles": [
        {
          "length": 20,
          "start": 9643
        }
      ]
    },
    "lib/Polynomial.sol": {
      "Polynomial": [
        {
          "length": 20,
          "start": 9758
        }
      ]
    },
    "lib/Proof.sol": {
      "Proof": [
        {
          "length": 20,
          "start": 12429
        },
        {
          "length": 20,
          "start": 13084
        },
        {
          "length": 20,
          "start": 13850
        },
        {
          "length": 20,
          "start": 14221
        },
        {
          "length": 20,
          "start": 14595
        },
        {
          "length": 20,
          "start": 14876
        },
        {
          "length": 20,
          "start": 15167
        }
      ]
    },
    "lib/Utils.sol": {
      "Utils": [
        {
          "length": 20,
          "start": 19768
        }
      ]
    },
    "lib/VerifierIndex.sol": {
      "VerifierIndexLib": [
        {
          "length": 20,
          "start": 10496
        },
        {
          "length": 20,
          "start": 12542
        },
        {
          "length": 20,
          "start": 13896
        },
        {
          "length": 20,
          "start": 14267
        },
        {
          "length": 20,
          "start": 14640
        },
        {
          "length": 20,
          "start": 14922
        },
        {
          "length": 20,
          "start": 15212
        }
      ]
    },
    "lib/bn254/Fields.sol": {
      "Scalar": [
        {
          "length": 20,
          "start": 10819
        },
        {
          "length": 20,
          "start": 11013
        },
        {
          "length": 20,
          "start": 11121
        },
        {
          "length": 20,
          "start": 12925
        },
        {
          "length": 20,
          "start": 13346
        },
        {
          "length": 20,
          "start": 19611
        }
      ]
    },
    "lib/expr/PolishToken.sol": {
      "PolishTokenEvaluation": [
        {
          "length": 20,
          "start": 10329
        }
      ]
    }
  }
}