{"abi":[{"type":"constructor","inputs":[{"name":"_stateSettlementAddr","type":"address","internalType":"address"},{"name":"_accountValidationAddr","type":"address","internalType":"address"}],"stateMutability":"nonpayable"},{"type":"function","name":"balances","inputs":[{"name":"","type":"bytes32","internalType":"bytes32"}],"outputs":[{"name":"","type":"uint64","internalType":"uint64"}],"stateMutability":"view"},{"type":"function","name":"getBalance","inputs":[{"name":"accountHash","type":"bytes32","internalType":"bytes32"}],"outputs":[{"name":"","type":"uint64","internalType":"uint64"}],"stateMutability":"view"},{"type":"function","name":"updateBalance","inputs":[{"name":"proofCommitment","type":"bytes32","internalType":"bytes32"},{"name":"provingSystemAuxDataCommitment","type":"bytes32","internalType":"bytes32"},{"name":"proofGeneratorAddr","type":"bytes20","internalType":"bytes20"},{"name":"batchMerkleRoot","type":"bytes32","internalType":"bytes32"},{"name":"merkleProof","type":"bytes","internalType":"bytes"},{"name":"verificationDataBatchIndex","type":"uint256","internalType":"uint256"},{"name":"pubInput","type":"bytes","internalType":"bytes"},{"name":"batcherPaymentService","type":"address","internalType":"address"}],"outputs":[],"stateMutability":"nonpayable"},{"type":"error","name":"InvalidAccount","inputs":[]},{"type":"error","name":"InvalidLedger","inputs":[{"name":"ledgerHash","type":"bytes32","internalType":"bytes32"}]}],"bytecode":{"object":"0x6080604052348015600f57600080fd5b50604051610ed9380380610ed9833981016040819052602c916077565b600080546001600160a01b039384166001600160a01b0319918216179091556001805492909316911617905560a5565b80516001600160a01b0381168114607257600080fd5b919050565b60008060408385031215608957600080fd5b609083605c565b9150609c60208401605c565b90509250929050565b610e25806100b46000396000f3fe608060405234801561001057600080fd5b50600436106100415760003560e01c80638909aa3f146100465780638e7394611461008b578063d38f5bc5146100b4575b600080fd5b61006f61005436600461030c565b6002602052600090815260409020546001600160401b031681565b6040516001600160401b03909116815260200160405180910390f35b61006f61009936600461030c565b6000908152600260205260409020546001600160401b031690565b6100c76100c2366004610500565b6100c9565b005b60006100d860208285876105c5565b6100e1916105ef565b600054604051633e16b01160e01b8152600481018390529192506001600160a01b031690633e16b01190602401602060405180830381865afa15801561012b573d6000803e3d6000fd5b505050506040513d601f19601f8201168201806040525081019061014f919061061f565b61017357604051633b78a2f560e11b81526004810182905260240160405180910390fd5b60006040518061010001604052808c81526020018b81526020018a6bffffffffffffffffffffffff1916815260200189815260200188815260200187815260200186868080601f0160208091040260200160405190810160405280939291908181526020018383808284376000920191909152505050908252506001600160a01b03808616602090920191909152600154604051639029ad1560e01b81529293501690639029ad159061022a908490600401610689565b602060405180830381865afa158015610247573d6000803e3d6000fd5b505050506040513d601f19601f8201168201806040525081019061026b919061061f565b61028857604051630da30f6560e31b815260040160405180910390fd5b366000610298866028818a6105c5565b909250905060006102ab83830184610cbf565b9050600083836040516102bf929190610ddf565b604080519182900390912060609390930151600093845260026020529220805467ffffffffffffffff19166001600160401b03909316929092179091555050505050505050505050505050565b60006020828403121561031e57600080fd5b5035919050565b634e487b7160e01b600052604160045260246000fd5b604080519081016001600160401b038111828210171561035d5761035d610325565b60405290565b6040516101c081016001600160401b038111828210171561035d5761035d610325565b604051606081016001600160401b038111828210171561035d5761035d610325565b60405161010081016001600160401b038111828210171561035d5761035d610325565b60405160e081016001600160401b038111828210171561035d5761035d610325565b60405161016081016001600160401b038111828210171561035d5761035d610325565b600082601f83011261042157600080fd5b81356001600160401b038082111561043b5761043b610325565b604051601f8301601f19908116603f0116810190828211818310171561046357610463610325565b8160405283815286602085880101111561047c57600080fd5b836020870160208301376000602085830101528094505050505092915050565b60008083601f8401126104ae57600080fd5b5081356001600160401b038111156104c557600080fd5b6020830191508360208285010111156104dd57600080fd5b9250929050565b80356001600160a01b03811681146104fb57600080fd5b919050565b60008060008060008060008060006101008a8c03121561051f57600080fd5b8935985060208a0135975060408a01356bffffffffffffffffffffffff198116811461054a57600080fd5b965060608a0135955060808a01356001600160401b038082111561056d57600080fd5b6105798d838e01610410565b965060a08c0135955060c08c013591508082111561059657600080fd5b506105a38c828d0161049c565b90945092506105b6905060e08b016104e4565b90509295985092959850929598565b600080858511156105d557600080fd5b838611156105e257600080fd5b5050820193919092039150565b8035602083101561060857600019602084900360031b1b165b92915050565b801515811461061c57600080fd5b50565b60006020828403121561063157600080fd5b815161063c8161060e565b9392505050565b6000815180845260005b818110156106695760208185018101518683018201520161064d565b506000602082860101526020601f19601f83011685010191505092915050565b6020815281516020820152602082015160408201526bffffffffffffffffffffffff19604083015116606082015260608201516080820152600060808301516101008060a08501526106df610120850183610643565b915060a085015160c085015260c0850151601f198584030160e08601526107068382610643565b92505060e0850151610722828601826001600160a01b03169052565b5090949350505050565b80356104fb8161060e565b60006040828403121561074957600080fd5b61075161033b565b90508135815260208201356107658161060e565b602082015292915050565b80356001600160401b03811681146104fb57600080fd5b803563ffffffff811681146104fb57600080fd5b600060a082840312156107ad57600080fd5b60405160a081018181106001600160401b03821117156107cf576107cf610325565b6040529050806107de83610770565b81526107ec60208401610787565b60208201526107fd60408401610770565b604082015261080e60608401610787565b606082015261081f60808401610770565b60808201525092915050565b8035600581106104fb57600080fd5b60006101c0828403121561084d57600080fd5b610855610363565b90506108608261082b565b815261086e6020830161082b565b602082015261087f6040830161082b565b60408201526108906060830161082b565b60608201526108a16080830161082b565b60808201526108b260a0830161082b565b60a08201526108c360c0830161082b565b60c08201526108d460e08301610787565b60e08201526101006108e781840161082b565b908201526101206108f983820161082b565b9082015261014061090b83820161082b565b9082015261016061091d83820161082b565b9082015261018061092f83820161082b565b908201526101a061094183820161082b565b9082015292915050565b600082601f83011261095c57600080fd5b6109646103a8565b8061010084018581111561097757600080fd5b845b81811015610991578035845260209384019301610979565b509095945050505050565b8035600381106104fb57600080fd5b6000604082840312156109bd57600080fd5b6109c561033b565b9050813581526020820135602082015292915050565b600082601f8301126109ec57600080fd5b6109f46103cb565b806101c0840185811115610a0757600080fd5b845b8181101561099157610a1b87826109ab565b8452602090930192604001610a09565b600082601f830112610a3c57600080fd5b604080516101e081018181106001600160401b0382111715610a6057610a60610325565b604052806103c0850186811115610a7657600080fd5b855b81811015610a9957610a8a88826109ab565b83526020909201918401610a78565b50919695505050505050565b6000818303610740811215610ab957600080fd5b610ac1610386565b9150610acc8361099c565b8252610ada6020840161099c565b602083015261070080603f1983011215610af357600080fd5b610afb6103a8565b9150610b0a85604086016109db565b8252610b1a856102008601610a2b565b6020830152610b2d856105c086016109ab565b6040830152610b408561060086016109ab565b6060830152610b538561064086016109ab565b6080830152610b668561068086016109ab565b60a0830152610b79856106c086016109ab565b60c0830152610b8a858286016109ab565b60e083015250604082015292915050565b600082601f830112610bac57600080fd5b60405160a081018181106001600160401b0382111715610bce57610bce610325565b6040528060a0840185811115610be357600080fd5b845b81811015610bfd578035835260209283019201610be5565b509195945050505050565b60006109608284031215610c1b57600080fd5b610c236103cb565b9050610c2f838361094b565b8152610c3f836101008401610aa5565b6020820152610c516108408301610787565b6040820152610c64836108608401610b9b565b6060820152610c766109008301610787565b6080820152610c88610920830161072c565b60a08201526109408201356001600160401b03811115610ca757600080fd5b610cb384828501610410565b60c08301525092915050565b600060208284031215610cd157600080fd5b81356001600160401b0380821115610ce857600080fd5b908301906103c08286031215610cfd57600080fd5b610d056103ed565b610d0f8684610737565b815260408301356020820152606083013582811115610d2d57600080fd5b610d3987828601610410565b604083015250610d4b60808401610770565b6060820152610d5c60a08401610787565b608082015260c083013560a0820152610d788660e08501610737565b60c08201526101208084013560e0830152610140610d988882870161079b565b610100840152610dac886101e0870161083a565b828401526103a0850135915083821115610dc557600080fd5b610dd188838701610c08565b908301525095945050505050565b818382376000910190815291905056fea2646970667358221220517eaff23139d5ba626822b2a46cf3383698b30ecfee16331f73f30f09be184d64736f6c63430008190033","linkReferences":{}},"methodIdentifiers":{"balances(bytes32)":"8909aa3f","getBalance(bytes32)":"8e739461","updateBalance(bytes32,bytes32,bytes20,bytes32,bytes,uint256,bytes,address)":"d38f5bc5"},"id":40}