{"abi":[{"type":"constructor","inputs":[{"name":"_stateSettlementAddr","type":"address","internalType":"address"},{"name":"_accountValidationAddr","type":"address","internalType":"address"}],"stateMutability":"nonpayable"},{"type":"function","name":"ZKAPP_VERIFICATION_KEY_HASH","inputs":[],"outputs":[{"name":"","type":"uint256","internalType":"uint256"}],"stateMutability":"view"},{"type":"function","name":"validateSolution","inputs":[{"name":"proofCommitment","type":"bytes32","internalType":"bytes32"},{"name":"provingSystemAuxDataCommitment","type":"bytes32","internalType":"bytes32"},{"name":"proofGeneratorAddr","type":"bytes20","internalType":"bytes20"},{"name":"batchMerkleRoot","type":"bytes32","internalType":"bytes32"},{"name":"merkleProof","type":"bytes","internalType":"bytes"},{"name":"verificationDataBatchIndex","type":"uint256","internalType":"uint256"},{"name":"pubInput","type":"bytes","internalType":"bytes"}],"outputs":[],"stateMutability":"nonpayable"},{"type":"error","name":"IncorrectZkappAccount","inputs":[{"name":"verificationKeyHash","type":"uint256","internalType":"uint256"}]},{"type":"error","name":"InvalidLedger","inputs":[{"name":"ledgerHash","type":"bytes32","internalType":"bytes32"}]},{"type":"error","name":"InvalidZkappAccount","inputs":[]},{"type":"error","name":"UnsolvedSudoku","inputs":[]}],"bytecode":{"object":"0x6080604052600060025534801561001557600080fd5b50604051610db7380380610db783398101604081905261003491610081565b600080546001600160a01b039384166001600160a01b031991821617909155600180549290931691161790556100b4565b80516001600160a01b038116811461007c57600080fd5b919050565b6000806040838503121561009457600080fd5b61009d83610065565b91506100ab60208401610065565b90509250929050565b610cf4806100c36000396000f3fe608060405234801561001057600080fd5b50600436106100365760003560e01c8063319453e81461003b578063c4babc3014610074575b600080fd5b6100627f2add19f6522426ca4bcf032dbee2987ac6f248ae68f716e68085d004645f62c381565b60405190815260200160405180910390f35b6100876100823660046103ab565b610089565b005b6000610098602082848661048c565b6100a1916104b6565b600054604051633e16b01160e01b8152600481018390529192506001600160a01b031690633e16b01190602401602060405180830381865afa1580156100eb573d6000803e3d6000fd5b505050506040513d601f19601f8201168201806040525081019061010f91906104e6565b61013357604051633b78a2f560e11b81526004810182905260240160405180910390fd5b600154604051637a63e0fd60e11b81526001600160a01b039091169063f4c7c1fa90610171908c908c908c908c908c908c908c908c90600401610533565b602060405180830381865afa15801561018e573d6000803e3d6000fd5b505050506040513d601f19601f820116820180604052508101906101b291906104e6565b6101cf5760405163f281a18360e01b815260040160405180910390fd5b3660006101df846028818861048c565b909250905060006101f283830184610b9e565b610140810151516020015190915061020d5742600255610226565b6040516351bc860760e11b815260040160405180910390fd5b505050505050505050505050565b634e487b7160e01b600052604160045260246000fd5b604080519081016001600160401b038111828210171561026c5761026c610234565b60405290565b6040516101c081016001600160401b038111828210171561026c5761026c610234565b604051606081016001600160401b038111828210171561026c5761026c610234565b60405161010081016001600160401b038111828210171561026c5761026c610234565b60405160e081016001600160401b038111828210171561026c5761026c610234565b60405161016081016001600160401b038111828210171561026c5761026c610234565b600082601f83011261033057600080fd5b81356001600160401b038082111561034a5761034a610234565b604051601f8301601f19908116603f0116810190828211818310171561037257610372610234565b8160405283815286602085880101111561038b57600080fd5b836020870160208301376000602085830101528094505050505092915050565b60008060008060008060008060e0898b0312156103c757600080fd5b883597506020890135965060408901356bffffffffffffffffffffffff19811681146103f257600080fd5b95506060890135945060808901356001600160401b038082111561041557600080fd5b6104218c838d0161031f565b955060a08b0135945060c08b013591508082111561043e57600080fd5b818b0191508b601f83011261045257600080fd5b81358181111561046157600080fd5b8c602082850101111561047357600080fd5b6020830194508093505050509295985092959890939650565b6000808585111561049c57600080fd5b838611156104a957600080fd5b5050820193919092039150565b803560208310156104cf57600019602084900360031b1b165b92915050565b80151581146104e357600080fd5b50565b6000602082840312156104f857600080fd5b8151610503816104d5565b9392505050565b81835281816020850137506000828201602090810191909152601f909101601f19169091010190565b8881526000602089818401526bffffffffffffffffffffffff198916604084015287606084015260e0608084015286518060e085015260005b81811015610589578881018301518582016101000152820161056c565b8181111561059c57600061010083870101525b50601f19601f82011684019150506101008660a0850152808483030160c08501526105ca818301868861050a565b9c9b505050505050505050505050565b80356105e5816104d5565b919050565b6000604082840312156105fc57600080fd5b61060461024a565b9050813581526020820135610618816104d5565b602082015292915050565b80356001600160401b03811681146105e557600080fd5b803563ffffffff811681146105e557600080fd5b600060a0828403121561066057600080fd5b60405160a081018181106001600160401b038211171561068257610682610234565b60405290508061069183610623565b815261069f6020840161063a565b60208201526106b060408401610623565b60408201526106c16060840161063a565b60608201526106d260808401610623565b60808201525092915050565b8035600581106105e557600080fd5b60006101c0828403121561070057600080fd5b610708610272565b9050610713826106de565b8152610721602083016106de565b6020820152610732604083016106de565b6040820152610743606083016106de565b6060820152610754608083016106de565b608082015261076560a083016106de565b60a082015261077660c083016106de565b60c082015261078760e0830161063a565b60e082015261010061079a8184016106de565b908201526101206107ac8382016106de565b908201526101406107be8382016106de565b908201526101606107d08382016106de565b908201526101806107e28382016106de565b908201526101a06107f48382016106de565b9082015292915050565b600082601f83011261080f57600080fd5b6040516101008082018281106001600160401b038211171561083357610833610234565b6040528301818582111561084657600080fd5b845b82811015610860578035825260209182019101610848565b509195945050505050565b8035600381106105e557600080fd5b60006040828403121561088c57600080fd5b61089461024a565b9050813581526020820135602082015292915050565b600082601f8301126108bb57600080fd5b6040805160e081018181106001600160401b03821117156108de576108de610234565b8252806101c08501868111156108f357600080fd5b855b8181101561091657610907888261087a565b835260209092019184016108f5565b50919695505050505050565b600082601f83011261093357600080fd5b604080516101e081018181106001600160401b038211171561095757610957610234565b8252806103c085018681111561096c57600080fd5b855b8181101561091657610980888261087a565b8352602090920191840161096e565b60008183036107408112156109a357600080fd5b6109ab610295565b91506109b68361086b565b82526109c46020840161086b565b602083015261070080603f19830112156109dd57600080fd5b6109e56102b7565b91506109f485604086016108aa565b8252610a04856102008601610922565b6020830152610a17856105c0860161087a565b6040830152610a2a85610600860161087a565b6060830152610a3d85610640860161087a565b6080830152610a5085610680860161087a565b60a0830152610a63856106c0860161087a565b60c0830152610a748582860161087a565b60e083015250604082015292915050565b600082601f830112610a9657600080fd5b60405160a081018181106001600160401b0382111715610ab857610ab8610234565b6040528060a0840185811115610acd57600080fd5b845b81811015610860578035835260209283019201610acf565b60006109608284031215610afa57600080fd5b610b026102da565b9050610b0e83836107fe565b8152610b1e83610100840161098f565b6020820152610b30610840830161063a565b6040820152610b43836108608401610a85565b6060820152610b55610900830161063a565b6080820152610b6761092083016105da565b60a08201526109408201356001600160401b03811115610b8657600080fd5b610b928482850161031f565b60c08301525092915050565b600060208284031215610bb057600080fd5b81356001600160401b0380821115610bc757600080fd5b908301906103c08286031215610bdc57600080fd5b610be46102fc565b610bee86846105ea565b815260408301356020820152606083013582811115610c0c57600080fd5b610c188782860161031f565b604083015250610c2a60808401610623565b6060820152610c3b60a0840161063a565b608082015260c083013560a0820152610c578660e085016105ea565b60c08201526101208084013560e0830152610140610c778882870161064e565b610100840152610c8b886101e087016106ed565b828401526103a0850135915083821115610ca457600080fd5b610cb088838701610ae7565b90830152509594505050505056fea2646970667358221220f4a231719ef27d497bca56ce9f960dc7d783338eceb5c2fb2d3dd683c64d5cd064736f6c634300080c0033","linkReferences":{}},"methodIdentifiers":{"ZKAPP_VERIFICATION_KEY_HASH()":"319453e8","validateSolution(bytes32,bytes32,bytes20,bytes32,bytes,uint256,bytes)":"c4babc30"},"id":42}