{"abi":[{"type":"constructor","inputs":[{"name":"_stateSettlementAddr","type":"address","internalType":"address"},{"name":"_accountValidationAddr","type":"address","internalType":"address"}],"stateMutability":"nonpayable"},{"type":"function","name":"getLatestSolutionTimestamp","inputs":[],"outputs":[{"name":"","type":"uint256","internalType":"uint256"}],"stateMutability":"view"},{"type":"function","name":"validateSolution","inputs":[{"name":"proofCommitment","type":"bytes32","internalType":"bytes32"},{"name":"provingSystemAuxDataCommitment","type":"bytes32","internalType":"bytes32"},{"name":"proofGeneratorAddr","type":"bytes20","internalType":"bytes20"},{"name":"batchMerkleRoot","type":"bytes32","internalType":"bytes32"},{"name":"merkleProof","type":"bytes","internalType":"bytes"},{"name":"verificationDataBatchIndex","type":"uint256","internalType":"uint256"},{"name":"pubInput","type":"bytes","internalType":"bytes"},{"name":"batcherPaymentService","type":"address","internalType":"address"}],"outputs":[],"stateMutability":"nonpayable"},{"type":"error","name":"IncorrectZkappAccount","inputs":[{"name":"verificationKeyHash","type":"bytes32","internalType":"bytes32"}]},{"type":"error","name":"InvalidLedger","inputs":[{"name":"ledgerHash","type":"bytes32","internalType":"bytes32"}]},{"type":"error","name":"InvalidZkappAccount","inputs":[]},{"type":"error","name":"UnsolvedSudoku","inputs":[]}],"bytecode":{"object":"0x60806040526000600255348015601457600080fd5b50604051611027380380611027833981016040819052603191607c565b600080546001600160a01b039384166001600160a01b0319918216179091556001805492909316911617905560aa565b80516001600160a01b0381168114607757600080fd5b919050565b60008060408385031215608e57600080fd5b6095836061565b915060a1602084016061565b90509250929050565b610f6e806100b96000396000f3fe608060405234801561001057600080fd5b50600436106100365760003560e01c80630edb27121461003b578063c681e9a314610050575b600080fd5b61004e6100493660046104e2565b610065565b005b60025460405190815260200160405180910390f35b600061007460208285876105a7565b61007d916105d1565b600054604051633e16b01160e01b8152600481018390529192506001600160a01b031690633e16b01190602401602060405180830381865afa1580156100c7573d6000803e3d6000fd5b505050506040513d601f19601f820116820180604052508101906100eb9190610601565b61011057604051633b78a2f560e11b8152600481018290526024015b60405180910390fd5b60006040518061010001604052808c81526020018b81526020018a6bffffffffffffffffffffffff1916815260200189815260200188815260200187815260200186868080601f0160208091040260200160405190810160405280939291908181526020018383808284376000920191909152505050908252506001600160a01b03808616602090920191909152600154604051639029ad1560e01b81529293501690639029ad15906101c790849060040161066b565b602060405180830381865afa1580156101e4573d6000803e3d6000fd5b505050506040513d601f19601f820116820180604052508101906102089190610601565b6102255760405163f281a18360e01b815260040160405180910390fd5b366000610235866028818a6105a7565b9092509050600061024883830184610ca1565b90506000816101400151602001516040516020016102669190610e21565b6040516020818303038152906040528051906020012090507fdc9c283f73ce17466a01b90d36141b848805a3db129b6b80d581adca52c9b6f360001b81146102c45760405163170e89eb60e01b815260048101829052602401610107565b6101408201515160200151156102dd57426002556102f6565b6040516351bc860760e11b815260040160405180910390fd5b505050505050505050505050505050565b634e487b7160e01b600052604160045260246000fd5b604080519081016001600160401b038111828210171561033f5761033f610307565b60405290565b6040516101c081016001600160401b038111828210171561033f5761033f610307565b604051606081016001600160401b038111828210171561033f5761033f610307565b60405161010081016001600160401b038111828210171561033f5761033f610307565b60405160e081016001600160401b038111828210171561033f5761033f610307565b60405161016081016001600160401b038111828210171561033f5761033f610307565b600082601f83011261040357600080fd5b81356001600160401b038082111561041d5761041d610307565b604051601f8301601f19908116603f0116810190828211818310171561044557610445610307565b8160405283815286602085880101111561045e57600080fd5b836020870160208301376000602085830101528094505050505092915050565b60008083601f84011261049057600080fd5b5081356001600160401b038111156104a757600080fd5b6020830191508360208285010111156104bf57600080fd5b9250929050565b80356001600160a01b03811681146104dd57600080fd5b919050565b60008060008060008060008060006101008a8c03121561050157600080fd5b8935985060208a0135975060408a01356bffffffffffffffffffffffff198116811461052c57600080fd5b965060608a0135955060808a01356001600160401b038082111561054f57600080fd5b61055b8d838e016103f2565b965060a08c0135955060c08c013591508082111561057857600080fd5b506105858c828d0161047e565b9094509250610598905060e08b016104c6565b90509295985092959850929598565b600080858511156105b757600080fd5b838611156105c457600080fd5b5050820193919092039150565b803560208310156105ea57600019602084900360031b1b165b92915050565b80151581146105fe57600080fd5b50565b60006020828403121561061357600080fd5b815161061e816105f0565b9392505050565b6000815180845260005b8181101561064b5760208185018101518683018201520161062f565b506000602082860101526020601f19601f83011685010191505092915050565b6020815281516020820152602082015160408201526bffffffffffffffffffffffff19604083015116606082015260608201516080820152600060808301516101008060a08501526106c1610120850183610625565b915060a085015160c085015260c0850151601f198584030160e08601526106e88382610625565b92505060e0850151610704828601826001600160a01b03169052565b5090949350505050565b80356104dd816105f0565b60006040828403121561072b57600080fd5b61073361031d565b9050813581526020820135610747816105f0565b602082015292915050565b80356001600160401b03811681146104dd57600080fd5b803563ffffffff811681146104dd57600080fd5b600060a0828403121561078f57600080fd5b60405160a081018181106001600160401b03821117156107b1576107b1610307565b6040529050806107c083610752565b81526107ce60208401610769565b60208201526107df60408401610752565b60408201526107f060608401610769565b606082015261080160808401610752565b60808201525092915050565b8035600581106104dd57600080fd5b60006101c0828403121561082f57600080fd5b610837610345565b90506108428261080d565b81526108506020830161080d565b60208201526108616040830161080d565b60408201526108726060830161080d565b60608201526108836080830161080d565b608082015261089460a0830161080d565b60a08201526108a560c0830161080d565b60c08201526108b660e08301610769565b60e08201526101006108c981840161080d565b908201526101206108db83820161080d565b908201526101406108ed83820161080d565b908201526101606108ff83820161080d565b9082015261018061091183820161080d565b908201526101a061092383820161080d565b9082015292915050565b600082601f83011261093e57600080fd5b61094661038a565b8061010084018581111561095957600080fd5b845b8181101561097357803584526020938401930161095b565b509095945050505050565b8035600381106104dd57600080fd5b60006040828403121561099f57600080fd5b6109a761031d565b9050813581526020820135602082015292915050565b600082601f8301126109ce57600080fd5b6109d66103ad565b806101c08401858111156109e957600080fd5b845b81811015610973576109fd878261098d565b84526020909301926040016109eb565b600082601f830112610a1e57600080fd5b604080516101e081018181106001600160401b0382111715610a4257610a42610307565b604052806103c0850186811115610a5857600080fd5b855b81811015610a7b57610a6c888261098d565b83526020909201918401610a5a565b50919695505050505050565b6000818303610740811215610a9b57600080fd5b610aa3610368565b9150610aae8361097e565b8252610abc6020840161097e565b602083015261070080603f1983011215610ad557600080fd5b610add61038a565b9150610aec85604086016109bd565b8252610afc856102008601610a0d565b6020830152610b0f856105c0860161098d565b6040830152610b2285610600860161098d565b6060830152610b3585610640860161098d565b6080830152610b4885610680860161098d565b60a0830152610b5b856106c0860161098d565b60c0830152610b6c8582860161098d565b60e083015250604082015292915050565b600082601f830112610b8e57600080fd5b60405160a081018181106001600160401b0382111715610bb057610bb0610307565b6040528060a0840185811115610bc557600080fd5b845b81811015610bdf578035835260209283019201610bc7565b509195945050505050565b60006109608284031215610bfd57600080fd5b610c056103ad565b9050610c11838361092d565b8152610c21836101008401610a87565b6020820152610c336108408301610769565b6040820152610c46836108608401610b7d565b6060820152610c586109008301610769565b6080820152610c6a610920830161070e565b60a08201526109408201356001600160401b03811115610c8957600080fd5b610c95848285016103f2565b60c08301525092915050565b600060208284031215610cb357600080fd5b81356001600160401b0380821115610cca57600080fd5b908301906103c08286031215610cdf57600080fd5b610ce76103cf565b610cf18684610719565b815260408301356020820152606083013582811115610d0f57600080fd5b610d1b878286016103f2565b604083015250610d2d60808401610752565b6060820152610d3e60a08401610769565b608082015260c083013560a0820152610d5a8660e08501610719565b60c08201526101208084013560e0830152610140610d7a8882870161077d565b610100840152610d8e886101e0870161081c565b828401526103a0850135915083821115610da757600080fd5b610db388838701610bea565b908301525095945050505050565b60038110610ddf57634e487b7160e01b600052602160045260246000fd5b9052565b8060005b600f811015610e1b57610e0584835180518252602090810151910152565b6040939093019260209190910190600101610de7565b50505050565b600061074082019050610e35828451610dc1565b602080840151610e486020850182610dc1565b50604084810151805160008684015b6007821015610e8757610e7581845180518252602090810151910152565b91850191600191909101908401610e57565b50505060208101519250610e9f610200860184610de3565b604081015180516105c08701526020908101516105e0870152606082015180516106008801528101516106208701526080820151805161064088015281015161066087015260a082015180516106808801528101516106a087015260c082015180516106c08801528101516106e087015260e0909101518051610700870152908101516107208601529150610f319050565b509291505056fea2646970667358221220d2ec8db8cb9ca22c115a1decafb4d7d3d596412dde2bc7ca8e795bb0305990d964736f6c63430008190033","linkReferences":{}},"methodIdentifiers":{"getLatestSolutionTimestamp()":"c681e9a3","validateSolution(bytes32,bytes32,bytes20,bytes32,bytes,uint256,bytes,address)":"0edb2712"},"id":40}