{"abi":[{"type":"constructor","inputs":[{"name":"_stateSettlementAddr","type":"address","internalType":"address"},{"name":"_accountValidationAddr","type":"address","internalType":"address"}],"stateMutability":"nonpayable"},{"type":"function","name":"ZKAPP_VERIFICATION_KEY_HASH","inputs":[],"outputs":[{"name":"","type":"uint256","internalType":"uint256"}],"stateMutability":"view"},{"type":"function","name":"validateSolution","inputs":[{"name":"proofCommitment","type":"bytes32","internalType":"bytes32"},{"name":"provingSystemAuxDataCommitment","type":"bytes32","internalType":"bytes32"},{"name":"proofGeneratorAddr","type":"bytes20","internalType":"bytes20"},{"name":"batchMerkleRoot","type":"bytes32","internalType":"bytes32"},{"name":"merkleProof","type":"bytes","internalType":"bytes"},{"name":"verificationDataBatchIndex","type":"uint256","internalType":"uint256"},{"name":"pubInput","type":"bytes","internalType":"bytes"}],"outputs":[],"stateMutability":"nonpayable"},{"type":"error","name":"IncorrectZkappAccount","inputs":[{"name":"verificationKeyHash","type":"uint256","internalType":"uint256"}]},{"type":"error","name":"InvalidLedger","inputs":[{"name":"ledgerHash","type":"bytes32","internalType":"bytes32"}]},{"type":"error","name":"InvalidZkappAccount","inputs":[]},{"type":"error","name":"UnsolvedSudoku","inputs":[]}],"bytecode":{"object":"0x6080604052600060025534801561001557600080fd5b50604051610de2380380610de283398101604081905261003491610081565b600080546001600160a01b039384166001600160a01b031991821617909155600180549290931691161790556100b4565b80516001600160a01b038116811461007c57600080fd5b919050565b6000806040838503121561009457600080fd5b61009d83610065565b91506100ab60208401610065565b90509250929050565b610d1f806100c36000396000f3fe608060405234801561001057600080fd5b50600436106100365760003560e01c8063319453e81461003b578063c4babc3014610074575b600080fd5b6100627f2add19f6522426ca4bcf032dbee2987ac6f248ae68f716e68085d004645f62c381565b60405190815260200160405180910390f35b6100876100823660046103c6565b610089565b005b60006100996028600884866104a7565b6100a2916104d1565b600054604051633e16b01160e01b8152600481018390529192506001600160a01b031690633e16b01190602401602060405180830381865afa1580156100ec573d6000803e3d6000fd5b505050506040513d601f19601f820116820180604052508101906101109190610501565b61013457604051633b78a2f560e11b81526004810182905260240160405180910390fd5b60008383604051610146929190610525565b604051908190038120600154637a63e0fd60e11b83529092506001600160a01b03169063f4c7c1fa9061018b908d908d908d908d908d908d908d908d9060040161055e565b602060405180830381865afa1580156101a8573d6000803e3d6000fd5b505050506040513d601f19601f820116820180604052508101906101cc9190610501565b6101e95760405163f281a18360e01b815260040160405180910390fd5b3660006101f985602881896104a7565b9092509050600061020c83830184610bc9565b61014081015151602001519091506102275742600255610240565b6040516351bc860760e11b815260040160405180910390fd5b50505050505050505050505050565b634e487b7160e01b600052604160045260246000fd5b604080519081016001600160401b03811182821017156102875761028761024f565b60405290565b6040516101c081016001600160401b03811182821017156102875761028761024f565b604051606081016001600160401b03811182821017156102875761028761024f565b60405161010081016001600160401b03811182821017156102875761028761024f565b60405160e081016001600160401b03811182821017156102875761028761024f565b60405161016081016001600160401b03811182821017156102875761028761024f565b600082601f83011261034b57600080fd5b81356001600160401b03808211156103655761036561024f565b604051601f8301601f19908116603f0116810190828211818310171561038d5761038d61024f565b816040528381528660208588010111156103a657600080fd5b836020870160208301376000602085830101528094505050505092915050565b60008060008060008060008060e0898b0312156103e257600080fd5b883597506020890135965060408901356bffffffffffffffffffffffff198116811461040d57600080fd5b95506060890135945060808901356001600160401b038082111561043057600080fd5b61043c8c838d0161033a565b955060a08b0135945060c08b013591508082111561045957600080fd5b818b0191508b601f83011261046d57600080fd5b81358181111561047c57600080fd5b8c602082850101111561048e57600080fd5b6020830194508093505050509295985092959890939650565b600080858511156104b757600080fd5b838611156104c457600080fd5b5050820193919092039150565b803560208310156104ea57600019602084900360031b1b165b92915050565b80151581146104fe57600080fd5b50565b60006020828403121561051357600080fd5b815161051e816104f0565b9392505050565b8183823760009101908152919050565b81835281816020850137506000828201602090810191909152601f909101601f19169091010190565b8881526000602089818401526bffffffffffffffffffffffff198916604084015287606084015260e0608084015286518060e085015260005b818110156105b45788810183015185820161010001528201610597565b818111156105c757600061010083870101525b50601f19601f82011684019150506101008660a0850152808483030160c08501526105f58183018688610535565b9c9b505050505050505050505050565b8035610610816104f0565b919050565b60006040828403121561062757600080fd5b61062f610265565b9050813581526020820135610643816104f0565b602082015292915050565b80356001600160401b038116811461061057600080fd5b803563ffffffff8116811461061057600080fd5b600060a0828403121561068b57600080fd5b60405160a081018181106001600160401b03821117156106ad576106ad61024f565b6040529050806106bc8361064e565b81526106ca60208401610665565b60208201526106db6040840161064e565b60408201526106ec60608401610665565b60608201526106fd6080840161064e565b60808201525092915050565b80356005811061061057600080fd5b60006101c0828403121561072b57600080fd5b61073361028d565b905061073e82610709565b815261074c60208301610709565b602082015261075d60408301610709565b604082015261076e60608301610709565b606082015261077f60808301610709565b608082015261079060a08301610709565b60a08201526107a160c08301610709565b60c08201526107b260e08301610665565b60e08201526101006107c5818401610709565b908201526101206107d7838201610709565b908201526101406107e9838201610709565b908201526101606107fb838201610709565b9082015261018061080d838201610709565b908201526101a061081f838201610709565b9082015292915050565b600082601f83011261083a57600080fd5b6040516101008082018281106001600160401b038211171561085e5761085e61024f565b6040528301818582111561087157600080fd5b845b8281101561088b578035825260209182019101610873565b509195945050505050565b80356003811061061057600080fd5b6000604082840312156108b757600080fd5b6108bf610265565b9050813581526020820135602082015292915050565b600082601f8301126108e657600080fd5b6040805160e081018181106001600160401b03821117156109095761090961024f565b8252806101c085018681111561091e57600080fd5b855b818110156109415761093288826108a5565b83526020909201918401610920565b50919695505050505050565b600082601f83011261095e57600080fd5b604080516101e081018181106001600160401b03821117156109825761098261024f565b8252806103c085018681111561099757600080fd5b855b81811015610941576109ab88826108a5565b83526020909201918401610999565b60008183036107408112156109ce57600080fd5b6109d66102b0565b91506109e183610896565b82526109ef60208401610896565b602083015261070080603f1983011215610a0857600080fd5b610a106102d2565b9150610a1f85604086016108d5565b8252610a2f85610200860161094d565b6020830152610a42856105c086016108a5565b6040830152610a558561060086016108a5565b6060830152610a688561064086016108a5565b6080830152610a7b8561068086016108a5565b60a0830152610a8e856106c086016108a5565b60c0830152610a9f858286016108a5565b60e083015250604082015292915050565b600082601f830112610ac157600080fd5b60405160a081018181106001600160401b0382111715610ae357610ae361024f565b6040528060a0840185811115610af857600080fd5b845b8181101561088b578035835260209283019201610afa565b60006109608284031215610b2557600080fd5b610b2d6102f5565b9050610b398383610829565b8152610b498361010084016109ba565b6020820152610b5b6108408301610665565b6040820152610b6e836108608401610ab0565b6060820152610b806109008301610665565b6080820152610b926109208301610605565b60a08201526109408201356001600160401b03811115610bb157600080fd5b610bbd8482850161033a565b60c08301525092915050565b600060208284031215610bdb57600080fd5b81356001600160401b0380821115610bf257600080fd5b908301906103c08286031215610c0757600080fd5b610c0f610317565b610c198684610615565b815260408301356020820152606083013582811115610c3757600080fd5b610c438782860161033a565b604083015250610c556080840161064e565b6060820152610c6660a08401610665565b608082015260c083013560a0820152610c828660e08501610615565b60c08201526101208084013560e0830152610140610ca288828701610679565b610100840152610cb6886101e08701610718565b828401526103a0850135915083821115610ccf57600080fd5b610cdb88838701610b12565b90830152509594505050505056fea2646970667358221220bd2135b44b39f4c8694eac4f6cabb621d4670d66f507293ebcc32265f7a168b664736f6c634300080c0033","linkReferences":{}},"methodIdentifiers":{"ZKAPP_VERIFICATION_KEY_HASH()":"319453e8","validateSolution(bytes32,bytes32,bytes20,bytes32,bytes,uint256,bytes)":"c4babc30"},"id":42}