{"abi":[{"type":"constructor","inputs":[{"name":"_stateSettlementAddr","type":"address","internalType":"address"},{"name":"_accountValidationAddr","type":"address","internalType":"address"}],"stateMutability":"nonpayable"},{"type":"function","name":"ZKAPP_VERIFICATION_KEY_HASH","inputs":[],"outputs":[{"name":"","type":"uint256","internalType":"uint256"}],"stateMutability":"view"},{"type":"function","name":"getLatestSolutionTimestamp","inputs":[],"outputs":[{"name":"","type":"uint256","internalType":"uint256"}],"stateMutability":"view"},{"type":"function","name":"validateSolution","inputs":[{"name":"proofCommitment","type":"bytes32","internalType":"bytes32"},{"name":"provingSystemAuxDataCommitment","type":"bytes32","internalType":"bytes32"},{"name":"proofGeneratorAddr","type":"bytes20","internalType":"bytes20"},{"name":"batchMerkleRoot","type":"bytes32","internalType":"bytes32"},{"name":"merkleProof","type":"bytes","internalType":"bytes"},{"name":"verificationDataBatchIndex","type":"uint256","internalType":"uint256"},{"name":"pubInput","type":"bytes","internalType":"bytes"},{"name":"batcherPaymentService","type":"address","internalType":"address"}],"outputs":[],"stateMutability":"nonpayable"},{"type":"error","name":"IncorrectZkappAccount","inputs":[{"name":"verificationKeyHash","type":"uint256","internalType":"uint256"}]},{"type":"error","name":"InvalidLedger","inputs":[{"name":"ledgerHash","type":"bytes32","internalType":"bytes32"}]},{"type":"error","name":"InvalidZkappAccount","inputs":[]},{"type":"error","name":"UnsolvedSudoku","inputs":[]}],"bytecode":{"object":"0x60806040525f6002553480156012575f5ffd5b50604051610def380380610def833981016040819052602f916078565b5f80546001600160a01b039384166001600160a01b0319918216179091556001805492909316911617905560a4565b80516001600160a01b03811681146073575f5ffd5b919050565b5f5f604083850312156088575f5ffd5b608f83605e565b9150609b60208401605e565b90509250929050565b610d3e806100b15f395ff3fe608060405234801561000f575f5ffd5b506004361061003f575f3560e01c80630edb271214610043578063319453e814610058578063c681e9a314610091575b5f5ffd5b61005661005136600461049f565b610099565b005b61007f7f2add19f6522426ca4bcf032dbee2987ac6f248ae68f716e68085d004645f62c381565b60405190815260200160405180910390f35b60025461007f565b5f6100a7602082858761055f565b6100b091610586565b5f54604051633e16b01160e01b8152600481018390529192506001600160a01b031690633e16b01190602401602060405180830381865afa1580156100f7573d5f5f3e3d5ffd5b505050506040513d601f19601f8201168201806040525081019061011b91906105b4565b61013f57604051633b78a2f560e11b81526004810182905260240160405180910390fd5b5f6040518061010001604052808c81526020018b81526020018a6bffffffffffffffffffffffff1916815260200189815260200188815260200187815260200186868080601f0160208091040260200160405190810160405280939291908181526020018383808284375f920191909152505050908252506001600160a01b03808616602090920191909152600154604051639029ad1560e01b81529293501690639029ad15906101f4908490600401610604565b602060405180830381865afa15801561020f573d5f5f3e3d5ffd5b505050506040513d601f19601f8201168201806040525081019061023391906105b4565b6102505760405163f281a18360e01b815260040160405180910390fd5b365f61025f866028818a61055f565b90925090505f61027183830184610be4565b61014081015151602001519091501561028d57426002556102a6565b6040516351bc860760e11b815260040160405180910390fd5b5050505050505050505050505050565b634e487b7160e01b5f52604160045260245ffd5b604080519081016001600160401b03811182821017156102ec576102ec6102b6565b60405290565b6040516101c081016001600160401b03811182821017156102ec576102ec6102b6565b604051606081016001600160401b03811182821017156102ec576102ec6102b6565b60405161010081016001600160401b03811182821017156102ec576102ec6102b6565b60405160e081016001600160401b03811182821017156102ec576102ec6102b6565b60405161016081016001600160401b03811182821017156102ec576102ec6102b6565b604051601f8201601f191681016001600160401b03811182821017156103c7576103c76102b6565b604052919050565b5f82601f8301126103de575f5ffd5b8135602083015f5f6001600160401b038411156103fd576103fd6102b6565b50601f8301601f19166020016104128161039f565b915050828152858383011115610426575f5ffd5b828260208301375f92810160200192909252509392505050565b5f5f83601f840112610450575f5ffd5b5081356001600160401b03811115610466575f5ffd5b60208301915083602082850101111561047d575f5ffd5b9250929050565b80356001600160a01b038116811461049a575f5ffd5b919050565b5f5f5f5f5f5f5f5f5f6101008a8c0312156104b8575f5ffd5b8935985060208a0135975060408a01356bffffffffffffffffffffffff19811681146104e2575f5ffd5b965060608a0135955060808a01356001600160401b03811115610503575f5ffd5b61050f8c828d016103cf565b95505060a08a0135935060c08a01356001600160401b03811115610531575f5ffd5b61053d8c828d01610440565b9094509250610550905060e08b01610484565b90509295985092959850929598565b5f5f8585111561056d575f5ffd5b83861115610579575f5ffd5b5050820193919092039150565b8035602083101561059e575f19602084900360031b1b165b92915050565b80151581146105b1575f5ffd5b50565b5f602082840312156105c4575f5ffd5b81516105cf816105a4565b9392505050565b5f81518084528060208401602086015e5f602082860101526020601f19601f83011685010191505092915050565b6020815281516020820152602082015160408201526bffffffffffffffffffffffff196040830151166060820152606082015160808201525f608083015161010060a08401526106586101208401826105d6565b905060a084015160c084015260c0840151601f198483030160e085015261067f82826105d6565b91505060e084015161069d6101008501826001600160a01b03169052565b509392505050565b803561049a816105a4565b5f604082840312156106c0575f5ffd5b6106c86102ca565b82358152905060208201356106dc816105a4565b602082015292915050565b80356001600160401b038116811461049a575f5ffd5b803563ffffffff8116811461049a575f5ffd5b5f60a08284031215610720575f5ffd5b60405160a081016001600160401b0381118282101715610742576107426102b6565b604052905080610751836106e7565b815261075f602084016106fd565b6020820152610770604084016106e7565b6040820152610781606084016106fd565b6060820152610792608084016106e7565b60808201525092915050565b80356005811061049a575f5ffd5b5f6101c082840312156107bd575f5ffd5b6107c56102f2565b90506107d08261079e565b81526107de6020830161079e565b60208201526107ef6040830161079e565b60408201526108006060830161079e565b60608201526108116080830161079e565b608082015261082260a0830161079e565b60a082015261083360c0830161079e565b60c082015261084460e083016106fd565b60e0820152610856610100830161079e565b610100820152610869610120830161079e565b61012082015261087c610140830161079e565b61014082015261088f610160830161079e565b6101608201526108a2610180830161079e565b6101808201526108b56101a0830161079e565b6101a082015292915050565b5f82601f8301126108d0575f5ffd5b5f6101006108dd8161039f565b9150830181858211156108ee575f5ffd5b845b828110156109085780358252602091820191016108f0565b509195945050505050565b80356003811061049a575f5ffd5b5f60408284031215610931575f5ffd5b6109396102ca565b823581526020928301359281019290925250919050565b5f82601f83011261095f575f5ffd5b5f61096a60e061039f565b9050806101c084018581111561097e575f5ffd5b845b81811015610908576109928782610921565b8352602090920191604001610980565b5f82601f8301126109b1575f5ffd5b5f6101e06109be8161039f565b915050806103c08401858111156109d3575f5ffd5b845b81811015610908576109e78782610921565b83526020909201916040016109d5565b5f818303610740811215610a09575f5ffd5b610a11610315565b9150610a1c83610913565b8252610a2a60208401610913565b6020830152610700603f1982011215610a41575f5ffd5b50610a4a610337565b610a578460408501610950565b8152610a678461020085016109a2565b6020820152610a7a846105c08501610921565b6040820152610a8d846106008501610921565b6060820152610aa0846106408501610921565b6080820152610ab3846106808501610921565b60a0820152610ac6846106c08501610921565b60c0820152610ad9846107008501610921565b60e0820152604082015292915050565b5f82601f830112610af8575f5ffd5b5f610b0360a061039f565b90508060a0840185811115610b16575f5ffd5b845b81811015610908578035835260209283019201610b18565b5f6109608284031215610b41575f5ffd5b610b4961035a565b9050610b5583836108c1565b8152610b658361010084016109f7565b6020820152610b7761084083016106fd565b6040820152610b8a836108608401610ae9565b6060820152610b9c61090083016106fd565b6080820152610bae61092083016106a5565b60a08201526109408201356001600160401b03811115610bcc575f5ffd5b610bd8848285016103cf565b60c08301525092915050565b5f60208284031215610bf4575f5ffd5b81356001600160401b03811115610c09575f5ffd5b82016103c08185031215610c1b575f5ffd5b610c2361037c565b610c2d85836106b0565b81526040820135602082015260608201356001600160401b03811115610c51575f5ffd5b610c5d868285016103cf565b604083015250610c6f608083016106e7565b6060820152610c8060a083016106fd565b608082015260c082013560a0820152610c9c8560e084016106b0565b60c082015261012082013560e0820152610cba856101408401610710565b610100820152610cce856101e084016107ac565b6101208201526103a08201356001600160401b03811115610ced575f5ffd5b610cf986828501610b30565b6101408301525094935050505056fea26469706673582212208790ab5d190ebe40f35724c8ce2c140fb12b7c55b4698688b134e4add16e96f564736f6c634300081c0033","linkReferences":{}},"methodIdentifiers":{"ZKAPP_VERIFICATION_KEY_HASH()":"319453e8","getLatestSolutionTimestamp()":"c681e9a3","validateSolution(bytes32,bytes32,bytes20,bytes32,bytes,uint256,bytes,address)":"0edb2712"},"id":40}