{"abi":[{"type":"constructor","inputs":[{"name":"_stateSettlementAddr","type":"address","internalType":"address"},{"name":"_accountValidationAddr","type":"address","internalType":"address"}],"stateMutability":"nonpayable"},{"type":"function","name":"ZKAPP_VERIFICATION_KEY_HASH","inputs":[],"outputs":[{"name":"","type":"uint256","internalType":"uint256"}],"stateMutability":"view"},{"type":"function","name":"getLatestSolutionTimestamp","inputs":[],"outputs":[{"name":"","type":"uint256","internalType":"uint256"}],"stateMutability":"view"},{"type":"function","name":"validateSolution","inputs":[{"name":"proofCommitment","type":"bytes32","internalType":"bytes32"},{"name":"provingSystemAuxDataCommitment","type":"bytes32","internalType":"bytes32"},{"name":"proofGeneratorAddr","type":"bytes20","internalType":"bytes20"},{"name":"batchMerkleRoot","type":"bytes32","internalType":"bytes32"},{"name":"merkleProof","type":"bytes","internalType":"bytes"},{"name":"verificationDataBatchIndex","type":"uint256","internalType":"uint256"},{"name":"pubInput","type":"bytes","internalType":"bytes"},{"name":"batcherPaymentService","type":"address","internalType":"address"}],"outputs":[],"stateMutability":"nonpayable"},{"type":"error","name":"IncorrectZkappAccount","inputs":[{"name":"verificationKeyHash","type":"uint256","internalType":"uint256"}]},{"type":"error","name":"InvalidLedger","inputs":[{"name":"ledgerHash","type":"bytes32","internalType":"bytes32"}]},{"type":"error","name":"InvalidZkappAccount","inputs":[]},{"type":"error","name":"UnsolvedSudoku","inputs":[]}],"bytecode":{"object":"0x6080604052600060025534801561001557600080fd5b50604051610e76380380610e7683398101604081905261003491610081565b600080546001600160a01b039384166001600160a01b031991821617909155600180549290931691161790556100b4565b80516001600160a01b038116811461007c57600080fd5b919050565b6000806040838503121561009457600080fd5b61009d83610065565b91506100ab60208401610065565b90509250929050565b610db3806100c36000396000f3fe608060405234801561001057600080fd5b50600436106100415760003560e01c80630edb271214610046578063319453e81461005b578063c681e9a314610094575b600080fd5b61005961005436600461049e565b61009c565b005b6100827f2add19f6522426ca4bcf032dbee2987ac6f248ae68f716e68085d004645f62c381565b60405190815260200160405180910390f35b600254610082565b60006100ab6020828587610563565b6100b49161058d565b600054604051633e16b01160e01b8152600481018390529192506001600160a01b031690633e16b01190602401602060405180830381865afa1580156100fe573d6000803e3d6000fd5b505050506040513d601f19601f8201168201806040525081019061012291906105bd565b61014657604051633b78a2f560e11b81526004810182905260240160405180910390fd5b60006040518061010001604052808c81526020018b81526020018a6bffffffffffffffffffffffff1916815260200189815260200188815260200187815260200186868080601f0160208091040260200160405190810160405280939291908181526020018383808284376000920191909152505050908252506001600160a01b03808616602090920191909152600154604051639029ad1560e01b81529293501690639029ad15906101fd908490600401610627565b602060405180830381865afa15801561021a573d6000803e3d6000fd5b505050506040513d601f19601f8201168201806040525081019061023e91906105bd565b61025b5760405163f281a18360e01b815260040160405180910390fd5b36600061026b866028818a610563565b9092509050600061027e83830184610c5d565b61014081015151602001519091501561029a57426002556102b3565b6040516351bc860760e11b815260040160405180910390fd5b5050505050505050505050505050565b634e487b7160e01b600052604160045260246000fd5b604080519081016001600160401b03811182821017156102fb576102fb6102c3565b60405290565b6040516101c081016001600160401b03811182821017156102fb576102fb6102c3565b604051606081016001600160401b03811182821017156102fb576102fb6102c3565b60405161010081016001600160401b03811182821017156102fb576102fb6102c3565b60405160e081016001600160401b03811182821017156102fb576102fb6102c3565b60405161016081016001600160401b03811182821017156102fb576102fb6102c3565b600082601f8301126103bf57600080fd5b81356001600160401b03808211156103d9576103d96102c3565b604051601f8301601f19908116603f01168101908282118183101715610401576104016102c3565b8160405283815286602085880101111561041a57600080fd5b836020870160208301376000602085830101528094505050505092915050565b60008083601f84011261044c57600080fd5b5081356001600160401b0381111561046357600080fd5b60208301915083602082850101111561047b57600080fd5b9250929050565b80356001600160a01b038116811461049957600080fd5b919050565b60008060008060008060008060006101008a8c0312156104bd57600080fd5b8935985060208a0135975060408a01356bffffffffffffffffffffffff19811681146104e857600080fd5b965060608a0135955060808a01356001600160401b038082111561050b57600080fd5b6105178d838e016103ae565b965060a08c0135955060c08c013591508082111561053457600080fd5b506105418c828d0161043a565b9094509250610554905060e08b01610482565b90509295985092959850929598565b6000808585111561057357600080fd5b8386111561058057600080fd5b5050820193919092039150565b803560208310156105a657600019602084900360031b1b165b92915050565b80151581146105ba57600080fd5b50565b6000602082840312156105cf57600080fd5b81516105da816105ac565b9392505050565b6000815180845260005b81811015610607576020818501810151868301820152016105eb565b506000602082860101526020601f19601f83011685010191505092915050565b6020815281516020820152602082015160408201526bffffffffffffffffffffffff19604083015116606082015260608201516080820152600060808301516101008060a085015261067d6101208501836105e1565b915060a085015160c085015260c0850151601f198584030160e08601526106a483826105e1565b92505060e08501516106c0828601826001600160a01b03169052565b5090949350505050565b8035610499816105ac565b6000604082840312156106e757600080fd5b6106ef6102d9565b9050813581526020820135610703816105ac565b602082015292915050565b80356001600160401b038116811461049957600080fd5b803563ffffffff8116811461049957600080fd5b600060a0828403121561074b57600080fd5b60405160a081018181106001600160401b038211171561076d5761076d6102c3565b60405290508061077c8361070e565b815261078a60208401610725565b602082015261079b6040840161070e565b60408201526107ac60608401610725565b60608201526107bd6080840161070e565b60808201525092915050565b80356005811061049957600080fd5b60006101c082840312156107eb57600080fd5b6107f3610301565b90506107fe826107c9565b815261080c602083016107c9565b602082015261081d604083016107c9565b604082015261082e606083016107c9565b606082015261083f608083016107c9565b608082015261085060a083016107c9565b60a082015261086160c083016107c9565b60c082015261087260e08301610725565b60e08201526101006108858184016107c9565b908201526101206108978382016107c9565b908201526101406108a98382016107c9565b908201526101606108bb8382016107c9565b908201526101806108cd8382016107c9565b908201526101a06108df8382016107c9565b9082015292915050565b600082601f8301126108fa57600080fd5b610902610346565b8061010084018581111561091557600080fd5b845b8181101561092f578035845260209384019301610917565b509095945050505050565b80356003811061049957600080fd5b60006040828403121561095b57600080fd5b6109636102d9565b9050813581526020820135602082015292915050565b600082601f83011261098a57600080fd5b610992610369565b806101c08401858111156109a557600080fd5b845b8181101561092f576109b98782610949565b84526020909301926040016109a7565b600082601f8301126109da57600080fd5b604080516101e081018181106001600160401b03821117156109fe576109fe6102c3565b604052806103c0850186811115610a1457600080fd5b855b81811015610a3757610a288882610949565b83526020909201918401610a16565b50919695505050505050565b6000818303610740811215610a5757600080fd5b610a5f610324565b9150610a6a8361093a565b8252610a786020840161093a565b602083015261070080603f1983011215610a9157600080fd5b610a99610346565b9150610aa88560408601610979565b8252610ab88561020086016109c9565b6020830152610acb856105c08601610949565b6040830152610ade856106008601610949565b6060830152610af1856106408601610949565b6080830152610b04856106808601610949565b60a0830152610b17856106c08601610949565b60c0830152610b2885828601610949565b60e083015250604082015292915050565b600082601f830112610b4a57600080fd5b60405160a081018181106001600160401b0382111715610b6c57610b6c6102c3565b6040528060a0840185811115610b8157600080fd5b845b81811015610b9b578035835260209283019201610b83565b509195945050505050565b60006109608284031215610bb957600080fd5b610bc1610369565b9050610bcd83836108e9565b8152610bdd836101008401610a43565b6020820152610bef6108408301610725565b6040820152610c02836108608401610b39565b6060820152610c146109008301610725565b6080820152610c2661092083016106ca565b60a08201526109408201356001600160401b03811115610c4557600080fd5b610c51848285016103ae565b60c08301525092915050565b600060208284031215610c6f57600080fd5b81356001600160401b0380821115610c8657600080fd5b908301906103c08286031215610c9b57600080fd5b610ca361038b565b610cad86846106d5565b815260408301356020820152606083013582811115610ccb57600080fd5b610cd7878286016103ae565b604083015250610ce96080840161070e565b6060820152610cfa60a08401610725565b608082015260c083013560a0820152610d168660e085016106d5565b60c08201526101208084013560e0830152610140610d3688828701610739565b610100840152610d4a886101e087016107d8565b828401526103a0850135915083821115610d6357600080fd5b610d6f88838701610ba6565b90830152509594505050505056fea26469706673582212205b267eb8d59bbf395871f6e01e72159859151a77fdec73ff3b95c8e43ff5202764736f6c63430008180033","linkReferences":{}},"methodIdentifiers":{"ZKAPP_VERIFICATION_KEY_HASH()":"319453e8","getLatestSolutionTimestamp()":"c681e9a3","validateSolution(bytes32,bytes32,bytes20,bytes32,bytes,uint256,bytes,address)":"0edb2712"},"id":41}