{
  "abi": [
    {
      "inputs": [],
      "name": "MODULUS",
      "outputs": [
        {
          "internalType": "uint256",
          "name": "",
          "type": "uint256"
        }
      ],
      "stateMutability": "view",
      "type": "function"
    },
    {
      "inputs": [
        {
          "internalType": "Base.FE",
          "name": "self",
          "type": "uint256"
        },
        {
          "internalType": "Base.FE",
          "name": "other",
          "type": "uint256"
        }
      ],
      "name": "add",
      "outputs": [
        {
          "internalType": "Base.FE",
          "name": "res",
          "type": "uint256"
        }
      ],
      "stateMutability": "pure",
      "type": "function"
    },
    {
      "inputs": [
        {
          "internalType": "Base.FE",
          "name": "self",
          "type": "uint256"
        }
      ],
      "name": "inv",
      "outputs": [
        {
          "internalType": "Base.FE",
          "name": "",
          "type": "uint256"
        }
      ],
      "stateMutability": "view",
      "type": "function"
    },
    {
      "inputs": [
        {
          "internalType": "Base.FE",
          "name": "self",
          "type": "uint256"
        },
        {
          "internalType": "Base.FE",
          "name": "other",
          "type": "uint256"
        }
      ],
      "name": "mul",
      "outputs": [
        {
          "internalType": "Base.FE",
          "name": "res",
          "type": "uint256"
        }
      ],
      "stateMutability": "pure",
      "type": "function"
    }
  ],
  "bytecode": {
    "object": "0x61019961003a600b82828239805160001a60731461002d57634e487b7160e01b600052600060045260246000fd5b30600052607381538281f3fe73000000000000000000000000000000000000000030146080604052600436106100565760003560e01c806325aa322c1461005b578063771602f7146100945780637a142f2e146100a7578063c8a4ac9c146100bb575b600080fd5b6100827f30644e72e131a029b85045b68181585d97816a916871ca8d3c208c16d87cfd4781565b60405190815260200160405180910390f35b6100826100a2366004610128565b6100ce565b6100826100b536600461014a565b50600090565b6100826100c9366004610128565b6100fb565b60007f30644e72e131a029b85045b68181585d97816a916871ca8d3c208c16d87cfd478284089392505050565b60007f30644e72e131a029b85045b68181585d97816a916871ca8d3c208c16d87cfd478284099392505050565b6000806040838503121561013b57600080fd5b50508035926020909101359150565b60006020828403121561015c57600080fd5b503591905056fea2646970667358221220c1e92c7c1b71222dbaa2a44cd4371e48224026d339af051bbc53296ee45dc78564736f6c63430008150033",
    "linkReferences": {}
  },
  "methodIdentifiers": {
    "MODULUS()": "25aa322c",
    "add(uint256,uint256)": "771602f7",
    "inv(uint256)": "7a142f2e",
    "mul(uint256,uint256)": "c8a4ac9c"
  },
  "id": 22
}