{
  "abi": [
    {
      "inputs": [],
      "name": "MODULUS",
      "outputs": [
        {
          "internalType": "uint256",
          "name": "",
          "type": "uint256"
        }
      ],
      "stateMutability": "view",
      "type": "function"
    },
    {
      "inputs": [
        {
          "internalType": "Base.FE",
          "name": "self",
          "type": "uint256"
        },
        {
          "internalType": "Base.FE",
          "name": "other",
          "type": "uint256"
        }
      ],
      "name": "add",
      "outputs": [
        {
          "internalType": "Base.FE",
          "name": "res",
          "type": "uint256"
        }
      ],
      "stateMutability": "pure",
      "type": "function"
    },
    {
      "inputs": [
        {
          "internalType": "Base.FE",
          "name": "self",
          "type": "uint256"
        }
      ],
      "name": "inv",
      "outputs": [
        {
          "internalType": "Base.FE",
          "name": "",
          "type": "uint256"
        }
      ],
      "stateMutability": "view",
      "type": "function"
    },
    {
      "inputs": [
        {
          "internalType": "Base.FE",
          "name": "self",
          "type": "uint256"
        },
        {
          "internalType": "Base.FE",
          "name": "other",
          "type": "uint256"
        }
      ],
      "name": "mul",
      "outputs": [
        {
          "internalType": "Base.FE",
          "name": "res",
          "type": "uint256"
        }
      ],
      "stateMutability": "pure",
      "type": "function"
    },
    {
      "inputs": [
        {
          "internalType": "Base.FE",
          "name": "self",
          "type": "uint256"
        }
      ],
      "name": "neg",
      "outputs": [
        {
          "internalType": "Base.FE",
          "name": "",
          "type": "uint256"
        }
      ],
      "stateMutability": "pure",
      "type": "function"
    },
    {
      "inputs": [
        {
          "internalType": "Base.FE",
          "name": "self",
          "type": "uint256"
        },
        {
          "internalType": "uint256",
          "name": "exponent",
          "type": "uint256"
        }
      ],
      "name": "pow",
      "outputs": [
        {
          "internalType": "Base.FE",
          "name": "result",
          "type": "uint256"
        }
      ],
      "stateMutability": "pure",
      "type": "function"
    },
    {
      "inputs": [
        {
          "internalType": "Base.FE",
          "name": "self",
          "type": "uint256"
        }
      ],
      "name": "square",
      "outputs": [
        {
          "internalType": "Base.FE",
          "name": "res",
          "type": "uint256"
        }
      ],
      "stateMutability": "pure",
      "type": "function"
    },
    {
      "inputs": [
        {
          "internalType": "Base.FE",
          "name": "self",
          "type": "uint256"
        },
        {
          "internalType": "Base.FE",
          "name": "other",
          "type": "uint256"
        }
      ],
      "name": "sub",
      "outputs": [
        {
          "internalType": "Base.FE",
          "name": "res",
          "type": "uint256"
        }
      ],
      "stateMutability": "pure",
      "type": "function"
    }
  ],
  "bytecode": {
    "object": "0x6080806040523461001a576102be9081610020823930815050f35b600080fdfe6080604090808252600436101561001557600080fd5b6000803560e01c91826325aa322c14610199575081632e4c697f14610175578163771602f71461015157816377d2f2031461010a5781637a142f2e146100f45781637b292909146100c757508063b67d77c51461009f5763c8a4ac9c1461007b57600080fd5b602090600080516020610269833981519152610096366101ba565b90925192098152f35b6020826100ab366101ba565b9190600080516020610269833981519152915192820390088152f35b8260203660031901126100f0575160209060008051602061026983398151915260043580098152f35b5080fd5b8260203660031901126100f05751908152602090f35b8260203660031901126100f05760008051602061026983398151915290600435820391821161013d576020925051908152f35b634e487b7160e01b83526011600452602483fd5b60208360008051602061026983398151915261016c366101ba565b90925192088152f35b82806003193601126100f0576020906101926024356004356101d5565b9051908152f35b816003193601126100f0578060008051602061026983398151915260209252f35b60409060031901126101d0576004359060243590565b600080fd5b90806101e2575050600190565b6001908082036101f157505090565b909291925b8082161561024b5781610207575050565b8391811c805b61021657505050565b600080516020610269833981519152838194099283838084161461023f575b5050811c8061020d565b90919509933880610235565b909280600080516020610269833981519152910992811c906101f656fe30644e72e131a029b85045b68181585d97816a916871ca8d3c208c16d87cfd47a26469706673582212209c9801be5d048e0a5a39068d5c31eedd69dcb801dbf18fde90a492be92a4a8b164736f6c63430008150033",
    "linkReferences": {}
  },
  "methodIdentifiers": {
    "MODULUS()": "25aa322c",
    "add(uint256,uint256)": "771602f7",
    "inv(uint256)": "7a142f2e",
    "mul(uint256,uint256)": "c8a4ac9c",
    "neg(uint256)": "77d2f203",
    "pow(uint256,uint256)": "2e4c697f",
    "square(uint256)": "7b292909",
    "sub(uint256,uint256)": "b67d77c5"
  },
  "id": 4
}