{
  "_format": "hh-sol-artifact-1",
  "contractName": "Utils",
  "sourceName": "lib/Utils.sol",
  "abi": [
    {
      "inputs": [],
      "name": "InvalidStringToUint",
      "type": "error"
    },
    {
      "inputs": [
        {
          "internalType": "bytes[]",
          "name": "b",
          "type": "bytes[]"
        }
      ],
      "name": "flatten_padded_be_bytes_array",
      "outputs": [
        {
          "internalType": "bytes",
          "name": "",
          "type": "bytes"
        }
      ],
      "stateMutability": "pure",
      "type": "function"
    },
    {
      "inputs": [
        {
          "internalType": "bytes[]",
          "name": "b",
          "type": "bytes[]"
        }
      ],
      "name": "flatten_padded_le_bytes_array",
      "outputs": [
        {
          "internalType": "bytes",
          "name": "",
          "type": "bytes"
        }
      ],
      "stateMutability": "pure",
      "type": "function"
    },
    {
      "inputs": [
        {
          "internalType": "uint256",
          "name": "a",
          "type": "uint256"
        },
        {
          "internalType": "uint256",
          "name": "b",
          "type": "uint256"
        }
      ],
      "name": "max",
      "outputs": [
        {
          "internalType": "uint256",
          "name": "",
          "type": "uint256"
        }
      ],
      "stateMutability": "pure",
      "type": "function"
    },
    {
      "inputs": [
        {
          "internalType": "uint256",
          "name": "a",
          "type": "uint256"
        },
        {
          "internalType": "uint256",
          "name": "b",
          "type": "uint256"
        }
      ],
      "name": "min",
      "outputs": [
        {
          "internalType": "uint256",
          "name": "",
          "type": "uint256"
        }
      ],
      "stateMutability": "pure",
      "type": "function"
    },
    {
      "inputs": [
        {
          "internalType": "bytes[]",
          "name": "b",
          "type": "bytes[]"
        }
      ],
      "name": "padded_be_bytes_array_to_uint256",
      "outputs": [
        {
          "internalType": "uint256",
          "name": "integer",
          "type": "uint256"
        }
      ],
      "stateMutability": "pure",
      "type": "function"
    },
    {
      "inputs": [
        {
          "internalType": "bytes[]",
          "name": "b",
          "type": "bytes[]"
        }
      ],
      "name": "padded_le_bytes_array_to_uint256",
      "outputs": [
        {
          "internalType": "uint256",
          "name": "integer",
          "type": "uint256"
        }
      ],
      "stateMutability": "pure",
      "type": "function"
    },
    {
      "inputs": [
        {
          "internalType": "string",
          "name": "self",
          "type": "string"
        },
        {
          "internalType": "string",
          "name": "other",
          "type": "string"
        }
      ],
      "name": "str_cmp",
      "outputs": [
        {
          "internalType": "bool",
          "name": "",
          "type": "bool"
        }
      ],
      "stateMutability": "pure",
      "type": "function"
    },
    {
      "inputs": [
        {
          "internalType": "string",
          "name": "s",
          "type": "string"
        }
      ],
      "name": "str_to_uint",
      "outputs": [
        {
          "internalType": "uint256",
          "name": "res",
          "type": "uint256"
        }
      ],
      "stateMutability": "pure",
      "type": "function"
    }
  ],
  "bytecode": "0x60806040523461001e576040516108ae6100248239308150506108ae90f35b600080fdfe6080604052600436101561001257600080fd5b60003560e01c80633f5c15d91461009257806344b7f83c1461008d5780636d5433e6146100885780637ae2b5c7146100835780638695aa971461007e57806388ebcc2c14610079578063cbf5a4d7146100745763ebf631400361015e576103e0565b6103a4565b61038e565b610378565b610361565b61033a565b6102fa565b61028b565b634e487b7160e01b600052604160045260246000fd5b90601f01601f1916810190811067ffffffffffffffff8211176100cf57604052565b610097565b906100e86100e160405190565b92836100ad565b565b67ffffffffffffffff81116100cf5760208091020190565b67ffffffffffffffff81116100cf57602090601f01601f19160190565b0190565b90826000939282370152565b9092919261014461013f82610102565b6100d4565b9381855260208501908284011161015e576100e892610123565b600080fd5b9080601f8301121561015e5781602061017e9335910161012f565b90565b92919061019061013f826100ea565b938185526020808601920281019183831161015e5781905b8382106101b6575050505050565b813567ffffffffffffffff811161015e576020916101d78784938701610163565b8152019101906101a8565b9080601f8301121561015e5781602061017e93359101610181565b9060208282031261015e57813567ffffffffffffffff811161015e5761017e92016101e2565b60005b8381106102365750506000910152565b8181015183820152602001610226565b61026761027060209361011f9361025b815190565b80835293849260200190565b95869101610223565b601f01601f191690565b602080825261017e92910190610246565b6102ad6102a161029c3660046101fd565b610667565b6040519182918261027a565b0390f35b91909160408184031261015e57803567ffffffffffffffff811161015e57836102db918301610163565b92602082013567ffffffffffffffff811161015e5761017e9201610163565b6102ad61031161030b3660046102b1565b90610839565b60405191829182901515815260200190565b919060408382031261015e57508135916020013590565b6102ad61035161034b366004610323565b90610409565b6040519182918290815260200190565b6102ad610351610372366004610323565b906103f6565b6102ad6103516103893660046101fd565b6107dd565b6102ad6102a161039f3660046101fd565b6106e0565b6102ad6103516103b53660046101fd565b610821565b9060208282031261015e57813567ffffffffffffffff811161015e5761017e9201610163565b6102ad6103516103f13660046103ba565b61050c565b9080825b1015610404575090565b919050565b81816103fa565b61017e61017e61017e9290565b634e487b7160e01b600052601160045260246000fd5b60001981146104425760010190565b61041d565b634e487b7160e01b600052603260045260246000fd5b90610466825190565b811015610474570160200190565b610447565b61048c61048661017e9290565b60f81b90565b6001600160f81b03191690565b8181029291811591840414171561044257565b6104bc61017e61017e9260ff1690565b60ff1690565b61017e9060f81c6104ac565b6104bc61017e61017e9290565b60ff908116911690039060ff821161044257565b61017e61017e61017e9260ff1690565b9190820180921161044257565b610515565b5090565b90600061052181610410565b9050805b61053061017e855190565b82101561060e57610552610544838661045d565b516001600160f81b03191690565b9060309161057061056284610479565b916001600160f81b03191690565b1015806105ec575b156105da576105d4916105c86105c361059e6105ce94610598600a610410565b90610499565b926105bd6105b76105b26105448a8d61045d565b6104c2565b916104ce565b906104db565b6104ef565b906104ff565b91610433565b90610525565b60405163332e591b60e11b8152600490fd5b506105fa610544848761045d565b6106076105626039610479565b1115610578565b925050565b9061062061013f83610102565b918252565b369037565b906100e861064061063a84610613565b93610102565b601f190160208401610625565b90610656825190565b811015610474576020809102010190565b8051906106738261062a565b9060009361068085610410565b845b8110156106ca576106c3610682916106b16105446106a0838861064d565b516106ab601f610410565b9061045d565b881a6106bd828861045d565b53610433565b9050610680565b50935050905090565b9190820391821161044257565b9081516106ec8161062a565b906000936106f985610410565b828110156107445761073f906107156105446106a0838661064d565b6106bd61073561072584886106d3565b61072f6001610410565b906106d3565b91891a918761045d565b6106f9565b509193505050565b1561075357565b60405162461bcd60e51b815260206004820152601960248201527f6e6f7420656e6f75676820627974657320696e206172726179000000000000006044820152606490fd5b6107b16107ad6107a6835190565b9260200190565b5190565b90602081106107be575090565b6107d090600019906020036008021b90565b1690565b61017e90610410565b61081c6107f561017e926107ef600090565b50610667565b610817610800825190565b61081161080d6020610410565b9190565b1461074c565b610798565b6107d4565b61081c6107f561017e92610833600090565b506106e0565b61080d61086561084e61087493610511600090565b610860610859825190565b9160200190565b209390565b610870610859825190565b2090565b149056fea2646970667358221220617ff7ac546f4b6c0c64fab62d05875aa448a9960d5321d1c5d61b9675044e4664736f6c63430008150033",
  "linkReferences": {},
  "deployedLinkReferences": {}
}